:1000000000800020BD010000ED5D0000A55D000046
:10001000A55D0000A55D0000A55D0000A55D0000D8
:10002000A55D0000A55D0000A55D0000ED5D000080
:10003000ED5D0000A55D0000C9790000CD7A0000EB
:10004000ED5D0000ED5D0000ED5D0000ED5D000088
:10005000ED5D0000ED5D0000ED5D0000ED5D000078
:10006000ED5D0000ED5D0000ED5D0000ED5D000068
:10007000ED5D0000ED5D0000ED5D0000ED5D000058
:10008000ED5D0000ED5D0000ED5D0000ED5D000048
:10009000ED5D0000ED5D0000ED5D0000ED5D000038
:1000A000011600000D160000ED5D0000ED5D000082
:1000B000ED5D0000ED5D0000ED5D0000ED5D000018
:1000C000ED5D0000ED5D0000ED5D0000ED5D000008
:1000D000ED5D0000ED5D0000ED5D0000ED5D0000F8
:1000E000ED5D0000ED5D0000ED5D0000ED5D0000E8
:1000F000ED5D000075850000ED5D0000A18600004B
:10010000ED5D0000CD870000ED5D0000ED5D0000BD
:10011000ED5D0000ED5D0000ED5D0000ED5D0000B7
:10012000ED5D0000ED5D0000ED5D0000ED5D0000A7
:10013000ED5D0000ED5D0000ED5D0000ED5D000097
:10014000ED5D0000ED5D0000ED5D0000ED5D000087
:10015000ED5D0000ED5D0000ED5D0000ED5D000077
:10016000ED5D0000FD650000ED5D0000ED5D00004F
:10017000ED5D0000ED5D0000ED5D0000ED5D000057
:10018000ED5D0000ED5D0000ED5D0000ED5D000047
:10019000ED5D0000ED5D0000ED5D0000ED5D000037
:1001A000ED5D0000ED5D0000ED5D0000ED5D000027
:1001B000ED5D0000ED5D000085770000564B4CF2D0
:1001C000205210B51A804DF628121A8000BF00BFC9
:1001D00005F010FE514B4FF010621A60504A9A60C1
:1001E000504ADA60504A136813F4807304D14F49BF
:1001F0000B604FF4A85313604D4B1A78110703D5C9
:100200001A7842F008021A704A4B4B492A221A7097
:100210004A4A4B4B8B4204D252F8040F43F8040B6A
:10022000F8E7484B484900228B4202D243F8042B9E
:10023000FAE74649464A002352F8230041F82300D2
:1002400001336F2BF8D1434B434A802103F8011B44
:100250009342FBD1414B3D4A1A60414B8A221A70AE
:10026000A3F5805324225A70A0221A709A7992071B
:10027000FCD59A79D406FCD43A4A937903F00C035E
:10028000082B384BF9D105221A7143225A719A79F9
:100290009006FCD5334A9179324B4906FBD5324A58
:1002A0004FF0817111600521516020221A709A79F6
:1002B00002F00C020C2AFAD12C4B2D4A1A602D4B5D
:1002C0002D4A1A6000225A60072243F8042C2B4A58
:1002D000C3F80C2D62B606F047F8144B1B68DA071A
:1002E00005D5274805F0C6FE264B274A1A60274B3E
:1002F0001B785B0609D5234C234B22689A4204D114
:100300001F4805F0B7FE0023236009F0CFFA05F07F
:1003100077FD07F0D3FEFEE70E2005403080044055
:10032000823F04000100002B10D0034014D0034092
:1003300002D0074000E00740F4A6FF1FE0CE000017
:10034000209BFF1FF4A6FF1F1CB0FF1F0096FF1F7E
:100350000000000000E400E05FE400E008ED00E0E1
:1003600000500640004006404480044004800440A1
:10037000C010050014E000E03F190100000020203B
:100380005EAE585F1CE00340A5C3945A00F00740DE
:10039000FFFFFFFFFFFFFFFFFFFFFFFFFFFFFFFF6D
:1003A000FFFFFFFFFFFFFFFFFFFFFFFFFFFFFFFF5D
:1003B000FFFFFFFFFFFFFFFFFFFFFFFFFFFFFFFF4D
:1003C000FFFFFFFFFFFFFFFFFFFFFFFFFFFFFFFF3D
:1003D000FFFFFFFFFFFFFFFFFFFFFFFFFFFFFFFF2D
:1003E000FFFFFFFFFFFFFFFFFFFFFFFFFFFFFFFF1D
:1003F000FFFFFFFFFFFFFFFFFFFFFFFFFFFFFFFF0D
:10040000FFFFFFFFFFFFFFFFFFFFFFFFDEF9FFFF23
:1004100010B5054C237833B9044B13B10448AFF33E
:1004200000800123237010BDF4A6FF1F0000000010
:10043000E4CE0000084B10B51BB108490848AFF3E3
:1004400000800848036803B910BD074B002BFBD0A0
:10045000BDE81040184700BF00000000F8A6FF1FCD
:10046000E4CE0000F4A6FF1F0000000010B5044613
:10047000243007F0E3FC04F1140007F0DFFC201D3A
:1004800007F0DCFC204610BD014800F0E9B800BFD1
:1004900010A7FF1F00B589B01249684607F00EFD8E
:1004A000114904A807F00AFD04AB6A4600210F4871
:1004B00000F066F804A807F0C1FC684607F0BEFC2F
:1004C0000A4800F0C9F8212807DDFF200322084967
:1004D00005F010FD09B05DF804FB044800F0BCF81D
:1004E000C0B2F3E708C4000010C4000010A7FF1F4B
:1004F00089040000014800F019B900BF10A7FF1FD0
:1005000010B5064C05F0C4FB204600F00DF820465F
:10051000034A0449BDE8104009F0A6B910A7FF1F1F
:10052000FC9BFF1F6D04000038B5144D00230446EA
:10053000294600F8043B07F0C1FC294604F11400E9
:1005400007F0BCFC294604F1240007F0B7FC04F1D5
:10055000340001F04DFA04F59E7003F03DFE04F501
:10056000D27004F087FD04F5297005F057F904F501
:100570002E7001F051F8204638BD00BF10C60000B3
:100580002DE9F04105468CB005F8041B04461F46D2
:10059000114600F11408284607F0F0FC04F52E7609
:1005A0003946404607F0EAFC30462178274F01F0F3
:1005B00037F86846264907F081FC294604A807F069
:1005C00091FC394608A807F079FC08AB04AA6946F3
:1005D000304601F067F808A807F030FC04A807F0DF
:1005E0002DFC684607F02AFC68461A4907F066FCAD
:1005F000414604A807F076FC394608A807F05EFCDF
:1006000008AB04AA6946304601F04CF808A807F088
:1006100015FC04A807F012FC684607F00FFC204602
:1006200010F8341B01F0F6FA217804F59E7003F0FF
:1006300011FE217804F5D27004F046FE217804F50D
:10064000297005F0F7F80CB0BDE8F08110C6000085
:100650001CC4000024C4000000F59E7003F010BF0D
:1006600090F83C31013380F83C3170470B4610B5AF
:1006700012490446184607F0F1FC00B910BD0220EB
:1006800006F0BEFE07210E4806F036FE211D0D487D
:1006900007F03AFA0B4807F05DFA0F210A4806F016
:1006A0002BFE04F11401074807F02EFA054807F065
:1006B00051FA0320BDE8104006F0A2BE34C4000089
:1006C00038C40000049EFF1F40C4000030B585B050
:1006D000044606F0E7FD00280ADD06F0A7FD022823
:1006E0001BD0032806D0C1B204F1240007F090FC0F
:1006F00005B030BD04F124052946684607F0F2FB39
:1007000069462046FFF7B2FF684607F097FB284688
:10071000054907F03BFC05B030BD04F12400024957
:1007200007F034FCE4E700BF10C600002DE9F047F5
:1007300084B0044600F2BE2E00F52F7500F2BB26F1
:1007400000F2BA2700F2BF2800F5307900F2BD2090
:10075000CDF808E031463A462B460090CDF80480AB
:1007600004F59E70CDF80C9004F04CF804F5317A45
:100770002B463A46314604F134008DE8000301F07F
:1007800063FB2946524604F5297005F035F92B46DE
:1007900004F5D2708DE800073A46314604F060FF58
:1007A0000023204684F8BB3284F8BA3284F8BD3284
:1007B00084F8BF3204B0BDE8F047FFF787BF00BF41
:1007C00005F066BA10B4047F4160022CC26002D00A
:1007D00010BC07F097B8836810BC18472DE9F041AA
:1007E0000468E56815F0807F794D256052D1DF07F8
:1007F00040F1B380002900F0E3800D78012B18BF91
:1008000045F000456563013190F8248003F1FF3C19
:1008100048EA0828BCF1000F00F0A88021B14D780B
:1008200011F8028B45EA082845682E7ABCF1020FC0
:1008300006F1FF364FEA06360CBF48F0805548F007
:100840001045B6B26563ACF1020C08E00AB1147051
:100850000132013B05F47045B54216D90468E56ADA
:1008600015F0F00FF6D0A46B13F0010F17464FEA06
:10087000242EEBD11AB107F802EB54703A4605F476
:100880007045B542A3F10203E8D8BCF1000F6DD06A
:100890000468C3E7DD074CD5002900F089800D7896
:1008A000012B18BF45F000456563013103F1FF3EA0
:1008B00090F824C0BEF1000F41D029B191F801C0D9
:1008C0000D78023145EA0C2C45682E7ABEF1020FF4
:1008D00006F1FF364FEA06360CBF4CF080554CF05F
:1008E0001045B6B26563AEF1020E08E00AB11470AD
:1008F0000132013B05F47045B54215D90468E56A3B
:1009000015F0F00FF6D013F0010F1746A46BEDD1E0
:1009100022B107F8024B241254703A4605F4704590
:10092000B542A3F10203E9D8BEF1000F07D0046875
:10093000C3E79E4690F824C0BEF1000FBDD11BB3A3
:100940000468E16A11F0F00FFBD0A16BDC071DD544
:100950000AB111700132013BF1E790F824809C4606
:1009600048EA0828BCF1000F7FF458AF63B104686F
:10097000E16A11F0F00FFBD0DE07A16B0FD50AB1D1
:1009800011700132013BF1E7BDE8F0812AB1144654
:100990000D1204F8021B55702246023BCFE72AB124
:1009A00014460D1204F8025B51702246023BDDE74B
:1009B00090F82450012B18BF45F00045656375E79A
:1009C00090F82450012B18BF45F0004565631BE7E4
:1009D00000041F80F0B4464B464A186BDC6A01796C
:1009E0001170454922790A709A6A00790870002AC4
:1009F00046D05968C9688A423ED82168CC8B240405
:100A000002F1FF3065D4C0F30E00C883C88B80B2FA
:100A1000C882196B0968C88B000452D4C2F30E0057
:100A2000C883C88B002480B212F1FF32C88218BF7D
:100A300001229C62D96A2E4809680D6800F12404DD
:100A4000A54236D00068C46814F0804F0C680D6869
:100A500015BF248824780235013544F000440D6028
:100A60004463196B254B09791970214912B1CA6A7F
:100A700012791A70F0BC7047521A9A620122D9E7B3
:100A8000586B196805681E4C0A63CC62CC682D68E7
:100A90001C4E24F080440327B542CC6083F82570B7
:100AA0001FD1037F4260022BC2601ED0F0BC06F053
:100AB00029BF016890F82400CC6840F000404863EA
:100AC000CFE7CC8BC2F3080004F47E442043C883F4
:100AD000A7E7CC8BC0F3080004F47E442043C8830E
:100AE00094E72B461146F0BC18478368F0BC1847C2
:100AF000009CFF1F1F8000401C8000401B800040A6
:100B000000000FFFC507000090E80C00F0B41C685F
:100B100059682568164F174E29432160164D17490D
:100B20001760D66015611160417A154A5C180A3168
:100B300094F8244053F8215002EBC40149680D6039
:100B4000017A5C1803EB8101247ECD6902EBC401BC
:100B500049680D60817A581803EB810390F83000E2
:100B6000596B02EBC002F0BC53681960704700BFBC
:100B700001401F00011000380110007800001F80A4
:100B800098CB00005E2911D830B44A09C57A0123F8
:100B900003FA02F42C4300EB8202C472D06801F025
:100BA0001F0103FA01F10143D16030BC704700BF5F
:100BB0005E2913D830B44D0900EB850401F01F0104
:100BC000E368012202FA01F123EA0101E16021B99F
:100BD000C37AAA4023EA0202C27230BC704700BF47
:100BE0004268036805CA10B4046822430260DA68E8
:100BF00081B942F08072D9688A4209D019684804E4
:100C00000BD40948186042F08040DA60186119601E
:100C100010BC704722F08072EDE742F08041DA604C
:100C200010BC1961704700BF01401F0043680CCB26
:100C300011680B43136070474268036805CA10B41B
:100C4000046822430260D868840100F0E06205D5A0
:100C5000080900F4706021F470410143D868114321
:100C6000814209D01A68500408D40748186041F03E
:100C70008040D96018611A6010BC704741F0804212
:100C8000D96010BC1A61704701401F00204A4368B8
:100C90009A42F0B40FD0427A1A4492F8242091423A
:100CA00007D093F824408C4215D093F825408C420D
:100CB0002AD0F0BC70470B2907D00729EBD1154C7F
:100CC000227842F001022270E5E7124C227822F0ED
:100CD00001022270DFE7002421461E685D68366845
:100CE0002E420FD00C4D05EBC202002756685A1851
:100CF000376092F8242005EBC2050A316A6853F880
:100D0000213013604472D4E701242146E5E700BF97
:100D100050C4000040AEFF1F98CB00001E4A43683D
:100D20009A42F0B40CD0027A1A44127E914205D055
:100D30001C7E8C4214D05C7E8C422AD0F0BC704762
:100D40000C2907D00829EED1144C227842F0020277
:100D50002270E8E7114C227822F002022270E2E7CA
:100D6000002421461E685D6836682E420FD00C4D67
:100D700005EBC202002756685A183760127E06310A
:100D800005EBC20503EB81036A685B6813600472BC
:100D9000D4E701242146E5E750C4000040AEFF1F20
:100DA00098CB0000204A43689A42F0B40FD0827A70
:100DB0001A4492F83020914207D093F830408C4288
:100DC00015D093F831408C422BD0F0BC70470D29E0
:100DD00007D00E29EBD1154C227842F00402227084
:100DE000E5E7124C227822F004022270DFE70024AB
:100DF00021461E685D6836682E4210D00C4D05EB0A
:100E0000C202002756685A18376092F830200C3119
:100E100005EBC20503EB81036A685B6813608472AB
:100E2000D3E701242146E4E750C4000040AEFF1F91
:100E300098CB00000BB1FFF7D1BC70470020704782
:100E400090F8392090F83800101A704790F8383030
:100E500090F839209A4205D95A1C034480F838206A
:100E6000187E70474FF0FF30704700BF90F8383061
:100E700090F839209A4286BF1B18187E4FF0FF3039
:100E8000704700BF704700BF38B50546B0F85E0038
:100E900090B195F85D301446C3F1210294420CD80C
:100EA00005F13B001844224604F0CAFD95F85D3078
:100EB000234485F85D30204638BD01201446287152
:100EC000EEE700BFB0F85E306BB190F85D30202BDC
:100ED00007D8C218013380F85D30012082F83B103A
:100EE0007047012303710020704700BF002342694F
:100EF00080F8383080F8393080F85C3080F85D3028
:100F000080F85E3080F85F3006CA30B40D6804693E
:100F100043662A4383660A60A370426990F8613091
:100F20001649146813441D7A5B7B01EBC5051B024F
:100F30006D6803F4E06343F064032B6090F8623063
:100F400013449D7CDB7D01EBC5011B02496803F462
:100F5000E06343F064030B6021685368194205D0D5
:100F6000036928225A70036903229A7103692022B7
:100F70005A71036980229A7030BC704798CB000088
:100F800070B490F8613045692B441E7A8E420AD0C5
:100F9000EC1D002314F8012FFF2A04D08A4204D04C
:100FA0000133052BF6D170BC704795E8060009683F
:100FB000114211D00A4901EBC6061D447268002493
:100FC00014602C7A6A7B01EBC401120202F4E06225
:100FD000496842F064020A6080F86130E3E700BFCC
:100FE00098CB000070B490F8623045692B449E7C29
:100FF0008E420BD005F11104002314F8012FFF2AB3
:1010000004D08A4204D00133052BF6D170BC70475E
:1010100095E806000968114211D00A4901EBC6069D
:101020001D44726800241460AC7CEA7D01EBC401AD
:10103000120202F4E062496842F064020A6080F839
:101040006230E3E798CB000010B50269D378DBB2D9
:10105000D90604463DD510215806D17038D503F085
:10106000040303F0FF02002B51D03D49626E0023C0
:101070000B7084F85D30002A5BD0904794F85D30A7
:10108000002B56D02369D0229A70236994F83B2014
:101090001A712369012284F85C200222DA7010BDE3
:1010A000304B84F860009C424AD02F4B9C4252D077
:1010B00094F8391013791F29DBB207D82848007833
:1010C00020B16018013184F8391003760223D370FF
:1010D00010BD5906C3D4917801F0100101F0FF0052
:1010E0000029DDD013F001031ED194F85C1094F8B0
:1010F0005D00884281BF4B1C091984F85C3091F86F
:101100003B3013712369D0229A702269DEE723698C
:1011100084F83920C0229A702369114A1979012173
:1011200011700222DA7010BDC02393702269137906
:10113000CCE70122002384F85D2084F83B30A1E74E
:10114000626994F86130094913440322187A04F063
:10115000D1FE2269ACE7626994F861300449F3E793
:10116000DCA9FF1F389CFF1FA49CFF1FD1110000AA
:10117000DD1100000369DB7803F0200373B190F800
:1011800060300133DBB2012B80F860301AD942693C
:1011900090F861301344187A04F028BF70B54269A2
:1011A00003F0FF0590F8613013440446187A04F008
:1011B0001DFFA36E5BB184F8385094F83900BDE888
:1011C0007040184790F85F30002BE0D0704770BD3A
:1011D0000148FFF7CFBF00BF389CFF1F0148FFF752
:1011E000C9BF00BFA49CFF1F2DE9F047364FDFF8B1
:1011F000DC903B68026982B006460093DDF800800F
:1012000000217825D3789B065AD53B680193019B32
:10121000C8EB03030F2BF5D949B1102BF2D00020F6
:101220009070336980229A7002B0BDE8F0877269CD
:1012300096F8613013440521187A05F03FF8726979
:1012400096F861301344012193F812A0504605F03E
:1012500035F809240021504605F01CF82B46013BC7
:10126000FDD10121504605F015F82B46013BFDD17B
:10127000013CEFD1706996F861100144F0220C7ABC
:101280004B7B09EBC4011B02496803F4E06343F0A4
:1012900064030B6096F862300344997CDB7D09EBB4
:1012A000C1011B02496803F4E06343F064030B606F
:1012B000013AFDD13269D3789B064FF00101A4D4E5
:1012C000012002B0BDE8F087ECACFF1F98CB000016
:1012D000F0B503691222DA700269937803F02003F3
:1012E00085B004460D46002B5ED0B42393703C4974
:1012F00022690B680093009E05E00B680193019B37
:101300009B1B042B42D8D37803F0200303F0FF008B
:10131000002BF2D094F85D30002B31D04FF0000E4E
:101320004FF0020C04EB0E0393F83B3013710B6883
:101330000393039F206907E09B060DD50B6802937A
:10134000029BDB1B052B28D8C378DBB203F002021B
:1013500002F0FF06002AEFD080F803C02669F37878
:10136000DBB2DF0632462DD49F062BD5DB0731D406
:101370000EF1010E94F85D305FFA8EFE7345D1D800
:1013800000201DBB002384F85E3004E090702369C8
:1013900080229A70042005B0F0BD867023698022F7
:1013A00004209A7005B0F0BD03F0FF06FFF71CFFA4
:1013B00010B9042005B0F0BD236984F85F60B02245
:1013C0009A7094E78023B3700420DAE726698023BB
:1013D000B370D7E7BEF1000F0CBF02200320F6E781
:1013E000ECACFF1F2DE9F04106690025122780F8BB
:1013F000385080F83950F770D0F810C09CF802E0EF
:101400000EF0200E88B00446884615461E46BEF1F2
:10141000000F49D0B4238CF80230784B21691A6848
:101420000092DDF800E006E01A6801920198CEEB28
:101430000000042830D8C87800F0200000F0FF0732
:101440000028F1D04FEA480242F00102D2B20A71FC
:101450001A680292DDF808E0206906E01A68039233
:101460000399CEEB010105292AD8C17801F00201C8
:1014700001F0FF070029F1D04FF0020C80F803C003
:101480002269D17811F0110722D12DBB002E0CBF9B
:10149000A0238023937003E08F70236980229A70C9
:1014A000384608B0BDE8F0810EF0FF07FFF79CFE5C
:1014B0000028F5D0236984F85F70B0229A70ACE7F9
:1014C00087702369802238469A7008B0BDE8F081A1
:1014D000802393700027E3E7012D75D0A021917040
:1014E00021690A79BE4667464FF0A80C1A68049233
:1014F000049805E01A680592059A121A052A4AD836
:10150000CA7802F0020202F0FF08002AF2D0CF707F
:101510002169CA78D2B212F0100F08465AD1920649
:1015200058D5013DEDB2012D49D0BEF11F0F3BD979
:101530000A79012DDAD11A680692069D05E01A682B
:101540000792079A521B052A46D8C27802F0020277
:1015500002F0FF01002AF2D00223C3702269D3787F
:10156000DBB2D9063AD49B0634D5B023BEF11F0FA7
:1015700093703FD8226904EB0E0312791A760EF1AC
:10158000010E5FFA8EFE16B1236980229A7084F8EC
:1015900039E0774684E781F80280236980229A70D7
:1015A000774684F839E07BE704EB0E0291F804807B
:1015B00082F818800EF1010E5FFA8EFEB9E781F80D
:1015C00002C021690846B0E7A82191702069BE4693
:1015D0000279B0E7774663E78170DEE71021782370
:1015E000D170013BFDD12269937803F0F703774670
:1015F000937055E723691B79C5E700BFECACFF1F6B
:101600000148FFF721BD00BF389CFF1F0148FFF7CD
:101610001BBD00BFA49CFF1F00220270704700BFCB
:10162000017081B130B4084A0849094D094C13785A
:10163000002BFCD00B78DB07F9D52B6820681B1A30
:101640000E2BF4D930BC7047D0ADFF1FE8ADFF1FA3
:10165000ECACFF1F14B0FF1F037803B970470148BB
:1016600006F052BA049EFF1F38B5037803B938BD9F
:101670000D4610460949144606F0F0FC40B12946D3
:10168000074806F041FA0648BDE8384006F062BA5D
:101690002146034806F038FAF1E700BF10C6000003
:1016A000049EFF1F007800B9704770B518460E46BB
:1016B0000D491C46154606F0D1FC80B131460B4859
:1016C00006F022FA02210A4805F016FE29460748CC
:1016D00006F01AFA0548BDE8704006F03BBA21460C
:1016E000024806F011FAE9E710C60000049EFF1F49
:1016F000ECCA000038B5037803B938BD0C46104673
:101700003849154606F0AAFC60B10821364805F0B4
:10171000F3FD092CF1D8DFE804F0131C252E374027
:1017200049525B0A2946314806F0EEF9EDE70D21F2
:101730002F4805F0E1FD2D48BDE8384006F00ABA13
:1017400008212C4805F0D8FD2848BDE8384006F0AF
:1017500001BA0521284805F0CFFD2448BDE83840EE
:1017600006F0F8B90B21254805F0C6FD1F48BDE875
:10177000384006F0EFB90621214805F0BDFD1B48B1
:10178000BDE8384006F0E6B909211E4805F0B4FD71
:101790001648BDE8384006F0DDB90E211A4805F0BC
:1017A000ABFD1248BDE8384006F0D4B91A211748FD
:1017B00005F0A2FD0D48BDE8384006F0CBB91F2169
:1017C000134805F099FD0948BDE8384006F0C2B954
:1017D0001821104805F090FD0448BDE8384006F097
:1017E000B9B900BF10C600002CC50000049EFF1F41
:1017F000D4C5000040C5000038C500004CC500003D
:1018000068C5000070C5000058C50000B8C50000DC
:1018100098C500007CC50000007800B9704770B51D
:10182000184682B00E4611491C46154606F016FCB5
:10183000B8B131460E4806F067F902210D4805F0AF
:101840005BFD284607F0DAF9042402460B460094B3
:10185000074806F0D9F9064802B0BDE8704006F026
:1018600079B92146024806F04FF9E2E710C60000B8
:10187000049EFF1FECCA0000007800B9704770B5E5
:1018800018460E460D491C46154606F0E7FB80B18A
:1018900031460B4806F038F902210A4805F02CFDC4
:1018A0002946074806F0A6F90548BDE8704006F04D
:1018B00051B92146024806F027F9E9E710C60000B1
:1018C000049EFF1FECCA000010B501210446102041
:1018D00004F0E0FC322004F0F7FC4FF48033C4F84D
:1018E000A8307D2004F0F0FC0123002184F80531AC
:1018F000C4F8A8101020BDE8104004F0CBBC00BF15
:1019000010B5002388B080F8063104460A496846BD
:1019100006F0D4FA04A8094906F0D0FA04AA6946E8
:1019200004F1F100FFF7A0FE04A806F087FA68466C
:1019300006F084FA08B010BD40C5000010C60000D3
:1019400030B590F854308DB0044643BB0A210120D5
:1019500006F06AFA1449054604A806F0AFFA0A220E
:10196000294608A806F0DCFA08A904A806F060FBDE
:101970000E4906F065FB0146684606F0B3FA08A872
:1019800006F05CFA04A806F059FA009904F1580030
:1019900000F0B2FD684606F051FA0DB030BD2430BB
:1019A00000F08EFDD2E700BFF0C5000038C6000091
:1019B00010B5012388B080F8063104460A4968460C
:1019C00006F07CFA04A8094906F078FA04AA6946E8
:1019D00004F1F100FFF748FE04A806F02FFA68466C
:1019E00006F02CFA08B010BD38C5000010C6000083
:1019F0002DE9F041814D824E2A680660002304469D
:101A0000437203610372C36011460AB9D9E01946F3
:101A10004B69002BFBD14C617A4820604FF4804128
:101A20006361A380E380A37284F82D30636384F83C
:101A30002C302363216204F1240000E01A4653692C
:101A4000002BFBD150610027DFF8C481A7632785F5
:101A5000678584F82E70E76327646764A4F848708C
:101A6000C4F8248000F026FD2A6884F86170A76617
:101A700084F860706766A66504F158005F4B0AB988
:101A8000B4E01A465369002BFBD150610027C4F81B
:101A90005880E766A4F85C70A4F85E7084F8627001
:101AA00027676767A767A4F87C7000F003FD042030
:101AB00004F1B40284F895003B4684F89470C4F8AD
:101AC0009870C4F88C603946C4F89C2004F18C00EE
:101AD00001E0D4F89C2042F8231094F895200133BB
:101AE0009A42F6DC2A68454B0AB981E01A465369E6
:101AF000002BFBD1506100214FF48030424FC4F8DD
:101B0000C46004F1DC020126C4F8A400C4F8A800F3
:101B1000C4F8AC00C4F8B0000B46C4F8A010A4F898
:101B20009010A4F8921084F8961084F8CC10C4F8A1
:101B3000D010C4F88C70C4F8D42084F8CD6004F1BF
:101B4000C40001E0D4F8D42042F8231094F8CD204A
:101B500001339A42F6DC2A68284B0AB94AE01A4651
:101B60005369002BFBD150610025284BC4F8C430C9
:101B7000C4F8D850A4F8C850A4F8CA5084F8CE507D
:101B800000F03AFBC4F8E050C4F8E450C4F8E85060
:101B9000C4F8EC5084F8F05004F1F100FFF73CFD7C
:101BA000C4F8F450C4F8F850C4F8FC50A4F800513C
:101BB00084F8045184F8055184F806512046BDE8A4
:101BC000F081104928604FF4804342618280C280D6
:101BD0008272466280F82D20426380F82C200263D6
:101BE0000160036224303CB928602CE718604DE79F
:101BF000186080E71860B7E7224620E7ECADFF1FCA
:101C0000ECC5000084C8000060C800006CC800007B
:101C100078C80000F0B500F1F10589B080F8F01047
:101C200004462846FFF7FCFC0E214648FFF7BAF8A9
:101C30000B214448FFF72AF80C214248FFF76EF8C1
:101C40000121102004F03AFB0021102004F022FBB7
:101C50003D4904A806F032F904A92846FFF7FCFC28
:101C600004A806F0EBF80A2002F074F8002866D009
:101C70003649684606F022F9354904A806F01EF9EF
:101C8000694604AA2846FFF7EFFC04A806F0D6F838
:101C9000684606F0D3F8142006F018FA002504F17F
:101CA0008C07012306464372046047600572C560D5
:101CB000057405F01BFDC4F8E060142006F006FA78
:101CC00004F1240306460360476005724572C5604F
:101CD000057405F00BFDC4F8E460142006F0F6F975
:101CE00004F15802022302600646437247600572FF
:101CF000C560057405F0FAFCC4F8E860142006F02D
:101D0000E5F904F1C40306464360076005724572B5
:101D1000C560057405F0EAFCC4F8EC6010210D48BC
:101D200005F0EEFB0C4AC4F8A8504FF48033C4F819
:101D3000A430C4F8AC302362E26109B0F0BD68465B
:101D4000064997E7009CFF1FF8C500001CC600006D
:101D500010C600000082FF1F887BCD0514C600005E
:101D600090F80631022B10B503D0063B022B00D9A8
:101D700010BD0446002380F805310649243000F0E8
:101D8000BBFB94F80631082B1CBF032384F80631F3
:101D900010BD00BF20C6000090F80631012B00D016
:101DA000704790F80431002BFAD190F88830002B5E
:101DB000F6D130B590F854308DB0044643BB0821BD
:101DC000012006F031F81449054608A806F076F817
:101DD0000A22294604A806F0A3F804A908A806F0D8
:101DE00027F90E4906F02CF90146684606F07AF804
:101DF00004A806F023F808A806F020F8009904F1DA
:101E0000580000F079FB684606F018F80DB030BDB8
:101E1000243000F055FBD2E740C6000038C6000071
:101E200090F80621092A03D90121102004F032BAC2
:101E300040F2C123D34003F0010383F00101002BE2
:101E4000F2D0102004F026BA2DE9F843904612781B
:101E5000089E099D1F461B7880F806310446894676
:101E600052B3012B24D02046FFF7DAFF94F8063155
:101E7000062B48D099F800301BB198F80030002BA1
:101E800049D03378002B3AD12B7843B394F80631FC
:101E9000012B44D0032B26D0082B24D0042B04D1B3
:101EA00094F85430002B43D004233B70BDE8F883F2
:101EB000FFF746FD94F80631012BD4D194F8543045
:101EC00003F0FF02002BCED194F804310BB184F85B
:101ED00004211B4904F1240000F00EFBC3E794F831
:101EE0000631032BD8D194F85420002ADDD12046A6
:101EF000FFF75EFD94F80631042BD1D0D5E72046DC
:101F0000FFF72EFFC0E794F80531002BB2D1204631
:101F1000FFF7DAFCAEE72046FFF73EFFB1E70949DD
:101F200004F1240000F0E8FA042384F80631B7E74E
:101F30002046FFF7E5FC94F806313B70BDE8F883D6
:101F400048C6000030C6000010B5044605F0C0FCCD
:101F5000204610BD024A0349034807F085BC00BF74
:101F6000FC9BFF1F491F0000E0A9FF1F38B5074D6C
:101F7000074C08482A46214607F076FC2A462146A7
:101F80000548BDE8384007F06FBC00BFFC9BFF1F51
:101F9000491F0000E8A9FF1FF0A9FF1F024A0349DB
:101FA000034807F061BC00BFFC9BFF1F491F0000F6
:101FB000F8A9FF1F024A0349034807F055BC00BFB8
:101FC000FC9BFF1F491F000000AAFF1F024A034994
:101FD000034807F049BC00BFFC9BFF1F491F0000DE
:101FE00008AAFF1F024A0349034807F03DBC00BF8F
:101FF000FC9BFF1F491F000010AAFF1F024A034954
:10200000034807F031BC00BFFC9BFF1F491F0000C5
:1020100018AAFF1F024A0349034807F025BC00BF66
:10202000FC9BFF1F491F000020AAFF1F2DE9F8435A
:102030004FF00008064600F1180547464146304675
:10204000002F4FD005F024FBF0B12C68B4F5803F91
:1020500007F1040100F1040E07F5827C27D05EF839
:10206000042B34FB02F334FB12F903F30F0209F3E0
:102070000F03C2EA03430A6893FA12F341F8043BE0
:102080008C45ECD805F0C0FA08F10108B8F1040F4E
:1020900005F10405D2D1002F40D030463946002248
:1020A00005F0DCFA3846BDE8F84305F0ADBA07F1B3
:1020B0000C0100F10C0451F8083C54F8082C93FA78
:1020C00012F341F8083C54F8042C51F8043C93FAFC
:1020D00012F38C4541F8043C04F1080401F10801B5
:1020E000E9D8CFE705F0E0FA07460028CCD0286809
:1020F000B0F5803FC8D0391D07F582740B6830FBFE
:1021000003F230FB13F302F30F0203F30F03C2EAEF
:10211000034341F8043B8C42F0D8B5E7BDE8F883AF
:10212000024A0349034807F09FBB00BFFC9BFF1F07
:10213000491F000028AAFF1F10B5002105F0A8FACA
:1021400070B172B60A4B1A6872B10A490C6844B190
:102150001C60086062B61046BDE8104005F054BA35
:1021600010BD086062B610BD186062B610BD00BF39
:1021700040AAFF1F30AAFF1F38B5184B18491A682C
:10218000184C12681B79184D0B70A242286836BF94
:102190002246A4F5807202F58074C0B1011D31F9A8
:1021A000023B03F500431B1122F8023B9442F6D890
:1021B00005F02AFA0D4B0022196829601A600C4BB1
:1021C0001B781BB10B4B4FF080421A6038BD4FF4A7
:1021D000006322F8023B9442FBD8F0E734AAFF1FC9
:1021E0001F8000404093FF1F40AAFF1F30AAFF1F1F
:1021F0003CAAFF1F08E200E0F8B501214248434E27
:1022000005F002FB424A43491368802043F480539F
:1022100013600024087040F608053480012008345B
:1022200004F052F8A3B2AB421CB2F6D13A4B1B6891
:102230005B0208D5394B1A6848F6A273134048F67A
:10224000A27293424FD03449344A0B68344F354D13
:102250003548364C43F480030B604FF0010E40F2DA
:102260002F3648F6A37140F20113C7F800E02E6044
:10227000116014600360244C2D4A236823491A60BE
:1022800002259D802279196102F1804202F5043213
:10229000284EDE6040F20111D9804FF48070002199
:1022A0000627B026D8829D60D88399829F83996142
:1022B0001170167005F04EFA22791F4B1F4E1870E0
:1022C00053119B0003F160431D4C327003F56143D1
:1022D00002F1100002F01F0701211A4D44F82050AE
:1022E000B9401960F8BD0F4B1A6840F22F339A427B
:1022F000A9D10B4B1B68012BA5D10B4B1A6840F2DF
:1023000001139A429FD1B6E734AAFF1F00C00C40C8
:102310002C80044021C00C403C80044000600340FD
:102320000C6003400460034010600340A28F010072
:102330004092FF1F00FEFFFF3CAAFF1F1B800040D2
:102340000096FF1F79210000024A0349034807F065
:102350008BBA00BFFC9BFF1F491F000034AAFF1F60
:10236000024A0349034807F07FBA00BFFC9BFF1FE6
:10237000491F000044AAFF1F024A0349034807F00F
:1023800073BA00BFFC9BFF1F491F00004CAAFF1F30
:10239000024A0349034807F067BA00BFFC9BFF1FCE
:1023A000491F000054AAFF1F024A0349034807F0CF
:1023B0005BBA00BFFC9BFF1F491F00005CAAFF1F08
:1023C000024A0349034807F04FBA00BFFC9BFF1FB6
:1023D000491F000064AAFF1F024A0349034807F08F
:1023E00043BA00BFFC9BFF1F491F00006CAAFF1FE0
:1023F00090F8303003B9704770B5054605F0B0F875
:102400000646002850D0EB69296A8B4227D901F58E
:102410008072934238D2A8695C1A22460844311D62
:1024200000F0B6FE2B6AEA6A1919630822447F2B72
:102430002962EA6209D806EB4303023306F581718B
:10244000002223F8022F8B42FBD12846314600227E
:1024500005F004F93046BDE8704005F0D5B8134AE0
:1024600013885BB95E211248FEF7A2FB002385F8B2
:1024700030303046BDE8704005F0C6B8013B9BB235
:102480001380002BF2D1EDE7A8694FF48072084465
:10249000311D00F07DFE2A6AEB6A02F5807203F5B9
:1024A00080732A62EB62D0E770BD00BF74AAFF1F81
:1024B000009CFF1F002380F830308362C3627047A6
:1024C00072B690F8303053B1002380F8303062B6E5
:1024D000074A13882BB95E210648FEF769BB62B62E
:1024E0007047013B9BB21380002BF4D0704700BFB4
:1024F00074AAFF1F009CFF1F70B51B4E84B00446DA
:102500000D46FFF7DDFF5E211848FEF73BFB3388E1
:10251000294601336846338001F03AFD6B4607CB0C
:10252000A061A0691B88A384E161226240B10022FE
:10253000E369E2620120A36284F8300004B070BD58
:10254000338833B909485E21FEF732FB002004B01E
:1025500070BD013B9BB23380002BEFD103485E215D
:10256000FEF726FB0020F2E774AAFF1F009CFF1F66
:10257000036A2DE9F04780464BB9D8F81830D8F8EF
:102580001C2003EBC213C8F81830BDE8F08704F034
:10259000E7FF06460028F0D0D8F81890D8F81C704D
:1025A000D8F820C0134D4946841C00F5817E0B0EDF
:1025B0005A1C35F9130035F91220C1F30F2ACAF558
:1025C000803300FB03F30AFB023353FB0CF324F8C4
:1025D000023FA6453944EAD109EBC7174046C8F87F
:1025E00018703146002205F039F83046BDE8F04752
:1025F00005F00AB854C60000704700BF064B074AF2
:10260000DA620221002259609A7083F8242083F84C
:10261000302083F83220704778AAFF1F90C800004E
:1026200010B50121007803F035FE0E4A137893B1FE
:102630000D49CB7A00241846147063B1DC0703D52A
:102640000A4A8869106018469A0705D4430702D5DC
:10265000074B0A6A1A6010BD064BCA69C87A1A602D
:10266000F4E700BFD0AAFF1F009CFF1F00E100E0BD
:1026700008E100E004E100E01E4B1A781AB100788E
:10268000002103F007BE70B41B4A1C49D47A0968C4
:1026900001251D70ECB172B6D37ADE071C4606D553
:1026A000174DD4682E68344094612C601C469D07F9
:1026B00006D5144D13692E68D47A3340D3612B604C
:1026C000630705D5104C536925682B4013622360BE
:1026D00062B61368DA688A4207D00C4C1C600C4A58
:1026E000D96041F080441C611A600078002170BC00
:1026F00003F0D0BDD0AAFF1F009CFF1FCCAAFF1F74
:1027000080E100E084E100E088E100E001403F007A
:1027100000003F80F0B41248124A036882B01646A7
:102720000093009F4FF00045FF24136843F480633B
:102730001360D5625463D36A002BFCDAB36BDBB24F
:10274000FF2B09D003680193019BDB1B8B42ECD369
:10275000002002B0F0BC7047012002B0F0BC70470E
:10276000ECACFF1F00C00240F8B50D464FF4967167
:1027700016460446FFF7CEFF284B1A684FF000407C
:1027800042F4806245F040011A60D8621A465963EB
:10279000D36A002BFCDA214918204FF000470A6861
:1027A00026FA00F342F48062DBB20A60CF624B6328
:1027B000CB6A002BFCDA083810F1080FEFD155B3C3
:1027C000082D0CBF8721FF21144B1A684FF00040E1
:1027D00042F480621A60D8621A465963D36A002BA9
:1027E000FCDA0E4A002716464FF00045FF21136819
:1027F00043F480631360D5625163D36A002BFCDA23
:10280000B36BD8B21B06607000D4F8BD0137B7F5C2
:10281000807FECD1F8BD9521D6E700BF00C0024013
:10282000F0B41549154A0B6882B016460093009F14
:102830004FF00045FF24136843F480631360D562B2
:102840005463D36A002BFCDAB36BDBB2FF2B43700B
:102850000AD10B680193019BDB1BB3F5967FEAD984
:10286000002002B0F0BC7047A3F1FE00B0FA80F087
:10287000400902B0F0BC7047ECACFF1F00C0024042
:10288000F8B58378032B0E46044618BF4E02154652
:10289000FFF7F2FE324611212046FFF765FF18B917
:1028A0002046FFF7BDFF20B92046FFF7B9FE002004
:1028B000F8BD204B2049214A1A608E4659631A46BA
:1028C00059631E46596305F5FD70A91C05F5FE7791
:1028D000D36A13F0F00FFBD0C6F834E0B36B01F805
:1028E000013C1B1201F8023C02318F42F0D105F588
:1028F0000075A8420DD20F4A1646D36A13F0F00FA6
:10290000FBD0B36B191200F8021BA84200F8013C7F
:10291000F3D3084B0949084A196019465A63CB6A30
:10292000044A13F0F00FFAD02046936BFFF778FEBD
:102930000120F8BD00C00240FFFF009000041F808E
:10294000F0B4314E33684FF0004743F48063336096
:102950003D46F762344671633346511C02F201274B
:10296000E26A002AFCDA1A6811F8016C42F480620B
:102970001A60DD625E63E26A002AFCDA1A6811F806
:10298000026B42F480628F421A60DD625E63E7D1BF
:102990001D49CA6A1C4B002AFBDA1A684FF0004531
:1029A00042F48062FF241A601946DD625C63CB6AE0
:1029B000154A002BFBDA13684FF0004543F480639F
:1029C000FF2413601146D5625463CB6A0E4A002B74
:1029D000FBDA13684FF0004543F48063FF24136073
:1029E0001146D5625463CB6A074A002BFBDA936B1E
:1029F000DBB203F01F024370A2F10500B0FA80F0D1
:102A00004009F0BC704700BF00C0024070B50446EA
:102A100071B18378032B0D4618BF4D021646FFF7A0
:102A20002BFE2A4618212046FFF79EFE054620B1C0
:102A30002046FFF7F5FD002070BD3246FE212046FE
:102A4000FFF77EFF0028F3D04FF416712046FFF702
:102A500061FE0028ECD02A460D212046FFF784FEB7
:102A60000028E5D10B4B1A684FF0004542F4806214
:102A7000FF201A601946DD625863CB6A054A002BB5
:102A8000FBDA936B13F0FF0FD2D12046FFF7C8FD9E
:102A9000012070BD00C00240014B024A1A6070471D
:102AA000CCAAFF1F0000023838B590F90530002B82
:102AB00003DBBDE8384000F06DB904460121006930
:102AC00000F092F9F8B1257D104B13EB45151AD0A3
:102AD000A3790F4A012B9CBFA369EB61E3691268DC
:102AE0006B831B0CAB8232B105F1160105F11800A6
:102AF00090472B8B6B82637903F07F036371BDE892
:102B0000384000F047B9002038BD00BFE0AAFF1FE1
:102B1000D4AAFF1F10B500F1080204460121006A83
:102B200000F000FA50B1E3693BB96379A268E26151
:102B300063F07F036371012010BD012010BD00BF51
:102B4000F8B5837913B182698A4201D20020F8BDB9
:102B5000022B0F4605461AD007B32B6AE9681C7C86
:102B60004A1E04F109037C1EDA40DC40A24211D95E
:102B7000EB69AB6005F1080606E0A968286A00F079
:102B800099F9013C0028E1D03246002CF5D1EF60E4
:102B90000120F8BD0029EBD0A41AEBE7AF60EF608D
:102BA0000120F8BD2DE9F04F8B46817985B00129D0
:102BB0000746019205D001233B71002005B0BDE816
:102BC000F08F42799107F6D5530708D5FC68B969AB
:102BD0008C4200F0A880FFF7B3FF0028EBD0019BE8
:102BE000FC68002B49D0DFF88C91DFF88CA1DDF870
:102BF0000480386A0679013E06EA542616F0FF067C
:102C0000C4F3080442D1002C40D1B96800296FD127
:102C1000FA69002A7ED0BA60C4F50075ADB24545A8
:102C20003AD9057C4169023AAA400E4416441FFA7B
:102C300088F51CB9F868BA6990424CD23046012137
:102C400000F0D2F80028B6D04C4404EB050E7445D1
:102C50000DD00BF1FF31621E0EF1FF3611F8010F9E
:102C600002F8010F9642F9D1C4EB0E04A344FC68AC
:102C7000B8EB05082C44FC60BBD1BB69A34257D21A
:102C80007A79BC6142F080027A715AE0C4F500752D
:102C9000ADB24545BA68C4D8017C4069023A8A4061
:102CA0000644B5F5007F1644C3D1DAF800209642F9
:102CB00004BF4FF0FF32CAF800202A4A314610689C
:102CC0005A46FFF7A3FE00283FF475AF0BF5007BD3
:102CD0004FF40075CBE700F05DF800283FF46BAFD0
:102CE0002149CAF800600A7842F001020A70ABE795
:102CF00003AA00F0DFF800283FF460AF386A1B4BEE
:102D000090F82050039A4FF6F871102D18BF19460D
:102D10008A4280D33846FFF7FDFE00283FF44BAFD0
:102D2000386ABA6878E7019B002B7FF45CAF08E053
:102D30000F4B7A791B6823B1019B13B142F08002DB
:102D40007A71120709D5BB79002B3FF434AF3846AE
:102D5000FFF7AAFE00283FF42EAF019805B0BDE8AA
:102D6000F08F00BFDCAAFF1FE0ACFF1FF8FFFF0FD2
:102D7000D4AAFF1FE0AAFF1F109DFF1F00B583B05C
:102D800002AB012203F8011D1946FFF70BFF03B048
:102D90005DF804FB70B50F4C23780BB9012070BDB2
:102DA0000D4B0E4D196828680D4AFFF72FFE70B1C4
:102DB0000C4E316819B900232370012070BD2868BA
:102DC000074AFFF723FE10B100233360F3E700202A
:102DD00070BD00BFE0ACFF1F109DFF1FDCAAFF1FEE
:102DE000E0AAFF1FD8AAFF1F70B50D4D2B688342C4
:102DF0000E460ED00446FFF7CDFF08B9002070BD87
:102E0000084B094A18682146FFF73AFD0028F5D01B
:102E10002C60064B197831431970012070BD00BF3A
:102E2000109DFF1FDCAAFF1FE0AAFF1FE0ACFF1FE1
:102E3000F8B590F82030C469102B1A4B05460E46A1
:102E400017461B6816D004EBD1149C4216D106F02D
:102E50007F06154A42F826701449287E0A78012810
:102E600042F001020A7018D9A968114A0B44136094
:102E70000120F8BD04EB11249C4208D0002120461B
:102E8000FFF7B2FF50B195F82030102B07D1F6B202
:102E9000054A234622F81670DEE70120F8BD2346D6
:102EA000D5E700BF109DFF1FE0AAFF1FE0ACFF1F8A
:102EB000D8AAFF1FC36801338B4218D370B590F8AE
:102EC0002030102B154B044616460D46C0691B6872
:102ED0000FD000EBD11098420FD105F07F01104BBD
:102EE00053F8213023F070433360012070BD00207F
:102EF000704700EB1120984207D00021FFF774FFC4
:102F000050B194F82030102BE7D1E9B2044B33F8DC
:102F100011303360012070BD002070BD109DFF1F77
:102F2000E0AAFF1F2DE9F04F176883B06FB3013798
:102F30004FF0000AC36803F1010813B38B4606463D
:102F400091463C46002505E01C461F46F3680135C6
:102F5000AB4216D9A04538BF0224214601AA30460B
:102F600038BF2746FFF7A6FF631CD91B48B1019A5B
:102F7000002AE9D18B4510D01C46F3680135AB42DD
:102F8000E8D8002003B0BDE8F08FA1F1010ABAFA39
:102F90008AFA07684FEA5A1ACCE7012CF1D9F3688C
:102FA00001339C42EDD86FF0704221463046FFF766
:102FB0003FFF0028E5D0A74214D2013C012CE0D904
:102FC000F36801339C42DCD8621C21463046FFF78F
:102FD0002FFF0028D5D0A74204F1FF3402D0012CE6
:102FE000EED1CEE7D9F8001059B10129C9D9F3685B
:102FF00001339942C5D83A463046FFF719FF0028F9
:10300000BFD0C9F80070BAF1000F01D001373760A6
:103010000120B7E7524ADFF868C12DE9F04F514D62
:10302000514CDFF86081DFF860B1DFF860E11646EF
:10303000D17A09B372B6F37AD807194607D5DBF807
:103040000000F1680140B161CBF8001019469B0700
:1030500007D5DCF800001369D17A0340D361CCF8BE
:1030600000304F0706D5D8F8001053690B401362A3
:10307000C8F8003062B6D17A1368D868B0F1384F1A
:103080000AD04FF078404FF03849C3F800E0C3F859
:103090000C901861354818602078D5F800A04FF0E2
:1030A000010980078AF800914FF000492DD5702062
:1030B000C3F82C905863D86A0028FCDA4FF0004916
:1030C00000209F6BC3F82C905863D86A0028FCDA64
:1030D00001209B6B8AF8800081B1CF0703D5244F74
:1030E0009069D17A3860880703D5224FD069D17AA8
:1030F0003860490702D52048116A01601B0697D540
:103100001E4B00221A70BDE8F08F0520C3F82C90EA
:103110005863D86A0028FCDA4FF0004900209F6B02
:10312000C3F82C905863D86A0028FCDA01209B6B06
:103130008AF8800081B1CF0703D50D4F9069D17A0D
:103140003860880703D50B4FD069D17A38604907BA
:1031500002D50948116A0160DB073FF569AFCFE787
:10316000009CFF1FE4ACFF1FE1ACFF1F00003F808D
:1031700000E100E004E100E008E100E0E2ACFF1F54
:1031800084E100E088E100E080E100E001403F00F0
:103190002DE9F04F0E4685B0002181463046154698
:1031A00006F0F2FE984B994ADB7A11780291002BD7
:1031B00025D072B6944BDB7ADC07194608D59448C3
:1031C00091490468C96821408F4CA161016019468A
:1031D000980709D58F488C4B04681B698A4923409E
:1031E000894CC97AE36103604B0707D58A49864B4E
:1031F00008685B690340844803620B6062B6824BD7
:103200001B68D968B1F1384F09D0844818604FF075
:103210003840D86082494FF0784018611960814881
:10322000DFF804B20178039100297ED1DBF8002099
:10323000029800F0080A00F001015FFA8AFA019191
:103240004FF0010809EB0507BAF1000F40D15446D1
:1032500082F80081019A002A4DD04FF000410322EC
:10326000D9625A63DA6A002AFCDA4FEA194242F05C
:1032700080524FF00041986BD9625A63DA6A002A93
:10328000FCDA1FFA89F949F080524FF00041986B3F
:10329000D9625A63DA6A002AFCDADFF86C919B6B18
:1032A000324631462B464846FDF7C4FDDBF8002088
:1032B0002E4482F880800121002C00F0B780524B10
:1032C0002546B9461B6809EB0507BAF1000FBED0C9
:1032D0007C1E84EA090414F07E44B9D029F07E41B2
:1032E00082F80081019AC1F100716C1A09EB0107A3
:1032F0000D46002AB1D1C9F3074242F0805242F490
:1033000040724FF00041D9625A63DA6A002AFCDA4F
:103310001FFA89F949F080524FF00041986BD96249
:103320005A63DA6A002AFCDAB7E71178DBF8002082
:1033300001248F0782F800414FF0004440F1B8802B
:103340007021DC625963D96A0029FCDA4FF000442D
:1033500000219F6BDC625963D96A0029FCDA996B02
:10336000090600F1B880039B0121022B82F880102E
:1033700000F2BE80244B82F800111B684FF0004021
:103380000621D8625963D96A0029FCDA01209C6BB6
:1033900082F8800018210139FDD102994C0740F1D3
:1033A0000C81039981420CBF8521752101244FF0C6
:1033B000004082F80041D8625963D96A0029FCDADA
:1033C000986B0298012110F0020F82F880104FF0E4
:1033D000004082F8001100F0DD807021D86259634E
:1033E000D96A0029FCDA996B4FF000440020DC62B6
:1033F0005863D96A0029FCDA996B0906F7D50121CF
:1034000082F8801014E700BF009CFF1FE1ACFF1F93
:1034100080E100E084E100E088E100E001403F005D
:1034200000003F80E2ACFF1FE4ACFF1F039B23B30F
:10343000D9F8003082F800114FF000400621D86220
:103440005963D96A0029FCDA01209C6B82F880005C
:1034500018210139FDD102994C0743D47A21012466
:103460004FF0004082F80041D8625963D96A0029C0
:10347000FCDA01219B6B82F88010554B5449DB7AB2
:103480001A4693B1D80703D5524A896911601A4682
:10349000990704D54E4A504BD169D27A1960530727
:1034A00003D54B4A4D4B126A1A6005B0BDE8F08F48
:1034B0000521DC625963D96A0029FCDA4FF0004427
:1034C00000219F6BDC625963D96A0029FCDA996B91
:1034D000CF073FF548AF0021012482F880400170FA
:1034E0000391A5E60399814214BF7A218A21B6E7A8
:1034F000374B3748DB7A19469BB1DC0703D5354992
:103500008069086019469F0705D5314B324830491C
:10351000DB69C97A03604C0703D52D492F4B096A33
:1035200019600192FFF776FD294B2949DB7A019A50
:10353000EBB172B6CB7AD8071A4640D49B0709D5AF
:103540002749234B08681B69214A03402048D27A47
:10355000C3610B60570707D5224A1D4B11685B6991
:103560000B401B490B62136062B6DBF80020184B5E
:103570001B68D968B1F1384F09D01B4818604FF06B
:103580003840D86019494FF078401861196000211F
:1035900003914DE60521D8625963D96A0029FCDA06
:1035A000996B4FF000440020DC625863D96A00290F
:1035B000FCDA996BCF07F7D421E77521F6E60C48C2
:1035C000CA68046822408A6102601A46B6E700BFF2
:1035D000009CFF1F00E100E004E100E008E100E0E2
:1035E00084E100E088E100E001403F0000003F800E
:1035F00080E100E02DE9F84FDFF8D8816C4D98F8B4
:103600000030DFF8D491DFF8D4A106460C46174607
:10361000AB46002B40F0AA80EB7A1BB372B69BF846
:103620000B20D007114609D5624B1968DBF80C3026
:103630000B406049CBF818300B601146930707D553
:103640005D4BE97A1A682B6913405B4AEB611360A2
:10365000480706D5594B1A686B691340574A2B62C5
:10366000136062B62B68DA68B2F1384F09D054495A
:1036700019604FF03841D960524A4FF078411961D2
:103680001A60D9F80000012280F800214FF00041B3
:103690000622D9625A63DA6A002AFCDAF2B2C2F56B
:1036A00080724FF0010EBA42D3F838C080F880E043
:1036B0004FF0180128BF3A460139FDD19AF80010A1
:1036C00080F800E1C90754D54FF0004E0221C3F83D
:1036D0002CE05963D96A0029FCDA310C41F08051A1
:1036E0004FF0004ED3F838C0C3F82CE05963D96AC4
:1036F0000029FCDAB1B241F080514FF0004ED3F80E
:1037000038C0C3F82CE05963D96A0029FCDA996BF8
:103710001644BF1A4FF0004E224414F8011BC3F8A0
:103720002CE05963D96A0029FCDA9442996BF4D1F0
:10373000EB7A4FF0010E0424194680F880E088F8F7
:1037400000408BB1DC0704D51F49DBF81800086086
:103750001946980703D51D48EB69E97A03604B07C2
:1037600002D51B492B6A0B601446F7B1FFF752FCD8
:1037700052E7C6F3074141F0805141F400714FF028
:10378000004EC3F82CE05963D96A0029FCDAB1B2C3
:1037900041F080514FF0004ED3F838C0C3F82CE010
:1037A0005963D96A0029FCDAB1E7BDE8F88F00BF98
:1037B000009CFF1F80E100E084E100E088E100E080
:1037C00001403F0000003F8000E100E004E100E034
:1037D00008E100E0E2ACFF1FE4ACFF1FE1ACFF1F1B
:1037E00070B54C4B1B780446002B79D14A49CB7AF3
:1037F000EBB172B6CB7AD8071A4606D54748CA68E5
:1038000005682A408A6102601A469E0706D5444828
:103810000B690568CA7A2B40CB610360550705D553
:10382000404A4B69106803400B62136062B60B6834
:10383000DA68B2F1384F09D03B4818603B4A4FF084
:1038400038454FF07840DD6018611A60384A1068DA
:1038500001264FF000459F2280F80061DD625A6327
:10386000DA6A002AFCDA4FF0004500229E6BDD6226
:103870005A63DA6A002AFCDA9B6B23700A684FF0FD
:1038800000450023D5625363D36A002BFCDA936BA7
:1038900063700A684FF000450023D5625363D36A12
:1038A000002BFCDA2378926BA270012B1BD0CB7A11
:1038B000194D01241A4680F8804083B1DC0703D5F6
:1038C0001C4AA86910601A46980703D51A4BC869A4
:1038D000CA7A1860530702D5184B0A6A1A6070BD7D
:1038E000FFF798FB82E70A684FF000450023D56296
:1038F0005363D36A002BFCDA936BE3700A684FF0D2
:1039000000450023D5625363D36A002BFCDA936B26
:103910002371CCE7E2ACFF1F009CFF1F80E100E0B9
:1039200084E100E088E100E001403F0000003F80CA
:10393000E4ACFF1F00E100E004E100E008E100E08A
:10394000F0B5864D2B7883B0002B40F0838068461D
:10395000FFF746FF9DF80030202B64D08049C87ADD
:10396000F0B172B6CB7AD8071A4606D57D4CCA6834
:103970002068104088611A4620609F0706D57A4A61
:103980000B6910680340CB611360CA7A560705D5EE
:10399000764A4B69106803400B62136062B6C87ABE
:1039A0000B68DA68B2F1384F09D0714C1C60714A6B
:1039B0004FF038464FF07844DE601C611A606E4A62
:1039C000146801274FF00046062284F80071DE6279
:1039D0005A63DA6A002AFCDA01269F6B84F8806059
:1039E0001822013AFDD14FF00047C72284F8006148
:1039F000DF625A63DA6A002AFCDA01229B6B84F8E0
:103A0000802060B1C40703D55C4B8A691A60C87A0C
:103A1000820722D4430702D5594B0A6A1A6003234E
:103A20002B7003B0F0BD9DF80230A3F12002022AF2
:103A300094D8544C212B207814D000F03F028011F0
:103A4000012822705FFA80FEEBDC222B0CBF0826D7
:103A500002260EE0FFF7DEFA79E74B4BCA691A60DF
:103A6000C87AD7E700F03F03801123705FFA80FE29
:103A700002263B49CB7A03B372B6CB7ADF071A46EC
:103A800009D5DFF8E0C0CA68DCF8007017408F6124
:103A90001A46CCF800709B0706D5334A0B691768A5
:103AA0003B40CB611360CA7A570705D52F4A4B6953
:103AB00017683B400B62136062B60B68DA68B2F1BC
:103AC000384F09D02A4919604FF03841D960294A46
:103AD0004FF0784119611A60274A1168012281F874
:103AE00000214FF000470622DF625A63DA6A002A9B
:103AF000FCDA0122D3F838C081F880201827013F72
:103B0000FDD14FF0004CC42781F80021C3F82CC030
:103B10005F63DA6A002AFCDA1EFB06F2120242F048
:103B200080524FF000469F6BDE625A63DA6A002AC9
:103B3000FCDA4FF000464FF080529F6BDE625A6312
:103B4000DA6A002AFCDA22789B6B431C42EA831370
:103B50000122237081F8802061E700BFE2ACFF1FE3
:103B6000009CFF1F80E100E084E100E088E100E0CC
:103B700001403F0000003F80E4ACFF1F00E100E097
:103B800008E100E0E1ACFF1F04E100E0F8B54E49B8
:103B90000B780BB90120F8BD4C48C47AF4B172B669
:103BA000C37ADE071A4606D5494CC26825682A4002
:103BB000826122601A469D0706D5464C0369256836
:103BC000C27A2B40C3612360540705D5424A43693A
:103BD000146823400362136062B6C47A0368DA682B
:103BE000B2F1384F09D03D4D1D603D4A4FF0384687
:103BF0004FF07845DE601D611A603A4A3A4D1678FA
:103C00002D68012285F80021B2074FF0004729D521
:103C10007022DF625A63DA6A002AFCDA4FF000474A
:103C20000022D3F838E0DF625A63DA6A002AFCDA4D
:103C300001229B6B85F8802084B1E70703D52B4ACE
:103C40008569C47A1560A50703D5294AC569C47A70
:103C50001560620702D5274A006A10601B0629D446
:103C60000020F8BD0522DF625A63DA6A002AFCDA16
:103C70004FF000470022D3F838E0DF625A63DA6A77
:103C8000002AFCDA01229B6B85F8802084B1E707CB
:103C900003D5164A8569C47A1560A50703D5144A69
:103CA000C569C47A1560620702D5124A006A1060BD
:103CB000DB07D5D4002416F0C00F0C703FF46AAFB8
:103CC000FFF73EFE2046F8BDE2ACFF1F009CFF1F41
:103CD00080E100E084E100E088E100E001403F0095
:103CE00000003F80E1ACFF1FE4ACFF1F00E100E0FB
:103CF00004E100E008E100E002781F2A15D0837893
:103D0000A3F110010F290DD9A3F12001052908D92C
:103D10008AB942788AB9002B14BF4FF48010002072
:103D20007047063B0120984070474378892BE6D1C5
:103D30004FF080707047FF2A02D04FF48010704718
:103D40004278FF2AF9D1FF2B14BF4FF480100020D6
:103D5000704700BF70B56A4B6A4D53F830302B6026
:103D600082B004466848FCF7CFFE2046012102F0ED
:103D7000A5FA2E68012386F880306846FFF730FDEB
:103D80009DF80040A4B99DF8013013B99DF80200D8
:103D900060B16846FFF7B0FFB0F1807F21D8002303
:103DA0005A4A68461370FFF71BFD012002B070BD30
:103DB000FF2C09D19DF80130FF2BEAD19DF802308C
:103DC000FF2BE6D10020F1E76846FFF795FFB0F141
:103DD000807F06D8012C6DD0202C14BF0023022335
:103DE000DEE74949CB7AD3B172B6CB7AD8071A4607
:103DF00006D54748CA68046822408A6102601A46AC
:103E00009B0706D543480B690468CA7A2340CB61F7
:103E10000360560765D462B62E689DF800400B68B3
:103E2000DA68B2F1384F09D03B4818603B4A4FF08E
:103E300038454FF07840DD6018611A60012C43D09E
:103E400001244FF00040062286F80041D8625A63F0
:103E5000DA6A002AFCDA01209C6B86F880001822BE
:103E6000013AFDD14FF00044B72286F80001DC6230
:103E70005A63DA6A002AFCDA01229B6B86F88020FA
:103E8000CB7A21481A4663B1DC0703D5244A8069FE
:103E900010601A4698072BD4530702D5214B0A6AA3
:103EA0001A609DF80030202B19D0012B25D11A461D
:103EB000052301E0042300229DF8041000297FF46B
:103EC0006FAF42F014036BE74FF00040164A86F8DC
:103ED0000041D8625A63DA6A002AFCDACCE70B2385
:103EE0005EE7124A4B69106803400B62136092E769
:103EF0000F4BC869CA7A1860CEE7012350E700BFAC
:103F000098CB0000E4ACFF1F009CFF1FE1ACFF1F3B
:103F100080E100E084E100E001403F0000003F80DC
:103F200000E100E008E100E08017001088E100E017
:103F300004E100E000B583B0082269460020FFF7E5
:103F400027F9009B104A93421AD0013303D0002076
:103F500003B05DF804FB0D4B009269460822002077
:103F60000193FFF747FBFFF711FE0028FBD0082263
:103F700069460020FFF70CF9034B009A9A42E6D1FC
:103F8000019803B05DF804FB4C5596FA5802F618F8
:103F90002DE9F04F002393B0036043608360C3605A
:103FA00004900C460391FFF7C5FF00287AD02278D1
:103FB00083B20293002A00F08A80464B464821468D
:103FC000534011F8012F00FB03F3002AF8D1434FAF
:103FD0005A08A7FB0227BF0BC7EBC737A3EB47075E
:103FE0000137BFB2029B002B5CD003EB4303059368
:103FF000002301930DF1280B029B019A1946C2EB95
:10400000010ABAF1070F58D8101D40004FEA4A02C2
:104010005946FFF7BDF8BAF1000F47D0029B1E1DAD
:10402000019B03EB830216440025760008E04FF65F
:10403000FF739A4236D00135554506F10A0635D24E
:104040003BF81520BA42F2D100230A2207A93046D4
:104050000993FFF79DF8099A059B039C02F1020959
:1040600099444FEA89090DF14708484610220EA9E4
:10407000FFF78EF809F110090DF1370301E09845BB
:10408000F3D014F8011B13F8012F8A42D3D1002A70
:10409000F5D1019B0498079A2B441D46089B858106
:1040A00080E80C00049813B0BDE8F08F019B029AE1
:1040B00053449A4201939FD8F4E7019B181D400096
:1040C00010225946FFF764F84FF0080AA6E74FF4AC
:1040D000204787E7C59D1C819301000103000180F3
:1040E000F0B5044689B0063000F0DAFCE36A064613
:1040F000002B5BD101232063E362324904A803F063
:10410000DDFEE06A05F080F9A51C07462E496846E9
:1041100003F0D4FE6B463A4604A92846FDF77CFB23
:10412000684603F08BFE04A803F088FE04A8274924
:1041300003F0C4FE6846244903F0C0FE6B463246D5
:1041400004A92846FDF768FB684603F077FE04A83B
:1041500003F074FE04A81E4903F0B0FE266B1A4952
:10416000684603F0ABFE6B46324604A92846FDF7CD
:1041700053FB684603F062FE04A803F05FFE04A848
:10418000144903F09BFE646B0F49684603F096FEEA
:104190006B46224604A92846FDF73EFB684603F01D
:1041A0004DFE04A803F04AFE09B0F0BD0133216BB7
:1041B000E36205F075F84FF07C5105F079F9206362
:1041C0009BE700BFA0C8000010C60000B0C80000F8
:1041D000B8C80000D0C80000F8B5002504464570F6
:1041E0000230FDF719FAE01C00F078FB2946A01D0B
:1041F0006B2200F07DFB124FDFF854E0114E1248A5
:10420000124984F83C5000234FF07E5284F83D5010
:104210002065E56284F8605084F8615084F862504B
:1042200084F8635084F86450C4F844E0A764E664FA
:104230006165A265236363632364E3652046F8BD7B
:1042400033330B416666D6C09A99A9C0000080BF7F
:104250009A99E94070B5861C88B004464170304692
:10426000FDF7DEF90121112002F028F801211120CB
:1042700002F010F812215648FCF782FEE51C1321CB
:104280005348FCF7AFFE6B222846002100F028FBC4
:10429000504904A803F012FE04A93046FDF7DCF9EA
:1042A00004A803F0CBFDA01D00F0DEFD4A496846DE
:1042B00003F004FE494904A803F000FE04AA69467D
:1042C0003046FDF7D1F904A803F0B8FD684603F0C5
:1042D000B5FD434904A803F0F1FD04A93046FDF7FC
:1042E000BBF904A803F0AAFD284600F033FD00281E
:1042F0006BD1612284F83D201021284600F070FD2A
:1043000094F83C30184484F83C00132204F13D0139
:10431000284600F0ADFC94F83C2094F83D30104461
:1043200003F07F0384F83C0084F83D300E225821CE
:10433000284600F055FD94F83C30184484F83C00C1
:104340000A225921284600F04BFD94F83C301844CD
:1043500084F83C007F225A21284600F041FD94F861
:104360003C30184484F83C0080225B21284600F051
:1043700037FD94F83C30184484F83C004822284625
:104380005E2100F02DFD94F83C301844C0B284F852
:104390003C00C0B91049684603F090FD0F4904A8DD
:1043A00003F08CFD04AA69463046FDF75DF904A8C8
:1043B00003F044FD684603F041FD0021084601F08A
:1043C0007DFF08B070BD0749E5E70749E3E700BF97
:1043D000389CFF1FE8C800001CC6000010C6000083
:1043E000F8C8000004C9000014C6000070B5851D9F
:1043F00088B00446284600F08DFB0646284600F0AB
:10440000CDFB0146304604F04BFF0646284600F03F
:1044100009FC0146304604F043FF154905F0FCF85D
:104420000021054605F000FA08B905F10045E565EB
:104430001049684603F042FDE56D0F4904A803F0FA
:104440003DFD04AB2A466946A01CFDF7E5F904A82A
:1044500003F0F4FC684603F0F1FCE06D074905F059
:10446000E3F94FF0010300B90346D8B208B070BDBC
:10447000000040401CC9000010C600000000B4420B
:104480000020704770B588B0841C05460E4604A80D
:104490002F4903F013FD04A92046FDF7DDF804A819
:1044A00003F0CCFC0222696D04A803F04DFD04A9C1
:1044B0002046FDF7D1F804A803F0C0FC254904A864
:1044C00003F0FCFC04A92046FDF7C6F804A803F09D
:1044D000B5FC0222314604A803F036FD04A92046AB
:1044E000FDF7BAF804A803F0A9FC1B4904A803F0DF
:1044F000E5FC04A92046FDF7AFF804A803F09EFCF4
:104500000222A96D684603F01FFD144904A803F0B8
:10451000D5FC694604AA2046FDF7A6F804A803F0D6
:104520008DFC684603F08AFC696D304605F072F92F
:1045300048B1A96D304605F063F94FF0010328B189
:10454000D8B208B070BD002008B070BD0346F7E7D0
:104550002CC9000040C9000044C9000010C600007A
:1045600030B590F860308FB0044663B1092B07D0A6
:10457000022B00F09080062B56D094F8613008E0B2
:104580004378002BF9D094F863301BBB94F861306A
:1045900023B984F8633000200FB030BD784B7949DF
:1045A0001B680193019BA36306A803F087FC76496F
:1045B0000AA803F083FC0AAA06A9A01CFDF754F878
:1045C0000AA803F03BFC06A803F038FC94F863301B
:1045D000002BD2D094F86130002BDAD0684DA16B5B
:1045E0002A680292029A521AB2F57A7FD1D96749A3
:1045F00006A803F063FC64490AA803F05FFC0AAA5A
:1046000006A9A01CFDF730F80AA803F017FC06A8BD
:1046100003F014FC2B680393039BA363022384F829
:10462000603094F86130B4E7554D826B2B68059388
:10463000059B9B1AB3F5FA6F80F08280063000F07C
:104640002FFAE16C2064054605F0E4F8002894D0C8
:104650002846216D05F0D4F800288ED04C4906A8D4
:1046600003F02CFC48490AA803F028FC0AAA06A972
:10467000A01CFCF7F9FF0AA803F0E0FB06A803F072
:10468000DDFB0023082284F8602084F8613084F880
:104690006330012080E73A4D826B2B680493049BC2
:1046A0009B1AB3F5FA6F2BD2063000F0F9F9E16CE2
:1046B0002064054605F0AEF800283FF45EAF2846BA
:1046C000216D05F09DF800283FF457AF314906A849
:1046D00003F0F4FB2C490AA803F0F0FB0AAA06A990
:1046E000A01CFCF7C1FF0AA803F0A8FB06A803F072
:1046F000A5FB002384F8613084F8633001204BE788
:10470000062380F86030244906A803F0D7FB1E4931
:104710000AA803F0D3FB0AAA06A9A01CFCF7A4FF71
:104720000AA803F08BFB06A803F088FB2B6806930E
:10473000069A94F86130A26384F8633000202BE776
:10474000072380F86030154906A803F0B7FB0E492F
:104750000AA803F0B3FB0AAA06A9A01CFCF784FF71
:104760000AA803F06BFB06A803F068FB2B680A930A
:104770000A9A94F86130A26384F8633000200BE752
:10478000ECACFF1F48C9000010C6000064C900005F
:10479000D0C90000C0C9000074C9000098C9000059
:1047A00030B590F86030012B83B007D090F862509C
:1047B00080F864500025284603B030BD90F864307E
:1047C00090F862503BB9002DF2D00D4B1B6800935E
:1047D000009B8363ECE7002DEAD0094B826B1B68DA
:1047E0000193019B9B1AB3F57A6FE1D904466420CB
:1047F00001F06AFD002384F8623084F86430DAE75F
:10480000ECACFF1F2DE9F0411D7880F86050012DC0
:104810001E4604462BD045B1022D1ED0AB1F012BE6
:104820001BD9092D20D14378F3B1A01D00F038F930
:10483000054620640146606C04F0E2FF002846D083
:104840002846A16C04F0DCFF4FF0010300B90346D9
:10485000069ADBB2137084F861302046FFF780FEC1
:10486000079B94F8605018703570BDE8F081C36AFA
:10487000142B8846174623D0FFF732FC616B204685
:10488000FFF700FE089A84F8620003461370204682
:10489000FFF786FF099B18702046FFF7A7FD88F8F1
:1048A0000000237833B1A3F101030022B3FA83F3AC
:1048B0005B09227094F860503B703570BDE8F08160
:1048C000016B416300230022C2620363D7E7069AAB
:1048D0000023137084F86130BFE700BF704700BF4A
:1048E00009B942707047012908BF8270704700BF44
:1048F000F0B50A236B2401704470837019BB4270B9
:1049000001234FF4D0724FF4FA6E4FF4C87710269B
:10491000642540F6B8340371037343738373C37320
:104920008375C375037643760A210023A0F806E059
:104930000281428247810682858244838183837714
:1049400003844384F0BD012908BF8270D8E700BF0B
:104950002DE9F0410C460178064690461D46002997
:1049600050D001294AD13D4F8078002101F092FCBE
:10497000396848F080034FF00042CA624B63CB6A4B
:10498000002BFCDA8B6B002D5FD06A1ED2B2013295
:104990000020224484464FF0004EC1F82CE0C1F8BC
:1049A00034C0CB6A002BFCDA8B6BDBB2FF2B04F834
:1049B000013B04BF0130C0B2A2423CD03968ECE7F1
:1049C00043462A4671783846FCF70CFD97F83920A3
:1049D00097F838309A4211D085B1691EC9B20131B9
:1049E00021449A4233D8FF2204F8012B97F839204A
:1049F00097F838309A4201D08C42F2D100242046F8
:104A0000BDE8F0814378164F4FF0010811465B0076
:104A1000384687F83B3087F85E8087F85D80FCF782
:104A200051FA41463846FCF753FC0028C8D04446AA
:104A30002046BDE8F081A84207D00024B0780121CB
:104A400001F028FC2046BDE8F0810524F6E7FA18BD
:104A50000133127E87F83830C6E700BF009CFF1F85
:104A6000389CFF1F10B582B002232C2201A90446F6
:104A7000FFF76EFF9DF805209DF8043043EA0223FE
:104A80001BB220B1052805D0628C01326284184621
:104A900002B010BD228C18460132228402B010BD33
:104AA00038B50446FFF7DEFF0546208A400804F0CB
:104AB000ABFC0446284604F0A7FC054904F0F8FCCA
:104AC0000146204604F0F4FC024904F0A5FD38BD7F
:104AD00023DB793D00007A4410B582B00223222204
:104AE00001A90446FFF734FF9DF805209DF8043026
:104AF00043EA02231BB220B1052805D0628C0132A3
:104B00006284184602B010BD228C184601322284FD
:104B100002B010BD38B50546FFF7DEFFEB88F52B78
:104B2000044614D00B48A0FB0330C0F3C70004F0C8
:104B30006BFC0546204604F067FC074904F0B8FC0E
:104B4000294604F0B5FC054904F066FD38BD4FF078
:104B50008045EFE7D34D621000008C4000007A449E
:104B600010B582B00223242201A90446FFF7F0FE0B
:104B70009DF805209DF8043043EA02231BB220B1C2
:104B8000052805D0628C01326284184602B010BD3F
:104B9000228C18460132228402B010BD38B5054679
:104BA000FFF7DEFFEB88F52B044614D00B48A0FB83
:104BB0000330C0F3C70004F027FC0546204604F08C
:104BC00023FC074904F074FC294604F071FC0549F4
:104BD00004F022FD38BD4FF08045EFE7D34D621061
:104BE00000008C4000007A4410B582B002232622D7
:104BF00001A90446FFF7ACFE9DF805209DF804309E
:104C000043EA02231BB220B1052805D0628C013291
:104C10006284184602B010BD228C184601322284EC
:104C200002B010BD38B50546FFF7DEFFEB88F52B67
:104C3000044614D00B48A0FB0330C0F3C70004F0B7
:104C4000E3FB0546204604F0DFFB074904F030FC97
:104C5000294604F02DFC054904F0DEFC38BD4FF078
:104C60008045EFE7D34D621000008C4000007A448D
:104C70002DE9F84390F8008007460C469146B8F1BC
:104C8000000F2DD0B8F1010F25D10021807801F05F
:104C900001FB2E4B1B6849F080024FF00041D962A6
:104CA0005A63DA6A002AFCDA4FF000410022986B5E
:104CB000D9625A63DA6A002AFCDA9E6BB878F6B2D7
:104CC000012101F0E7FAFF2E0CBF0527002726700F
:104CD0003846BDE8F883002726703846BDE8F883DB
:104CE0001B4D43784FF0010911465B00284685F8BB
:104CF0003B3085F85E9085F85D90FCF7E3F8494617
:104D00002846FCF7E5FA79784B46071C4A462846C0
:104D100018BF0127FCF766FB95F8383095F8391075
:104D20008B421A46D8D04046994203F101062A44E4
:104D300083BFF3B20120167EFF268B421A46F3D1C1
:104D40000028C9D085F83830C6E700BF009CFF1F97
:104D5000389CFF1F30B5057883B00446002D35D050
:104D6000012D1BD000238DF8063042F210729DF801
:104D70000630013A0133DBB292B28DF80630002AD8
:104D8000F5D120460F220DF10701FFF771FF9DF8C5
:104D90000700693818BF012003B030BD0D48FBF78C
:104DA000B3FE0D490B48FBF747FF29460948FBF7BF
:104DB00017FF00210748FBF739FF2946A07801F0CB
:104DC0007DFA2946A07801F065FACBE70348FCF7A5
:104DD0008DF8C7E7009CFF1F00000238389CFF1FBA
:104DE00070B503780446154603B3012B1CD10E465B
:104DF0008078002101F04EFA194B1B684FF00042F9
:104E0000DA625E63D96A0029FCDA4FF00042996BDE
:104E1000DA625D63DA6A002AFCDAA0789B6B012112
:104E200001F038FA002070BD002070BD0D4C4378B1
:104E300001265B00204684F83B3084F85E6084F8ED
:104E40005D60FCF73FF829462046FCF73BF8314609
:104E50002046FCF73DFA003018BF012070BD00BFAE
:104E6000009CFF1F389CFF1F70B5044682B00025D0
:104E70008DF80650FFF76EFFA27B8DF80650012AD1
:104E8000064651D02A4610212046FFF7A9FF1322DB
:104E90000DF106012046FFF7EBFE9DF80620E37BAF
:104EA00002F07F02012B8DF806204FF0130108BF9E
:104EB00042F08002204608BF8DF80620FFF790FFE1
:104EC00023790022012B8DF806200CD011212046D9
:104ED000FFF786FF20460F220DF10701FFF7C8FEFE
:104EE000304602B070BDE388F52B07D051D9B3F539
:104EF000FA7F63D0B3F57A7F5ED108222389D02B65
:104F000000F08E803AD940F241318B4200F083802C
:104F100040F27C618B4279D0B3F5D07F62D042F011
:104F200040028DF80620D1E7A38A642B4BD0C82B12
:104F300003D0322B14BF2A460322238A042B3FD0EE
:104F4000082B2AD0022B01D042F00402638AB3F569
:104F5000D07F00F08A8023D940F602518B4275D071
:104F600033D840F241318B4241D040F27C618B42D8
:104F700071D142F080028DF8062084E71A2B59D0B7
:104F8000342B52D00D2BCAD142F010028DF80620DE
:104F90009CE77D2B10D10222B0E742F00C02D5E74E
:104FA0001A2B5DD04BD9342B26D0D02B53D142F0C5
:104FB00050028DF8062066E70C229FE704229DE749
:104FC00042F00802C2E70222B7E741F604218B4211
:104FD00017D043F212418B423DD142F0B0028DF81E
:104FE000062050E742F060028DF806206EE742F09E
:104FF00070028DF8062046E742F030028DF8062058
:1050000041E742F0A0028DF806203CE742F0800222
:105010008DF806205AE742F070028DF8062055E719
:1050200042F050028DF8062050E742F030028DF831
:1050300006204BE742F020028DF8062046E70D2BB4
:1050400009D142F010028DF806201CE742F09002D0
:105050008DF8062017E742F040028DF8062012E78F
:1050600042F020028DF806200DE742F060028DF834
:10507000062008E738B50025044600F8015BFCF778
:10508000CBFA0823052284F84C20A57084F84D50F3
:1050900084F8645084F8655084F8665084F8685049
:1050A000E5666360A36004F170009022024900F09D
:1050B000C7FC204638BD00BFF0C9000070B5A4B0E1
:1050C0001F4906466846144602F0F8FE1D4904A82A
:1050D00002F0F4FE1C4908A802F0F0FE1B490CA8DF
:1050E00002F0ECFE1A4910A802F0E8FE194914A8D3
:1050F00002F0E4FE184918A802F0E0FE17491CA8C7
:1051000002F0DCFE20A8164902F0D8FE902C10DC3C
:105110000DEB0411304602F0E5FE20ACADF11005B8
:105120002046103C02F08AFEAC42F9D1304624B051
:1051300070BD0A220821304602F0F2FEEDE700BF02
:1051400080CA000084CA00008CCA000094CA000013
:105150009CCA0000A4CA0000ACCA0000B4CA000087
:10516000BCCA000030B589B004460D4668460F49F8
:1051700002F0A4FE04A80E4902F0A0FE04AA6946AB
:10518000601CFCF771FA04A802F058FE684602F0B1
:1051900055FEE9B2012000F0DDFD2121002000F0E4
:1051A000D9FD204600F006F809B030BDC0CA0000A5
:1051B00010C6000070B504468CB0002000F0B0FDB1
:1051C000212839D0022161602046FFF7CBFF6668B5
:1051D000F31D04EB03130FCB072E04F10C0585E838
:1051E0000F000CBF042307232366073304EB0313CC
:1051F0000FCB04F15005A66085E80F0004A8114903
:1052000002F05CFE626868462146FFF757FF08A877
:105210000D4902F053FE08AB6A4604A9601CFCF776
:1052200041FA08A802F00AFE684602F007FE04A848
:1052300002F004FE0CB070BD012000F071FD0646C6
:105240006060C5E7D4CA000010C6000070B500EB6E
:10525000011488B00D460646216F032000F01CFFA4
:10526000616F042000F018FFA16F052000F014FF0B
:10527000E16F062000F010FF082D1FD0741C1049AC
:1052800004A802F01BFE04A92046FCF7E5F904A8D7
:1052900002F0D4FD2A4631466846FFF70FFF094960
:1052A00004A802F00BFE04AA69462046FCF7DCF9CC
:1052B00004A802F0C3FD684602F0C0FD08B070BD4E
:1052C000E0CA000010C6000010B5044600F8011B3B
:1052D000FCF7A6F90121032000F0F0FF01210420D2
:1052E00000F0ECFF0121052000F0E8FF012106207D
:1052F00000F0E4FF2046FFF75DFF20460821BDE8EF
:105300001040FFF7A3BF00BF10B588B00446104996
:1053100004A802F0D3FD68460E4902F0CFFD6A46AC
:1053200004A9601CFCF7A0F9684602F087FD04A8F8
:1053300002F084FD20460721FFF788FFC82000F017
:10534000C3FF20460821FFF781FF08B010BD00BF52
:10535000F0CA000010C6000010B588B0044610491D
:1053600004A802F0ABFD68460E4902F0A7FD6A46AC
:1053700004A9601CFCF778F9684602F05FFD04A8F8
:1053800002F05CFDA1682046FFF760FF4FF4FA7061
:1053900000F09AFF20460821FFF758FF08B010BD23
:1053A000F8CA000010C600002DE9F04181F308089A
:1053B00082F308070446069D4146032083F308064E
:1053C00000F06AFE3946042000F066FE85F3080509
:1053D0003146052000F060FE2946062000F05CFE04
:1053E000C4F81C80A56227626662BDE8F08100BF38
:1053F000F0B58BB004462A4902A802F05FFD2949A6
:1054000006A802F05BFD06AA02A9601CFCF72CF9B5
:1054100006A802F013FD02A802F010FD2248E3687E
:1054200022696769A56980FB03611944DB1780FB6A
:1054300002E6C3EB211180FB07E380FB05E0164485
:105440003B442844D217ED17FF17C2EB2612C7EBD7
:105450002313C5EB2016E16222636363A6631F2555
:1054600002E004F12C014EC9A06AD4F824C0D4F89B
:1054700020E0E769801B0090C3EB0C03C2EB0E0237
:10548000791A2046FFF790FF212000F01DFF013D13
:10549000E7D120460821FFF7D9FE0BB0F0BD00BFD1
:1054A0000CCB000010C6000089888888F0B58BB04E
:1054B00004462C4902A802F001FD2B4906A802F07F
:1054C000FDFC06AA02A9601CFCF7CEF806A802F0B3
:1054D000B5FC02A802F0B2FC00231A461946204689
:1054E0000093FFF761FF2148E36822696769A569B6
:1054F00080FB03611944DB1780FB02E6C3EB21113B
:1055000080FB07E380FB05E016443B442844D217A8
:10551000ED17FF17C2EB2612C7EB2313C5EB2016BE
:10552000E16222636363A6631F2502E004F12C019C
:105530004EC9A06AD4F824C0D4F820E0E76930440A
:1055400000906344724439442046FFF72DFF082041
:1055500000F0BAFE013DE9D161682046FFF776FE12
:105560000BB0F0BD14CB000010C6000089888888FD
:1055700070B5204E20498CB0044604A802F09EFC71
:10558000651C314608A802F099FC08AA04A928461F
:10559000FCF76AF808A802F051FC04A802F04EFCDF
:1055A00004A8164902F08AFC626821466846FFF7A3
:1055B00085FD314608A802F081FC08AB6A4604A9C3
:1055C0002846FCF76FF808A802F038FC684602F09D
:1055D00035FC04A802F032FC216E2046FFF736FEAF
:1055E000C82000F071FE61682046FFF72FFE0CB066
:1055F00070BD00BF10C600001CCB0000D4CA000064
:1056000010B590F84D408AB0092C8DE8060001D005
:105610000AB010BD0446104902A802F04FFC06A8CB
:105620000E4902F04BFC06AA02A9601CFCF71CF80C
:1056300006A802F003FC02A802F000FC0199204633
:10564000FFF704FE4FF4967000F03EFE204608215E
:10565000FFF7FCFD0AB010BD24CB000010C600000F
:105660002DE9F047174690F84D208CB0072A0446E4
:10567000DDF85080DDF854909A4600F09A80169B31
:105680009AF8005093E8030004F16806022D84F8AC
:105690004D5086E8030000F09B80062D36D0072D84
:1056A00013D1A3680133072BC8BF00230022A360D6
:1056B00084F866202046FFF74FFE0623012284F877
:1056C000662084F84D308AF800303B783BBB98F870
:1056D00000306BBB99F80030002B63D194F8683030
:1056E00043B196E806002046FFF78AFF002384F8BE
:1056F0006830E3660CB0BDE8F087002304F168066B
:1057000084F84D5084F8663086E8030094F86630DB
:10571000002B6FD00625012384F86630BFE72046B2
:10572000FFF726FF00233B7098F80030002BD1D004
:105730003649684602F0C2FB354904A802F0BEFBB8
:10574000651C344908A802F0B9FB08AB04AA6946F5
:105750002846FBF7A7FF08A802F070FB04A802F098
:105760006DFB684602F06AFB94F84D70294908A861
:1057700002F0A4FB08AA39462846FBF7BBFF08A89D
:1057800002F05CFB94F84D30082B39D02046FFF72F
:105790008DFE002388F8003084F8663099F80030D8
:1057A000002B9BD02046FFF723FE002389F8003012
:1057B00094E71D78169B062D93E803009DD004F115
:1057C0006806022D84F84D5086E803007FF467AF29
:1057D00094F866301BB1012384F8663075E72046E3
:1057E000FFF792FD94F84D500123062D84F86630A2
:1057F00091D054E72046FFF7AFFD94F84D508AE76B
:10580000A1682046FFF7AEFCC0E700BF38CB000020
:105810003CCB000010C6000000F03ABA38B5044690
:10582000002500F8015BFBF7F7FE25732561204694
:1058300038BD00BF08B500F8011BFBF7F1FE0021E1
:105840000D2000F03BFD00210F2000F037FD00216E
:105850001720BDE8084000F031BD00BF2DE9F0433E
:1058600000250570456093B0044617200E4600F0F1
:1058700017FD0128337A07D0092B04BF35727560F4
:10588000204613B0BDE8F083002B5BD1534B1B685F
:105890000193019B7360092333720D2000F000FD1A
:1058A0000128054654D00F2000F0FAFC01280546D7
:1058B000E6D14A4F71683B680593059B42F6E0626A
:1058C0005B1A9342DCD9464906A802F0F7FA45492B
:1058D0000AA802F0F3FA06F1010943490EA802F002
:1058E000EDFA0EAB0AAA06A94846FBF7DBFE0EA8A6
:1058F00002F0A4FA0AA802F0A1FA06A802F09EFAA1
:105900003A490AA802F0DAFA3B680693069B7268E5
:105910003549C2EB03080EA802F0D0FA0EAB42469E
:105920000AA94846FBF7A8FF0EA802F087FA0AA8C2
:1059300002F084FA3B680E930E9A2570022372607F
:1059400063609DE7092BA8D0204613B0BDE8F08323
:10595000224F72683B680293029B9B1AB3F5FA5F71
:10596000A1D9234906A802F0A9FA1E490AA802F003
:10597000A5FA06F101081C490EA802F09FFA0EAB29
:105980000AAA06A94046FBF78DFE0EA802F056FAB9
:105990000AA802F053FA06A802F050FA15490AA81C
:1059A00002F08CFA3B680493049B72680E49C2EBC8
:1059B00003090EA802F082FA0EAB4A460AA9404635
:1059C000FBF75AFF0EA802F039FA0AA802F036FADD
:1059D0003B680393039B2570736064E7ECACFF1F87
:1059E00068CB000058CB000010C600007CCB000044
:1059F00044CB00005CCB00002DE9F0410F46064689
:105A000092E803003B78337206F10C0482B015462D
:105A100084E803004BB1092B07D094E803003B70E6
:105A200085E8030002B0BDE8F08168463146FFF723
:105A300015FF9DE80300337A84E80300EDE700BF1B
:105A4000844641EA000313F003036DD1403A41D389
:105A500051F8043B40F8043B51F8043B40F8043B48
:105A600051F8043B40F8043B51F8043B40F8043B38
:105A700051F8043B40F8043B51F8043B40F8043B28
:105A800051F8043B40F8043B51F8043B40F8043B18
:105A900051F8043B40F8043B51F8043B40F8043B08
:105AA00051F8043B40F8043B51F8043B40F8043BF8
:105AB00051F8043B40F8043B51F8043B40F8043BE8
:105AC00051F8043B40F8043B51F8043B40F8043BD8
:105AD000403ABDD2303211D351F8043B40F8043B78
