:1000000000800020BD0100001D940000D593000079
:10001000D5930000D5930000D5930000D593000040
:10002000D5930000D5930000D59300001D940000E7
:100030001D940000D593000075AD000079AD00005F
:100040001D9400001D9400001D9400001D940000EC
:100050001D9400001D9400001D9400001D940000DC
:100060001D9400001D9400001D9400001D940000CC
:100070001D9400001D9400001D9400001D940000BC
:100080001D9400001D9400001D9400001D940000AC
:100090001D9400001D9400001D9400001D9400009C
:1000A00059BD000065BD00001D9400001D940000B6
:1000B0001D9400001D9400001D9400001D9400007C
:1000C0001D9400001D9400001D9400001D9400006C
:1000D0001D9400001D9400001D9400001D9400005C
:1000E0001D9400001D9400001D9400001D9400004C
:1000F0001D9400001D9400001D9400001D9400003C
:100100001D9400001D9400001D9400001D9400002B
:100110001D9400001D9400001D9400001D9400001B
:100120001D9400001D9400001D9400001D9400000B
:100130001D9400001D9400001D9400001D940000FB
:100140001D9400001D9400001D9400001D940000EB
:100150001D9400001D9400001D9400001D940000DB
:100160001D940000A19C00001D9400001D9400003F
:100170001D9400001D9400001D9400001D940000BB
:100180001D9400001D9400001D9400001D940000AB
:100190001D9400001D9400001D9400001D9400009B
:1001A0001D9400001D9400001D9400001D9400008B
:1001B0001D9400001D940000318A0000564B4CF243
:1001C000205210B51A804DF628121A8000BF00BFC9
:1001D00009F028F9514B4FF010621A60504A9A60AA
:1001E000504ADA60504A136813F4807304D14F49BF
:1001F0000B604FF4A85313604D4B1A78110703D5C9
:100200001A7842F008021A704A4B4B492A221A7097
:100210004A4A4B4B8B4204D252F8040F43F8040B6A
:10022000F8E7484B484900228B4202D243F8042B9E
:10023000FAE74649464A002352F8230041F82300D2
:1002400001336F2BF8D1434B434A802103F8011B44
:100250009342FBD1414B3D4A1A60414B8A221A70AE
:10026000A3F5805324225A70A0221A709A7992071B
:10027000FCD59A79D406FCD43A4A937903F00C035E
:10028000082B384BF9D105221A7143225A719A79F9
:100290009006FCD5334A9179324B4906FBD5324A58
:1002A0004FF0817111600521516020221A709A79F6
:1002B00002F00C020C2AFAD12C4B2D4A1A602D4B5D
:1002C0002D4A1A6000225A60072243F8042C2B4A58
:1002D000C3F80C2D62B609F099FB144B1B68DA07C2
:1002E00005D5274809F018FA264B274A1A60274BEC
:1002F0001B785B0609D5234C234B22689A4204D114
:100300001F4809F009FA002323600EF013F809F0E2
:100310008FF808F0BDFFFEE70E2005403080044056
:10032000823F04000100002B10D0034014D0034092
:1003300002D0074000E0074060A8FF1F3C460100D4
:10034000209BFF1F60A8FF1FA4AFFF1F0096FF1F89
:100350000000000000E400E05FE400E008ED00E0E1
:1003600000500640004006404480044004800440A1
:10037000C010050014E000E03F190100000020203B
:10038000869EDB5F1CE00340A5C3945A00F0074043
:10039000FFFFFFFFFFFFFFFFFFFFFFFFFFFFFFFF6D
:1003A000FFFFFFFFFFFFFFFFFFFFFFFFFFFFFFFF5D
:1003B000FFFFFFFFFFFFFFFFFFFFFFFFFFFFFFFF4D
:1003C000FFFFFFFFFFFFFFFFFFFFFFFFFFFFFFFF3D
:1003D000FFFFFFFFFFFFFFFFFFFFFFFFFFFFFFFF2D
:1003E000FFFFFFFFFFFFFFFFFFFFFFFFFFFFFFFF1D
:1003F000FFFFFFFFFFFFFFFFFFFFFFFFFFFFFFFF0D
:10040000FFFFFFFFFFFFFFFFFFFFFFFFDEF9FFFF23
:1004100010B5054C237833B9044B13B10448AFF33E
:1004200000800123237010BD60A8FF1F00000000A2
:1004300038460100084B10B51BB108490848AFF316
:1004400000800848036803B910BD074B002BFBD0A0
:10045000BDE81040184700BF0000000064A8FF1F5F
:100460003846010060A8FF1F0000000010B50446D8
:10047000243008F071FC04F1140008F06DFC201D1C
:1004800008F06AFC204610BD10B5064B044640F843
:10049000443B08F061FC04F1300008F05DFC2046AC
:1004A00010BD00BF6436010010B5044608F054FCCE
:1004B000204610BD0221014807F0D6BF24ABFF1F24
:1004C00001B17047014801F04FBD00BF7CA8FF1F7C
:1004D000014808F0E5B800BF08AAFF1F38B51A4D5B
:1004E0001A4C284607F08CFC0146204608F0BCF860
:1004F000284607F087FC0146204608F0B9F8284650
:1005000007F082FC0146204608F0B6F8284607F0BE
:100510007DFC0146204608F0B3F8284607F078FC39
:100520000146204608F0B0F8284607F073FC014663
:10053000204608F0ADF8284607F06EFC014620463C
:10054000BDE8384008F0A8B8A8AAFF1F08AAFF1FF6
:1005500008B50121044801F0CDFD03210348BDE8A1
:10056000084007F081BF00BF7CA8FF1F24ABFF1F1E
:1005700008B50321044801F0BDFD05210348BDE88D
:10058000084007F071BF00BF7CA8FF1F24ABFF1F0E
:1005900008B50221044801F0ADFD04210348BDE87F
:1005A000084007F061BF00BF7CA8FF1F24ABFF1FFE
:1005B00008B50421044801F09DFD06210348BDE86B
:1005C000084007F051BF00BF7CA8FF1F24ABFF1FEE
:1005D00000B585B03349684608F0FEFB69463248ED
:1005E00005F03CFF684608F0B7FB3049304801F0A1
:1005F00075FD2F4801F03CFC2C492E4808F0C2F84C
:100600002C4808F027F82C4805F0E4FE27492B4831
:1006100007F01EFF2849294807F05CFC284807F02E
:100620000DFB00222749264807F024FC0022204920
:10063000204808F083F8002223491E4808F036F8C5
:10064000002222491B4808F043F80022204919489B
:1006500008F050F800221F49164808F081F80022DF
:100660001D49144808F058F800221C49134807F0A7
:10067000DDFE11490C4805F0D1FE194B104800224F
:100680001A6007F0F5FB212807DDFF20032215493A
:1006900008F082FF05B05DF804FB094807F0E8FBAD
:1006A000C0B2F3E7F4320100D0A9FF1FE89CFF1F9E
:1006B0007CA8FF1F08AAFF1FFCABFF1F24ABFF1F76
:1006C000A8AAFF1FDD040000B504000051050000CA
:1006D0007105000091050000B1050000C104000093
:1006E000D0ADFF1FD104000008B50021114800F073
:1006F00019FF0021104800F015FF00210F4800F0FD
:1007000011FF00210E4800F00DFF0E4807F05CFAC3
:100710000D4B1B68092B0CD00A4806F0A9F840B114
:100720000A4804F0BBFC00210648BDE8084006F07A
:10073000A1B808BDA8AAFF1F08AAFF1F7CA8FF1F19
:1007400024ABFF1FD0A9FF1FD0ADFF1FFCABFF1FC5
:100750002DE9F8430021BD4CBD48BE4EBE4F08F008
:100760003BFBBE4ABE49BA480AF0E0FB2C220021FE
:1007700020460EF087F9BB4B23600125FF236372EF
:100780006375A375002104F130002572E56208F05D
:1007900023FB002104F14400256408F01DFB3268AE
:1007A0006765002384F85D30636684F85C302366F7
:1007B00011460AB93BE119464B69002BFBD1AA4B04
:1007C0004B6113460022A948A7674FF48041A266F7
:1007D000A4F85820A4F85A2084F85E2084F88120D8
:1007E000C4F8882084F88020C4F88420606561679C
:1007F00000E02B465D69002DFBD1DFF8B482DFF805
:10080000B492C3F814804046C4F88C50A4F87C50CD
:10081000A4F87E5084F88250C4F89050C4F89450E4
:10082000C4F89850A4F89C50C4F8789001F0EEF900
:100830003268C4F8AC7084F8B550C4F8BC5084F881
:10084000B450C4F8B85083490AB9F4E01A46536961
:10085000002BFBD1864B536100258548C4F8AC9032
:10086000C4F8C050A4F8B050A4F8B25084F8B65000
:10087000C4F8C450C4F8C850C4F8CC50A4F8D05040
:1008800001F0C4F97B48C4F8F0004FF0040E0246B2
:1008900084F8E8502B46C4F8EC50C4F8E0702946C0
:1008A000A0F5847084F8E9E001E0D0F8F02042F887
:1008B000231094F8E92001339A42F6DC3268654B44
:1008C0000AB9BCE01A465369002BFBD16A4B53614D
:1008D0006A48DFF8E4E1C4F8187100214FF480356C
:1008E00001270246C4F828010B46A0F59870C4F809
:1008F000F410A4F8E410A4F8E61084F8EA1084F8E0
:100900002011C4F82411C4F8E0E0C4F8F850C4F889
:10091000FC50C4F80051C4F8045184F8217101E07E
:10092000D0F8282142F8231094F8212101339A426B
:10093000F6DC3268474B0AB984E01A465369002B4B
:10094000FBD14F4B536100254E4B4F4FC4F818312C
:10095000C4F82C51A4F81C51A4F81E5184F822515B
:100960004748DFF8588101F03BF8C4F84451C4F817
:100970004851C4F84C51A4F85051384A43493348BF
:10098000C4F83451C4F83851C4F83C51C4F840514B
:100990000AF0CCFA294638462C220EF073F8384675
:1009A000FF263B4B3B4C40F8383B4FF001092946B2
:1009B0006B2287F808907E727E75BE7500F080F815
:1009C000294640462C2287F85C500EF05BF82946F9
:1009D000314B88F80890204688F8096088F815603F
:1009E00088F816602C22C8F800300EF04BF8082367
:1009F0002A4A84F8089066726675A6752848C4F875
:100A00008830C4F88C302260C4F8D45005F0EEFC75
:100A1000124A244922480AF089FA234801F0BCFB13
:100A20000E4A22492048BDE8F8430AF07FBA04F193
:100A300054033360C6E608F134030B600CE70E4A3A
:100A40001A6045E70E4A1A607DE700BF7CA8FF1FC9
:100A5000C0ADFF1FF0ADFF1FF0320100FC9BFF1F78
:100A6000598D000064360100D0A8FF1F303301000B
:100A700028A9FF1F84A9FF1F5CA9FF1FACA9FF1FA6
:100A800094A9FF1F18330100A8AAFF1F89040000C2
:100A9000F03D010024ABFF1FEC3F0100603F01006F
:100AA000D0A9FF1F6D040000FCABFF1FA9040000CC
:100AB000F4A8FF1F243301000C33010008AAFF1F14
:100AC000F0B50A236B2401704470837019BB427027
:100AD00001234FF4D0724FF4FA6E4FF4C87710260A
:100AE000642540F6B8340371037343738373C3738F
:100AF0008375C375037643760A210023A0F806E0C8
:100B00000281428247810682858244838183837782
:100B100003844384F0BD012908BF8270D8E700BF79
:100B20002DE9F0410C460178064690461D46002905
:100B300050D001294AD13D4F8078002108F0FCFEB9
:100B4000396848F080034FF00042CA624B63CB6AB9
:100B5000002BFCDA8B6B002D5FD06A1ED2B2013203
:100B60000020224484464FF0004EC1F82CE0C1F82A
:100B700034C0CB6A002BFCDA8B6BDBB2FF2B04F8A2
:100B8000013B04BF0130C0B2A2423CD03968ECE75F
:100B900043462A46717838460AF0D0FF97F8392044
:100BA00097F838309A4211D085B1691EC9B2013127
:100BB00021449A4233D8FF2204F8012B97F83920B8
:100BC00097F838309A4201D08C42F2D10024204666
:100BD000BDE8F0814378164F4FF0010811465B00E5
:100BE000384687F83B3087F85E8087F85D800AF0EA
:100BF00015FD414638460AF017FF0028C8D0444684
:100C00002046BDE8F081A84207D00024B078012139
:100C100008F092FE2046BDE8F0810524F6E7FA18B8
:100C20000133127E87F83830C6E700BFA49DFF1F4E
:100C3000DC9DFF1F10B582B00223282201A90446C3
:100C4000FFF76EFF9DF805209DF8043043EA02236C
:100C50001BB220B1052805D0628C0132628418468F
:100C600002B010BD228C18460132228402B010BDA1
:100C700038B50446FFF7DEFF0546208A40080DF030
:100C8000D3F8044628460DF0CFF805490DF020F9B9
:100C9000014620460DF01CF902490DF0CDF938BD92
:100CA00023DB793D00007A4410B582B002232A226A
:100CB00001A90446FFF734FF9DF805209DF8043094
:100CC00043EA02231BB220B1052805D0628C013211
:100CD0006284184602B010BD228C1846013222846C
:100CE00002B010BD38B50446FFF7DEFF0546208A86
:100CF00040080DF099F8044628460DF095F805498E
:100D00000DF0E6F8014620460DF0E2F802490DF03C
:100D100093F938BD23DB793D00007A4410B582B0E9
:100D200002232C2201A90446FFF7FAFE9DF80520B4
:100D30009DF8043043EA02231BB220B1052805D0F8
:100D4000628C01326284184602B010BD228C1846B3
:100D50000132228402B010BD38B50446FFF7DEFF31
:100D60000546208A40080DF05FF8044628460DF03D
:100D70005BF805490DF0ACF8014620460DF0A8F8E7
:100D800002490DF059F938BD23DB793D00007A4462
:100D900010B582B00223222201A90446FFF7C0FE4B
:100DA0009DF805209DF8043043EA02231BB220B1D0
:100DB000052805D0628C01326284184602B010BD4D
:100DC000228C18460132228402B010BD38B5054687
:100DD000FFF7DEFFEB88F52B044614D00B48A0FB91
:100DE0000330C0F3C7000DF01FF8054620460DF094
:100DF0001BF807490DF06CF829460DF069F8054914
:100E00000DF01AF938BD4FF08045EFE7D34D621071
:100E100000008C4000007A4410B582B002232422E6
:100E200001A90446FFF77CFE9DF805209DF80430DB
:100E300043EA02231BB220B1052805D0628C01329F
:100E40006284184602B010BD228C184601322284FA
:100E500002B010BD38B50546FFF7DEFFEB88F52B75
:100E6000044614D00B48A0FB0330C0F3C7000CF0BD
:100E7000DBFF054620460CF0D7FF07490DF028F8A8
:100E800029460DF025F805490DF0D6F838BD4FF08C
:100E90008045EFE7D34D621000008C4000007A449B
:100EA00010B582B00223262201A90446FFF738FEBE
:100EB0009DF805209DF8043043EA02231BB220B1BF
:100EC000052805D0628C01326284184602B010BD3C
:100ED000228C18460132228402B010BD38B5054676
:100EE000FFF7DEFFEB88F52B044614D00B48A0FB80
:100EF0000330C0F3C7000CF097FF054620460CF006
:100F000093FF07490CF0E4FF29460CF0E1FF054987
:100F10000DF092F838BD4FF08045EFE7D34D6210E9
:100F200000008C4000007A442DE9F84390F80080DE
:100F300007460C469146B8F1000F2DD0B8F1010FCD
:100F400025D10021807808F0F7FC2E4B1B6849F072
:100F500080024FF00041D9625A63DA6A002AFCDA53
:100F60004FF000410022986BD9625A63DA6A002A76
:100F7000FCDA9E6BB878F6B2012108F0DDFCFF2E9A
:100F80000CBF0527002726703846BDE8F8830027E8
:100F900026703846BDE8F8831B4D43784FF00109B1
:100FA00011465B00284685F83B3085F85E9085F851
:100FB0005D900AF033FB494628460AF035FD797802
:100FC0004B46071C4A46284618BF01270AF0B6FDC3
:100FD00095F8383095F839108B421A46D8D04046EB
:100FE000994203F101062A4483BFF3B20120167E21
:100FF000FF268B421A46F3D10028C9D085F8383035
:10100000C6E700BFA49DFF1FDC9DFF1F30B505781C
:1010100083B00446002D35D0012D1BD000238DF860
:10102000063042F210729DF80630013A0133DBB20D
:1010300092B28DF80630002AF5D120460F220DF12C
:101040000701FFF771FF9DF80700693818BF0120FD
:1010500003B030BD0D480AF005F90D490B480AF000
:1010600099F9294609480AF069F9002107480AF068
:101070008BF92946A07808F073FC2946A07808F07F
:101080005BFCCBE703480AF0DDFAC7E7A49DFF1F2E
:1010900000000238DC9DFF1F70B50378044615463A
:1010A00003B3012B1CD10E468078002108F044FCCC
:1010B000194B1B684FF00042DA625E63D96A00295F
:1010C000FCDA4FF00042996BDA625D63DA6A002A5B
:1010D000FCDAA0789B6B012108F02EFC002070BD8B
:1010E000002070BD0D4C437801265B00204684F83B
:1010F0003B3084F85E6084F85D600AF08FFA294620
:1011000020460AF08BFA314620460AF08DFC00306A
:1011100018BF012070BD00BFA49DFF1FDC9DFF1FF5
:1011200070B5044682B000258DF80650FFF76EFFBB
:10113000A27B8DF80650012A064651D02A4610217E
:101140002046FFF7A9FF13220DF106012046FFF705
:10115000EBFE9DF80620E37B02F07F02012B8DF869
:1011600006204FF0130108BF42F08002204608BF5E
:101170008DF80620FFF790FF23790022012B8DF8D0
:1011800006200CD011212046FFF786FF20460F22B3
:101190000DF10701FFF7C8FE304602B070BDE388CD
:1011A000F52B07D051D9B3F5FA7F63D0B3F57A7F29
:1011B0005ED108222389D02B00F08E803AD940F2EC
:1011C00041318B4200F0838040F27C618B4279D0C8
:1011D000B3F5D07F62D042F040028DF80620D1E70F
:1011E000A38A642B4BD0C82B03D0322B14BF2A46C2
:1011F0000322238A042B3FD0082B2AD0022B01D0B4
:1012000042F00402638AB3F5D07F00F08A8023D9CC
:1012100040F602518B4275D033D840F241318B42B7
:1012200041D040F27C618B4271D142F080028DF856
:10123000062084E71A2B59D0342B52D00D2BCAD15B
:1012400042F010028DF806209CE77D2B10D102227F
:10125000B0E742F00C02D5E71A2B5DD04BD9342B06
:1012600026D0D02B53D142F050028DF8062066E7ED
:101270000C229FE704229DE742F00802C2E7022207
:10128000B7E741F604218B4217D043F212418B425B
:101290003DD142F0B0028DF8062050E742F06002E6
:1012A0008DF806206EE742F070028DF8062046E7C2
:1012B00042F030028DF8062041E742F0A0028DF89E
:1012C00006203CE742F080028DF806205AE742F003
:1012D00070028DF8062055E742F050028DF8062086
:1012E00050E742F030028DF806204BE742F0200232
:1012F0008DF8062046E70D2B09D142F010028DF83B
:1013000006201CE742F090028DF8062017E742F015
:1013100040028DF8062012E742F020028DF80620E8
:101320000DE742F060028DF8062008E790F91500FD
:10133000704700BF002330B44A1E1D4600E0013351
:1013400012F8014F002CFAD101358542F7D1581C13
:10135000084430BC704700BF10B402624162836130
:1013600010BC704710B5037A016123F00103043209
:1013700004460277037201460022054800F044FA51
:10138000FF230022227563756372204610BD00BFE3
:10139000D4ADFF1F2DE9F04F85B09A46BAF1FF3F5B
:1013A0000F9B0E9F03930C461546DDF84080DDF839
:1013B000449028D0012F18DD039BB3B105EB450500
:1013C000002604EB850435462046009501360023AF
:1013D0004A46414600F006FAB74204F10C04F3D144
:1013E00005B0BDE8F08F4FF0000A554405EB45000D
:1013F000002304EB80004A4641460E9305B0BDE849
:10140000F04F00F0EFB9002FEDDD02EB42030026B4
:1014100001EB830BB246584600F0F2F9002808BFF2
:10142000B2460136B7420BF10C0BF4D1C2E700BF54
:101430002DE9F04F85B09A46BAF1FF3F0F9B0E9F02
:1014400003930C461546DDF84080DDF8449028D023
:10145000012F18DD039BB3B105EB4505002604EB16
:101460008504354620460095013600234A4641460C
:1014700000F0AAF9B74204F10C04F3D105B0BDE8BD
:10148000F08F4FF0000A554405EB4500002304EBB4
:1014900080004A4641460E9305B0BDE8F04F00F08B
:1014A00093B9002FEDDD02EB4203002601EB830B25
:1014B000B246584600F0A4F9002808BFB2460136EB
:1014C000B7420BF10C0BF4D1C2E700BF2DE9F0419C
:1014D00012F08004069FDDF81C8017D022F08004F3
:1014E0009C4211DA04EB44051E4601EBC505284673
:1014F000013400234246394600F048F9A64205F17E
:101500000C05F4D1BDE8F081BDE8F0811A4402EB8E
:10151000420001EB8000234642463946BDE8F041D7
:1015200000F034B92DE9F04F7C4E8BB03368069350
:10153000DDF8188004460F46237A9D074FD1A26A32
:1015400094F9141043F00203013201312372A262B4
:1015500050D194F91510227F2069012311FB023329
:10156000034493F900104B1C04D023682046DB6829
:101570009847227F032A40F3B9804FF0030E754647
:101580000AE094F9093099451DD0227F01356DB2EA
:101590009542AE4680F2AA80216994F9153002FB8B
:1015A0000313AEF1030913F905A0BAF1FF3F494651
:1015B000204602F1FF33E9D0734504D023689B68CD
:1015C00098470028DDD0237A84F814A0033DFF2239
:1015D000A57503F0FE03627223F0020323723368E1
:1015E0000993099BC8EB0303BB42A5D320460BB06C
:1015F000BDE8F08F23686FF00201DB682046984752
:10160000256A002D3ED094F91530D4F82490581C4A
:101610007ED0207FD4F818A00344981E411C79D0B6
:1016200000286ED05146FFF785FE834694F91410CA
:101630004A1C6BD0207F0144881E431C66D00028C2
:1016400058D05146FFF776FE034694F91600411C28
:1016500055D00130421C52D0002849D05146059344
:10166000FFF768FE059B326807926168079A019050
:10167000511AA26A0392009302915B465246484671
:101680002146A84794F91530002B09DB257F2169F5
:101690002268022013FB0503D268C95620469047F2
:1016A000326894F914000892237F089D22686560CF
:1016B00010FB03F321696075FF252575C956D368B2
:1016C0002046984794F91530227F2069012113FBA9
:1016D00002114318415CFE29217A0CBF41F001013F
:1016E00021F0010121720021A1623AE7237A73E718
:1016F0005046B8E794F91600411C5346A9D1084852
:10170000B1E794F914104A1CD34693D1044B9CE7DB
:10171000D4F818A0DFF808B088E700BF28AEFF1F94
:10172000FC32010070B504460E46082501E05A1C43
:1017300027D1237A23F00103237200212046FFF7EB
:10174000F1FE94F91520237F216912FB03630B44FA
:10175000013D93F90330EAD1002B10DB237A667246
:1017600023F00103237200212046FFF7DBFE237ADA
:1017700023F00103237200212046FFF7D3FE204609
:1017800070BD94F909200132D3D1E5E710B5047892
:1017900004F00704012C0CD0032C08D1436833B1AA
:1017A0001A688168526818469047012010BD0120D0
:1017B00010BD3BB943681BB180689847204610BDF7
:1017C000204610BD002010BD10B49DF904404160BA
:1017D000640144F0010444EAC3038260037010BC56
:1017E000704700BF10B49DF904404160640144F0AB
:1017F000030444EAC3038260037010BC704700BF57
:10180000007800F0070070470B7A5B0700D532B113
:101810000368CB6001600B7A43F004030B727047DE
:101820002DE9F8434FF00008064600F11805474639
:1018300041463046002F4FD007F080F8F0B12C68B9
:10184000B4F5803F07F1040100F1040E07F5827C36
:1018500027D05EF8042B34FB02F334FB12F903F3B8
:101860000F0209F30F03C2EA03430A6893FA12F363
:1018700041F8043B8C45ECD807F01CF808F101084E
:10188000B8F1040F05F10405D2D1002F40D0304645
:101890003946002207F038F83846BDE8F84307F02B
:1018A00009B807F10C0100F10C0451F8083C54F898
:1018B000082C93FA12F341F8083C54F8042C51F820
:1018C000043C93FA12F38C4541F8043C04F10804FB
:1018D00001F10801E9D8CFE707F03CF807460028F6
:1018E000CCD02868B0F5803FC8D0391D07F5827488
:1018F0000B6830FB03F230FB13F302F30F0203F328
:101900000F03C2EA034341F8043B8C42F0D8B5E729
:10191000BDE8F88310B5002107F010F870B172B679
:101920000A4B1A6872B10A490C6844B11C6008601D
:1019300062B61046BDE8104006F0BCBF10BD08609E
:1019400062B610BD186062B610BD00BFE8ADFF1FE3
:10195000D8ADFF1F38B5184B18491A68184C1268D3
:101960001B79184D0B70A242286836BF2246A4F599
:10197000807202F58074C0B1011D31F9023B03F59C
:1019800000431B1122F8023B9442F6D806F092FF66
:101990000D4B0022196829601A600C4B1B781BB193
:1019A0000B4B4FF080421A6038BD4FF4006322F8B1
:1019B000023B9442FBD8F0E7DCADFF1F1F800040E4
:1019C0000083FF1FE8ADFF1FD8ADFF1FE4ADFF1F71
:1019D00008E200E010B5044607F0D0F8204610BD3C
:1019E000F8B501214248434E07F064F8424A4349A2
:1019F0001368802043F4805313600024087040F67D
:101A0000080534800120083407F0B0FFA3B2AB42D0
:101A10001CB2F6D13A4B1B685B0208D5394B1A68E9
:101A200048F6A273134048F6A27293424FD034494D
:101A3000344A0B68344F354D3548364C43F48003F7
:101A40000B604FF0010E40F22F3648F6A37140F2C2
:101A50000113C7F800E02E60116014600360244C8D
:101A60002D4A236823491A6002259D802279196135
:101A700002F1804202F50432284EDE6040F201118C
:101A8000D9804FF4807000210627B026D8829D604F
:101A9000D88399829F8399611170167006F0B0FF08
:101AA00022791F4B1F4E187053119B0003F16043A6
:101AB0001D4C327003F5614302F1100002F01F0764
:101AC00001211A4D44F82050B9401960F8BD0F4B60
:101AD0001A6840F22F339A42A9D10B4B1B68012B95
:101AE000A5D10B4B1A6840F201139A429FD1B6E779
:101AF000DCADFF1F00C00C402C80044021C00C4016
:101B00003C800440006003400C60034004600340DC
:101B100010600340A28F01000082FF1F00FEFFFF44
:101B2000E4ADFF1F1B8000400096FF1F5519000009
:101B3000024A0349034809F0F9B900BFFC9BFF1FA3
:101B4000D5190000DCADFF1F90F8303003B97047A5
:101B500070B5054606F05AFE0646002850D0EB69DF
:101B6000296A8B4227D901F58072934238D2A8693D
:101B70005C1A22460844311D0AF0DCF92B6AEA6A35
:101B80001919630822447F2B2962EA6209D806EBFF
:101B90004303023306F58171002223F8022F8B42A2
:101BA000FBD128463146002206F0AEFE3046BDE8A5
:101BB000704006F07FBE134A13885BB95E2112485D
:101BC00009F0A4FB002385F830303046BDE87040B2
:101BD00006F070BE013B9BB21380002BF2D1EDE703
:101BE000A8694FF480720844311D0AF0A3F92A6AEB
:101BF000EB6A02F5807203F580732A62EB62D0E72C
:101C000070BD00BFECADFF1FA49DFF1F002380F837
:101C100030308362C362704772B690F8303053B18F
:101C2000002380F8303062B6074A13882BB95E2152
:101C3000064809F06BBB62B67047013B9BB213804C
:101C4000002BF4D0704700BFECADFF1FA49DFF1F19
:101C500070B51B4E84B004460D46FFF7DDFF5E21D4
:101C6000184809F03DFB3388294601336846338024
:101C70000BF05EF96B4607CBA061A0691B88A384BB
:101C8000E161226240B10022E369E2620120A362C5
:101C900084F8300004B070BD338833B909485E2140
:101CA00009F034FB002004B070BD013B9BB23380CF
:101CB000002BEFD103485E2109F028FB0020F2E75A
:101CC000ECADFF1FA49DFF1F036A2DE9F04780467E
:101CD0004BB9D8F81830D8F81C2003EBC213C8F859
:101CE0001830BDE8F08706F091FD06460028F0D0D8
:101CF000D8F81890D8F81C70D8F820C0134D494671
:101D0000841C00F5817E0B0E5A1C35F9130035F941
:101D10001220C1F30F2ACAF5803300FB03F30AFB3C
:101D2000023353FB0CF324F8023FA6453944EAD1B1
:101D300009EBC7174046C8F818703146002206F074
:101D4000E3FD3046BDE8F04706F0B4BD3433010092
:101D500000207047F0B53D4C83B024680194DDF855
:101D600004E0044616461D460F46002371460A222B
:101D700006F056FF236836495B68082220469847DC
:101D800030460DF07DFB2368024631465B682046F5
:101D9000984723682F495B682046012298473946B7
:101DA00020460023102206F03BFF23682A495B6887
:101DB00006222046984728460DF062FB236802461B
:101DC00029465B6820469847236824495B680422BB
:101DD0002046984708980DF053FB236808995B68E4
:101DE00002462046984723681D495B680422204626
:101DF000984709980DF044FB236809995B680246EF
:101E000020469847236817495B6820460222984776
:101E10000B99204600230A2206F002FF236812498C
:101E20005B6820460B2298470A99204600230A2225
:101E300006F0F6FE23680D495B68042220469847A9
:101E4000204606F0DDFE03B0F0BD00BF28AEFF1F48
:101E5000E0350100EC350100F0350100F8350100F6
:101E600000360100083601000C360100183601006A
:101E7000F8B505223849394D0446FFF773FA0121B8
:101E8000102007F06DFD0021102007F055FD2846B9
:101E90000E2109F035FB28460B2109F0A5FA0C218B
:101EA000284609F0E9FA0A200AF0E6FE142007F0B5
:101EB000D9FA002504F1540204F1E007012380E877
:101EC0008400064643720572C560057406F064FD21
:101ED000C4F83461142007F0C5FA04F1780306460B
:101EE0000360476005724572C560057406F054FDD5
:101EF000C4F83861142007F0B5FA04F1AC020223EB
:101F000002600646437247600572C560057406F0BC
:101F100043FDC4F83C61142007F0A4FA04F58C7367
:101F200006464360076005724572C560057406F099
:101F300033FDC4F840611021094806F037FC4FF426
:101F40008033084AC4F8FC502267C4F8F830C4F85B
:101F5000003163672046F8BDA0350100A49DFF1F36
:101F60000084FF1F887BCD0510B501210446102099
:101F700007F0E2FC322007F0F9FC4FF48033C4F89C
:101F8000FC307D2007F0F2FC0021C4F8FC1010208A
:101F9000BDE8104007F0D0BC10B5044688B0082951
:101FA00031D8DFE801F032326F757C82053B690081
:101FB00090F8A83013B17830FFF72EFE0A210120E7
:101FC00006F0AEFE3F49E06204A806F005FF0A22D3
:101FD000E16A684606F032FF694604A807F00AF88D
:101FE000394907F00FF8014604F1300006F080FF90
:101FF000684606F0B1FE04A806F0AEFE216B04F1BF
:10200000AC00FFF725FE08B010BD90F8A830002BFB
:10201000F9D10021102007F08FFCF4E790F8DC30B4
:10202000002BF0D190F8A830002B47D108210120D7
:1020300006F076FE2549206404A806F0CDFE0A22AB
:10204000216C684606F0FAFE694604A806F0D2FF45
:102050001D4906F0D7FF014604F1440006F048FF91
:10206000684606F079FE04A806F076FE616C04F17D
:10207000AC00FFF7EDFDC6E715497830FFF7E8FD46
:1020800008B010BD0121102007F056FC08B010BDAB
:10209000FFF76AFF2046FFF767FF08B010BD0D4944
:1020A0007830FFF7D5FD08B010BD90F8A830002BB0
:1020B000A9D109497830FFF7CBFDA4E77830FFF7C5
:1020C000ABFDB3E73C360100543601004436010055
:1020D0004C360100203601003036010010B5034BAC
:1020E000034A0446FFF738F9204610BD3835010091
:1020F000551D000010B50446FFF714FB204610BD27
:10210000FFF714B9002843D0F0B5037A13F07F0429
:102110002BD123F07F0343F040030372046044603B
:10212000013137D000274FF0010E04E082F810E0B3
:102130000023013917D05368946810339C42A4F1EE
:102140001003F3D39360002BF3D045685E1B361168
:10215000DDB16E814360013924F8067C04F8087C07
:1021600044F8047CE7D11846F0BD5B0612D503683D
:10217000002BD5D00029F6D0B3F90A400139002C44
:10218000CED013EB0413F5D1CAE703604360E2E756
:10219000002070470020F0BD10B50021044606F075
:1021A0001BFE204610BD00BF2DE9F8435E4F5F497E
:1021B000044606F0ADFE97E80F0000264FF0FF0939
:1021C00007F1100504F1240EC4F81490A661E6612D
:1021D00026628EE80F0095E80F0004F1340E07F137
:1021E00020058EE80F0095E80F0007F1300E04F18E
:1021F000540C6664C4F84890E66426658CE80F00C9
:102200009EE80F0007F1400C04F1640888E80F0015
:102210009CE80F0004F1840CC4F87C906667A66704
:10222000C4F880608CE80F0095E80F0004F1A40C5E
:10223000C4F89460C4F89860C4F89C60C4F8A060C6
:102240008CE80F0004F1B40C8CE80F0004F1C40C0E
:102250008CE80F0004F1D40C8CE80F009EE80F000E
:1022600004F1E40E8EE80F0095E80F0004F1F40E7F
:102270008EE80F0004F5827E8EE80F0007F150050E
:1022800004F58A7E8EE80F0095E80F0004F59A7E2B
:1022900007F16005C4F82461C4F82861C4F82C6112
:1022A000C4F830618EE80F0095E80F0004F5A27EB7
:1022B00007F170058EE80F0095E80F0004F5AA7E7F
:1022C00007F180058EE80F0095E80F0004F5B27E57
:1022D00007F190058EE80F0095E80F0004F5BA7E2F
:1022E00007F1A0058EE80F0095E80F0004F5C27E07
:1022F00007F1B0058EE80F0095E80F00C03704F530
:10230000CA7585E80F0097E80F0004F5D27585E8D7
:102310000F00C4F8B461C4F8B861C4F8BC61C4F873
:10232000C061BDE8F88300BFBC3601008C370100F6
:1023300006230361FFF738BFF0B593B00C4617468C
:102340000AF0B6FB20B91C480BF036F813B0F0BD0C
:1023500020460AF095FE20B3214602A80AF0E8FDC7
:10236000039E049CA64216D8F0E7A64207D9321B6A
:102370003546029801A9204409F0DCFD2C469DF861
:10238000040027B1A0F10903DBB2F52BDED808F079
:102390008DFBA642DAD9631C9E42E6D31D4601227C
:1023A000E7E72346054A402102A80CF0C7FD02A832
:1023B0000BF002F813B0F0BD94370100CC370100E8
:1023C0000069704701EB0212143210B404460FCAC0
:1023D00084E80F00204610BC704700BF01EB0212DA
:1023E000A43210B404460FCA84E80F00204610BC83
:1023F000704700BF01EB021202F59A7210B4044656
:102400000FCA84E80F00204610BC704782B010B499
:1024100001AC84E80C0001AB00EB01140FCB1434C9
:1024200084E80F0010BC02B0704700BF82B010B447
:1024300001AC84E80C0001AB00EB01140FCBA43419
:1024400084E80F0010BC02B0704700BF82B010B427
:1024500001AC84E80C0001AB00EB01140FCB04F5D8
:102460009A7484E80F0010BC02B070472DE9F04F59
:10247000427C83B001250024B2B1027C202A27D8F7
:10248000DFE802F01B262626262626262611112600
:1024900026112626262626262626262626262626F1
:1024A0002626262611004474C268561CC66012787F
:1024B000457422EAE2720274E0E7037A002B0CBF53
:1024C0000123022380F85830002003B0BDE8F08FCC
:1024D000457C01240472EDB1272A26D00D4604461E
:1024E00021D95B2A00F0D3807B2A46D12A7A22F0B8
:1024F0007F02DEB242F0200300222B722A606A6063
:10250000002E40F056810623002084F8583003B096
:10251000BDE8F08FC2681519C5601278447422EACC
:10252000E2720274D8E7222A27D1437C046844600F
:10253000002B00F01584002423464474A64626464A
:10254000012793B1037C46749A424FF0000400F0D7
:10255000E780002B00F0F2805C2B73D00468651CD0
:1025600005602370437C002BECD1C3685C1CC46005
:102570001B7823EAE3730374E5E70020864604F141
:10258000170647F6ED7C0127A2F15F03DBB2A2F14B
:1025900041011B2BC9B25FFA80F847D801304028AF
:1025A00037D104EB080300261E76237E742B1DD042
:1025B000662B00F03E846E2B20D02B2B00F0D484B1
:1025C0002D2B09BF637E04F1180104F119010126C6
:1025D000A3F13002D2B2092A40F23E812E2B00F044
:1025E0005485032384F8583000206EE72B7A23F0BB
:1025F0007F0343F0060301222B722A60B8F1040F17
:1026000000F050810223002084F8583003B0BDE868
:10261000F08F84F811E006F8012FE3685A1CE2609D
:102620001A78677422EAE2722274ADE7A2F12B03F2
:102630001929DBB2B2D90E2B2CFA03F1B1D8CB0792
:10264000AFD5ABE7C3681D460133C36095F800C042
:1026500047742CEAEC7C5FFA8CF50574BCF1000F32
:102660006CD0BCF1750F70D02F2D914C02D109E0C8
:10267000AB4207D014F8023F002BF9D1032380F8B6
:1026800058305EE06378002BF8D0467466E72A7A0B
:1026900022F07F02DEB242F0400300222B722A6059
:1026A0006A60002E3FF42FAFE36862740120194680
:1026B0000133E3600978607421EAE1712174202913
:1026C00000F27E82DFE811F021007C027C027C02B5
:1026D0007C027C027C027C027C02F000F0007C0226
:1026E0007C02F0007C027C027C027C027C027C0288
:1026F0007C027C027C027C027C027C027C027C02EA
:102700007C027C027C027C02F000237A002B0CBF4E
:1027100001230223002084F8583003B0BDE8F08F75
:1027200003685A1C02601C700B7A42680A6023F02E
:102730007F0343F004030B720120C6E6022380F8F6
:102740005830002003B0BDE8F08F46744FF0040C01
:102750001D460133C36095F80080477428EAE87885
:102760005FFA88F5A5F130090574B8F1000FE5D0DE
:10277000402D85BF25F02005373D5FFA89F5EDB284
:1027800045EA04140FFA84F80F2D0CF1FF3C1FFAF0
:1027900088F43FF673AF1CF0FF0C4674D8D104F5F3
:1027A00020539BB2B3F5806F80F0A582C4F3090E6D
:1027B000DBE6E3686274012019460133E3600978BF
:1027C000607421EAE1712174202975D801A757F8B6
:1027D00021F000BF0B270000B9280000B928000035
:1027E000B9280000B9280000B9280000B928000065
:1027F000B9280000B9280000AD280000AD2800006D
:10280000B9280000B9280000AD280000B928000050
:10281000B9280000B9280000B9280000B928000034
:10282000B9280000B9280000B9280000B928000024
:10283000B9280000B9280000B9280000B928000014
:10284000B9280000B9280000B9280000B928000004
:10285000B9280000AD2800000020DFF8588007E00C
:10286000404500F286834FEA4C00704500F28183B8
:1028700011F8017FA7F13003DBB21044092B00EB04
:10288000800C1A466FEA030EEAD9002F40F0FE834F
:102890002B7A286023F07F03002E00F0F28343F0B0
:1028A0000A032B72012010E6627400E7627483E76A
:1028B000583801009999991901227D29227200F056
:1028C00047820027B846627C21686160002A00F0D8
:1028D000C582227C272A00F06A82222A00F05F82C9
:1028E000607C002800F0E9821346A3F13002D2B2E6
:1028F000092A00F23E82012047F6ED7E4A1C6774E9
:1029000022600B70637C002B00F01982237CA3F102
:102910005F02D2B21B2A40F21082A3F14101C9B278
:10292000A3F12B021929D2B240F207820E2A2EFA05
:1029300002F140F2FF8123685A1C22601F70637C01
:102940000122002B49D0237C202B4FD801A151F824
:1029500023F000BF0B270000ED290000ED29000047
:10296000ED290000ED290000ED290000ED2900000F
:10297000ED290000ED290000D9290000D929000027
:10298000ED290000ED290000D9290000ED29000003
:10299000ED290000ED290000ED290000ED290000DF
:1029A000ED290000ED290000ED290000ED290000CF
:1029B000ED290000ED290000ED290000ED290000BF
:1029C000ED290000ED290000ED290000ED290000AF
:1029D000ED290000D92900006774E368591CE16003
:1029E0001B78627423EAE3732374ADE7617C0122F0
:1029F0002272002900F045823A2B7FF4F2ADD5F81F
:102A00000090D4F804A067740DE0BAF1000F03D071
:102A100013B10CF059FB80B1B9F90A30002B00F06A
:102A2000278209EB03195046B9F1000F00F020820C
:102A3000D9F80C309A451946E7D14946731E4FF034
:102A400000022046FFF712FD00283FF47AAE637CB7
:102A50000122002B49D0237C202B4FD801A151F813
:102A600023F000BF0B270000FD2A0000FD2A000014
:102A7000FD2A0000FD2A0000FD2A0000FD2A0000BA
:102A8000FD2A0000FD2A0000E92A0000E92A0000D2
:102A9000FD2A0000FD2A0000E92A0000FD2A0000AE
:102AA000FD2A0000FD2A0000FD2A0000FD2A00008A
:102AB000FD2A0000FD2A0000FD2A0000FD2A00007A
:102AC000FD2A0000FD2A0000FD2A0000FD2A00006A
:102AD000FD2A0000FD2A0000FD2A0000FD2A00005A
:102AE000FD2A0000E92A00006774E368591CE160D0
:102AF0001B78627423EAE3732374ADE7617C0122DF
:102B00002272002900F0C6817D2B00F021812C2B40
:102B10007FF467ADE368677401211A460133E3600F
:102B20001278617422EAE2722274202A3FF6CBAE58
:102B300001A050F822F000BF05260000C7280000C1
:102B4000C7280000C7280000C7280000C7280000C9
:102B5000C7280000C7280000C7280000BD2B0000C0
:102B6000BD2B0000C7280000C7280000BD2B0000B7
:102B7000C7280000C7280000C7280000C728000099
:102B8000C7280000C7280000C7280000C728000089
:102B9000C7280000C7280000C7280000C728000079
:102BA000C7280000C7280000C7280000C728000069
:102BB000C7280000C7280000BD2B00006774ACE7E1
:102BC00001235D29237200F0C38063695A68996804
:102BD00010329142C0F0C18010399960002900F094
:102BE0008480013EF6B200276B68002B00F06E81F6
:102BF000CA1A12115A8169604F810F72CF60334631
:102C00004FF000022046FFF731FC00283FF499AD59
:102C1000637C0122002B48D0237C202B4ED801A1BD
:102C200051F823F00B270000BD2C0000BD2C000044
:102C3000BD2C0000BD2C0000BD2C0000BD2C0000F0
:102C4000BD2C0000BD2C0000A92C0000A92C000008
:102C5000BD2C0000BD2C0000A92C0000BD2C0000E4
:102C6000BD2C0000BD2C0000BD2C0000BD2C0000C0
:102C7000BD2C0000BD2C0000BD2C0000BD2C0000B0
:102C8000BD2C0000BD2C0000BD2C0000BD2C0000A0
:102C9000BD2C0000BD2C0000BD2C0000BD2C000090
:102CA000BD2C0000A92C00006774E368591CE1608A
:102CB0001B78627423EAE3732374AEE7617C01221C
:102CC0002272002900F0C1805D2B41D02C2B7FF4B3
:102CD00088AC636967745A689968103291423CD332
:102CE0001039996000297FF47FAF042384F85830AD
:102CF0000020FFF7EABB04F510539BB2B3F5806FD9
:102D0000C0F07A817F2C8DF800C000F27D8102AD89
:102D10005FFA88F305F8073D002B3FF423AC046805
:102D200004F1010CC0F800C0237015F8013D002B20
:102D3000F5D117E4CA077FF5FEAD2168DEE5E3684B
:102D40005A1CE2601B78607423EAE3732374DEE5A7
:102D5000002363740120FFF7B8BB01221A74C4E793
:102D6000C3685A1CC2601A7822EAE2720274FFF742
:102D7000E2BBA3F15F02D2B21B2A7FF6BCADA3F186
:102D80004102D2B2192A7FF6B6AD2B2B3FF4B3AD78
:102D90002D2B3FF4B0AD2E2B7FF423ACABE5617C43
:102DA00029B95A1CE2601B7823EAE37222740023DB
:102DB00067749E46012083B1237C6774934276D06A
:102DC000002B70D05C2B10D0216801F1010CC4F8ED
:102DD00000C00B70637C002BEED1E368591CE160EE
:102DE0001B7823EAE3732374E7E7E36819460133AA
:102DF000E3600978607421EAE1715FFA81FC84F88C
:102E000010C000294FD0752963D0BCF12F0FBC49E9
:102E100002D109E0634507D011F8023F002BF9D138
:102E2000032384F858308CE44B78002BF8D0677477
:102E3000CAE72B7A2E6023F07F0343F00603B8F134
:102E4000050F2B727FF4DEAB2CE5E3689918E16087
:102E50001B78627423EAE373237435E71A4601335F
:102E6000E3601278012022EAE2722274607431E594
:102E700062695168936810318B4260D201231374E8
:102E800033E7E3689918E1601B78627423EAE3731F
:102E90002374B1E5E3689918E1601B78627423EA52
:102EA000E373237430E6022384F8583049E423683E
:102EB0005A1C226083F8008041E55A1CE2601B78AE
:102EC000012223EAE373237462740EE529606960CA
:102ED00092E667744FF0040C4FF000091946013375
:102EE000E36091F800A060742AEAEA7A5FFA8AF156
:102EF000A1F1300B2174BAF1000FD4D0402985BF65
:102F000021F0200137395FFA8BF1C9B241EA091982
:102F10000FFA89FA0F290CF1FF3C1FFA8AF93FF6E4
:102F20007FAF1CF0FF0C6774D8D109F520539BB21A
:102F3000B3F5806F80F0C580C9F3090E4DE7A3F1AA
:102F40001001916000293FF4D0AE6A68002A00F0B9
:102F5000FA80881A00115081696023F8067C03F812
:102F6000087C43F804AC69E5637E04F11901FFF7BE
:102F70002FBBDFF890C1DFF890E10022ACFB0080AE
:102F8000C0080132704552B2F8D8092B88BF3B46C1
:102F900007D811F8013FA3F130070132092F52B2CF
:102FA000F7D92E2B00F0B4800F7807F0DF03452B04
:102FB0003DD00023002F7FF414ABD4180AF030FF6B
:102FC000002C40F31781DFF8448114F0010FFBB2AD
:102FD00007F1010703D058F823100AF079FF6410B5
:102FE000F3D10EB100F100402B7A286023F07F036B
:102FF00043F00C032B7255E4C4F3090444EA8E2415
:1030000004F580348DF800C004F03F03A409A5B294
:1030100063F07F031F2D8DF8013041D864F03F0429
:10302000E3B28DF802300DF10305013D77E64F78EC
:103030002D2F00F0CB802B2F00F0D88001F1010E56
:10304000A7F13003D9B20929B3D89918262900F37A
:1030500080804FF0000904E001EB4803D1182629D5
:1030600074DC1EF8017FA7F130015FFA81FCBCF12E
:10307000090F03EB8308EFD9B9F1000F9AD05B4237
:1030800098E743F008032B720CE400200F78B0F5AA
:10309000000FA7F13003DBB2BFF46BAF002274E77F
:1030A00004F03F05C4F3891365F07F050F2B8DF8FD
:1030B00002505EDC63F01F03DBB28DF8033001AD1C
:1030C000B3E709F510539BB2B3F5806F60D34B465D
:1030D0007F2B8DF800C063D80DF1080C5FFA8AF3DE
:1030E0000CF8073D002B3FF475AE216801F1010992
:1030F000C4F800900B701CF8013D002BF5D169E677
:1031000058380100CDCCCCCCFFFF7F00A4360100A5
:103110004F78A7F13003DBB2092B01F101013FF633
:1031200044AFDFF84CE1704505D800EB8000013A70
:1031300003EB400052B211F8017FA7F13003DBB27C
:10314000092BF0D931E72960696006E7B9F1000F72
:103150000BD1002E73D0454A2B7A2A6023F07F03CF
:1031600043F00C032B72FFF79DBB002E6AD10022A7
:10317000F2E703F03F03C4F3033463F07F0544F048
:10318000F0038DF803508DF804300DF105054CE780
:10319000C9F3090343EA8E2303F580338DF800C099
:1031A00003F03F019B091FFA83FC61F07F01BCF132
:1031B0001F0F8DF8011030D863F03F03DBB28DF89C
:1031C00002300DF1030C0CF1FF3C8EE78F78A7F174
:1031D00030035FFA83FCBCF1090F01F1020E43D802
:1031E00099182629C1DC4FF001093AE701F1020ED6
:1031F0008F7825E76442002C3FF4F3AEDFF874804B
:1032000014F0010FFBB207F1010703D058F82310A7
:103210000AF05EFE6410F3D1E3E603F03F0CC3F363
:1032200089116CF07F0C0F298DF802C00DDC61F064
:103230001F03DBB28DF803300DF1040CC3E74FF030
:10324000FF4289E74FF0004286E701F03F01C3F3F8
:10325000033361F07F0143F0F0038DF803108DF824
:1032600004300DF1050CAEE7002308E7000080FFF5
:10327000CBCC0C008C360100002845D0F8B5037A81
:1032800013F07F0418D09B0620D5F9B106461746E7
:103290000D46046808E013B10BF016FF50B1B4F905
:1032A0000A30ABB104EB031428468CB1E3689D42AD
:1032B0001946F0D12046F8BD23F07F0343F02003E8
:1032C000DBB203729B0604604460DED40020F8BDCC
:1032D0007A68BB681032934213D3A3F11004BC6028
:1032E000002CF3D072688AB1A11A0911518174605F
:1032F000002203F8082C43F8045C204623F8062C2F
:10330000F8BD01233B74E1E700207047346074602E
:10331000EEE700BF2DE9F84FC3681A7F970688468D
:1033200040F1E8805F69056981463C460BE01DB1CC
:1033300013B10BF0C9FE70B1B4F90A30002B00F0E4
:10334000D98004EB03142846002C00F0D380E368F6
:103350009D421946EBD1237A5E0640F1CB80D9F825
:1033600014A023680AF1FF3BBAF1000F10D0B3F9A3
:103370000A20002A00F0BE80002105E0B3F90A20EF
:103380000131002A00F0B6808B4503EB0213F5D122
:10339000002B00F0AF801A7A940640F1AB801C68D5
:1033A000D9F818600BE01EB113B10BF08DFE70B1AF
:1033B000B4F90A30002B00F09D8004EB0314304672
:1033C000002C00F09780E3689E421946EBD1237AE7
:1033D000980640F18F80D9F81C9024680CE0B9F170
:1033E000000F03D013B10BF06FFE60B1B4F90A30D7
:1033F000002B7FD004EB03144846002C7AD0E368FE
:1034000099451946EBD1237A03F07F03082B7BD033
:103410000A2B6FD12368B3F1004F8CBF0023012327
:103420005BB967E01DB113B10BF04EFE60B1B7F9A7
:103430000A30002B65D007EB03172846002F60D019
:10344000FB689D421946EDD13B7A590659D53B6838
:10345000BAF1000F0ED0B3F90A20002A51D0002192
:1034600004E0B3F90A200131002A4AD0594503EBA0
:103470000213F6D1002B44D01A7A920641D51C686B
:103480000AE01EB113B10BF01FFE58B1B4F90A30B7
:10349000002B36D004EB0314304694B3E3689E420D
:1034A0001946EED1237A9B062BD524680BE0B9F19F
:1034B000000F03D013B10BF007FE50B1B4F90A307E
:1034C000FBB104EB03144846DCB1E36899451946A7
:1034D000EDD1237A03F07F03043B082B11D8DFE8FA
:1034E00003F03030291029100C101700B8F1000F2C
:1034F00040F0F7804046BDE8F88F2068B0F1004FFB
:103500005BD90020BDE8F88F2368DB43DB0F87E73A
:1035100024684FF04F4120460AF08CFE70B34FF004
:103520009E4120460AF07CFE40B320460AF0ACFEE5
:10353000BDE8F88F2068B0F1004F28BF0020BDE83B
:10354000F88F21680B782B2B3AD02D2B3CD10124FE
:103550004B782144A3F13002D2B2092A4FF0000087
:103560000ED92E2B00F0EB80BDE8F88F4FF09E4176
:1035700038460AF055FE002840F0B580BDE8F88FC7
:10358000744F04E0B84221D87000A8421ED811F848
:10359000018FA8F13003DBB21044092B00EB800649
:1035A0001A466FEA0305EDD9B8F1000F40F0C78065
:1035B000002C4ED0B0F1004F9CD84042BDE8F88FAF
:1035C0004B7800240131C5E70024C3E7624E634D08
:1035D0000022A6FB0070C0080132A84252B2F8D8FF
:1035E000092B88BF434607D811F8013FA3F13005E6
:1035F0000132092D52B2F7D92E2B59D00E7806F090
:10360000DF03452B2BD00023002E7FF47AAFD51893
:103610000AF006FC002D07467ADDDFF8488115F038
:10362000010FF3B206F1010605D0384658F8231011
:103630000AF04EFC07466D10F1D10CB107F10047BE
:103640004FF04F4138460AF0F5FD00288ED1BDE815
:10365000F88FB0F1004F28BF0020BDE8F88F4E78FA
:103660002D2E45D02B2E08BF8E78A6F13003DDB26B
:1036700014BF01310231092DC5D8D518262D3FF7C9
:1036800040AF4FF0000805E005EB4E039D18262DD6
:103690003FF72CAF11F8016FA6F13005EFB2092FFB
:1036A00003EB830EF0D9B8F1000FADD05B42ABE76E
:1036B0004E78A6F13003DBB2092B01F101019ED84F
:1036C000274DA84205D800EB8000013A03EB4000EB
:1036D00052B211F8016FA6F13003DBB2092BF0D919
:1036E0008DE74CBB002738460AF0CEFDBDE8F88FC9
:1036F0008E78A6F13003DDB2092D01F1020188BFF9
:103700000023D3D89D18262DEBDC4FF00108C1E72C
:103710006D42002D91D0DFF8508015F0010FF3B20B
:1037200006F1010605D0384658F823100AF0D0FB00
:1037300007466D10F1D180E74FF00047D3E791F8CD
:103740000080B0F5000FA8F13003DBB2BFF43EAF4C
:10375000002245E799999919CDCCCCCCFFFF7F0089
:10376000CBCC0C00A43601008C3601002DE9F04FC3
:10377000037A03F07F03023B89B00C463E2B00F234
:103780001183DFE813F0B800B8004A014A01930141
:103790000F03D5000F030A010F03BD010F030F0331
:1037A0000F030F030F030F030F030F030F030F0389
:1037B0000F030F030F030F030F030F030F030F0379
:1037C0000F03F5010F030F030F030F030F030F0385
:1037D0000F030F030F030F030F030F030F030F0359
:1037E0000F030F030F030F030F030F030F030F0349
:1037F0000F030F030F030F030F030F030F030F0339
:103800000F033F000768002F00F0648591E848002F
:103810009E4280F01686B54A3346D51C01E0AA4286
:1038200008D0581C12F8011B6060197094E80A0057
:103830008B42F4D34FF0000E83F800E0227C6368E3
:10384000A068DFF8AC82991B01320144D2B27646FF
:10385000A16022741AB300214FF0200C00E003464F
:103860002268934203F1010080F0F782606083F8E0
:1038700000C062682568954202F1010003D96060CA
:1038800082F800C0626816706068A26894F810E060
:103890000131C31AC9B213448E45A360DFD8214653
:1038A0003846FFF763FFB7F90A30002B40F0CA82B1
:1038B0008F491F46022294E808106345634601D8E9
:1038C0000BE052B15D1C11F8010B6560187094E8B3
:1038D0000900834202F1FF32F3D31E706368A268CD
:1038E000CCEB030C6244A26019461A46002F00F08C
:1038F000D482227CAEE791E82800AB4290E8060033
:103900002B460BD952B1581C606011F8010B18708E
:1039100094E80900834202F1FF32F3D300221A70C7
:103920006268A368521BD018A06009B0BDE8F08F90
:103930000DF11E026F4E03681046A6FB0351C90825
:1039400001EB8105A3EB45033033DDB200F8015DE7
:103950000B460029F1D194E842008E42A2EB00030D
:1039600080F05585002B00F05285411C334603E062
:103970008A4208D011F8015B581C60601D7094E801
:1039800009008342F4D300221A706268A368921B74
:10399000D018A06009B0BDE8F08F4E68D1F800E003
:1039A0000568764580F02884721C2D234A603370A8
:1039B0004B6800221A70D1F800E04E680123A2681B
:1039C0004C4F13440DF11E02A3601046A7FB0531B6
:1039D000C90801EB8103A5EB43033033DBB200F8E8
:1039E000013D0D460029F1D1B645A2EB000140F2A0
:1039F0001185002900F00E85411C304603E08A4203
:103A000008D011F8013B451C6560037060682368AD
:103A10009842F4D300230370B7E74D680F68066837
:103A2000BD4280F0B6836A1C22234A602B704B682B
:103A300000221A704D680F680123A2681344013EEA
:103A4000A3604FF0000E4FF05C0C16F8010FE8B1C8
:103A5000222800F0EB81284B03E0D978814200F066
:103A6000E6811A790233002AF7D1AF4207D96B1CDD
:103A70006360287063681A70656827680122A3680C
:103A80001344A36016F8010F0028E1D1AF4240F2C1
:103A9000B6836A1C222362602B706368012218704F
:103AA000A368D018A06009B0BDE8F08F0368002BB0
:103AB00040F07E8391E848009E4280F0BF840F4A28
:103AC0003346551D01E0AA4208D0581C12F8011BCC
:103AD0006060197094E80A008B42F4D300221A70D7
:103AE0006268A368901B1844A06053E77438010013
:103AF0008C380100CDCCCCCC583801008438010082
:103B0000D0F800A0514650460AF0A8FB002840F02B
:103B10005F842AF000452846B1490AF09FFB00283F
:103B200040F0F7812846AE490AF07AFB002840F0C1
:103B3000F08161682368994280F04784A94A0B4666
:103B4000161D01E0B24208D05D1C12F8010B656041
:103B5000187094E809008342F4D300221A70626856
:103B6000A368511A1944A160084609B0BDE8F08F56
:103B7000D0F80080B8F1000F00F0508391E8880081
:103B80009F4280F04A84984A3B46D51C01E0AA42F5
:103B900008D0581C12F8011B6060197094E80A00E4
:103BA0008B42F4D300251D70237C6268A168DFF886
:103BB00044A2D01B01330144DBB22F46A160237421
:103BC0004FF0220B002B00F0A28100204FF0200EBE
:103BD00000E0324623689A4202F1010180F03F8101
:103BE000616082F800E0636825689D4203F101018D
:103BF00003D9616083F800E063681F706668A1689C
:103C0000237C0130B21AC0B211448342A160E0D8D3
:103C1000D4F80090D8F80C004E4580F01C81731C3D
:103C2000636086F800B063681F706668D4F800901F
:103C3000A16801231944A16001384FF05C0E10F80F
:103C4000015FF5B1222D00F0C380684B03E0D97805
:103C5000A94200F0BE801A790233002AF7D1B1459B
:103C600008D9731C6360357063681A706668D4F88D
:103C700000900122A3681344A36010F8015F002D97
:103C8000E0D1B14540F2ED80731C636086F800B06E
:103C900063681D7094E84400A368B24203F1010315
:103CA000A36040F2DE80721C3A236260337094E8B5
:103CB0000C009A4204D9591C202261601A70636872
:103CC0001F706368A2689B1B1344A3602146404693
:103CD000FFF74CFDB8F90A30002B00F0AF8008EB7D
:103CE0000318B8F1000F42480ABF022203225046CF
:103CF00094E84800B342334601D80BE052B15D1C52
:103D000010F8011B6560197094E80A008B4202F1FB
:103D1000FF32F3D31F706268A168237CC6EB020EEA
:103D20007144A1601046B8F1000F7FF44BAF013B26
:103D3000DBB22374002B00F0F7824646202500E01A
:103D40001A4621688A4202F1010380F024826360EE
:103D5000157094E80A00994203F1010002D96060ED
:103D60001D7063681E706368A068217C08F10108FB
:103D70009A1A5FFA88F802444145A2601846DFD8D3
:103D80002268934204D2591C7D2261601A706368D4
:103D900000221A706268A368101A1844A06009B063
:103DA000BDE8F08F91E84800B34240F230830D4AFD
:103DB0003346151D02E0AA423FF4E5AD581C12F847
:103DC000011B6060197094E80A008B42F3D3DAE5B6
:103DD0002A46B14510D8A36800221A44A2602EE7F3
:103DE000FFFF7F7F6C3801007838010058380100F0
:103DF000903801008C380100731C636086F800E085
:103E000063681F70A3686668D4F8009001334E455C
:103E1000A36080F0FA82731C6360327063681F7065
:103E2000A3686668D4F800900122D6E70246AF4244
:103E300019D8A16800230B44A36006E69A48984667
:103E4000022255E707EB0317002F98490ABF022209
:103E5000032241462FE50023ECE61A4613E51346FC
:103E6000CBE633462CE76B1C636085F800C06368C3
:103E700083F800E0A36865682768591CBD42A1600B
:103E800080F0D8826B1C63602A70636883F800E05E
:103E9000A168656827680123CDE7237C013BDBB27D
:103EA0002374002B00F03C823E46202500E01A4699
:103EB00021688A4202F1010380F09C8163601570E1
:103EC00094E80A008B4203F1010002D260601D7089
:103ED00063681E706368A168207C01379A1AFFB27C
:103EE0000A44B842A2601946E1D82268934204D23B
:103EF000581C5D2260601A70636800221A70626844
:103F0000A368501A1844A06009B0BDE8F08F1646A7
:103F10007EE6002150460AF079F96668D4F8008000
:103F2000002840F0EA81624950460AF083F90028EF
:103F300000F05B81DFF88C91DFF88CB10025202741
:103F4000514659F8040D0AF06BF938B15046DBF8C8
:103F5000001009F0BDFF3D4482462DB2554B9945F6
:103F60004FEA6707ABF1040BEAD14FF0FF3B0021AA
:103F700050460AF069F9F8B14F4950460AF050F935
:103F8000B8B919E00FFA8BF94C4B514653F8290098
:103F90000AF05AF940B1474B504653F8291009F03E
:103FA00097FFED1B82462DB20BF1FF334FFA83FBD7
:103FB0007F10BBF1FF3FE5D150460AF08BF909288D
:103FC000814640F2FD81DFF804B13D4903460522F8
:103FD000A1FB0303DB08A1FB0B0B092B02F1FF3054
:103FE00057B24FEADB0BC2B2F2D8584609F018FFBD
:103FF00003464846019309F013FF0146504609F075
:104000005DFE019B194609F063FF01900AF062F919
:10401000824609F005FF019B0146184609F04EFE55
:10402000014609F04DFE0AF055F950445845C0F0DC
:10403000B48009F10109002D40F0E5800020002F37
:1040400012DD1F4902E0002A00F0E680A1FB0030EB
:10405000C008A1FB0023DB087A1E03EB8303D2B266
:10406000B0EB430F57B2EED00DF11E02DFF850C097
:104070009646ACFB0931C90801EB8103A9EB430368
:104080003033DBB20EF8013D89460029F1D14645B7
:10409000CEEB020180F0CC81002900F0C9810EF145
:1040A000010E314618E000BF8C3801009038010045
:1040B0008096184BA4360100ACC527377436010032
:1040C000CDCCCCCCBC360100A036010040420F0064
:1040D00096450AD01EF8013B01F1010CC4F804C05A
:1040E0000B70616823689942F2D300230B706368F8
:1040F000A1689E1B3144A1601E469E46002F40F0E1
:10410000A880002DC0F212813FF42EAD2768BB427B
:10411000184676D2591C65236160037063680021DC
:10412000197060682768A16801230B44DFF828E351
:10413000A36016468EFB0531EB17C3EBA10101EB23
:104140008103A5EB43033033DBB20DB206F8013D2A
:10415000002DEFD1B842A2EB060180F06581002965
:1041600000F06281711C054603E08A4208D011F814
:10417000013B6E1C66602B7094E828009D42F4D3CE
:1041800000232B706268A368111A1944A1600846C5
:10419000EBE4002351E41346E4E5AB4BA3FB00231F
:1041A000DB0803EB8303B0EB430F3FF448AF5BE75F
:1041B00091E828009D4280F03F81A44A2B46161DBD
:1041C00001E0B24208D0581C12F8011B606019705F
:1041D00094E80A008B42F4D300221A706268A36844
:1041E000501B1844A060FFF7D5BB054620274FF0B1
:1041F000050BBCE613466CE60023FFF7E0BB024666
:104200004EE4002391E7B9F1090F7FF617AF0135AE
:104210002DB24FF0010911E7174625E74A680B68F0
:104220009A4280F00381511C7B236160137094E8F3
:104230000A00994204D9581C7D2160601970636896
:10424000002119706168A368881A1844A060FFF7FC
:10425000A1BB013F08A95FFA87FCCCEB0109DFF89D
:10426000E8A106A9A9F109098846AAFB00B7FF0839
:1042700007EB870BA0EB4B00303008F8010DC84569
:104280003846F2D16FEA0C0720680F4407F1FF3877
:104290004FF02E0C9842C8EB010107F801CC10D961
:1042A00079B102397B18414603E08B4209D011F8FD
:1042B00001CF701C606086F800C094E8410086421F
:1042C000F3D3002333706368A168CEEB030E71440F
:1042D000A16016E74A680B689A4280F0A780511CDB
:1042E0005B236160137094E80A009942A8D9581CB6
:1042F0005D21606019706368A2E7464512D2721CA6
:104300002D2362603370636800221A706668D4F8E7
:1043100000800123A26813440AF1004AA36002E668
:104320001346E2E50023F5E7134629E521688B42B1
:1043300078D2581C65216060197094E803008142AE
:1043400004D24E1C2D20666008706168DFF808E119
:10435000002008706668A168F31A0B446D42A360E0
:10436000374611468EFB0530EB17C3EBA00000EB80
:104370008003A5EB430505F13003DBB201F8013DF5
:1043800005460028EED12568AE42A2EB01000DD211
:1043900060B1013103E0914208D011F8013B701C7B
:1043A0006060337094E848009E42F4D30023337079
:1043B0006268A368D11B1944A1600846FFF7D5BB0A
:1043C000234BDFF898B0062713E60B46FFF7C5BB73
:1043D000626823689A4223D21E491346081D01E0F1
:1043E000814208D05E1C11F8015B66601D70636835
:1043F0002568AB42F4D3002119706168A368891A5B
:104400001944A1600846FFF7B0BB0022E5E433463B
:10441000FFF7B9BA3046FFF7FDBA3B46FFF7C2BB1C
:104420001346E8E7194691E70546A9E6134607E76C
:1044300031465AE60023FEE42B46CDE63346FFF72D
:104440004DBB3346FFF7F6B9CDCCCCCC7C38010060
:10445000002474496C3801006766666640420F00AC
:104460002DE9F04FADF5004D93B00DF5804808F102
:104470004808A8F12004A549074601A808F058FDFE
:1044800001A808F081FF257F3968A148C4F804809D
:104490000DF50043483325F07F0544F21A0E44F22F
:1044A0001C0245F0200544F21809E3600DF50043B5
:1044B00000263833EDB248F8208C24F80E602674BC
:1044C000A0502577A3606361A36104F80960E1B19E
:1044D000D7F808B00BF1010EC6449E4500F28F8557
:1044E0005A464046C4F804E004F0DAFE08F80B60CF
:1044F00014F80930257F44F2100A23F07F0343F0BB
:10450000050344F80A8004F8093015F07F0307D149
:1045100025F07F0545F02005EDB225776361A361A5
:10452000A90622D56669DFF8EC910AE013B10AF01A
:10453000CBFD70B1B6F90A30002B00F0888506EB90
:1045400003167448002E00F08285F3684B45194627
:10455000ECD13A69337A002AC0F2478523F07F0311
:1045600043F0080332603372257F002615F07F0385
:1045700007D125F07F0545F02005EDB22577636171
:10458000A361AA0640F1F1836569DFF88C910AE026
:1045900013B10AF099FD70B1B5F90A30002B00F0A3
:1045A000DD8305EB03155C48002D00F0D783EB6835
:1045B0004B451946ECD1284622463146FDF7A2FD6F
:1045C00022465649FEF758FE22465549FEF754FE4C
:1045D0007A6948B1002A037AC0F26F8323F07F031F
:1045E00043F0080302600372237F13F07F0207D1B8
:1045F00023F07F0343F02003DBB223776261A261E3
:104600009B0640F178836569DFF80C910AE013B1ED
:104610000AF05AFD70B1B5F90A30002B00F064833E
:1046200005EB03153C48002D00F05E83EB684B451D
:104630001946ECD1284622463146FDF763FD224655
:104640003649FEF719FE22463649FEF715FEBA69CD
:1046500048B1002A037AC0F2288323F07F0343F095
:10466000080302600372237F13F07F0207D123F057
:104670007F0343F02003DBB223776261A2619D06D2
:1046800040F17D836569DFF890900AE013B10AF08C
:104690001BFD70B1B5F90A30002B00F0688305EB03
:1046A00003151D48002D00F06283EB684B45194649
:1046B000ECD1284622463146FDF724FD2246174913
:1046C000FEF7DAFD22461849FEF7D6FDFA6948B131
:1046D000002A037AC0F2D98223F07F0343F0080353
:1046E00002600372237F13F07F0207D123F07F0360
:1046F00043F02003DBB223776261A261980640F1A8
:104700002B836569DFF810901BE000BF943801002F
:10471000A0380100A8380100B4380100BC380100FD
:10472000C4380100C8380100D038010013B10AF0C4
:10473000CBFC70B1B5F90A30002B00F0068305EB15
:1047400003159A48002D00F00083EB684B4519468D
:10475000ECD1284622463146FDF7D4FC2246944946
:10476000FEF78AFD22469349FEF786FD3A6A48B174
:10477000002A037AC0F2918223F07F0343F00803FA
:1047800002600372237F13F07F0207D123F07F03BF
:1047900043F02003DBB223776261A261990640F106
:1047A00015836569DFF804920AE013B10AF08CFC06
:1047B00070B1B5F90A30002B00F0008305EB03154A
:1047C0007A48002D00F0FA82EB684B451946ECD18F
:1047D000284622463146FDF795FC22467649FEF7EB
:1047E0004BFD22467549FEF747FDD7F8A42048B196
:1047F000002A037AC0F2418223F07F0343F00803CA
:1048000002600372237F13F07F0207D123F07F033E
:1048100043F02003DBB223776261A2619A0640F184
:1048200092826569DFF884910AE013B10AF04CFCCA
:1048300070B1B5F90A30002B00F07D8205EB03154D
:104840005A48002D00F07782EB684B451946ECD1B1
:10485000284622463146FDF755FC22465649FEF7CA
:104860000BFD22465649FEF707FDD7F8A82048B1B0
:10487000002A037AC0F2E98123F07F0343F00803A2
:1048800002600372237F13F07F0207D123F07F03BE
:1048900043F02003DBB223776261A2619B0640F103
:1048A00081826569DFF804910AE013B10AF00CFC1B
:1048B00070B1B5F90A30002B00F06C8205EB0315DE
:1048C0003A48002D00F06682EB684B451946ECD162
:1048D000284622463146FDF715FC22463649FEF7AA
:1048E000CBFC22463749FEF7C7FCD7F8AC2048B1CD
:1048F000002A037AC0F2B18123F07F0343F008035A
:1049000002600372237F13F07F0207D123F07F033D
:1049100043F02003DBB223776261A2619D0640F180
:104920004B826569DFF884900AE013B10AF0CCFB92
:1049300070B1B5F90A30002B00F0368205EB031593
:104940001A48002D00F03082EB684B451946ECD137
:10495000284622463146FDF7D5FB22461649FEF78A
:104960008BFC22461349FEF787FCD7F8B02048B1EC
:10497000002A037AC0F2798123F07F0343F0080311
:1049800002600372237F13F07F0207D123F07F03BD
:1049900043F02003DBB223776261A261980640F105
:1049A000BE816569DFF8049019E000BFB4380100EA
:1049B000BC380100D8380100E0380100C4380100DB
:1049C000C8380100D038010013B10AF07DFB70B186
:1049D000B5F90A30002B00F09A8105EB0315BB48AE
:1049E000002D00F09481EB684B451946ECD1284628
:1049F00022463146FDF786FB2246B549FEF73CFCD0
:104A00002246B449FEF738FCD7F8342148B1002AD1
:104A1000037AC0F2128123F07F0343F0080302609F
:104A20000372237F13F07F0207D123F07F0343F04B
:104A30002003DBB223776261A261990640F1A8816D
:104A40006569DFF888920AE013B10AF03DFB70B1A6
:104A5000B5F90A30002B00F0948105EB03159B4853
:104A6000002D00F08E81EB684B451946ECD12846AD
:104A700022463146FDF746FB22469549FEF7FCFBF0
:104A800022469549FEF7F8FBD7F8382148B1002AAD
:104A9000037AC0F2CA8023F07F0343F00803026068
:104AA0000372237F13F07F0207D123F07F0343F0CB
:104AB0002003DBB223776261A2619A0640F139815B
:104AC0006569DFF808920AE013B10AF0FDFA70B1E7
:104AD000B5F90A30002B00F0248105EB03157B4863
:104AE000002D00F01E81EB684B451946ECD128469D
:104AF00022463146FDF706FB22467549FEF7BCFB10
:104B000022467649FEF7B8FBD7F83C2140B1002A8F
:104B1000037A4BDB23F07F0343F008030260037248
:104B2000237F13F07F0207D123F07F0343F020039C
:104B3000DBB223776261A2619B0640F1E680656982
:104B4000DFF888910AE013B10AF0BEFA70B1B5F946
:104B50000A30002B00F0D18005EB03155B48002DD7
:104B600000F0CB80EB684B451946ECD12846224635
:104B70003146FDF7C7FA22465549FEF77DFB22462E
:104B80005749FEF779FBD7F8402140B1002A037A54
:104B900014DB23F07F0343F0080302600372013645
:104BA000082E07F1100715D0257FDFE423F07F03DF
:104BB000524243F00A0302600372B1E723F07F031D
:104BC0000136524243F00A03082E0260037207F1D5
:104BD0001007E9D112AB03F57F521F32A3F1200574
:104BE000A8F10C00002305A90592069507938DF8FE
:104BF00028308DF82430FEF7B9FD044610B9394845
:104C000008F0DAFB039B029AE118914202D9934221
:104C100006D2D41A019822461844294607F0BCFB54
:104C20000DF5004D13B0BDE8F08F23F07F03524225
:104C300043F00A030260037233E723F07F0352421A
:104C400043F00A0302600372EBE623F07F03524253
:104C500043F00A030260037214E623F07F0352421A
:104C600043F00A03026003724CE623F07F035242D2
:104C700043F00A030260037284E623F07F0352428A
:104C800043F00A0302600372BCE523F07F03524243
:104C900043F00A030260037224E523F07F035242CB
:104CA00043F00A03026003726CE523F07F03524273
:104CB00043F00A0302600372D5E423F07F035242FB
:104CC00043F00A03026003728EE400BFB4380100AF
:104CD000E8380100C4380100C8380100D0380100AC
:104CE000D8380100F03801006268A368103293429E
:104CF0006ED20123237400209DE46268A368103201
:104D0000934280F0D5800123237400202FE762684E
:104D1000A3681032934280F0E380012323740020C3
:104D200066E66268A3681032934280F094800123A3
:104D300023740020DCE66268A3681032934280F09E
:104D4000288101232374002083E56268A368103260
:104D5000934253D2012323740020FBE46268A368CA
:104D60001032934260D201232374002024E462684D
:104D7000A3681032934280F0228101232374002023
:104D800098E46268A368103293427BD201232374B3
:104D900000206DE66268A3681032934280F0E380E1
:104DA00001232374002094E56268A36810329342C3
:104DB00080F0C380012323740020CAE56268A368E1
:104DC0001032934280F0A38001232374002000E579
:104DD000A3F11000A06000288DD0A269002A00F085
:104DE0003381811A09115181A0610022A94923F858
:104DF000062C03F8082C43F8041C1CE4A3F1100053
:104E0000A0600028A8D0A269002A00F01A81811AA7
:104E100009115181A06100229E4923F8062C03F854
:104E2000082C43F8041C95E4A3F11000A0600028AE
:104E30009BD0A269002A00F00181811A09115181D9
:104E4000A0610022934923F8062C03F8082C43F8AC
:104E5000041CFFF7B1BBA3F11000A06000283FF4D1
:104E600068AFA269002A00F0E680811A0911518119
:104E7000A0610022874923F8062C03F8082C43F888
:104E8000041C35E6A3F11000A060002880D0A269C0
:104E9000002A00F0CD80811A09115181A061002201
:104EA0007C4923F8062C03F8082C43F8041CDFE5A2
:104EB000A3F11005A560002D3FF427AFA269002AD9
:104EC00000F0B380A91A09115181A561002271492E
:104ED00023F8062C284603F8082C43F8041C46E661
:104EE000A3F11000A06000283FF419AFA269002AC6
:104EF00000F09880811A09115181A0610022654952
:104F000023F8062C03F8082C43F8041C70E5A3F1E1
:104F10001000A06000283FF459AFA269002A7ED09B
:104F2000811A09115181A06100225A4923F8062CE7
:104F300003F8082C43F8041C4BE4A3F11000A06014
:104F400000283FF439AFA269002A65D0811A0911FF
:104F50005181A06100224F4923F8062C03F8082C48
:104F600043F8041CF5E4A3F11000A06000283FF40E
:104F700019AFA269002A4CD0811A09115181A06190
:104F80000022444923F8062C03F8082C43F8041C9B
:104F90009FE4A3F11000A06000283FF4D4AEA26902
:104FA000002A33D0811A09115181A06100223949A8
:104FB00023F8062C03F8082C43F8041C49E4A3F159
:104FC0001000A06000283FF4DAAEA269DAB1811ABD
:104FD00009115181A06100222E4923F8062C03F803
:104FE000082C43F8041CFFF765BB23F07F035242F3
:104FF00043F00A0332603372257FFFF7B6BA01230C
:105000002374FFF782BA6061A061E4E76061A06188
:10501000CCE76061A061B3E76061A0619AE760617D
:10502000A06181E76061A06168E76561A5614DE706
:105030006061A06133E76061A0611AE76061A0610F
:10504000FFE66061A061E6E66061A061CDE66268AE
:10505000A3681032934216D3A3F11006A660002E67
:105060003FF483AAA26992B1B11A09115181A661D4
:10507000002103F8081C08483A6923F8061C43F885
:10508000040CFFF767BA01232374FFF76EBA666159
:10509000A661EDE7B4380100A838010010B590B062
:1050A000044607F005FD20B9104808F085F910B056
:1050B00010BD0F4807F0E4FF40B907F0CDFE4FF6F2
:1050C000FF7102460A4807F0F7FF20B12046FFF7BC
:1050D000C7F910B010BD6846054B064A402109F0DB
:1050E0002DFF684608F068F9E1E700BF2C390100A0
:1050F0009438010064390100062905DC0029D8BF75
:1051000000210161FFF7CABF07210161FFF7C6BF98
:105110002DE9F04F037A03F07F03023B89B0044688
:105120000D463E2B00F27882DFE813F08E008E00F1
:10513000B400B40058027602060176023A01760203
:105140008101760276027602760276027602760295
:10515000760276027602760276027602760276028F
:105160007602760276027602B40176027602760242
:10517000760276027602760276027602760276026F
:10518000760276027602760276027602760276025F
:10519000760276027602760276027602760276024F
:1051A00076027602760276023F004B6A19445A1C58
:1051B00002335B201F2B6A62087107D92A4400263C
:1051C00016712868291D03F0F7FE6E62AB6A246829
:1051D0000133AB620CB32C26002705F1040814E060
:1051E00014EB031419D06B6AE9185A1C02331F2BF5
:1051F0006A620E7106D92A4441461771286803F085
:10520000DBFE6F62AB6A0133AB6229462046FFF7D3
:105210007FFFB4F90A30002BE2D16B6AE9185A1CFF
:1052200002335D201F2B6A62087107D92A440024CB
:1052300014712868291D03F0BFFE6C62A86A013052
:10524000A86209B0BDE8F08F90E85000E6B104EB29
:1052500006084FF000090F1D01E0444514D06B6AA9
:1052600014F8010BE9185A1C02331F2B6A620871EB
:10527000F3D92A44394682F80490286803F09CFE4A
:105280004445C5F82490EAD1A86A3044A86209B020
:10529000BDE8F08F4B6A0668CA18591C02332220F9
:1052A0001F2B6962107108D9294400240C712868E9
:1052B000291D03F081FE6C622146AB6A013306F1C1
:1052C000FF39AB625C274FF0000819F8016F1EB37D
:1052D000222E00F0EF81BD4B03E0DA78B24200F0FD
:1052E000EA811C790233002CF7D16A184B1C023179
:1052F0001F296B62167107D92B44291D1C71286860
:1053000003F05AFE6C622346AA6A0132AA6219F8B7
:10531000016F1946002EDBD16A184B1C0231222086
:105320001F296B62107189D92B44291D1E712868B1
:1053300003F042FE6E6281E70368A5480DF11E048A
:10534000A046A0FB0312D20802EB8201A3EB4103AB
:10535000303308F8013D1346002AF2D1B4EB0807B8
:1053600018D0164605F1040901E0A04512D06B6A79
:1053700018F8010BE9185A1C02331F2B6A620871D6
:10538000F3D92A4449461671286803F015FEA04552
:105390006E62ECD1A86A3844A86209B0BDE8F08F0B
:1053A0004B6A076819445A1C02332D201F2B6A626E
:1053B000087107D92A44002414712868291D03F0B4
:1053C000FBFD6C62A86A824901300DF11E04A862DF
:1053D0002646A1FB0723DB0803EB8302A7EB42026F
:1053E000303206F8012D1F46002BF2D1B4EB06082F
:1053F00018D005F1040901E0A64212D06B6A16F834
:10540000010BEA18591C02331F2B69621071F3D982
:105410006B1849461F71286803F0CEFDA6426F62E3
:10542000ECD1A86A4044A86209B0BDE8F08F0468D6
:105430002146204608F012FF002840F0BD8324F0EA
:1054400000463046634908F009FF002840F0828199
:105450003046604908F0E4FE002840F07B815E4C55
:105460000646271D05F1040802E0BC4200F0F18069
:105470006B6A14F8010BE9185A1C02331F2B6A627D
:105480000871F2D92A4441461671286803F094FD48
:105490006E62EAE7496A68188A1C4B1C7B261F2A41
:1054A0006B62067100F2A982A86AD4F8008001300C
:1054B0000331A862B8F1000F00F03B814FF02209E0
:1054C0000026EA18591C02331F2BD8F80C406962D9
:1054D00082F8049007D96B18291D1E71286803F003
:1054E0006BFD6E620021AB6A013304F1FF3BAB62DE
:1054F0005C271BF801AFBAF1000F26D0BAF1220FDA
:1055000000F0AD80314B03E0DA78524500F0A8801E
:105510001C790233002CF7D16A184B1C02311F2969
:105520006B6282F804A007D92B44291D1C712868DE
:1055300003F042FD6C622346AA6A0132AA621BF89C
:1055400001AF1946BAF1000FD8D16B18881C4A1C5C
:105550001F286A6283F8049000F2CB80AB6A68620D
:105560002A44033101333A241F29AB62147109D94B
:105570002B18291D83F804A0286803F01DFDAB6AD1
:10558000C5F824A00133AB6229464046FFF7C0FDB1
:10559000B8F90A30002B00F0C98018EB031800F0AE
:1055A000C5806A6AA918531C02322C201F2A6B621C
:1055B000087107D92B44291D1E71286803F0FCFCD3
:1055C0006E620023AA6A0132AA627AE758380100A3
:1055D000CDCCCCCCFFFF7F7F6C3801000668002E5D
:1055E00040F0F081BB4C01F10408671D02E0BC42B1
:1055F00000F0DF816B6A14F8010BE9185A1C0233C2
:105600001F2B6A620871F2D92A4441461671286834
:1056100003F0D2FC6E62EAE7AF4C4FF00008271DA2
:105620000E1D01E0BC4214D06B6A14F8010BE9189E
:105630005A1C02331F2B6A620871F3D92A4431467F
:1056400082F80480286803F0B7FCBC42C5F82480C7
:10565000EAD1A86A0430A86209B0BDE8F08F5446C8
:105660006B18881C4A1C1F286A621F7114D8AB6A09
:1056700068622A44033101331F29AB62147117D9C0
:105680002844291D0671286803F096FCAB6A6E62F7
:1056900000210133AB622CE72A44291D16712868CA
:1056A00003F08AFCAB6A2C7101210B446962F0E7BC
:1056B0000146EEE734466B18881C4A1C1F286A62B4
:1056C0001F7124D8AB6A68622A44033101331F2951
:1056D000AB62147128D92844291D80F804802868F9
:1056E00003F06AFCAB6AC5F8248000210133AB6289
:1056F000EBE52A44291D82F804A0286803F05CFC2D
:10570000AB6A01213A220B4469622A713AE72A44C2
:10571000291D82F80480286803F04EFCAB6A2C71C6
:1057200001210B446962E1E70146DFE76B6A5A1C1D
:10573000991C2B447D201F296A6218717FF67EAD6B
:105740002A44002414712868291D03F035FCA86A36
:105750006C6274E50021204608F058FD002840F0F6
:10576000C8815E49204608F065FD002800F063818D
:105770005B4FDFF87891A7F1180A00264FF0200858
:10578000214657F8040D08F04BFD38B12046D9F8F2
:10579000001008F09DFB4644044636B257454FEAD8
:1057A0006808A9F10409EBD14FF0FF37002120462A
:1057B00008F04AFD08B34B49204608F031FDE0B13E
:1057C0007A1C1AD0DFF82891DFF828A10FFA87FB9E
:1057D000214659F82B0008F037FD40B120465AF811
:1057E0002B1008F075FBC8EB0606044636B2013FE5
:1057F0007FB27B1C4FEA6808E8D1204608F06AFDBA
:105800000928814640F2FC81DFF8ECA036490346C6
:105810000522A1FB0303DB08A1FB0A0A092B02F105
:10582000FF3057B24FEADA0AC2B2F2D8504608F057
:10583000F7FA8046484608F0F3FA0146204608F099
:105840003DFA414608F044FB044608F043FD80461B
:1058500008F0E6FA0146204608F030FA014608F062
:105860002FFA08F037FD8044D045C0F0D98009F107
:105870000109002E40F0E4804FF00008002F13DDF6
:10588000194902E0002A00F0ED80A1FB08384FEA38
:10589000D808A1FB0823DB087A1E03EB8303D2B2EE
:1058A000B8EB430F57B2EDD00DF11E040E49A246DE
:1058B000A1FB0923DB0803EB8302A9EB4202303290
:1058C0000AF8012D9946002BF2D1B4EB0A0B31D026
:1058D0002A1D15E0843801006C3801008096184BB1
:1058E000BC360100ACC52737CDCCCCCCA0360100EE
:1058F00074360100A436010040420F00A24516D0C4
:105900006B6A1AF801EBE818591C02331F2B696205
:1059100080F804E0F2D96B18114683F804902868E7
:10592000019203F049FBC5F82490019AE6E7AB6ABF
:105930005B44AB62002F40F09780002EC0F2EB80FA
:1059400000F0E6806B6AE9185A1C023365201F2BB1
:105950006A6208717DD8AB6AAF480133AB622746F3
:1059600080FB0621F217C2EBA10101EB8102A6EB3D
:10597000420230320EB207F8012D002EF0D1B4EB06
:1059800007081BD005F1040901E0A74215D06A6A97
:1059900017F8010BAB18511C02321F2A69621871EB
:1059A000F3D96B1849461E71286803F005FB6E6237
:1059B000EBE7A86A0530A86243E4AB6A08EB030092
:1059C000A8623EE4954C0027261D01F1040802E080
:1059D000B4423FF43EAE6B6A14F8010BE9185A1C4E
:1059E00002331F2B6A620871F2D92A4441461771AB
:1059F000286803F0E1FA6F62EAE72B4400261E7183
:105A00002868291D03F0D8FAA86AD4F800806E62CD
:105A10000130A862B8F1000F00F0F88033464DE580
:105A20007F4BA3FB0823DB0803EB8303B8EB430F97
:105A30003FF424AF38E706464FF020080527B5E6C7
:105A4000B9F1090F7FF618AF013636B24FF00109F0
:105A500012E72A44002717712868291D03F0ACFAC1
:105A60006F6278E717461FE77B1E5BB2DBB208AABE
:105A7000C3EB020E06A8DFF8A8C1AEF1090E074677
:105A8000ACFB0812D20802EB8201A8EB41013031D5
:105A900007F8011D77459046F2D1DB43C7183B4616
:105AA0002E2203F8012DB0EB03081ED0A8F1020945
:105AB000B9444FF0000A023F05F1040B01E04F45E5
:105AC00013D06B6A17F8010FE9185A1C02331F2B09
:105AD0006A620871F3D92A44594682F804A02868FA
