:1000000000800020BD010000E50400009D04000008
:100010009D0400009D0400009D0400009D0400005C
:100020009D0400009D0400009D040000E504000004
:10003000E50400009D0400003116000035170000A3
:10004000E5040000E5040000E5040000E50400000C
:10005000E5040000E5040000E5040000E5040000FC
:10006000E5040000E5040000E5040000E5040000EC
:10007000E5040000E5040000E5040000E5040000DC
:10008000E5040000E5040000E5040000E5040000CC
:10009000E5040000E5040000E5040000E5040000BC
:1000A000E5040000E5040000E5040000E5040000AC
:1000B000E5040000E5040000E5040000E50400009C
:1000C000E5040000E5040000E5040000E50400008C
:1000D000E5040000E5040000E5040000E50400007C
:1000E000E5040000E5040000E5040000E50400006C
:1000F000E5040000F1180000E50400001D1A0000EE
:10010000E5040000491B0000E5040000E5040000D0
:10011000E5040000E5040000E5040000E50400003B
:10012000E5040000E5040000E5040000E50400002B
:10013000E5040000E5040000E5040000E50400001B
:10014000E5040000E5040000E5040000E50400000B
:10015000E5040000E5040000E5040000E5040000FB
:10016000E5040000C1080000E5040000E50400000B
:10017000E5040000E5040000E5040000E5040000DB
:10018000E5040000E5040000E5040000E5040000CB
:10019000E5040000E5040000E5040000E5040000BB
:1001A000E5040000E5040000E5040000E5040000AB
:1001B000E5040000E5040000E5040000564B4CF2A5
:1001C000205210B51A804DF628121A8000BF00BFC9
:1001D00000F08CF9514B4FF010621A60504A9A604F
:1001E000504ADA60504A136813F4807304D14F49BF
:1001F0000B604FF4A85313604D4B1A78110703D5C9
:100200001A7842F008021A704A4B4B492A221A7097
:100210004A4A4B4B8B4204D252F8040F43F8040B6A
:10022000F8E7484B484900228B4202D243F8042B9E
:10023000FAE74649464A002352F8230041F82300D2
:1002400001336F2BF8D1434B434A802103F8011B44
:100250009342FBD1414B3D4A1A60414B8A221A70AE
:10026000A3F5805324225A70A0221A709A7992071B
:10027000FCD59A79D406FCD43A4A937903F00C035E
:10028000082B384BF9D105221A7143225A719A79F9
:100290009006FCD5334A9179324B4906FBD5324A58
:1002A0004FF0817111600521516020221A709A79F6
:1002B00002F00C020C2AFAD12C4B2D4A1A602D4B5D
:1002C0002D4A1A6000225A60072243F8042C2B4A58
:1002D000C3F80C2D62B600F0DDF9144B1B68DA0789
:1002E00005D5274800F068F9264B274A1A60274BA6
:1002F0001B785B0609D5234C234B22689A4204D114
:100300001F4800F059F90023236001F0F9FC00F0C8
:10031000F3F801F017FAFEE70E20054030800440A4
:10032000823F04000100002B10D0034014D0034092
:1003300002D0074000E00740F88BFF1FBC1F000001
:100340002087FF1FF88BFF1FD08EFF1F0082FF1F2B
:100350000000000000E400E05FE400E008ED00E0E1
:1003600000500640004006404480044004800440A1
:10037000C010050014E000E03F190100000020203B
:10038000E3DDD55E1CE00340A5C3945A00F00740AE
:10039000FFFFFFFFFFFFFFFFFFFFFFFFFFFFFFFF6D
:1003A000FFFFFFFFFFFFFFFFFFFFFFFFFFFFFFFF5D
:1003B000FFFFFFFFFFFFFFFFFFFFFFFFFFFFFFFF4D
:1003C000FFFFFFFFFFFFFFFFFFFFFFFFFFFFFFFF3D
:1003D000FFFFFFFFFFFFFFFFFFFFFFFFFFFFFFFF2D
:1003E000FFFFFFFFFFFFFFFFFFFFFFFFFFFFFFFF1D
:1003F000FFFFFFFFFFFFFFFFFFFFFFFFFFFFFFFF0D
:10040000FFFFFFFFFFFFFFFFFFFFFFFFDEF9FFFF23
:1004100010B5054C237833B9044B13B10448AFF33E
:1004200000800123237010BDF88BFF1F0000000027
:10043000C01F0000084B10B51BB108490848AFF3B6
:1004400000800848036803B910BD074B002BFBD0A0
:10045000BDE81040184700BF00000000FC8BFF1FE4
:10046000C01F0000F88BFF1F0000000001210D20BD
:1004700000F0BAB808B501210D2000F0AFF84FF434
:100480007A7000F0B7F80D20002100F0A7F84FF4C3
:100490007A70BDE8084000F0ADB800BF08B5104C58
:1004A00008E0236859050DD423681A050FD4236882
:1004B000DB0411D423685803F3D500F001FA236854
:1004C0005905F1D501F014FA23681A05EFD501F0AA
:1004D000A5FA2368DB04EDD501F036FBEAE700BF9F
:1004E0003480044008B5FFF7D9FF00BF014B10224C
:1004F0001A80704700200540704700BF10B40F4BB2
:1005000053F8302092F880422CB1012369B182F86F
:10051000803010BC704703EBC0035B681A6841B9B8
:1005200022F002021A6010BC704782F8003110BC41
:10053000704742F003021A6010BC70473C1E000076
:100540001C4A02EBC00301295B6811D004291BD0AF
:1005500052F83000002280F8802229B1022920D0F0
:10056000032922D01A6070474FF480721A607047D6
:1005700052F830004FF4A27280F880121A601A68A4
:1005800022F020021A60704752F830104FF4A27225
:10059000012081F880021A601A6842F020021A6075
:1005A000704740F203121A6070474FF481721A606C
:1005B000704700BF3C1E000030B4054B054D064C93
:1005C000002210211A602A602060196030BC704738
:1005D00014D0034004D0034000D00340212801D8A8
:1005E000FFF78CBF704700BF212801D8FFF7A8BFD5
:1005F000704700BF2DE9F843054672B6214F224BE4
:10060000224A1B683C68126862B6520102D5322B3E
:1006100088BF0134A5B3C3F58C331D4EDFF8689055
:10062000DFF8688003F23F134FF47A72A6FB0313DE
:1006300002FB04F404EB131472B6D9F800103A6804
:10064000D8F800E062B6C1F58C3303F23F13A6FB85
:1006500003031EF0806FC4EB13134FF47A7002D0C3
:10066000322988BF013200FB0233B3F57A7F04D30D
:10067000013D05D004F57A74DEE701F06BF8DBE7A5
:10068000BDE8F883148CFF1F18E000E004ED00E0E3
:10069000398EE338F8B52D4B2D49DFF8D0E0DFF87F
:1006A000D0C02C4E2C4D2D4C2D4A2E4F4FF4000017
:1006B00018604FF0807018604FF0007018604FF0B5
:1006C000806018604FF000601860002008602823E8
:1006D00048F6FF71CCF80010CEF80030336013609C
:1006E0002B6023603B60B3629362092245F8242C9F
:1006F000C4F8D80F05F57F65C7F8D41F07F5FF27A5
:1007000007F5FA67C6F8F83F2B6006F5FF26C4F830
:10071000D42F05F5FD2504F5FF24386006F2F476A4
:100720001148316005F5FF6504F5FD642B60236019
:10073000026001F05DF81920FFF75CFF00F026FE73
:1007400040F21310BDE8F840FFF754BF08E100E0A5
:100750000480034014800340248003402C80034025
:100760001C8003403480034000800B400C80034019
:100770000880034030B472B62B4A13781D0706D5A3
:100780002A4B196A002936D0996A002941D053783A
:100790001C0706D5254B196C00293ED0996C002901
:1007A00039D09378190705D5204B196E002936D01A
:1007B000996E89B1D3781B0707D51C4BD3F88020DD
:1007C0007AB3D3F8882011213AB162B6184B0022CF
:1007D0001A7030BC00F066BE0D21154C154D227804
:1007E00043F8315003EBC1030830013A58602270DE
:1007F00062B630BC704704220D4C0F4D217843F88F
:10080000325003EBC20308304A1E5860227062B6B1
:10081000EFE70521E1E70921DFE70822ECE70C22F9
:10082000EAE71022E8E700BF4C1F00000080FF1F2E
:10083000ED8CFF1FC800400088004000431E032BC2
:100840001DD81B4A400140F0100030B4104472B66D
:10085000184CE25C032A1BD8DFE802F002121517DD
:1008600003220D88E25410F0080F14BFC823882318
:1008700043EA054308310360416062B630BC70470B
:1008800008300222EDE70522EBE708300422E8E712
:10089000094A52F8230038B1084A52F8230041604F
:1008A00042F8231062B6E9E742F82310034AF7E75B
:1008B0000080FF1FFC8CFF1FC48CFF1FD48CFF1F08
:1008C0002DE9F04FDFF818B3DFF818A387B044E044
:1008D000AE4F4FEA930807EBC809013ED9F8042050
:1008E00003F00803F6B2A2F1080003F0FF04002BA6
:1008F00040F0048157F838301B0C99B222F8081CDC
:10090000002B00F0F280A24B22F8064C42F8044C77
:1009100053F82620002A00F06E819E4D55F82630AF
:1009200058609D4C45F8260034F81630194424F8D8
:10093000161000F097FD002800F05681974A984B5A
:1009400019F0080F00F1080018BF1346C9F8040099
:1009500047F8383008238BF800309BF80040E4B2A9
:1009600061071BD58F4B1B78ABB18F490A7802F01A
:10097000FF032AB1013BDBB20B70002B00F0EF84C8
:100980008A490A7802F0FF032AB1013BDBB20B70FF
:10099000002B00F0F78004238BF8003004F00803EC
:1009A00003F0FF02002B00F0D6809AF80030DBB293
:1009B0001E098DD19C08DFF8D49159F8342009EB39
:1009C000C401C2F38302013A49680C2A7ED8DFE8E9
:1009D00002F081817D7D7D7D7D7D477D7D7D070070
:1009E0000868734D4A68734F734E286081B240F2B5
:1009F00081606A4B6A604FF0010E0022814249F823
:100A000034303A60C9F81020C9F8182086F800E0A0
:100A10005E4C00F2F480B1F5D06F80F07883B1F5D0
:100A2000817F00F0628300F28782802900F0EC82EF
:100A3000822940F01E83A98801F07F01042900F279
:100A400018835E485E4C8900084422706270027808
:100A5000930740F1798384F800E04FF0020ED8E26A
:100A6000544F3A6842B3574B534E5749188834781D
:100A70000D784028864645F0020828BF4FF0400E0A
:100A8000002C84F001043470CEEB00000CBF8824ED
:100A9000C82409EBC80680B285F0010544EA0E447B
:100AA0007260188049F8384072440D7018B9BEF170
:100AB000400F18BF00223A603D4B1A88B2F5A06F74
:100AC00004D100219A785970404B1A70404A012392
:100AD00013703FE7364A158842F22100854200F044
:100AE000FF812E4A49F83420F0E72C4A2C4B19F0AC
:100AF000080F18BF134647F838302BE700F0D2FC38
:100B0000344A354952F82630002B00F0B681586837
:100B10008C5D42F8260003F10802C9F80420032C7A
:100B200005D8DFE804F0120F150204228A551A884E
:100B300019F0080F0CBF8823C82343EA024347F883
:100B4000383007E702228A55F1E703228A55EEE79B
:100B500005228A55EBE7E00700F11A82210600F131
:100B60004982A20706D51D4A1D4913780220DBB22F
:100B700013700870E30602D5194B10221A7007B0E3
:100B8000BDE8F08F00F0C2FC05E700BF0080FF1F4A
:100B9000708CFF1F1C8CFF1FBC8EFF1FC800400005
:100BA00088004000F88CFF1F818CFF1F008DFF1F05
:100BB000E48CFF1F188CFF1F808CFF1FC020074094
:100BC000F08CFF1F2C8CFF1FEC8CFF1F9820074020
:100BD00094200740C48CFF1FFC8CFF1F8820074017
:100BE0008020074090200740AB4A47F83800137830
:100BF00001331370AEE643F82600A84D91E642F2A9
:100C00002100814200F0358100F2AF81B1F5086F1B
:100C100000F01B82B1F5106F40F02B82226AA049D0
:100C2000A8780870120600F14583D9F828209D495C
:100C3000130600F13A83D9F830209A49150600F1DD
:100C40002F83D9F838209749140600F12483D9F866
:100C500040209449100600F11983D9F848209149A1
:100C6000120600F10E83D9F850208E49130600F1C8
:100C70000383D9F858208B49150600F1F882D9F87A
:100C800060208849140600F12983D9F86820854935
:100C9000100600F11E83D9F870208249120600F177
:100CA0001383D9F878207F49130600F10883D9F817
:100CB00080207C49150600F11C83D9F888207949E9
:100CC000140600F11083D9F890207649100600F13F
:100CD000C882D9F898207349120600F1BC82724884
:100CE000724A7349019073486C4D734C049700230A
:100CF00005960295804617460E461D4603943868B1
:100D000028B1446800F0CEFB2046002CF9D1002326
:100D10003B60029B30681A46002342F8253028B118
:100D2000446800F0BFFB2046002CF9D1002232605D
:100D3000019A98F800301146002241F8042B039ADA
:100D40000191023B4FF0000122F81510032B09D846
:100D5000DFE813F04B0104004B0104004FF00103E6
:100D600088F800300135042D07F1040706F1040668
:100D700008F10108C3D1514C514B2278464D049FD4
:100D8000059E002129701A70130700F14F826278C6
:100D90004C49DFF810810A7010074FF00001C9F8C4
:100DA0003010C9F8381000F12B824749A2780A7038
:100DB0000021C9F85010C9F858101107DFF8E48075
:100DC00000F1DC81E2784149364C0A7000211207BB
:100DD000C9F87010C9F8781000F1B981337801931F
:100DE000002183F00102C9F89010C9F89810002082
:100DF000029080468446044635490D7845F0020E3F
:100E000009EBCE030393019B002B039B5C600CBF9B
:100E10008824C82444EA080385F0010449F83E30D8
:100E200032700C70DFF87CE02A4BDFF8A4800028D9
:100E300040F02681BCF1400F1BD144F0020C09EBBD
:100E4000CC03029CDFF85CE05C60002A40F02E815D
:100E5000020442F088029DF804304EF83C2004441D
:100E600033700D702346402803D100201A4A3B609E
:100E700010801A4A0123137028E68B5D032B00F2C1
:100E80002D8101A252F823F05509000055090000F8
:100E9000DF0F0000E50F0000ED8CFF1F1C8CFF1F13
:100EA000F88CFF1F0080FF1FD48CFF1F708CFF1F6A
:100EB000C48CFF1FFC8CFF1FBC8EFF1F4C1F00004B
:100EC000C4200740C8200740CC200740D02007405E
:100ED000EC8CFF1F808CFF1F2C8CFF1F9420074081
:100EE000928892B9B14A0D784878157050708D7813
:100EF000C8789570D07010680D79157186284D7975
:100F000089795571917100F0A580A949A94E0A7897
:100F1000307882F00105002842F002020D700CBF0B
:100F20008821C82149F8321009EBC20280F0010083
:100F3000002130705160D4E540F20232914240F01D
:100F40008D80A98801F07F01042900F292806A88CF
:100F5000002A40F08E809848CDF804E089000844CB
:100F6000017841F00201017041E742F22120814203
:100F70007BD1A988002940F0E480904B904A9148A9
:100F8000AC781D681560CDF804E00A4604702EE7C1
:100F90008D4B8E4886491A614FF0020E80F800E0B2
:100FA000854F0A708A49196099608A4E8A4D8B4C28
:100FB0009A610D213970FF213170DFF840E229700C
:100FC0002270874D874A8EF800109F27012406F86B
:100FD000047C5D600470DA6007B0BDE8F08F002328
:100FE0008B55B7E401238B55B4E44FF0000388F828
:100FF0000030B7E67049784B80220D2008701A70D7
:10100000A2077FF5B7ADAEE5774C4FF0020E227028
:101010006270EA88724580F0A38165490D78402AA4
:10102000944645F0020E28BF4FF0400C04EB0C0331
:1010300009EBCE000293012344604FEA0C48CCEB4D
:10104000020001930022C824E4E6684A664C127844
:101050002270DEE7664A0F21117056E7B1F5A06FE6
:1010600007D1012300220193C1E642F221329142CD
:10107000F7D0514A0F231370544A0123137025E50A
:1010800040287FF6DAAE44F002040EEBC401029E63
:101090004E60BAB19DF80410564A19703346403874
:1010A00088F8005040334EF83420DFE69DF80430D5
:1010B00033700204029B0D7042F0C80203444EF8E4
:1010C0003C20D0E69DF804101970029B404A88F835
:1010D0000050403840334EF83420C7E619F0080F6E
:1010E0000CBF022303238B5534E4A98801F07F0150
:1010F0000429BED86A88002ABBD12F48CDF804E065
:1011000089000844017821F0020101706FE63A4A33
:101110005468002CADD06888B5F804E003E00C32C8
:101120005468002CA5D013888342F8D153887345A6
:10113000F5D1000A03280CBF94F800E0B2F808E0EB
:1011400067E7CDF804E052E64FF0020E61E700F0E9
:1011500089F9002800F0F18008301D4AC4F88400A5
:10116000C4F8802000F07EF9002800F0E08008300C
:10117000204AC9F88C00C9F888202FE600F072F9DF
:10118000002800F0E6800830114AC8F86400C8F86A
:10119000602000F067F9002800F0D5800830154A7B
:1011A000C9F86C00C9F868200CE600BFC48EFF1FA8
:1011B000EC8CFF1F808CFF1FC0200740148CFF1F8A
:1011C000CC8EFF1F0C8DFF1F0080FF1F9420074057
:1011D0008800400088200740802007409820074072
:1011E000308CFF1F848CFF1FF08CFF1FF88CFF1FBB
:1011F000818CFF1FC8004000501F00008C2007405A
:1012000000F030F9002800F08C8008305D4AC8F802
:101210004400C8F8402000F025F900287BD00830B1
:10122000594AC9F84C00C9F84820BEE500F01AF93F
:1012300000286AD00830534AC9F82400C9F8202091
:1012400000F010F900285AD008304F4AC9F82C0095
:10125000C9F828209BE5D1F89C00083800F022F955
:101260003DE5D1F89400083800F01CF931E5C86D6F
:10127000083800F017F902E5486D083800F012F957
:10128000F7E4C86C083800F00DF9ECE4486C083855
:1012900000F008F9E1E4C86B083800F003F9D6E47F
:1012A000486B083800F0FEF8CBE4C86A083800F054
:1012B000F9F8C0E4606A083800F0F4F8B5E4C86FE3
:1012C000083800F0EFF8F2E4486F083800F0EAF868
:1012D000E7E4C86E083800F0E5F8DCE4486E08384A
:1012E00000F0E0F8D1E4D1F88C00083800F0DAF82A
:1012F000E9E4D1F88400083800F0D4F8DDE42A7875
:10130000C9F8280001322A7041E52A78C9F820007E
:1013100001322A7094E72A78C9F8480001322A700D
:1013200043E52A78C8F8400001322A7073E72A782A
:10133000C9F8880001322A7050E52A78C4F8800084
:1013400001322A700EE72A78C9F8680001322A7043
:1013500038E52A78C8F8600001322A7019E700BE23
:10136000BEF1400FF44628BF4FF0400C04EB0C03D5
:1013700002930123CCEB0E004FEA0C4800220193AC
:101380003AE500BF88004000C8004000F8B500F012
:1013900047FC294B29482A4C2A4F2B4DDFF8BCC06B
:1013A000DFF8BCE0294E00221A605A609A60DA60C9
:1013B0001A615A619A61DA611A625A629A62DA6251
:1013C0001A635A639A63DA631A645A649A64DA6431
:1013D0001A655A659A65DA651A665A669A66DA6611
:1013E0001A675A679A67DA67C3F880200168C3F8FA
:1013F000842041F480210160C3F307212170C3F3ED
:101400000740134938701B0E2B70FF238CF80030F7
:10141000104D8EF8003010480B700123337084F8A3
:10142000642070264FF40074102207F82C3C2E70B4
:10143000046081F8F820F8BD0080FF1F348004406C
:101440009C200740B0200740B4200740942007406C
:101450001020074049E400E008E100E08020074058
:101460008820074072B60D480268B2FA82F30B2B4F
:1014700010DC4FF00041D94022EA0102026062B65E
:10148000074803EBC303DB00C2180021C15010461C
:101490005160704762B60020704700BF2087FF1F71
:1014A000BC83FF1F0D4B0E4AC31AA2FB03231B096B
:1014B0000B2B0CD80B4A127852B972B60A484FF06F
:1014C0000041026821FA03F31A43026062B67047D2
:1014D000064A1278002AF0D0FFF74CB9BC83FF1FF0
:1014E000398EE338ED8CFF1F2087FF1FF88CFF1F1C
:1014F000044B054A1B6890881BB11A885B88D31A75
:1015000018447047088DFF1FBC8EFF1F38B50E4B67
:101510001B7873B90D4C216861B103F0FF054B884E
:101520000B800420FFF78AF9256038BD084B0122A3
:101530001A7038BDFFF796FF0028F7D00146BDE8C6
:1015400038400420FFF77AB9018DFF1F048DFF1F7B
:10155000008DFF1F10B4EFF3108272B6437F33B9D2
:10156000017F012907D003290FD00123437702B956
:1015700062B610BC7047124C2168A1B11149436199
:101580000B68836108605861EFE70F4C216881B1F7
:101590000E4943610B688361086058610C4B4FF042
:1015A00080511960E1E7074B41618161206018605B
:1015B000DBE7064B4161816120601860EEE700BF08
:1015C000208DFF1F1C8DFF1F108DFF1F148DFF1F0F
:1015D00004ED00E010B4047F4160022CC26002D030
:1015E00010BCFFF7B7BF836810BC184770B5EFF3A6
:1015F000108272B60C4C206880B10C4E00254369F5
:10160000236073B19D6102B962B6457783689847DC
:10161000EFF3108272B620680028F0D102B962B6EA
:1016200070BD3360EFE700BF108DFF1F148DFF1FEB
:10163000FFF7DCBF184A30B41468002C27D00368C9
:1016400021688B420ED2CB1A00218460C1602360D6
:10165000E06010600223037530BC704711688B4254
:10166000144608D3A2685B1A0360002AF6D1826090
:10167000C460A060EEE7D268C2608460E060C568C4
:10168000CB1A0222A8602360027530BC70478460C8
:10169000C4601060DEE700BF188DFF1FF8B5224E52
:1016A00034682CB32368002B3AD1204F1D4604E048
:1016B0003468ECB12368002B32D1A36803B1DD603C
:1016C00020693360036825751B68BB4221D1037F05
:1016D0004560022BC46020D0FFF73CFF6368002BFD
:1016E000E6D023602046FFF7A5FF3468002CE1D147
:1016F000EFF3108372B60E4A00211068116003B92F
:1017000062B628B18468FFF795FF20460028F9D11A
:10171000F8BD224600219847E0E783689847DDE757
:10172000013B2360E4E700BF188DFF1FD5150000C3
:10173000288DFF1F024A136801331360FFF7AEBF05
:10174000148CFF1F08B5FEF791FEFEF793FE00F024
:1017500001F8FAE738B5224C237803B138BD0123EC
:101760002370FFF7C5FE70BB00F0B2F840BB00F07D
:1017700045F910BB00F0D8F9E0B900232370EFF36E
:101780000583002BEAD1EFF3108172B6154B186870
:10179000E0B1154C2278CAB945691D600123237058
:1017A000C5B1AA6101B962B600254577836898473B
:1017B0002570D3E700F07AFADFE700F075FAD9E791
:1017C00000F070FAD3E700F073FACDE70029C5D135
:1017D00062B638BD054B1D600029E5D1E3E700BFC7
:1017E0002C8DFF1F208DFF1F248DFF1F1C8DFF1FC1
:1017F00030B42948294A2A4B2A4D6024E12104703B
:1018000011701B78284C082B30D00A2B2748284908
:1018100037D00C2B0CBF15223D2212232A602360E7
:1018200002600B60234B24491B78244ABBB101237F
:101830000B601360224B23491B78234A012B26D9C6
:10184000042B0FD9082B1ED9102B94BF8623872376
:101850000B6013601D4B01221A7030BC70470B6087
:101860001360E7E784230B601360F3E700F58E2035
:101870000F490830012213232A60236002600B60A5
:10188000D0E71922F7E785230B601360E2E7802396
:101890000B601360DEE700BF0040074001400740D7
:1018A0002487FF1F08B003400CB0034008B00B4072
:1018B0000CB00B402E8DFF1F20B0034020B00B401A
:1018C0002587FF1F24B0034024B00B402D8DFF1F40
:1018D000054A064B10781B78C0B2DBB2984238BF7D
:1018E0004030C01A704700BF348DFF1F358DFF1F79
:1018F000F0B4384B1A7912F0300F2CD072B6997DB3
:1019000001F0FF0200293DD062B6334F33493878E9
:101910000D78334E1C46C0B2EDB2431C402BE1792A
:1019200028BF0023AB4202F1FF32C9B21CBFF15401
:10193000184612F0FF02F0D12A4B1B68C2B23A706F
:101940004BB1A84236BFC5F14005401B40192728BE
:10195000C4BF01221A701F49CA78D2B2150616D424
:1019600052060DD51B4B1B795B0609D51E4B1F4933
:101970001B6800220A7003B11A70164B3C22DA7001
:10198000F0BC70474022D9795A7462B6E3E70B790C
:101990001C06E5D5164B174E1C783378E4B2DBB243
:1019A0009C420ED0144D01E0A3420AD00133402BDB
:1019B00028BF00230879E85CC0B2C871087D0728F9
:1019C000F2D9DBB2034933700B79180644BF7C238C
:1019D000CB70C5E700A00640348DFF1F358DFF1F7B
:1019E000788DFF1F308DFF1FBC8DFF1FB88DFF1F2F
:1019F000C08DFF1FB98DFF1F388DFF1F054A064B95
:101A000010781B78C0B2DBB2984238BF4030C01AA1
:101A1000704700BF348EFF1FC98DFF1FF0B4384BD5
:101A20001A7912F0300F2CD072B6997D01F0FF02B6
:101A300000293DD062B6334F334938780D78334EA4
:101A40001C46C0B2EDB2431C402BE17928BF0023F5
:101A5000AB4202F1FF32C9B21CBFF154184612F07A
:101A6000FF02F0D12A4B1B68C2B23A704BB1A842B8
:101A700036BFC5F14005401B40192728C4BF0122CD
:101A80001A701F49CA78D2B2150616D452060DD55F
:101A90001B4B1B795B0609D51E4B1F491B68002297
:101AA0000A7003B11A70164B3C22DA70F0BC704712
:101AB0004022D9795A7462B6E3E70B791C06E5D562
:101AC000164B174E1C783378E4B2DBB29C420ED032
:101AD000144D01E0A3420AD00133282B28BF002374
:101AE0000879E85CC0B2C871087D0728F2D9DBB27A
:101AF000034933700B79180644BF7C23CB70C5E7CC
:101B000000B00640348EFF1FC98DFF1FF48DFF1FEC
:101B1000C48DFF1F388EFF1FC88DFF1F3C8EFF1F17
:101B2000358EFF1FCC8DFF1F054A064B10781B78A2
:101B3000C0B2DBB2984238BF4030C01A704700BF15
:101B4000448EFF1F458EFF1F30B42B4B1A7994062D
:101B50001FD52A48DA790378294901333F2B0978C0
:101B6000C8BF00238B42D2B203D0264CD9B2E25474
:101B70000170254A116861B1244A1278D2B29342A9
:101B800036BFC2F140029B1A9B18272BC4BF01230A
:101B90000B70194AD378DBB2180611D45A060DD54A
:101BA000154B1B795B0609D5194B1A491B68002296
:101BB0000A7003B11A70104B2C22DA7030BC7047D7
:101BC00011790906EAD5144910480C780178C9B290
:101BD0008C420DD04A1C272A84BF00210A460F4D93
:101BE000054C98BFD1B2AA5CD2B2E2710170D5E7C0
:101BF0006C21D170D2E700BF00C00640448EFF1FA9
:101C0000458EFF1F708EFF1F408EFF1FB18EFF1F7E
:101C1000B48EFF1FB08EFF1FB88EFF1F488EFF1FB0
:101C200070B584B072B6194B194D1A48702241260E
:101C30000F2480211A702E701A46047019701378C0
:101C40001B06FCD5144B186862B6144B144C984212
:101C500098BF00EB800001A998BF40000A2200F065
:101C600029F801A92046002311F8012B01333AB1CC
:101C70000A2B20F8022FF7D11623237004B070BD71
:101C80005B00DBB2237004B070BD00BF00000240F7
:101C90000700024006000240080002407F969800BC
:101CA000B487FF1F704700BF704700BF704700BF79
:101CB000704700BFF0B44D1E2E46002400E00134F2
:101CC000B0FBF2F302FB1300092800F130078ABFD2
:101CD0003730F8B2C0B206F8010F1846002BEED12B
:101CE0000A1953704CB1107815F8016F2870013340
:101CF000E01A834202F80169F5DB0846F0BC704740
:101D000070B50F4E0F4D761BB61018BF002405D0CE
:101D1000013455F8043B9847A642F9D10A4E0B4DC1
:101D2000761B00F041F9B61018BF002406D001342C
:101D300055F8043B9847A642F9D170BD70BD00BF6D
:101D4000B41F0000B41F0000BC1F0000B41F00003F
:101D5000024B13B1024800F005B8704700000000C4
:101D6000711D0000002301461A46184600F014B801
:101D700038B5074D074C2C1BA41005D0013C55F875
:101D8000043D9847002CF9D1BDE8384000F016B961
:101D900000000000000000002DE9F047254C2568F8
:101DA000D5F848410646884692469946C4B36068CD
:101DB0001F2817DC431C76B104EB80050122C5F80F
:101DC00088A0D4F8881182401143022EC4F88811EB
:101DD000C5F808911ED00230636044F820800020CE
:101DE000BDE8F087144B03B34FF4C870AFF3008025
:101DF0000446D0B1D5F84831002780E88800C5F8FE
:101E0000484138460123C4F88871C4F88C71002E0B
:101E1000E1D0D1E7D4F88C110A43C4F88C21DAE779
:101E200005F5A674C5F84841C1E74FF0FF30BDE89D
:101E3000F08700BFA41F0000000000004008FE4320
:101E400040A004404408FE4344A004400018FE4360
:101E500000C004403000FE43309004403400FE4394
:101E6000349004401C18FE431CC004401018FE436C
:101E700010C004400818FE4308C004400C18FE437C
:101E80000CC004400C10FE430CB004401010FE4384
:101E900010B004401810FE4318B004401C10FE435C
:101EA0001CB004401410FE4314B004400418FE4358
:101EB00004C004400010FE4300B004400008FE438C
:101EC00000A004400408FE4304A004400C08FE43A4
:101ED0000CA004400808FE4308A004401418FE4368
:101EE00014C004401818FE4318C004400410FE43F8
:101EF00004B004400810FE4308B004401400FE4340
:101F0000149004404C08FE434CA004400420FE43BF
:101F100004D004402410FE4324B004402010FE43AB
:101F200020B004402810FE4328B004402C10FE438B
:101F30002CB004400020FE4300D004404808FE437B
:101F400048A004401000FE431090044000151915ED
:101F5000000100002887FF1F12000000000200009F
:101F60005487FF1F4300000000030000B087FF1FDD
:101F700000000000010309043C87FF1F000000006F
:101F8000020309049887FF1F0000000003030904EF
:101F9000B487FF1F000000000000000000000000E8
:101FA00000000000D087FF1FF8B500BFF8BC08BCD8
:0C1FB0009E467047511D000035040000E3
:041FBC00F8B500BFB5
:101FC000FFFFFFFF0A0400001201100102000040A1
:101FD000C0168304750201020301000018035400B7
:101FE000650065006E00730079006400750069008B
:101FF0006E006F0009024300020100C032090400B4
:102000000001020201000524001001052401010164
:10201000042402060524060001070582031000407F
:1020200009040100020A0000000705030240000045
:1020300007058402400000001603550053004200CB
:102040002000530065007200690061006C00000010
:10205000040309040C03000000000000000000005D
:102060000000000000000000000000000000000070
:1020700000000000BC8AFF1F248BFF1F8C8BFF1FFA
:102080000000000000000000000000000000000050
:102090000000000000000000000000000000000040
:1020A0000000000000000000000000000000000030
:1020B0000000000000000000000000000000000020
:1020C0000000000000000000000000000000000010
:1020D0000000000000000000000000000000000000
:1020E00000000000000000000000000000000000F0
:1020F00000000000000000000000000000000000E0
:1021000000000000000000000000000000000000CF
:1021100000000000000000000100000000000000BE
:102120000E33CDAB34126DE6ECDE05000B00000083
:10213000000000000000000000000000000000009F
:10214000000000000000000000000000000000008F
:10215000000000000000000000000000000000007F
:10216000000000000000000000000000000000006F
:00000001FF
