:1000000000800020BD010000A5BB00005DBB00001A
:100010005DBB00005DBB00005DBB00005DBB000080
:100020005DBB00005DBB00005DBB0000A5BB000028
:10003000A5BB00005DBB000081D7000085D8000093
:10004000A5BB0000A5BB0000A5BB0000A5BB000030
:10005000A5BB0000A5BB0000A5BB0000A5BB000020
:10006000A5BB0000A5BB0000A5BB0000A5BB000010
:10007000A5BB0000A5BB0000A5BB0000A5BB000000
:10008000A5BB0000A5BB0000A5BB0000A5BB0000F0
:10009000A5BB0000A5BB0000A5BB0000A5BB0000E0
:1000A000DD140000E9140000A5BB0000A5BB0000A2
:1000B000A5BB0000A5BB0000A5BB0000A5BB0000C0
:1000C000A5BB0000A5BB0000A5BB0000A5BB0000B0
:1000D000A5BB0000A5BB0000A5BB0000A5BB0000A0
:1000E000A5BB0000A5BB0000A5BB0000A5BB000090
:1000F000A5BB00002DE00000A5BB000059E10000F9
:10010000A5BB000085E20000A5BB0000A5BB000068
:10011000A5BB0000A5BB0000A5BB0000A5BB00005F
:10012000A5BB0000A5BB0000A5BB0000A5BB00004F
:10013000A5BB0000A5BB0000A5BB0000A5BB00003F
:10014000A5BB0000A5BB0000A5BB0000A5BB00002F
:10015000A5BB0000A5BB0000A5BB0000A5BB00001F
:10016000A5BB0000B5C30000A5BB0000A5BB0000F7
:10017000A5BB0000A5BB0000A5BB0000A5BB0000FF
:10018000A5BB0000A5BB0000A5BB0000A5BB0000EF
:10019000A5BB0000A5BB0000A5BB0000A5BB0000DF
:1001A000A5BB0000A5BB0000A5BB0000A5BB0000CF
:1001B000A5BB0000A5BB00003DD50000564B4CF28E
:1001C000205210B51A804DF628121A8000BF00BFC9
:1001D0000BF0ECFC514B4FF010621A60504A9A60E1
:1001E000504ADA60504A136813F4807304D14F49BF
:1001F0000B604FF4A85313604D4B1A78110703D5C9
:100200001A7842F008021A704A4B4B492A221A7097
:100210004A4A4B4B8B4204D252F8040F43F8040B6A
:10022000F8E7484B484900228B4202D243F8042B9E
:10023000FAE74649464A002352F8230041F82300D2
:1002400001336F2BF8D1434B434A802103F8011B44
:100250009342FBD1414B3D4A1A60414B8A221A70AE
:10026000A3F5805324225A70A0221A709A7992071B
:10027000FCD59A79D406FCD43A4A937903F00C035E
:10028000082B384BF9D105221A7143225A719A79F9
:100290009006FCD5334A9179324B4906FBD5324A58
:1002A0004FF0817111600521516020221A709A79F6
:1002B00002F00C020C2AFAD12C4B2D4A1A602D4B5D
:1002C0002D4A1A6000225A60072243F8042C2B4A58
:1002D000C3F80C2D62B60BF023FF144B1B68DA0732
:1002E00005D527480BF0A2FD264B274A1A60274B5D
:1002F0001B785B0609D5234C234B22689A4204D114
:100300001F480BF093FD002323600FF0B9F90BF0A9
:1003100053FC0DF0E7FDFEE70E2005403080044061
:10032000823F04000100002B10D0034014D0034092
:1003300002D0074000E00740A8A8FF1F9056010028
:10034000209BFF1FA8A8FF1F08B3FF1F0096FF1FD9
:100350000000000000E400E05FE400E008ED00E0E1
:1003600000500640004006404480044004800440A1
:10037000C010050014E000E03F190100000020203B
:10038000E2B7365F1CE00340A5C3945A00F0074073
:10039000FFFFFFFFFFFFFFFFFFFFFFFFFFFFFFFF6D
:1003A000FFFFFFFFFFFFFFFFFFFFFFFFFFFFFFFF5D
:1003B000FFFFFFFFFFFFFFFFFFFFFFFFFFFFFFFF4D
:1003C000FFFFFFFFFFFFFFFFFFFFFFFFFFFFFFFF3D
:1003D000FFFFFFFFFFFFFFFFFFFFFFFFFFFFFFFF2D
:1003E000FFFFFFFFFFFFFFFFFFFFFFFFFFFFFFFF1D
:1003F000FFFFFFFFFFFFFFFFFFFFFFFFFFFFFFFF0D
:10040000FFFFFFFFFFFFFFFFFFFFFFFFDEF9FFFF23
:1004100010B5054C237833B9044B13B10448AFF33E
:1004200000800123237010BDA8A8FF1F000000005A
:100430008C560100084B10B51BB108490848AFF3B2
:1004400000800848036803B910BD074B002BFBD0A0
:10045000BDE81040184700BF00000000ACA8FF1F17
:100460008C560100A8A8FF1F0000000010B504462C
:1004700000F509700DF0F6FA04F503700DF0F2FACC
:1004800004F5FE700DF0EEFA04F5F6700DF0EAFAE0
:1004900020460DF0E7FA204610BD00BF014800F0ED
:1004A000F9B800BFC4A8FF1F00B585B00E49684663
:1004B0000DF018FB69460D4800F054F868460DF041
:1004C000D1FA0A4800F0E2F8212807DDFF200322D4
:1004D00007490BF0EBFB05B05DF804FB034800F0A7
:1004E000D5F8C0B2F3E700BFCC420100C4A8FF1F9B
:1004F0009D040000014800F063B800BFC4A8FF1FBE
:1005000010B5054C204600F00DF82046034A04497A
:10051000BDE810400FF09EB8C4A8FF1FFC9BFF1F52
:100520006D04000010B5002104460DF0DBFA04F163
:10053000100001F033F804F58C700AF08BFB04F521
:10054000B27004F033FE04F5EC700AF0CDFA04F555
:10055000F47003F0E3FD04F5097005F001FA20469C
:1005600010BD00BFF0B585B0044600F5F4766846CE
:100570000DF0CCFA6946304603F00AFE68460DF0ED
:1005800071FA04F5097504F1100001F013F9284619
:100590000AF09EFA04F5B27704F58C700AF078FB45
:1005A0002946384604F0E8FE04F5EC700AF0A0FA9B
:1005B0002A463946304603F0C9FD05B0F0BD00BFFC
:1005C0002DE9F04F8BB0044600F2F53E00F57C7546
:1005D00000F2ED3600F57B7700F2F63800F2F739DD
:1005E00000F57D70CDF808E031462B463A46009084
:1005F000CDF8048004F58C70CDF80C900AF05CFD09
:1006000004F57E7A2B4631463A4604F110008DE817
:10061000000301F0C7F9294604F5B273524604F508
:10062000EC7005930AF0F2FA3146059E2B463A46E5
:100630000025304604F5F47B8DE8000705F06AF8E4
:10064000584684F8ED5384F8EC5384F8F45384F856
:10065000F65304F079FDD4F8F033092B13D0584643
:1006600003F0A0FF78B104F5097007F07DFF29467B
:10067000584603F099FF304606A906950795089558
:10068000099504F041FE0BB0BDE8F08F00F58C70C9
:100690000AF0D2BB90F81831013380F81831704756
:1006A00010B4047F4160022CC26002D010BC0DF077
:1006B00005B8836810BC18472DE9F0410468E56867
:1006C00015F0807F794D256052D1DF0740F1B3806E
:1006D000002900F0E3800D78012B18BF45F000459C
:1006E0006563013190F8248003F1FF3C48EA082853
:1006F000BCF1000F00F0A88021B14D7811F8028BF9
:1007000045EA082845682E7ABCF1020F06F1FF364B
:100710004FEA06360CBF48F0805548F01045B6B297
:100720006563ACF1020C08E00AB114700132013BC0
:1007300005F47045B54216D90468E56A15F0F00F66
:10074000F6D0A46B13F0010F17464FEA242EEBD11D
:100750001AB107F802EB54703A4605F47045B542F9
:10076000A3F10203E8D8BCF1000F6DD00468C3E721
:10077000DD074CD5002900F089800D78012B18BFCA
:1007800045F000456563013103F1FF3E90F824C058
:10079000BEF1000F41D029B191F801C00D780231AE
:1007A00045EA0C2C45682E7ABEF1020F06F1FF36A1
:1007B0004FEA06360CBF4CF080554CF01045B6B2EF
:1007C0006563AEF1020E08E00AB114700132013B1C
:1007D00005F47045B54215D90468E56A15F0F00FC7
:1007E000F6D013F0010F1746A46BEDD122B107F834
:1007F000024B241254703A4605F47045B542A3F1F9
:100800000203E9D8BEF1000F07D00468C3E79E4693
:1008100090F824C0BEF1000FBDD11BB30468E16A9B
:1008200011F0F00FFBD0A16BDC071DD50AB11170E0
:100830000132013BF1E790F824809C4648EA082801
:10084000BCF1000F7FF458AF63B10468E16A11F0A6
:10085000F00FFBD0DE07A16B0FD50AB1117001328A
:10086000013BF1E7BDE8F0812AB114460D1204F80E
:10087000021B55702246023BCFE72AB114460D12E7
:1008800004F8025B51702246023BDDE790F82450E9
:10089000012B18BF45F00045656375E790F82450BB
:1008A000012B18BF45F0004565631BE700041F805E
:1008B000F0B4464B464A186BDC6A01791170454921
:1008C00022790A709A6A00790870002A46D059681D
:1008D000C9688A423ED82168CC8B240402F1FF30DB
:1008E00065D4C0F30E00C883C88B80B2C882196B70
:1008F0000968C88B000452D4C2F30E00C883C88BA9
:10090000002480B212F1FF32C88218BF01229C621B
:10091000D96A2E4809680D6800F12404A54236D032
:100920000068C46814F0804F0C680D6815BF2488F7
:1009300024780235013544F000440D604463196B9E
:10094000254B09791970214912B1CA6A12791A70B6
:10095000F0BC7047521A9A620122D9E7586B1968A5
:1009600005681E4C0A63CC62CC682D681C4E24F0CE
:1009700080440327B542CC6083F825701FD1037FE4
:100980004260022BC2601ED0F0BC0CF097BE016822
:1009900090F82400CC6840F000404863CFE7CC8B4F
:1009A000C2F3080004F47E442043C883A7E7CC8B3D
:1009B000C0F3080004F47E442043C88394E72B4628
:1009C0001146F0BC18478368F0BC1847009CFF1F15
:1009D0001F8000401C8000401B80004000000FFF73
:1009E000A106000090E80C00F0B41C685968256866
:1009F000164F174E29432160164D17491760D660D0
:100A000015611160417A154A5C180A3194F8244046
:100A100053F8215002EBC40149680D60017A5C185B
:100A200003EB8101247ECD6902EBC40149680D60AE
:100A3000817A581803EB810390F83000596B02EB70
:100A4000C002F0BC53681960704700BF01401F002E
:100A5000011000380110007800001F80E4510100EF
:100A60005E2911D830B44A09C57A012303FA02F489
:100A70002C4300EB8202C472D06801F01F0103FA1C
:100A800001F10143D16030BC704700BF5E2913D82B
:100A900030B44D0900EB850401F01F01E368012229
:100AA00002FA01F123EA0101E16021B9C37AAA4007
:100AB00023EA0202C27230BC704700BF426803687A
:100AC00005CA10B4046822430260DA6881B942F0B2
:100AD0008072D9688A4209D0196848040BD4094841
:100AE000186042F08040DA601861196010BC7047ED
:100AF00022F08072EDE742F08041DA6010BC1961AB
:100B0000704700BF01401F0043680CCB11680B43C6
:100B1000136070474268036805CA10B40468224332
:100B20000260D868840100F0E06205D5080900F48D
:100B3000706021F470410143D8681143814209D0AB
:100B40001A68500408D40748186041F08040D96002
:100B500018611A6010BC704741F08042D96010BC27
:100B60001A61704701401F00204A43689A42F0B45E
:100B70000FD0427A1A4492F82420914207D093F879
:100B800024408C4215D093F825408C422AD0F0BCEA
:100B900070470B2907D00729EBD1154C227842F07A
:100BA00001022270E5E7124C227822F00102227045
:100BB000DFE7002421461E685D6836682E420FD0AC
:100BC0000C4D05EBC202002756685A18376092F8A0
:100BD000242005EBC2050A316A6853F821301360FE
:100BE0004472D4E701242146E5E700BFD442010066
:100BF0002CB1FF1FE45101001E4A43689A42F0B431
:100C00000CD0027A1A44127E914205D01C7E8C428E
:100C100014D05C7E8C422AD0F0BC70470C2907D0DF
:100C20000829EED1144C227842F002022270E8E743
:100C3000114C227822F002022270E2E700242146C1
:100C40001E685D6836682E420FD00C4D05EBC2025F
:100C5000002756685A183760127E063105EBC20528
:100C600003EB81036A685B6813600472D4E70124B4
:100C70002146E5E7D44201002CB1FF1FE4510100F9
:100C8000204A43689A42F0B40FD0827A1A4492F80C
:100C90003020914207D093F830408C4215D093F821
:100CA00031408C422BD0F0BC70470D2907D00E2963
:100CB000EBD1154C227842F004022270E5E7124C89
:100CC000227822F004022270DFE7002421461E6809
:100CD0005D6836682E4210D00C4D05EBC20200272D
:100CE00056685A18376092F830200C3105EBC2056F
:100CF00003EB81036A685B6813608472D3E70124A5
:100D00002146E4E7D44201002CB1FF1FE451010069
:100D10000BB1FFF7D1BC70470020704790F8392025
:100D200090F83800101A704790F8383090F8392051
:100D30009A4205D95A1C034480F83820187E70471F
:100D40004FF0FF30704700BF90F8383090F83920EE
:100D50009A4286BF1B18187E4FF0FF30704700BFC5
:100D6000704700BF38B50546B0F85E0090B195F801
:100D70005D301446C3F1210294420CD805F13B00CA
:100D8000184422460AF0C2FD95F85D30234485F8E8
:100D90005D30204638BD012014462871EEE700BFC3
:100DA000B0F85E306BB190F85D30202B07D8C218D8
:100DB000013380F85D30012082F83B107047012339
:100DC00003710020704700BF0023426980F838306B
:100DD00080F8393080F85C3080F85D3080F85E3023
:100DE00080F85F3006CA30B40D68046943662A4350
:100DF00083660A60A370426990F8613016491468EE
:100E000013441D7A5B7B01EBC5051B026D6803F47F
:100E1000E06343F064032B6090F8623013449D7CE0
:100E2000DB7D01EBC5011B02496803F4E06343F07D
:100E300064030B6021685368194205D003692822B6
:100E40005A70036903229A71036920225A71036957
:100E500080229A7030BC7047E451010070B490F861
:100E6000613045692B441E7A8E420AD0EC1D002366
:100E700014F8012FFF2A04D08A4204D00133052B35
:100E8000F6D170BC704795E806000968114211D090
:100E90000A4901EBC6061D447268002414602C7ACE
:100EA0006A7B01EBC401120202F4E062496842F07D
:100EB00064020A6080F86130E3E700BFE45101009A
:100EC00070B490F8623045692B449E7C8E420BD002
:100ED00005F11104002314F8012FFF2A04D08A42DF
:100EE00004D00133052BF6D170BC704795E806009D
:100EF0000968114211D00A4901EBC6061D44726807
:100F000000241460AC7CEA7D01EBC401120202F4FF
:100F1000E062496842F064020A6080F86230E3E708
:100F2000E451010010B50269D378DBB2D90604465A
:100F30003DD510215806D17038D503F0040303F0D5
:100F4000FF02002B51D03D49626E00230B7084F8E4
:100F50005D30002A5BD0904794F85D30002B56D06E
:100F60002369D0229A70236994F83B201A7123696F
:100F7000012284F85C200222DA7010BD304B84F824
:100F800060009C424AD02F4B9C4252D094F83910BA
:100F900013791F29DBB207D82848007820B16018E0
:100FA000013184F8391003760223D37010BD59063D
:100FB000C3D4917801F0100101F0FF000029DDD0C9
:100FC00013F001031ED194F85C1094F85D00884280
:100FD00081BF4B1C091984F85C3091F83B301371C8
:100FE0002369D0229A702269DEE7236984F83920C8
:100FF000C0229A702369114A1979012111700222C5
:10100000DA7010BDC023937022691379CCE70122F6
:10101000002384F85D2084F83B30A1E7626994F8EE
:101020006130094913440322187A0AF03FFE22690D
:10103000ACE7626994F861300449F3E7C4ACFF1F80
:10104000389CFF1FA49CFF1FAD100000B9100000CA
:101050000369DB7803F0200373B190F8603001334B
:10106000DBB2012B80F860301AD9426990F8613008
:101070001344187A0AF096BE70B5426903F0FF0572
:1010800090F8613013440446187A0AF08BFEA36E80
:101090005BB184F8385094F83900BDE870401847C7
:1010A00090F85F30002BE0D0704770BD0148FFF72B
:1010B000CFBF00BF389CFF1F0148FFF7C9BF00BF6B
:1010C000A49CFF1F2DE9F047364FDFF8DC903B680A
:1010D000026982B006460093DDF800800021782581
:1010E000D3789B065AD53B680193019BC8EB030359
:1010F0000F2BF5D949B1102BF2D000209070336935
:1011000080229A7002B0BDE8F087726996F861306B
:1011100013440521187A0AF0ADFF726996F8613020
:101120001344012193F812A050460AF0A3FF0924AA
:10113000002150460AF08AFF2B46013BFDD10121D8
:1011400050460AF083FF2B46013BFDD1013CEFD115
:10115000706996F861100144F0220C7A4B7B09EB20
:10116000C4011B02496803F4E06343F064030B60AD
:1011700096F862300344997CDB7D09EBC1011B02C8
:10118000496803F4E06343F064030B60013AFDD166
:101190003269D3789B064FF00101A4D4012002B03C
:1011A000BDE8F087D8AFFF1FE4510100F0B5036937
:1011B0001222DA700269937803F0200385B00446A6
:1011C0000D46002B5ED0B42393703C4922690B6816
:1011D0000093009E05E00B680193019B9B1B042B71
:1011E00042D8D37803F0200303F0FF00002BF2D0A5
:1011F00094F85D30002B31D04FF0000E4FF0020C10
:1012000004EB0E0393F83B3013710B680393039FB9
:10121000206907E09B060DD50B680293029BDB1B40
:10122000052B28D8C378DBB203F0020202F0FF06D8
:10123000002AEFD080F803C02669F378DBB2DF061E
:1012400032462DD49F062BD5DB0731D40EF1010E8B
:1012500094F85D305FFA8EFE7345D1D800201DBB37
:10126000002384F85E3004E09070236980229A7035
:10127000042005B0F0BD86702369802204209A7096
:1012800005B0F0BD03F0FF06FFF71CFF10B9042006
:1012900005B0F0BD236984F85F60B0229A7094E7CE
:1012A0008023B3700420DAE726698023B370D7E780
:1012B000BEF1000F0CBF02200320F6E7D8AFFF1FDE
:1012C0002DE9F04106690025122780F8385080F892
:1012D0003950F770D0F810C09CF802E00EF0200EE4
:1012E00088B00446884615461E46BEF1000F49D018
:1012F000B4238CF80230784B21691A680092DDF82B
:1013000000E006E01A6801920198CEEB0000042884
:1013100030D8C87800F0200000F0FF070028F1D096
:101320004FEA480242F00102D2B20A711A680292F0
:10133000DDF808E0206906E01A6803920399CEEB15
:10134000010105292AD8C17801F0020101F0FF0747
:101350000029F1D04FF0020C80F803C02269D17847
:1013600011F0110722D12DBB002E0CBFA02380232A
:10137000937003E08F70236980229A70384608B01A
:10138000BDE8F0810EF0FF07FFF79CFE0028F5D0C6
:10139000236984F85F70B0229A70ACE78770236984
:1013A000802238469A7008B0BDE8F081802393709F
:1013B0000027E3E7012D75D0A021917021690A79FA
:1013C000BE4667464FF0A80C1A680492049805E0E0
:1013D0001A680592059A121A052A4AD8CA7802F0A4
:1013E000020202F0FF08002AF2D0CF702169CA7809
:1013F000D2B212F0100F08465AD1920658D5013DCC
:10140000EDB2012D49D0BEF11F0F3BD90A79012D54
:10141000DAD11A680692069D05E01A680792079AC3
:10142000521B052A46D8C27802F0020202F0FF01E0
:10143000002AF2D00223C3702269D378DBB2D90626
:101440003AD49B0634D5B023BEF11F0F93703FD81A
:10145000226904EB0E0312791A760EF1010E5FFA7F
:101460008EFE16B1236980229A7084F839E077469F
:1014700084E781F80280236980229A70774684F895
:1014800039E07BE704EB0E0291F8048082F81880C3
:101490000EF1010E5FFA8EFEB9E781F802C02169F4
:1014A0000846B0E7A82191702069BE460279B0E7EE
:1014B000774663E78170DEE710217823D170013B26
:1014C000FDD12269937803F0F7037746937055E7CF
:1014D00023691B79C5E700BFD8AFFF1F0148FFF79D
:1014E00021BD00BF389CFF1F0148FFF71BBD00BF97
:1014F000A49CFF1F30B590F854308DB0044643BB18
:101500000A2101200CF092FA1449054604A80CF0B7
:10151000E9FA0A22294608A80CF016FB08A904A833
:101520000CF0B8FB0E490CF0BDFB014668460CF010
:10153000EDFA08A80CF096FA04A80CF093FA0099BA
:1015400004F1580000F08EFD68460CF08BFA0DB0E7
:1015500030BD243000F06AFDD2E700BFBC4301007B
:101560004444010010B50121044610200AF06EFD2C
:1015700032200AF085FD4FF48033C4F8A8307D2076
:101580000AF07EFD0123002184F80131C4F8A8107F
:101590001020BDE810400AF059BD00BF2DE9F04110
:1015A0007E4D7F4E2A680660002304464372036125
:1015B0000372C36011460AB9D3E019464B69002B88
:1015C000FBD14C61774820604FF480416361A38078
:1015D000E380A37284F82D30636384F82C30236396
:1015E000216204F1240000E01A465369002BFBD16C
:1015F00050610027DFF8B881A7632785678584F8E5
:101600002E70E76327646764A4F84870C4F82480E8
:1016100000F006FD2A6884F86170A76684F860709F
:101620006766A66504F158005C4B0AB9AEE01A463D
:101630005369002BFBD150610027C4F85880E7663E
:10164000A4F85C70A4F85E7084F86270276767671E
:10165000A767A4F87C7000F0E3FC042004F1B40256
:1016600084F895003B4684F89470C4F89870C4F8E8
:101670008C603946C4F89C2004F18C0001E0D4F859
:101680009C2042F8231094F8952001339A42F6DC0E
:101690002A68424B0AB97BE01A465369002BFBD1FA
:1016A000506100214FF480303F4FC4F8C46004F112
:1016B000DC020126C4F8A400C4F8A800C4F8AC00F9
:1016C000C4F8B0000B46C4F8A010A4F89010A4F819
:1016D000921084F8961084F8CC10C4F8D010C4F896
:1016E0008C70C4F8D42084F8CD6004F1C40001E00B
:1016F000D4F8D42042F8231094F8CD2001339A4234
:10170000F6DC2A68254B0AB944E01A465369002BD7
:10171000FBD150610025254BC4F8D850A4F8C8501F
:10172000A4F8CA5084F8CE50C4F8C43000F01AFBB4
:10173000C4F8E050C4F8E450C4F8E850C4F8EC50E1
:10174000C4F8F050C4F8F450C4F8F850A4F8FC50B1
:1017500084F8005184F80151C4F804512046BDE8D2
:10176000F081104928604FF4804342618280C2803A
:101770008272466280F82D20426380F82C2002633A
:101780000160036224303CB9286032E7186053E7F7
:10179000186086E71860BDE7224626E7D8B0FF1F2D
:1017A000B8430100B846010094460100A04601007C
:1017B000AC460100F8B50E2105463A48FFF760FA3D
:1017C0000B213848FFF7D0F90C213648FFF714FAFF
:1017D000012110200AF04EFC002110200AF036FCF6
:1017E000314802F08DFC0A2002F02AF9002855D079
:1017F0002E4802F085FC14200CF07CFB0024012311
:1018000005F18C0706464372056047600472C460A8
:1018100004740BF047FEC5F8E06014200CF06AFB7E
:1018200005F1240306460360476004724472C460F5
:1018300004740BF037FEC5F8E46014200CF05AFB7A
:1018400005F15802022302600646437247600472A3
:10185000C46004740BF026FEC5F8E86014200CF098
:1018600049FB05F1C40343600646076004724472F5
:10187000C46004740BF016FEC5F8EC6010210C482F
:101880000BF01AFD4FF480330A4AC5F8A840C5F89A
:10189000A430C5F8AC302B62EA61F8BD064802F00E
:1018A0002FFCA8E7009CFF1FC44301000C4401006B
:1018B0000082FF1F887BCD05E8430100D0F804318A
:1018C000022B10B503D0063B022B00D910BD0446F5
:1018D000002380F801310649243000F0C3FBD4F81E
:1018E0000431082B1CBF0323C4F8043110BD00BF12
:1018F0002C440100D0F80431012B00D0704790F83F
:101900000031002BFAD190F88830002BF6D130B599
:1019100090F854308DB0044643BB082101200CF0F0
:1019200085F81449054608A80CF0DCF80A22294677
:1019300004A80CF009F904A908A80CF0ABF90E49A9
:101940000CF0B0F9014668460CF0E0F804A80CF081
:1019500089F808A80CF086F8009904F1580000F006
:1019600081FB68460CF07EF80DB030BD243000F0ED
:101970005DFBD2E74C44010044440100D0F804214F
:10198000092A03D9012110200AF060BB40F2C123CB
:10199000D34003F0010383F00101002BF2D01020AB
:1019A0000AF054BB2DE9F84390461278089E099D31
:1019B0001F461B68C0F804310446894622B3012B38
:1019C0001ED02046FFF7DAFFD4F80431062B43D0AF
:1019D00099F800301BB198F80030002B44D03378D0
:1019E000B3BB2B781BB3D4F80431012B40D0032BAD
:1019F00021D0082B1FD0042B42D03B60BDE8F883D8
:101A0000FFF778FDD4F80431012BDAD194F8543083
:101A100003F0FF02002BD4D194F800310BB184F80D
:101A20000021204904F1240000F01CFBC9E7D4F890
:101A30000431032BDDD194F85420002ADDD1012399
:101A4000C4F80431184802F05BFBD4F80431D2E743
:101A50002046FFF733FFC4E794F80131002BB7D1DC
:101A60002046FFF77FFDB3E72046FFF743FFB6E7C9
:101A70000E4904F1240000F0F5FA0423C4F80431FF
:101A800094F8543003F0FF021BB104233B60BDE81F
:101A9000F883C4F80421064802F032FBD4F804317C
:101AA000ABE700BF54440100604401003C44010026
:101AB0007444010010B504460BF0E6FD204610BD4D
:101AC000024A034903480DF0C5BD00BFFC9BFF1F40
:101AD000B51A0000C8ACFF1F38B5074D074C0848C1
:101AE0002A4621460DF0B6FD2A4621460548BDE8A6
:101AF00038400DF0AFBD00BFFC9BFF1FB51A0000C2
:101B0000D0ACFF1FD8ACFF1F024A034903480DF0B9
:101B1000A1BD00BFFC9BFF1FB51A0000E0ACFF1F7A
:101B2000024A034903480DF095BD00BFFC9BFF1F0F
:101B3000B51A0000E8ACFF1F024A034903480DF044
:101B400089BD00BFFC9BFF1FB51A0000F0ACFF1F52
:101B5000024A034903480DF07DBD00BFFC9BFF1FF7
:101B6000B51A0000F8ACFF1F024A034903480DF004
:101B700071BD00BFFC9BFF1FB51A000000ADFF1F29
:101B8000024A034903480DF065BD00BFFC9BFF1FDF
:101B9000B51A000008ADFF1F2DE9F8434FF000080B
:101BA000064600F11805474641463046002F4FD003
:101BB0000BF04AFCF0B12C68B4F5803F07F104014A
:101BC00000F1040E07F5827C27D05EF8042B34FB6D
:101BD00002F334FB12F903F30F0209F30F03C2EA15
:101BE00003430A6893FA12F341F8043B8C45ECD89E
:101BF0000BF0E6FB08F10108B8F1040F05F104054C
:101C0000D2D1002F40D03046394600220BF002FCE2
:101C10003846BDE8F8430BF0D3BB07F10C0100F1E7
:101C20000C0451F8083C54F8082C93FA12F341F8CC
:101C3000083C54F8042C51F8043C93FA12F38C45F8
:101C400041F8043C04F1080401F10801E9D8CFE7A8
:101C50000BF006FC07460028CCD02868B0F5803F82
:101C6000C8D0391D07F582740B6830FB03F230FBD6
:101C700013F302F30F0203F30F03C2EA034341F825
:101C8000043B8C42F0D8B5E7BDE8F883024A03492B
:101C900003480DF0DFBC00BFFC9BFF1FB51A00001E
:101CA00010ADFF1F10B500210BF0CEFB70B172B666
:101CB0000A4B1A6872B10A490C6844B11C6008608A
:101CC00062B61046BDE810400BF07ABB10BD08604C
:101CD00062B610BD186062B610BD00BF28ADFF1F10
:101CE00018ADFF1F38B5184B18491A68184C126800
:101CF0001B79184D0B70A242286836BF2246A4F506
:101D0000807202F58074C0B1011D31F9023B03F508
:101D100000431B1122F8023B9442F6D80BF050FB13
:101D20000D4B0022196829601A600C4B1B781BB1FF
:101D30000B4B4FF080421A6038BD4FF4006322F81D
:101D4000023B9442FBD8F0E71CADFF1F1F80004010
:101D50004093FF1F28ADFF1F18ADFF1F24ADFF1FCD
:101D600008E200E0F8B501214248434E0BF028FCA0
:101D7000424A43491368802043F48053136000248F
:101D8000087040F608053480012008340AF078F91C
:101D9000A3B2AB421CB2F6D13A4B1B685B0208D52A
:101DA000394B1A6848F6A273134048F6A272934260
:101DB0004FD03449344A0B68344F354D3548364C92
:101DC00043F480030B604FF0010E40F22F3648F6CB
:101DD000A37140F20113C7F800E02E601160146097
:101DE0000360244C2D4A236823491A6002259D80F4
:101DF0002279196102F1804202F50432284EDE6038
:101E000040F20111D9804FF4807000210627B026DE
:101E1000D8829D60D88399829F83996111701670D2
:101E20000BF074FB22791F4B1F4E187053119B004F
:101E300003F160431D4C327003F5614302F1100061
:101E400002F01F0701211A4D44F82050B9401960D3
:101E5000F8BD0F4B1A6840F22F339A42A9D10B4BB1
:101E60001B68012BA5D10B4B1A6840F201139A4253
:101E70009FD1B6E71CADFF1F00C00C402C80044072
:101E800021C00C403C800440006003400C600340D3
:101E90000460034010600340A28F01004092FF1FC6
:101EA00000FEFFFF24ADFF1F1B8000400096FF1FB8
:101EB000E51C0000024A034903480DF0CBBB00BFFC
:101EC000FC9BFF1FB51A00001CADFF1F024A03490F
:101ED00003480DF0BFBB00BFFC9BFF1FB51A0000FD
:101EE0002CADFF1F024A034903480DF0B3BB00BFEE
:101EF000FC9BFF1FB51A000034ADFF1F024A0349C7
:101F000003480DF0A7BB00BFFC9BFF1FB51A0000E4
:101F10003CADFF1F024A034903480DF09BBB00BFC5
:101F2000FC9BFF1FB51A000044ADFF1F024A034986
:101F300003480DF08FBB00BFFC9BFF1FB51A0000CC
:101F40004CADFF1F024A034903480DF083BB00BF9D
:101F5000FC9BFF1FB51A000054ADFF1F90F83030F6
:101F600003B9704770B505460BF0D6F90646002850
:101F700050D0EB69296A8B4227D901F580729342D0
:101F800038D2A8695C1A22460844311D00F0B6FE1A
:101F90002B6AEA6A1919630822447F2B2962EA62D4
:101FA00009D806EB4303023306F58171002223F8BA
:101FB000022F8B42FBD12846314600220BF02AFA31
:101FC0003046BDE870400BF0FBB9134A13885BB98B
:101FD0005E211248FEF75AFD002385F83030304666
:101FE000BDE870400BF0ECB9013B9BB21380002BB5
:101FF000F2D1EDE7A8694FF480720844311D00F07A
:102000007DFE2A6AEB6A02F5807203F580732A620C
:10201000EB62D0E770BD00BF5CADFF1F009CFF1FEF
:10202000002380F830308362C362704772B690F844
:10203000303053B1002380F8303062B6074A13883D
:102040002BB95E210648FEF721BD62B67047013B01
:102050009BB21380002BF4D0704700BF5CADFF1F14
:10206000009CFF1F70B51B4E84B004460D46FFF761
:10207000DDFF5E211848FEF7F3FC33882946013363
:102080006846338001F006FE6B4607CBA061A0696D
:102090001B88A384E161226240B10022E369E2620D
:1020A0000120A36284F8300004B070BD338833B9D6
:1020B00009485E21FEF7EAFC002004B070BD013B38
:1020C0009BB23380002BEFD103485E21FEF7DEFC8C
:1020D0000020F2E75CADFF1F009CFF1F036A2DE9A3
:1020E000F04780464BB9D8F81830D8F81C2003EBDD
:1020F000C213C8F81830BDE8F0870BF00DF906469A
:102100000028F0D0D8F81890D8F81C70D8F820C063
:10211000134D4946841C00F5817E0B0E5A1C35F97F
:10212000130035F91220C1F30F2ACAF5803300FBE2
:1021300003F30AFB023353FB0CF324F8023FA645DA
:102140003944EAD109EBC7174046C8F81870314640
:1021500000220BF05FF93046BDE8F0470BF030B9D4
:1021600088440100704700BF064B074ADA6202212B
:10217000002259609A7083F8242083F8302083F875
:102180003220704760ADFF1FC446010010B5012129
:10219000007809F05BFF0E4A137893B10D49CB7AB2
:1021A00000241846147063B1DC0703D50A4A886915
:1021B000106018469A0705D4430702D5074B0A6AF0
:1021C0001A6010BD064BCA69C87A1A60F4E700BFEE
:1021D000B8ADFF1F009CFF1F00E100E008E100E038
:1021E00004E100E01E4B1A781AB10078002109F0D2
:1021F0002DBF70B41B4A1C49D47A096801251D7093
:10220000ECB172B6D37ADE071C4606D5174DD468FA
:102210002E68344094612C601C469D0706D5144DF1
:1022200013692E68D47A3340D3612B60630705D5D8
:10223000104C536925682B401362236062B6136803
:10224000DA688A4207D00C4C1C600C4AD96041F015
:1022500080441C611A600078002170BC09F0F6BE51
:10226000B8ADFF1F009CFF1FB4ADFF1F80E100E071
:1022700084E100E088E100E001403F0000003F8091
:10228000F0B41248124A036882B016460093009FC9
:102290004FF00045FF24136843F480631360D56258
:1022A0005463D36A002BFCDAB36BDBB2FF2B09D08B
:1022B00003680193019BDB1B8B42ECD3002002B02F
:1022C000F0BC7047012002B0F0BC7047D8AFFF1FD0
:1022D00000C00240F8B50D464FF49671164604460C
:1022E000FFF7CEFF284B1A684FF0004042F480629F
:1022F00045F040011A60D8621A465963D36A002B30
:10230000FCDA214918204FF000470A6826FA00F34A
:1023100042F48062DBB20A60CF624B63CB6A002B6F
:10232000FCDA083810F1080FEFD155B3082D0CBFB7
:102330008721FF21144B1A684FF0004042F480625D
:102340001A60D8621A465963D36A002BFCDA0E4A27
:10235000002716464FF00045FF21136843F48063C1
:102360001360D5625163D36A002BFCDAB36BD8B229
:102370001B06607000D4F8BD0137B7F5807FECD143
:10238000F8BD9521D6E700BF00C00240F0B4154962
:10239000154A0B6882B016460093009F4FF0004527
:1023A000FF24136843F480631360D5625463D36AD7
:1023B000002BFCDAB36BDBB2FF2B43700AD10B6846
:1023C0000193019BDB1BB3F5967FEAD9002002B095
:1023D000F0BC7047A3F1FE00B0FA80F0400902B0F3
:1023E000F0BC7047D8AFFF1F00C00240F8B583783B
:1023F000032B0E46044618BF4E021546FFF7F2FEA9
:10240000324611212046FFF765FF18B92046FFF735
:10241000BDFF20B92046FFF7B9FE0020F8BD204BD4
:102420002049214A1A608E4659631A4659631E464E
:10243000596305F5FD70A91C05F5FE77D36A13F005
:10244000F00FFBD0C6F834E0B36B01F8013C1B126F
:1024500001F8023C02318F42F0D105F50075A84227
:102460000DD20F4A1646D36A13F0F00FFBD0B36BB0
:10247000191200F8021BA84200F8013CF3D3084BE4
:102480000949084A196019465A63CB6A044A13F08D
:10249000F00FFAD02046936BFFF778FE0120F8BDCD
:1024A00000C00240FFFF009000041F80F0B4314ED6
:1024B00033684FF0004743F4806333603D46F76272
:1024C000344671633346511C02F20127E26A002A46
:1024D000FCDA1A6811F8016C42F480621A60DD625D
:1024E0005E63E26A002AFCDA1A6811F8026B42F4B1
:1024F00080628F421A60DD625E63E7D11D49CA6A5D
:102500001C4B002AFBDA1A684FF0004542F4806247
:10251000FF241A601946DD625C63CB6A154A002B02
:10252000FBDA13684FF0004543F48063FF24136027
:102530001146D5625463CB6A0E4A002BFBDA13684E
:102540004FF0004543F48063FF2413601146D562C9
:102550005463CB6A074A002BFBDA936BDBB203F0C0
:102560001F024370A2F10500B0FA80F04009F0BCF0
:10257000704700BF00C0024070B5044671B1837857
:10258000032B0D4618BF4D021646FFF72BFE2A46B9
:1025900018212046FFF79EFE054620B12046FFF792
:1025A000F5FD002070BD3246FE212046FFF77EFF7C
:1025B0000028F3D04FF416712046FFF761FE002883
:1025C000ECD02A460D212046FFF784FE0028E5D1F5
:1025D0000B4B1A684FF0004542F48062FF201A60EE
:1025E0001946DD625863CB6A054A002BFBDA936B10
:1025F00013F0FF0FD2D12046FFF7C8FD012070BDB8
:1026000000C00240014B024A1A607047B4ADFF1F80
:102610000000023838B590F90530002B03DBBDE827
:10262000384000F06DB904460121006900F092F9CC
:10263000F8B1257D104B13EB45151AD0A3790F4A3D
:10264000012B9CBFA369EB61E36912686B831B0CD0
:10265000AB8232B105F1160105F1180090472B8BC2
:102660006B82637903F07F036371BDE8384000F04B
:1026700047B9002038BD00BFC8ADFF1FBCADFF1F6C
:1026800010B500F1080204460121006A00F000FACA
:1026900050B1E3693BB96379A268E26163F07F03FB
:1026A0006371012010BD012010BD00BFF8B5837912
:1026B00013B182698A4201D20020F8BD022B0F4675
:1026C00005461AD007B32B6AE9681C7C4A1E04F140
:1026D00009037C1EDA40DC40A24211D9EB69AB60F1
:1026E00005F1080606E0A968286A00F099F9013C9E
:1026F0000028E1D03246002CF5D1EF600120F8BD72
:102700000029EBD0A41AEBE7AF60EF600120F8BD21
:102710002DE9F04F8B46817985B00129074601925A
:1027200005D001233B71002005B0BDE8F08F427950
:102730009107F6D5530708D5FC68B9698C4200F0BB
:10274000A880FFF7B3FF0028EBD0019BFC68002BAB
:1027500049D0DFF88C91DFF88CA1DDF80480386A6D
:102760000679013E06EA542616F0FF06C4F3080473
:1027700042D1002C40D1B96800296FD1FA69002AF2
:102780007ED0BA60C4F50075ADB245453AD9057C36
:102790004169023AAA400E4416441FFA88F51CB952
:1027A000F868BA6990424CD23046012100F0D2F864
:1027B0000028B6D04C4404EB050E74450DD00BF147
:1027C000FF31621E0EF1FF3611F8010F02F8010F02
:1027D0009642F9D1C4EB0E04A344FC68B8EB05089B
:1027E0002C44FC60BBD1BB69A34257D27A79BC614F
:1027F00042F080027A715AE0C4F50075ADB24545E9
:10280000BA68C4D8017C4069023A8A400644B5F5EA
:10281000007F1644C3D1DAF80020964204BF4FF07F
:10282000FF32CAF800202A4A314610685A46FFF79C
:10283000A3FE00283FF475AF0BF5007B4FF4007545
:10284000CBE700F05DF800283FF46BAF2149CAF8F0
:1028500000600A7842F001020A70ABE703AA00F0B8
:10286000DFF800283FF460AF386A1B4B90F8205027
:10287000039A4FF6F871102D18BF19468A4280D37B
:102880003846FFF7FDFE00283FF44BAF386ABA68C0
:1028900078E7019B002B7FF45CAF08E00F4B7A795F
:1028A0001B6823B1019B13B142F080027A711207B9
:1028B00009D5BB79002B3FF434AF3846FFF7AAFEA9
:1028C00000283FF42EAF019805B0BDE8F08F00BF9F
:1028D000C4ADFF1FC8AFFF1FF8FFFF0FBCADFF1F48
:1028E000C8ADFF1F109DFF1F00B583B002AB0122D2
:1028F00003F8011D1946FFF70BFF03B05DF804FB59
:1029000070B50F4C23780BB9012070BD0D4B0E4DE7
:10291000196828680D4AFFF72FFE70B10C4E316818
:1029200019B900232370012070BD2868074AFFF7FA
:1029300023FE10B100233360F3E7002070BD00BF19
:10294000C8AFFF1F109DFF1FC4ADFF1FC8ADFF1F05
:10295000C0ADFF1F70B50D4D2B6883420E460ED0E3
:102960000446FFF7CDFF08B9002070BD084B094AA7
:1029700018682146FFF73AFD0028F5D02C60064B79
:10298000197831431970012070BD00BF109DFF1FE1
:10299000C4ADFF1FC8ADFF1FC8AFFF1FF8B590F84B
:1029A0002030C469102B1A4B05460E4617461B688B
:1029B00016D004EBD1149C4216D106F07F06154ABE
:1029C00042F826701449287E0A78012842F0010254
:1029D0000A7018D9A968114A0B4413600120F8BD88
:1029E00004EB11249C4208D000212046FFF7B2FFDF
:1029F00050B195F82030102B07D1F6B2054A234686
:102A000022F81670DEE70120F8BD2346D5E700BFA7
:102A1000109DFF1FC8ADFF1FC8AFFF1FC0ADFF1F38
:102A2000C36801338B4218D370B590F82030102B57
:102A3000154B044616460D46C0691B680FD000EBC7
:102A4000D11098420FD105F07F01104B53F821307F
:102A500023F070433360012070BD0020704700EB0D
:102A60001120984207D00021FFF774FF50B194F86D
:102A70002030102BE7D1E9B2044B33F8113033602A
:102A8000012070BD002070BD109DFF1FC8ADFF1F4D
:102A90002DE9F04F176883B06FB301374FF0000A8C
:102AA000C36803F1010813B38B46064691463C46C2
:102AB000002505E01C461F46F3680135AB4216D9D8
:102AC000A04538BF0224214601AA304638BF274618
:102AD000FFF7A6FF631CD91B48B1019A002AE9D170
:102AE0008B4510D01C46F3680135AB42E8D8002076
:102AF00003B0BDE8F08FA1F1010ABAFA8AFA0768BB
:102B00004FEA5A1ACCE7012CF1D9F36801339C4201
:102B1000EDD86FF0704221463046FFF73FFF0028A6
:102B2000E5D0A74214D2013C012CE0D9F36801336F
:102B30009C42DCD8621C21463046FFF72FFF00285C
:102B4000D5D0A74204F1FF3402D0012CEED1CEE75C
:102B5000D9F8001059B10129C9D9F3680133994254
:102B6000C5D83A463046FFF719FF0028BFD0C9F84C
:102B70000070BAF1000F01D0013737600120B7E7CC
:102B8000524ADFF868C12DE9F04F514D514CDFF842
:102B90006081DFF860B1DFF860E11646D17A09B3F1
:102BA00072B6F37AD807194607D5DBF80000F1684A
:102BB0000140B161CBF8001019469B0707D5DCF83E
:102BC00000001369D17A0340D361CCF800304F077D
:102BD00006D5D8F8001053690B401362C8F80030CE
:102BE00062B6D17A1368D868B0F1384F0AD04FF086
:102BF00078404FF03849C3F800E0C3F80C901861F2
:102C0000354818602078D5F800A04FF001098007FA
:102C10008AF800914FF000492DD57020C3F82C9010
:102C20005863D86A0028FCDA4FF0004900209F6BF7
:102C3000C3F82C905863D86A0028FCDA01209B6BFB
:102C40008AF8800081B1CF0703D5244F9069D17AEB
:102C50003860880703D5224FD069D17A3860490798
:102C600002D52048116A01601B0697D51E4B002231
:102C70001A70BDE8F08F0520C3F82C905863D86A0D
:102C80000028FCDA4FF0004900209F6BC3F82C901D
:102C90005863D86A0028FCDA01209B6B8AF8800010
:102CA00081B1CF0703D50D4F9069D17A386088077D
:102CB00003D50B4FD069D17A3860490702D509484E
:102CC000116A0160DB073FF569AFCFE7009CFF1F8A
:102CD000D0AFFF1FCCAFFF1F00003F8000E100E03E
:102CE00004E100E008E100E0CDAFFF1F84E100E077
:102CF00088E100E080E100E001403F002DE9F04F75
:102D00000E4685B000218146304615460DF092F8FA
:102D1000984B994ADB7A11780291002B25D072B634
:102D2000944BDB7ADC07194608D59448914904682E
:102D3000C96821408F4CA16101601946980709D5E7
:102D40008F488C4B04681B698A492340894CC97A97
:102D5000E36103604B0707D58A49864B08685B69C6
:102D60000340844803620B6062B6824B1B68D968DB
:102D7000B1F1384F09D0844818604FF03840D8601E
:102D800082494FF07840186119608148DFF804B239
:102D90000178039100297ED1DBF80020029800F031
:102DA000080A00F001015FFA8AFA01914FF0010868
:102DB00009EB0507BAF1000F40D1544682F80081B3
:102DC000019A002A4DD04FF000410322D9625A6384
:102DD000DA6A002AFCDA4FEA194242F080524FF0D8
:102DE0000041986BD9625A63DA6A002AFCDA1FFA4A
:102DF00089F949F080524FF00041986BD9625A63CB
:102E0000DA6A002AFCDADFF86C919B6B32463146B5
:102E10002B464846FDF77CFFDBF800202E4482F865
:102E200080800121002C00F0B780524B2546B94626
:102E30001B6809EB0507BAF1000FBED07C1E84EABF
:102E4000090414F07E44B9D029F07E4182F8008153
:102E5000019AC1F100716C1A09EB01070D46002AB5
:102E6000B1D1C9F3074242F0805242F440724FF0B0
:102E70000041D9625A63DA6A002AFCDA1FFA89F93A
:102E800049F080524FF00041986BD9625A63DA6A78
:102E9000002AFCDAB7E71178DBF8002001248F075D
:102EA00082F800414FF0004440F1B8807021DC62AC
:102EB0005963D96A0029FCDA4FF0004400219F6B66
:102EC000DC625963D96A0029FCDA996B090600F1C2
:102ED000B880039B0121022B82F8801000F2BE8093
:102EE000244B82F800111B684FF000400621D86285
:102EF0005963D96A0029FCDA01209C6B82F88000B2
:102F000018210139FDD102994C0740F10C81039938
:102F100081420CBF8521752101244FF0004082F8C9
:102F20000041D8625963D96A0029FCDA986B02988B
:102F3000012110F0020F82F880104FF0004082F85B
:102F4000001100F0DD807021D8625963D96A002930
:102F5000FCDA996B4FF000440020DC625863D96AB8
:102F60000029FCDA996B0906F7D5012182F8801057
:102F700014E700BF009CFF1FCCAFFF1F80E100E003
:102F800084E100E088E100E001403F0000003F8074
:102F9000CDAFFF1FD0AFFF1F039B23B3D9F8003085
:102FA00082F800114FF000400621D8625963D96AB7
:102FB0000029FCDA01209C6B82F88000182101397D
:102FC000FDD102994C0743D47A2101244FF00040EF
:102FD00082F80041D8625963D96A0029FCDA0121DC
:102FE0009B6B82F88010554B5449DB7A1A4693B19B
:102FF000D80703D5524A896911601A46990704D542
:103000004E4A504BD169D27A1960530703D54B4AC7
:103010004D4B126A1A6005B0BDE8F08F0521DC62E5
:103020005963D96A0029FCDA4FF0004400219F6BF4
:10303000DC625963D96A0029FCDA996BCF073FF546
:1030400048AF0021012482F8804001700391A5E679
:103050000399814214BF7A218A21B6E7374B37485A
:10306000DB7A19469BB1DC0703D5354980690860D6
:1030700019469F0705D5314B32483049DB69C97A7B
:1030800003604C0703D52D492F4B096A1960019243
:10309000FFF776FD294B2949DB7A019AEBB172B62D
:1030A000CB7AD8071A4640D49B0709D52749234B2A
:1030B00008681B69214A03402048D27AC3610B602B
:1030C000570707D5224A1D4B11685B690B401B4906
:1030D0000B62136062B6DBF80020184B1B68D968DE
:1030E000B1F1384F09D01B4818604FF03840D86014
:1030F00019494FF0784018611960002103914DE69D
:103100000521D8625963D96A0029FCDA996B4FF01E
:1031100000440020DC625863D96A0029FCDA996B0C
:10312000CF07F7D421E77521F6E60C48CA68046892
:1031300022408A6102601A46B6E700BF009CFF1F6A
:1031400000E100E004E100E008E100E084E100E0EB
:1031500088E100E001403F0000003F8080E100E0A6
:103160002DE9F84FDFF8D8816C4D98F80030DFF882
:10317000D491DFF8D4A106460C461746AB46002B87
:1031800040F0AA80EB7A1BB372B69BF80B20D007F5
:10319000114609D5624B1968DBF80C300B406049C9
:1031A000CBF818300B601146930707D55D4BE97AD1
:1031B0001A682B6913405B4AEB611360480706D518
:1031C000594B1A686B691340574A2B62136062B6F9
:1031D0002B68DA68B2F1384F09D0544919604FF0C2
:1031E0003841D960524A4FF0784119611A60D9F8D4
:1031F0000000012280F800214FF000410622D96230
:103200005A63DA6A002AFCDAF2B2C2F580724FF031
:10321000010EBA42D3F838C080F880E04FF01801B0
:1032200028BF3A460139FDD19AF8001080F800E134
:10323000C90754D54FF0004E0221C3F82CE0596362
:10324000D96A0029FCDA310C41F080514FF0004E70
:10325000D3F838C0C3F82CE05963D96A0029FCDAE6
:10326000B1B241F080514FF0004ED3F838C0C3F8EE
:103270002CE05963D96A0029FCDA996B1644BF1A0D
:103280004FF0004E224414F8011BC3F82CE05963A0
:10329000D96A0029FCDA9442996BF4D1EB7A4FF0A9
:1032A000010E0424194680F880E088F800408BB1B4
:1032B000DC0704D51F49DBF8180008601946980799
:1032C00003D51D48EB69E97A03604B0702D51B491A
:1032D0002B6A0B601446F7B1FFF752FC52E7C6F3B6
:1032E000074141F0805141F400714FF0004EC3F8A6
:1032F0002CE05963D96A0029FCDAB1B241F080515F
:103300004FF0004ED3F838C0C3F82CE05963D96AA7
:103310000029FCDAB1E7BDE8F88F00BF009CFF1F71
:1033200080E100E084E100E088E100E001403F004E
:1033300000003F8000E100E004E100E008E100E07F
:10334000CDAFFF1FD0AFFF1FCCAFFF1FF8B5534D60
:10335000534A2B7817780446002B40F09C80514943
:10336000CB7AEBB172B6CB7ADE071A4606D54E4859
:10337000CA68066832408A6102601A46980706D514
:103380004A480B690668CA7A3340CB610360530729
:1033900005D5474A4B69106803400B62136062B65B
:1033A0000B68DA68B2F1384F09D042481860424AD7
:1033B0004FF038464FF07840DE6018611A603F4A9F
:1033C0001668012286F800214FF000400622D862DC
:1033D0005A63DA6A002AFCDA0120D3F838E086F86A
:1033E00080001822013AFDD1FF0786F8000139D587
:1033F0004FF00040D822D8625A63DA6A002AFCDA19
:10340000220C42F080524FF000409F6BD8625A630A
:10341000DA6A002AFCDAA4B244F080544FF0004289
:10342000986BDA625C63DA6A002AFCDA9B6BCB7A0F
:103430001C4C01201A4686F8800083B1DE0703D5B4
:103440001F4AA06910601A46980703D51D4BC8692A
:10345000CA7A1860530702D51B4B0A6A1A60022306
:103460002B70F8BDC4F3074242F0805242F4584238
:103470004FF00040D8625A63DA6A002AFCDAA4B23C
:1034800044F080544FF00042986BDA625C63DA6A71
:10349000002AFCDACAE7FFF773FB60E7CDAFFF1F36
:1034A000CCAFFF1F009CFF1F80E100E084E100E043
:1034B00088E100E001403F0000003F80D0AFFF1FE7
:1034C00000E100E004E100E008E100E070B54C4BF1
:1034D0001B780446002B79D14A49CB7AEBB172B6FE
:1034E000CB7AD8071A4606D54748CA6805682A40E5
:1034F0008A6102601A469E0706D544480B69056832
:10350000CA7A2B40CB610360550705D5404A4B6909
:10351000106803400B62136062B60B68DA68B2F1A0
:10352000384F09D03B4818603B4A4FF038454FF0C0
:103530007840DD6018611A60384A106801264FF043
:1035400000459F2280F80061DD625A63DA6A002A32
:10355000FCDA4FF0004500229E6BDD625A63DA6AA6
:10356000002AFCDA9B6B23700A684FF000450023A9
:10357000D5625363D36A002BFCDA936B63700A68DD
:103580004FF000450023D5625363D36A002BFCDA69
:103590002378926BA270012B1BD0CB7A194D01249A
:1035A0001A4680F8804083B1DC0703D51C4AA8691D
:1035B00010601A46980703D51A4BC869CA7A186072
:1035C000530702D5184B0A6A1A6070BDFFF7D8FA84
:1035D00082E70A684FF000450023D5625363D36A3F
:1035E000002BFCDA936BE3700A684FF00045002370
:1035F000D5625363D36A002BFCDA936B2371CCE75B
:10360000CDAFFF1F009CFF1F80E100E084E100E0E0
:1036100088E100E001403F0000003F80D0AFFF1F85
:1036200000E100E004E100E008E100E0F0B5864DD3
:103630002B7883B0002B40F083806846FFF746FF6D
:103640009DF80030202B64D08049C87AF0B172B662
:10365000CB7AD8071A4606D57D4CCA682068104038
:1036600088611A4620609F0706D57A4A0B69106860
:103670000340CB611360CA7A560705D5764A4B6979
:10368000106803400B62136062B6C87A0B68DA6890
:10369000B2F1384F09D0714C1C60714A4FF0384676
:1036A0004FF07844DE601C611A606E4A146801278E
:1036B0004FF00046062284F80071DE625A63DA6A2F
:1036C000002AFCDA01269F6B84F880601822013AF8
:1036D000FDD14FF00047C72284F80061DF625A63D2
:1036E000DA6A002AFCDA01229B6B84F8802060B140
:1036F000C40703D55C4B8A691A60C87A820722D452
:10370000430702D5594B0A6A1A6003232B7003B092
:10371000F0BD9DF80230A3F12002022A94D8544C47
:10372000212B207814D000F03F0280110128227054
:103730005FFA80FEEBDC222B0CBF082602260EE08F
:10374000FFF71EFA79E74B4BCA691A60C87AD7E7C8
:1037500000F03F03801123705FFA80FE02263B4990
:10376000CB7A03B372B6CB7ADF071A4609D5DFF8F6
:10377000E0C0CA68DCF8007017408F611A46CCF8C8
:1037800000709B0706D5334A0B6917683B40CB6135
:103790001360CA7A570705D52F4A4B6917683B4013
:1037A0000B62136062B60B68DA68B2F1384F09D069
:1037B0002A4919604FF03841D960294A4FF07841C1
:1037C00019611A60274A1168012281F800214FF01F
:1037D00000470622DF625A63DA6A002AFCDA012215
:1037E000D3F838C081F880201827013FFDD14FF071
:1037F000004CC42781F80021C3F82CC05F63DA6A4B
:10380000002AFCDA1EFB06F2120242F080524FF050
:1038100000469F6BDE625A63DA6A002AFCDA4FF0D8
:1038200000464FF080529F6BDE625A63DA6A002ACC
:10383000FCDA22789B6B431C42EA8313012223703B
:1038400081F8802061E700BFCDAFFF1F009CFF1F04
:1038500080E100E084E100E088E100E001403F0019
:1038600000003F80D0AFFF1F00E100E008E100E072
:10387000CCAFFF1F04E100E0F8B54E490B780BB95F
:103880000120F8BD4C48C47AF4B172B6C37ADE07A1
:103890001A4606D5494CC26825682A4082612260D2
:1038A0001A469D0706D5464C03692568C27A2B4007
:1038B000C3612360540705D5424A43691468234015
:1038C0000362136062B6C47A0368DA68B2F1384FF3
:1038D00009D03D4D1D603D4A4FF038464FF07845C8
:1038E000DE601D611A603A4A3A4D16782D68012251
:1038F00085F80021B2074FF0004729D57022DF621A
:103900005A63DA6A002AFCDA4FF000470022D3F843
:1039100038E0DF625A63DA6A002AFCDA01229B6B24
:1039200085F8802084B1E70703D52B4A8569C47ADE
:103930001560A50703D5294AC569C47A15606207D1
:1039400002D5274A006A10601B0629D40020F8BD62
:103950000522DF625A63DA6A002AFCDA4FF0004778
:103960000022D3F838E0DF625A63DA6A002AFCDA10
:1039700001229B6B85F8802084B1E70703D5164AA6
:103980008569C47A1560A50703D5144AC569C47A48
:103990001560620702D5124A006A1060DB07D5D4B1
:1039A000002416F0C00F0C703FF46AAFFFF73EFE24
:1039B0002046F8BDCDAFFF1F009CFF1F80E100E057
:1039C00084E100E088E100E001403F0000003F802A
:1039D000CCAFFF1FD0AFFF1F00E100E004E100E02B
:1039E00008E100E002781F2A15D08378A3F11001C6
:1039F0000F290DD9A3F12001052908D98AB94278E8
:103A00008AB9002B14BF4FF4801000207047063B8A
:103A10000120984070474378892BE6D14FF08070A1
:103A20007047FF2A02D04FF4801070474278FF2A77
:103A3000F9D1FF2B14BF4FF480100020704700BF56
:103A400070B56A4B6A4D53F830302B6082B0044633
:103A50006848FCF7C7FF2046012108F00BFB2E68E1
:103A6000012386F880306846FFF730FD9DF800405E
:103A7000A4B99DF8013013B99DF8020060B1684601
:103A8000FFF7B0FFB0F1807F21D800235A4A684683
:103A90001370FFF71BFD012002B070BDFF2C09D190
:103AA0009DF80130FF2BEAD19DF80230FF2BE6D1C3
:103AB0000020F1E76846FFF795FFB0F1807F06D858
:103AC000012C6DD0202C14BF00230223DEE74949CE
:103AD000CB7AD3B172B6CB7AD8071A4606D5474807
:103AE000CA68046822408A6102601A469B0706D5AC
:103AF00043480B690468CA7A2340CB6103605607C8
:103B000065D462B62E689DF800400B68DA68B2F1A1
:103B1000384F09D03B4818603B4A4FF038454FF0CA
:103B20007840DD6018611A60012C43D001244FF009
:103B30000040062286F80041D8625A63DA6A002AF9
:103B4000FCDA01209C6B86F880001822013AFDD136
:103B50004FF00044B72286F80001DC625A63DA6A4B
:103B6000002AFCDA01229B6B86F88020CB7A214860
:103B70001A4663B1DC0703D5244A806910601A46EF
:103B800098072BD4530702D5214B0A6A1A609DF877
:103B90000030202B19D0012B25D11A46052301E036
:103BA000042300229DF8041000297FF46FAF42F037
:103BB00014036BE74FF00040164A86F80041D862C4
:103BC0005A63DA6A002AFCDACCE70B235EE7124A72
:103BD0004B69106803400B62136092E70F4BC86992
:103BE000CA7A1860CEE7012350E700BFE451010014
:103BF000D0AFFF1F009CFF1FCCAFFF1F80E100E094
:103C000084E100E001403F0000003F8000E100E06F
:103C100008E100E08017001088E100E004E100E026
:103C2000044B1B7813F0100F14BF4FF480204FF497
:103C300080307047CCAFFF1F00B583B008226946C3
:103C40000020FFF75BF8009B104A93421AD0013323
:103C500003D0002003B05DF804FB0D4B00926946D1
:103C6000082200200193FFF77BFAFFF705FE0028EA
:103C7000FBD0082269460020FFF740F8034B009A6A
:103C80009A42E6D1019803B05DF804FB4C5596FAD0
:103C90005802F6182DE9F04F002393B003604360FB
:103CA0008360C36004900C460391FFF7C5FF0028B2
:103CB0007AD0227883B20293002A00F08A80464BA1
:103CC00046482146534011F8012F00FB03F3002A18
:103CD000F8D1434F5A08A7FB0227BF0BC7EBC737E2
:103CE000A3EB47070137BFB2029B002B5CD003EB6D
:103CF00043030593002301930DF1280B029B019AC6
:103D00001946C2EB010ABAF1070F58D8101D40003E
:103D10004FEA4A025946FEF7F1FFBAF1000F47D0C9
:103D2000029B1E1D019B03EB8302164400257600B7
:103D300008E04FF6FF739A4236D00135554506F13B
:103D40000A0635D23BF81520BA42F2D100230A22E6
:103D500007A930460993FEF7D1FF099A059B039CFA
:103D600002F1020999444FEA89090DF147084846D2
:103D700010220EA9FEF7C2FF09F110090DF1370359
:103D800001E09845F3D014F8011B13F8012F8A4283
:103D9000D3D1002AF5D1019B0498079A2B441D46E4
:103DA000089B858180E80C00049813B0BDE8F08F73
:103DB000019B029A53449A4201939FD8F4E7019BD6
:103DC000181D400010225946FEF798FF4FF0080AD0
:103DD000A6E74FF4204787E7C59D1C8193010001AA
:103DE0000300018000B585B001466846FFF752FF29
:103DF0000098003018BF012005B05DF804FB00BF3B
:103E00002DE9F04F05468BB00E4606A82946174609
:103E1000FFF740FF069C1CB9FFF70EFF814618B95B
:103E200000200BB0BDE8F08FA2461FFA89F80AF116
:103E3000080398454FF6FF7B1ED2CAEB08040AF12F
:103E400004006200400006A9FEF758FF6CB1BDF8FF
:103E500018305B4519D006AA002303E032F8021F90
:103E6000594513D00133A342F8D3A244D045D7D942
:103E70000AF108039845E0D30AF10400400010223B
:103E800006A9FEF73BFF0824E1E700230AEB030441
:103E9000A045C5D908EB480B4FEA8B03009303F10B
:103EA000080B002C67D1524A4FEA993909EA0202FD
:103EB00002EB0B0A002F51D10AF1FF0727F0FF0791
:103EC00028460CF09DFC814606A8FFF7FFFA06A8DD
:103ED000FFF788FD06EB070A8245A1D809F1010228
:103EE00029465846FFF73CF9009B03976FF00702FD
:103EF000D21A08F1040804EB840002EB0B034044DF
:103F00009B08400003A90A2204960593FFF728F9AD
:103F1000FFF7B2FC0028FBD02A78002A65D0354B89
:103F20003549534015F8012F01FB03F3002AF8D15E
:103F300032495A08A1FB0212920BC2EBC232A3EB28
:103F400042030133201D400003A902220393FFF71F
:103F500007F9FFF791FC0028FBD062E77A1E013ECB
:103F60003E445244B6FBF7F6B2FBF7F206FB07F607
:103F700002FB07F7A4E708F10042013A04EB8401D1
:103F8000881840000A2203A94FF00009CDF81490C8
:103F9000FEF7B4FE05980399049A0BEB8003019396
:103FA0009B4601EB020A102206A95846FEF7A6FE20
:103FB0009DF8183009F1010263B109F1100906AB4F
:103FC00003E013F8011F013221B14A45F9D10BF189
:103FD000100BE8E70199DFF818B003310A4402EA50
:103FE0000B0B002F3FF468AFB8E74FF42043A9E76D
:103FF000FCFF0300C59D1C819301000103000180AB
:104000002DE9F047002388B00370074688469246A2
:10401000FFF712FE002850D0DFF8B090B9F800404A
:1040200086B2A64249D9251D6D0002E00134A642A0
:1040300043D0284602220DF10601FEF75FFEBDF8CF
:1040400006300235002BF1D004EB8400B31D184478
:10405000062200230134400002A90393A9F800407E
:10406000FEF74CFE029B5A1C27D0039CCAF8003076
:1040700006EB460602343444A400B8F1000F17D012
:104080004546102D28BF102504A92A462046FEF7D4
:1040900035FE0DF10F01002311F8012F07F8012B58
:1040A000013372B1AB42F7D3B8EB05082C44E7D12A
:1040B000002307F8013C012000E0002008B0BDE823
:1040C000F087012008B0BDE8F08700BFCAAFFF1F2E
:1040D00070B50546FFF7A4FD06462868741E204209
:1040E0000CD16B681C4009D10BB907E0286820444B
:1040F000FFF72CF96B683444A342F7D870BD00BFBA
:10410000704700BF09289ABF024B53F820000248AD
:10411000704700BF8C470100D446010038B50A4DF6
:1041200000230446294600F8043B09F0DBFC29463D
:1041300004F1140009F0D6FC294604F1240009F02A
:10414000D1FC204638BD00BF084D010041638263A9
:10415000704700BF10B50B4A0B4B11681B688AB043
:10416000043A0191126800920446084A02A82021EC
:104170000CF0BCF802A9204609F0B4FC20460AB0B5
:1041800010BD00BF6080044058800440B447010067
:1041900010B5044690B0043009F008FD2146684689
:1041A000FFF7D8FF694604F1140009F007FD6846DF
:1041B00009F058FC6368094A402168460CF096F8FB
:1041C0006846FFF79DFF6369054A402168460CF089
:1041D0008DF86846FFF794FF10B010BDC847010086
:1041E000E047010070B50646002390B010463360EA
:1041F0007360B360F36009F041FE0146684609F060
:1042000085FC844904A809F06DFC04A9684609F0FE
:10421000F7FD00287ADB04A809F024FC2C2168466D
:1042200009F0DEFD041E63DB2C25002C5ADD23463D
:10423000002269460CA809F0F5FD0CA809F04CFE17
:1042400030600CA809F00EFC621C0CA8694609F04D
:104250000DFE0CA9684609F0B1FC0CA809F002FC9F
:104260002946684609F0BCFD041E3BDD23460022BA
:1042700069460CA809F0D6FD0CA809F02DFE706067
:104280000CA809F0EFFB621C69460CA809F0EEFDD2
:104290000CA9684609F092FC0CA809F0E3FB29463A
:1042A000684609F09DFD041E1CDD23460022694678
:1042B0000CA809F0B7FD0CA809F00EFEB0600CA820
:1042C00009F0D0FB621C69460CA809F0CFFD0CA9CF
:1042D000684609F073FC0CA809F0C4FB684609F0B5
:1042E000FBFDF060684609F0BDFB304610B070BDC4
:1042F0003B21684609F074FD041E80F2888020216D
:10430000684609F06DFD202504468EE7424908A85D
:1043100009F0E8FB08A9684609F072FD002803DBF4
:1043200008A809F09FFB76E73C490CA809F0DAFBE6
:104330000CA9684609F064FD04460CA809F092FB3C
:1043400008A809F08FFB04A809F08CFB002CBFF62D
:1043500065AF33490CA809F0C5FB0CA9684609F004
:1043600011FD04460CA809F07DFB002C3BD0012276
:1043700069460CA809F07AFD0CA9684609F01EFCF4
:104380000CA809F06FFB029C002C3CD000252C46A9
:104390000DE04628A4F1370312D96628029B98BF86
:1043A000573C05F1010598BF24189D420DD22946BE
:1043B000684609F0F1FC24013928A4F13003E8D85B
:1043C000C418029B01359D42F1D3210EC4F307426C
:1043D000C4F30723E4B286E81E00684609F042FBF6
:1043E000304610B070BD0F490CA809F07BFB0CA93A
:1043F000684609F0C7FC04460CA809F033FB002C02
:10440000C1D00222B4E7234622462146E3E73B25FA
:104410000BE700BF00480100044801000848010004
:104420000C4801001048010082B02DE9F04194B021
:104430001AA981E80C009DF878301B9E1C9D1D9CDC
:1044400080461746002B64D054490CA809F04AFB5B
:104450000CA910A809F05AFBC7F303130A2BB4BF29
:1044600030213721194410A809F02AFC07F00F0762
:104470000A2FB4BF30213721394409F021FCC6F39B
:1044800003130A2BB4BF30213721194409F018FC5B
:1044900006F00F060A2EB4BF30213721314409F04F
:1044A0000FFCC5F303130A2BB4BF30213721194485
:1044B00009F006FC05F00F050A2DB4BF30213721A5
:1044C000294409F0FDFBC4F303130A2BB4BF3021C8
:1044D0003721194409F0F4FB04F00F040A2CB4BF8F
:1044E00030213721214409F0EBFB01460CA809F0EB
:1044F0005DFB10A809F0B6FA0CA9404609F0A0FA35
:104500000CA809F0AFFA404614B0BDE8F04102B083
:104510007047114668460A2209F016FB694604A84E
:1045200009F0F4FA04A81E4909F0BCFB0A22074668
:10453000314608A809F008FB08A9384609F0AAFB8B
:10454000174909F0AFFB0A22064629460CA809F0D4
:10455000FBFA0CA9304609F09DFB114909F0A2FBBA
:104560000A220546214610A809F0EEFA10A92846AD
:1045700009F090FB0146404609F0C8FA10A809F07E
:1045800071FA0CA809F06EFA08A809F06BFA04A8F1
:1045900009F068FA684609F065FAB4E7084D0100C9
:1045A00000480100007870470170704770B50646FA
:1045B000C2B0022008F000FE0721694808F078FD2B
:1045C000311D684809F07CF9664809F09FF90F2110
:1045D000654808F06DFD06F11401624809F070F9B4
:1045E000604809F093F91A21604808F061FD604BBA
:1045F0006048002210211A8008F05AFD594809F03D
:1046000085F901AA402102A8FFF7FAFC0446002818
:1046100039D002A80CF0F4F8014602A808F048FDD1
:104620000121554808F044FD02A80CF0E9F8C0F15A
:104630001405002DC8BF002406DD013401214E48B9
:1046400008F036FDA542F8D102214C4808F030FDB3
:1046500000230A220199434809F068F902214848D9
:1046600008F026FD1621474808F022FD02A9B06B8C
:1046700001F084FA01463B4809F098F907214248C5
:1046800008F016FDBDE72921404808F011FD354826
:1046900009F03CF90122B06B3D4901F02BFA2A21C7
:1046A0003C4808F005FD2F4809F030F919213A4837
:1046B00008F0FEFC2B4809F029F902A8FEF706FFD6
:1046C0001021364808F0F4FC234610229DF808100B
:1046D000244809F02BF90121274808F0E9FC23467A
:1046E00010229DF809101F4809F020F901212248E5
:1046F00008F0DEFC234610229DF80A10194809F044
:1047000015F9184809F002F91021254808F0D0FCE5
:1047100002A8FFF767F923460A220146114809F06B
:1047200005F906211F4808F0C3FC0E4809F0EEF811
:1047300010211D4808F0BCFCFFF772FA23460A223C
:104740000146084809F0F2F80621164808F0B0FCC6
:10475000044809F0DBF8032008F02EFD42B070BDDC
:10476000144801004C9EFF1F1C4801002C4801000A
:10477000CAAFFF1F48480100084801005C4801001B
:1047800060480100644801007C4801008448010041
:10479000B0480100BC480100E8480100044901009C
:1047A000184901002C490100344901002DE9F04F5E
:1047B000C9B00E460546002104A809F093F9C7497F
:1047C00004A809F003FA3046C54909F089FAE8B1AE
:1047D0002846FFF7EBFE069B93B12B784BBB0123DA
:1047E0002B7004A908A809F091F90A2108A809F07A
:1047F00067FA0146BB4809F063F808A809F032F9E6
:1048000004A809F02FF949B0BDE8F08F44ACB649CF
:10481000204609F067F92146304609F0B3FA074609
:10482000204609F01FF967B10121AF4808F040FCAC
:10483000D1E7012BD5D004A809F014F949B0BDE89F
:10484000F08FAA49304609F04BFAB0B9A849304672
:1048500009F046FA0746B0B1A649204609F042F9E8
:1048600005F11401204609F015FA014604A809F0E3
:104870009DF9204609F0F6F8ADE79F49204609F07A
:1048800031F9291DEEE70221304609F085FA3D286D
:1048900052D00221304609F07FFA3F2800F0A18073
:1048A0009649304609F01CFA8046002800F006813F
:1048B0003E460DF1F00840AF0DF1C0090DF1C80AF8
:1048C00002E009F0C9F901368D49384609F00AF9C4
:1048D0000A223146404609F037F94146384609F088
:1048E000D9F9884909F0DEF932468346A96B484672
:1048F00001F06EF99AE803008DE8030001230293AA
:1049000099E80C0029462046FFF78EFD21465846BF
:1049100009F0C0F9014604A809F09AF9204609F007
:10492000A1F8404609F09EF8384609F09BF8072E9A
:10493000754904A8C5D14EE70121304609F02CFA8B
:10494000A0F130085FFA88F3072B3FF644AF3946F1
:10495000304609F021FA432800F0198139463046E3
:1049600009F01AFA632800F012813946304609F03E
:1049700013FA462800F06E813946304609F00CFAE9
:10498000662800F067810021304609F005FA5728B3
:1049900006D00021304609F0FFF977287FF41BAFDD
:1049A00003223146204614AFD5F8389009F05EFA5C
:1049B000384622462946FFF715FC16AB93E803005C
:1049C00097E80C008DE803004846414601F044F9A1
:1049D000204609F047F84D49204609F083F8314652
:1049E00040E70121304609F0D7F9A0F130085FFA1D
:1049F00088F3072B3FF6EFAE3946304609F0CCF985
:104A0000432800F040813946304609F0C5F9632853
:104A100000F0A1813946304609F0BEF9462800F081
:104A2000C0810021304609F0B7F9662800F0D28134
:104A30000021304609F0B0F9572800F0E8813046EF
:104A4000002109F0A9F977287FF4C5AE304940A8C4
:104A500009F048F80A2241463CA809F075F83CA93B
:104A600040A809F017F9274909F01CF92CAEA96BE9
:104A700007464246304601F0C3F82EAB93E80300E8
:104A80004FF0000E8DE80300294696E80C00204602
:104A9000CDF808E0FFF7C8FC2146384609F0FAF8DF
:104AA000014604A809F082F8204608F0DBFF3CA884
:104AB00008F0D8FF40A808F0D5FF8CE6154930462D
:104AC00009F00EF9074600287AD0464640AF0DF1AE
:104AD000F0080DF1D0090DF1D80A20E0084D0100D1
:104AE000484901004C9EFF1F0C4801004C49010041
:104AF000544901005849010050490100744901001E
:104B00006049010064490100784901005C490100E5
:104B1000704901007C49010009F09EF80136C8493E
:104B2000384608F0DFFF0A223146404609F00CF80B
:104B30004146384609F0AEF8C24909F0B3F83246AA
:104B40008346A96B484601F043F89AE803008DE8D4
:104B500003000023029399E80C0029462046FFF742
:104B600063FC2146584609F095F8014604A809F06F
:104B70006FF8204608F076FF404608F073FF38468D
:104B800008F070FF072EB04904A8C5D123E63146CE
:104B900020460CAF0322D5F8389009F067F9384663
:104BA00022462946FFF71EFB0EAB93E8030097E869
:104BB0000C008DE803004846414601F02DF807E758
:104BC000A249304609F08CF8002879D03E460DF114
:104BD000F00840AF0DF1E0090DF1E80A02E009F03C
:104BE0003BF801369A49384608F07CFF0A223146E4
:104BF000404608F0A9FF4146384609F04BF8914974
:104C000009F050F832468346A96B484600F0ECFFA5
:104C10009AE803008DE803000123029399E80C0051
:104C200029462046FFF700FC2146584609F032F895
:104C3000014604A809F00CF8204608F013FF40468E
:104C400008F010FF384608F00DFF072E7E4904A833
:104C5000C5D1C0E53146204610AF0322D5F83890C3
:104C600009F004F9384622462946FFF7BBFA12AB91
:104C700093E8030097E80C008DE80300484641469E
:104C800000F0DAFFA4E6734940A808F02BFF0A22DF
:104C900041463CA808F058FF3CA940A808F0FAFF9C
:104CA000684908F0FFFF18AE074642463046A96B38
:104CB00000F08EFF1AAB93E803004FF0010EE1E61F
:104CC0006549304609F00CF8002800F0CB8000263A
:104CD00040AF0DF1F0080DF1E0090DF1F80A02E026
:104CE00008F0BAFF01365D49384608F0FBFE0A229B
:104CF0003146484608F028FF4946384608F0CAFFC2
:104D0000504908F0CFFF32468346A96B404600F079
:104D10006BFF9AE803008DE803000023029398E8F4
:104D20000C0029462046FFF77FFB2146584608F035
:104D3000B1FF014604A808F08BFF204608F092FE60
:104D4000484608F08FFE384608F08CFE072E3E4994
:104D500004A8C5D13FE53A4940A808F0C3FE0A229D
:104D600041463CA808F0F0FE3CA940A808F092FF9C
:104D7000344908F097FF1CAE814642463046A96B85
:104D800000F026FF1EAB93E803008DE803000297B6
:104D90002946204696E80C00FFF746FB2146484688
:104DA0007CE62B4940A808F09DFE0A2241463CA81B
:104DB00008F0CAFE3CA940A808F06CFF214908F0A1
:104DC00071FF20AE074642463046A96B00F00CFF4B
:104DD00022AB70E7214940A808F084FE0A22414630
:104DE0003CA808F0B1FE3CA940A808F053FF1549C3
:104DF00008F058FF24AEA96B07464246304600F043
:104E0000F3FE26AB93E803004FF0000E3AE6144998
:104E100040A808F067FE0A2241463CA808F094FE2C
:104E20003CA940A808F036FF064908F03BFF28AE31
:104E3000074642463046A96B00F0E2FE2AAB3AE74D
:104E40006849010064490100784901008049010076
:104E50006C49010060490100844901009051010042
:104E60005C440100A649304608F03AFF804600281D
:104E700043D0002640AF0DF1F0080DF1E0090DF52B
:104E8000847A02E008F0E8FE01369E49404608F0C8
:104E900029FE0A223146484608F056FE4946404659
:104EA00008F0F8FE984908F0FDFE32468346A96BEB
:104EB000384600F0A5FE9AE803008DE803000123C0
:104EC000029397E80C0029462046FFF7ADFA2146E9
:104ED000584608F0DFFE014604A808F0B9FE204657
:104EE00008F0C0FD484608F0BDFD404608F0BAFD98
:104EF000072E864904A8C5D16DE48549304608F0DF
:104F0000EFFE0746002843D0464640AF0DF1F008BB
:104F10000DF1E0090DF58C7A02E008F09DFE0136F6
:104F20007C49404608F0DEFD0A223146484608F03A
:104F30000BFE4946404608F0ADFE734908F0B2FE4C
:104F400032468346A96B204600F05AFE9AE80300D9
:104F50008DE803000023029394E80C0029463846AC
:104F6000FFF762FA3946584608F094FE014604A855
:104F700008F06EFE384608F075FD484608F072FDF0
:104F8000404608F06FFD072E604904A8C5D122E411
:104F90006149204608F0A6FD2146304608F0B6FEDD
:104FA0008046204608F05EFDB8F1000F0CD0686B1B
:104FB000449721466760A760E76000F0A5F957496C
:104FC00004A808F003FE06E440AF5549384608F04F
:104FD00089FD3946304608F0D5FED8B1384608F08C
:104FE00041FD022231463846D5F8348008F03EFFB4
:104FF0003A4629462046FFF7F5F82146404600F09C
:1050000083F9384608F02EFD4649204608F06AFD2F
:10501000314627E44449204608F064FD21463046E5
:1050200008F0B0FE8046204608F01CFD384608F027
:1050300019FDB8F1000FD4D13C49204608F052FDCB
:105040002146304608F09EFE8046204608F00AFDC4
:10505000B8F1000F13D00221304608F09DFEA0F1F8
:105060003001CBB2072B3FF6B6ABA86B03F0AAFA20
:105070002F49204608F036FD3146FFF7F3BB2D4996
:10508000304608F02DFED8B12849204608F02AFD08
:10509000A86B00F09BFD0A220146384608F054FD3B
:1050A0003946204608F0F6FD014604A808F07EFDCA
:1050B000384608F0D7FC204608F0D4FCFFF78BBB3D
:1050C0001D49304608F00CFE044640B1A86B00F0C4
:1050D0000DFD1A4904A808F079FDFFF77CBB3046A6
:1050E000174908F0FDFD00283FF475ABA86B2C7044
:1050F00003F03AFA134904A808F068FDFFF76BBB08
:10510000884901005C4401006449010078490100BC
:105110008C49010070490100944901009049010047
:1051200098490100A04901009C490100A8490100DB
:105130005C490100AC490100B0490100B8490100D7
:10514000C4490100CC49010038B5044607F086FF88
:1051500000281BDD07F046FF0228054617D003286C
:1051600008D00A2D06D02434E9B22046BDE83840E4
:1051700008F080BD04F1240520462946FFF716FB00
:1051800028460949BDE8384008F020BD38BD243420
:105190002046002108F000FE2328E5D020460249E1
:1051A000BDE8384008F012BD084D010030B40022BF
:1051B00005250821C5640270026580F8642080F826
:1051C000652080F86620826641608160C26630BCDE
:1051D000704700BF70B5A4B01F4906466846144624
:1051E00008F080FC1D4904A808F07CFC1C4908A8B4
:1051F00008F078FC1B490CA808F074FC1A4910A8A8
:1052000008F070FC194914A808F06CFC184918A89B
:1052100008F068FC17491CA808F064FC20A816498F
:1052200008F060FC082C10DC0DEB0411304608F08F
:105230006DFC20ACADF110052046103C08F012FCCE
:10524000AC42F9D1304624B070BD0A220821304664
:1052500008F07AFCEDE700BFD4490100D84901000D
:10526000E0490100E8490100F0490100F849010066
:10527000004A0100084A0100104A0100F0B5044646
:1052800099B0006F00F0A2FC216F60600246684692
:1052900000F09EFC9DE80F00676804F10C0686E8AC
:1052A0000F003A46216FA760684600F09DFC9DE81C
:1052B0000F0004F1540585E80F006268214604A838
:1052C000FFF788FF049B064A402108A80BF00EF860
:1052D00008A8FEF715FF04A808F0C4FB19B0F0BD3C
:1052E000144A010038B504460D460648FEF708FF8B
:1052F000206F294603F066F92046BDE83840FFF7E5
:10530000BDBF00BF2C4A010010B50C460320096840
:1053100006F09EFD6168042006F09AFDA168052054
:1053200006F096FDE1680620BDE8104006F090BD4D
:1053300030B595B00A4604460D46016F04A800F04A
:1053400047FC04A92046FFF7DFFF082D10D02A46AE
:1053500021466846FFF73EFF009B064A402104A80D
:105360000AF0C4FF04A8FEF7CBFE684608F07AFBFB
:1053700015B030BD4C4A010010B50446016708461F
:1053800005F0A6FB0121032006F074FE0121042094
:1053900006F070FE0121052006F06CFE01210620BA
:1053A00006F068FE20460821BDE81040FFF7C0BFA8
:1053B00010B504460748FEF7A3FE20460721FFF775
:1053C000B7FFC82006F05CFE20460821BDE810406B
:1053D000FFF7AEBF684A010010B504460848FEF763
:1053E0008FFEA1682046FFF7A3FF4FF4FA7006F086
:1053F00047FE20460821BDE81040FFF799BF00BFD7
:10540000784A01002DE9F04181F3080882F308078A
:105410000446069D4146032083F3080606F018FD66
:105420003946042006F014FD85F3080531460520B1
:1054300006F00EFD2946062006F00AFDC4F81C8081
:10544000A56227626662BDE8F08100BF10B5002149
:105450000446FFF76DFF4FF4967006F011FE2046EC
:105460000121FFF765FF4FF4967006F009FE204614
:105470000221FFF75DFF4FF4967006F001FE204613
:105480000721FFF755FF4FF4967006F0F9FD20460F
:105490000821BDE81040FFF74BBF00BFF0B5044640
:1054A00083B02248FEF72CFE2148E3682269676931
:1054B000A56980FB03611944DB1780FB02E6C3EB9F
:1054C000211180FB07E380FB05E016443B442844A0
:1054D000D217ED17FF17C2EB2612C7EB2313C5EB4C
:1054E0002016E16222636363A6631F2502E004F1D4
:1054F0002C014EC9A06AD4F824C0D4F820E0E76992
:10550000801B0090C3EB0C03C2EB0E02791A2046FD
:10551000FFF778FF212006F0B3FD013DE7D12046DB
:10552000082103B0BDE8F040FFF702BF984A010030
:1055300089888888F0B5044683B02548FEF7E0FDE9
:1055400000231A46194620460093FFF75BFF2148C7
:10555000E36822696769A56980FB03611944DB1769
:1055600080FB02E6C3EB211180FB07E380FB05E033
:1055700016443B442844D217ED17FF17C2EB2612FE
:10558000C7EB2313C5EB2016E16222636363A663B6
:105590001F2502E004F12C014EC9A06AD4F824C0F2
:1055A000D4F820E0E7693044009063447244394401
:1055B0002046FFF727FF082006F062FD013DE9D1F4
:1055C0006168204603B0BDE8F040FFF7B1BE00BF00
:1055D000AC4A01008988888810B5044694B0154803
:1055E000FEF78EFD626821466846FFF7F3FD009BDB
:1055F000114A402104A80AF079FE04A8FEF780FDB4
:10560000684608F02FFA6268216F04A800F0ECFAEF
:1056100004A92046FFF778FEC82006F031FD626835
:10562000216F04A800F0D4FA04A92046FFF76CFE0D
:1056300014B010BDBC4A0100CC4A010010B50446AC
:1056400094B00F48FEF75CFD626821466846FFF79C
:10565000C1FD009B0B4A402104A80AF047FE04A8A4
:10566000FEF74EFD684608F0FDF96268216F04A858
:1056700000F0C6FA04A92046FFF746FE14B010BD9C
:10568000EC4A0100CC4A010010B5044694B00F4822
:10569000FEF736FD626821466846FFF79BFD009BDA
:1056A0000B4A402104A80AF021FE04A8FEF728FDB9
:1056B000684608F0D7F96268216F04A800F088FAFC
:1056C00004A92046FFF720FE14B010BD004B0100D6
:1056D000CC4A010010B582B002AB03E90600036DAD
:1056E000092B01D002B010BD04460948FEF708FDA1
:1056F00001992046FFF71CFE4FF4967006F0C0FC9F
:105700002046082102B0BDE81040FFF711BE00BFDF
:10571000144B01002DE9F04F8B46016D91B0072924
:105720000446DDF86890DDF86CA090461F4600F056
:105730009D801C9B3D6893E8030004F16806022DE0
:10574000256586E8030000F09F80062D2AD0072DEE
:1057500033D098F80030002B45D13B68012B4BD05B
:1057600099F80030002B52D19AF80030002B6FD1FD
:1057700094F86830002B75D194F869303BB196E805
:1057800006002046FFF7A6FF0023A366736011B052
:10579000BDE8F08F002304F16806256584F86630C3
:1057A00086E8030094F86630002B00F0818006251F
:1057B0000123072D84F86630CBD1A3680133072B72
:1057C000C8BF00230022A36084F866202046FFF7AC
:1057D00003FE012384F8663098F800200623236531
:1057E0003B60002ABCD02046FFF7F6FE002388F875
:1057F00000303B68012BB3D19BF800302046002BD2
:1058000049D0FFF71BFF99F80030002BACD02D4892
:10581000FEF776FC206DFEF775FC2B4A034640210F
:1058200068460AF063FD6846FEF76AFC236D082BA4
:1058300043D02046FFF722FD2046FFF77BFE0023E2
:1058400089F8003084F866309AF80030002B8FD049
:105850002046FFF723FE00238AF8003094F86830D2
:10586000002B89D02046FFF7F1FD85E71D681C9BC2
:10587000062D93E803008DD004F16806022D2565FE
:1058800086E803007FF463AF94F8663033B10123F8
:1058900084F866305DE7FFF7F7FE61E72046FFF723
:1058A00087FD256D0123062D84F8663080D04EE7F4
:1058B0002046FFF791FD256D7AE7A1682046FFF7A6
:1058C00011FDB9E7304B0100484B0100002842D0E0
:1058D000F0B4037A13F07F042AD123F07F0343F05E
:1058E0004003037204604460013118BF002704D1F3
:1058F00033E001394FF0000317D053689468103338
:105900009C42A4F11003F4D39360002BF1D04568BE
:105910005E1B3611E5B16E814360013924F8067CC7
:1059200004F8087C44F8047CE7D11846F0BC7047C2
:105930005B0612D50368002BD6D00029F5D0B3F949
:105940000A400139002CCFD013EB0413F5D1CBE77B
:1059500003604360E1E7002070470020E6E700BFF6
:1059600010B50021044608F0BDF8204610BD00BF68
:105970002DE9F0415B4F5C49044608F027F997E8B0
:105980000F0000264FF0FF0C07F1100E04F1440544
:10599000C4F814C0C4F828C0C4F83CC0A661E661CD
:1059A00026626662E66226636663A663266485E80D
:1059B0000F009EE80F0007F1200504F1540C8CE85D
:1059C0000F0095E80F0004F1640C07F130058CE836
:1059D0000F0095E80F0004F1740C07F140058CE806
:1059E0000F0095E80F0004F1840C8CE80F0004F11F
:1059F000A40CC4F89460C4F89860C4F89C60C4F81F
:105A0000A0608CE80F0004F1B40C8CE80F0004F1E6
:105A1000C40C8CE80F0004F1D40C8CE80F0004F1E6
:105A2000E40C8CE80F0004F5827504F1F40C8CE8AA
:105A30000F0085E80F009EE80F0007F1500504F500
:105A40008A7E8EE80F0095E80F0004F59A7E07F134
:105A50006005C4F82461C4F82861C4F82C61C4F856
:105A600030618EE80F0095E80F0004F5A27E07F183
:105A700070058EE80F0095E80F0004F5AA7E07F187
:105A800080058EE80F0095E80F0004F5B27E07F15F
:105A900090058EE80F0095E80F0004F5BA7E07F137
:105AA000A0058EE80F0095E80F0004F5C27E07F10F
:105AB000B0058EE80F0095E80F00C03704F5CA75F1
:105AC00085E80F0097E80F0004F5D27585E80F0010
:105AD000C4F8B461C4F8B861C4F8BC61C4F8C0616A
