:1000000000800020BD01000005B30000BDB200006B
:10001000BDB20000BDB20000BDB20000BDB2000024
:10002000BDB20000BDB20000BDB2000005B30000CB
:1000300005B30000BDB20000E1CE0000E5CF000036
:1000400005B3000005B3000005B3000005B30000D0
:1000500005B3000005B3000005B3000005B30000C0
:1000600005B3000005B3000005B3000005B30000B0
:1000700005B3000005B3000005B3000005B30000A0
:1000800005B3000005B3000005B3000005B3000090
:1000900005B3000005B3000005B3000005B3000080
:1000A000A5140000B114000005B3000005B3000062
:1000B00005B3000005B3000005B3000005B3000060
:1000C00005B3000005B3000005B3000005B3000050
:1000D00005B3000005B3000005B3000005B3000040
:1000E00005B3000005B3000005B3000005B3000030
:1000F00005B3000049D7000005B3000075D8000023
:1001000005B30000A1D9000005B3000005B300004D
:1001100005B3000005B3000005B3000005B30000FF
:1001200005B3000005B3000005B3000005B30000EF
:1001300005B3000005B3000005B3000005B30000DF
:1001400005B3000005B3000005B3000005B30000CF
:1001500005B3000005B3000005B3000005B30000BF
:1001600005B3000015BB000005B3000005B3000097
:1001700005B3000005B3000005B3000005B300009F
:1001800005B3000005B3000005B3000005B300008F
:1001900005B3000005B3000005B3000005B300007F
:1001A00005B3000005B3000005B3000005B300006F
:1001B00005B3000005B300009DCC0000564B4CF287
:1001C000205210B51A804DF628121A8000BF00BFC9
:1001D0000BF09CF8514B4FF010621A60504A9A6035
:1001E000504ADA60504A136813F4807304D14F49BF
:1001F0000B604FF4A85313604D4B1A78110703D5C9
:100200001A7842F008021A704A4B4B492A221A7097
:100210004A4A4B4B8B4204D252F8040F43F8040B6A
:10022000F8E7484B484900228B4202D243F8042B9E
:10023000FAE74649464A002352F8230041F82300D2
:1002400001336F2BF8D1434B434A802103F8011B44
:100250009342FBD1414B3D4A1A60414B8A221A70AE
:10026000A3F5805324225A70A0221A709A7992071B
:10027000FCD59A79D406FCD43A4A937903F00C035E
:10028000082B384BF9D105221A7143225A719A79F9
:100290009006FCD5334A9179324B4906FBD5324A58
:1002A0004FF0817111600521516020221A709A79F6
:1002B00002F00C020C2AFAD12C4B2D4A1A602D4B5D
:1002C0002D4A1A6000225A60072243F8042C2B4A58
:1002D000C3F80C2D62B60BF0D3FA144B1B68DA0787
:1002E00005D527480BF052F9264B274A1A60274BB1
:1002F0001B785B0609D5234C234B22689A4204D114
:100300001F480BF043F9002323600EF047FD0BF06C
:1003100003F80DF075F9FEE70E200540308004402B
:10032000823F04000100002B10D0034014D0034092
:1003300002D0074000E00740A8A8FF1F884801003E
:10034000209BFF1FA8A8FF1F94B2FF1F0096FF1F4E
:100350000000000000E400E05FE400E008ED00E0E1
:1003600000500640004006404480044004800440A1
:10037000C010050014E000E03F190100000020203B
:1003800074130D5F1CE00340A5C3945A00F00740AE
:10039000FFFFFFFFFFFFFFFFFFFFFFFFFFFFFFFF6D
:1003A000FFFFFFFFFFFFFFFFFFFFFFFFFFFFFFFF5D
:1003B000FFFFFFFFFFFFFFFFFFFFFFFFFFFFFFFF4D
:1003C000FFFFFFFFFFFFFFFFFFFFFFFFFFFFFFFF3D
:1003D000FFFFFFFFFFFFFFFFFFFFFFFFFFFFFFFF2D
:1003E000FFFFFFFFFFFFFFFFFFFFFFFFFFFFFFFF1D
:1003F000FFFFFFFFFFFFFFFFFFFFFFFFFFFFFFFF0D
:10040000FFFFFFFFFFFFFFFFFFFFFFFFDEF9FFFF23
:1004100010B5054C237833B9044B13B10448AFF33E
:1004200000800123237010BDA8A8FF1F000000005A
:1004300084480100084B10B51BB108490848AFF3C8
:1004400000800848036803B910BD074B002BFBD0A0
:10045000BDE81040184700BF00000000ACA8FF1F17
:1004600084480100A8A8FF1F0000000010B5044642
:1004700000F509700CF0A6FE04F503700CF0A2FE66
:1004800004F5FE700CF09EFE04F5F6700CF09AFE7A
:1004900020460CF097FE204610BD00BF014800F03A
:1004A000DDB800BFC4A8FF1F00B585B00E4968467F
:1004B0000CF0C8FE69460D4800F054F868460CF090
:1004C00081FE0A4800F0C6F8212807DDFF2003223C
:1004D00007490AF09BFF05B05DF804FB034800F0F4
:1004E000B9F8C0B2F3E700BFAC390100C4A8FF1FE0
:1004F0009D040000014800F063B800BFC4A8FF1FBE
:1005000010B5054C204600F00DF82046034A04497A
:10051000BDE810400EF02CBCC4A8FF1FFC9BFF1FC1
:100520006D04000010B5002104460CF08BFE04F1B0
:10053000100001F05FF804F58C7003F095FE04F5EF
:10054000B27004F013FD04F5EC7009F081FD04F5C0
:10055000F47009F081FE04F5097005F019F92046E0
:1005600010BD00BFF0B585B0044600F5F4766846CE
:100570000CF07CFE6946304609F086FE68460CF0B9
:1005800021FE04F5097504F1100001F03FF9284639
:1005900009F052FD04F5B27704F58C7003F082FE89
:1005A0002946384604F0F4FD04F5EC7009F054FDDA
:1005B0002A463946304609F0C7FE05B0F0BD00BFF7
:1005C0002DE9F04784B0044600F2653E00F5587509
:1005D00000F25D3600F5577700F2663800F26739B1
:1005E00000F55970CDF808E031463A462B460090A8
:1005F000CDF8048004F58C70CDF80C9004F07EF8F2
:1006000004F55A7A2B463A46314604F110008DE83B
:10061000000301F00DFA2946524604F5EC7009F08A
:10062000F7FD2B4604F5B2708DE800073A463146D7
:1006300004F09EFF002304F5F47084F85D3384F821
:100640005C3384F8643384F8663304B0BDE8F04763
:100650000AF0DABC00F58C7003F00EBF90F8183188
:10066000013380F81831704710B4047F4160022CC8
:10067000C26002D010BC0CF0D1BB836810BC18471C
:100680002DE9F0410468E56815F0807F794D25601B
:1006900052D1DF0740F1B380002900F0E3800D78EC
:1006A000012B18BF45F000456563013190F82480A7
:1006B00003F1FF3C48EA0828BCF1000F00F0A880D5
:1006C00021B14D7811F8028B45EA082845682E7A49
:1006D000BCF1020F06F1FF364FEA06360CBF48F0B8
:1006E000805548F01045B6B26563ACF1020C08E0E5
:1006F0000AB114700132013B05F47045B54216D9B8
:100700000468E56A15F0F00FF6D0A46B13F0010F42
:1007100017464FEA242EEBD11AB107F802EB5470BA
:100720003A4605F47045B542A3F10203E8D8BCF19E
:10073000000F6DD00468C3E7DD074CD5002900F039
:1007400089800D78012B18BF45F0004565630131A4
:1007500003F1FF3E90F824C0BEF1000F41D029B153
:1007600091F801C00D78023145EA0C2C45682E7ACB
:10077000BEF1020F06F1FF364FEA06360CBF4CF011
:1007800080554CF01045B6B26563AEF1020E08E03C
:100790000AB114700132013B05F47045B54215D918
:1007A0000468E56A15F0F00FF6D013F0010F174654
:1007B000A46BEDD122B107F8024B241254703A46D3
:1007C00005F47045B542A3F10203E9D8BEF1000F6C
:1007D00007D00468C3E79E4690F824C0BEF1000F1E
:1007E000BDD11BB30468E16A11F0F00FFBD0A16B1F
:1007F000DC071DD50AB111700132013BF1E790F819
:1008000024809C4648EA0828BCF1000F7FF458AFCA
:1008100063B10468E16A11F0F00FFBD0DE07A16B51
:100820000FD50AB111700132013BF1E7BDE8F0814B
:100830002AB114460D1204F8021B55702246023BE1
:10084000CFE72AB114460D1204F8025B517022461C
:10085000023BDDE790F82450012B18BF45F000451E
:10086000656375E790F82450012B18BF45F00045EB
:1008700065631BE700041F80F0B4464B464A186BC3
:10088000DC6A01791170454922790A709A6A007907
:100890000870002A46D05968C9688A423ED8216843
:1008A000CC8B240402F1FF3065D4C0F30E00C88362
:1008B000C88B80B2C882196B0968C88B000452D4F7
:1008C000C2F30E00C883C88B002480B212F1FF323D
:1008D000C88218BF01229C62D96A2E4809680D6837
:1008E00000F12404A54236D00068C46814F0804F9B
:1008F0000C680D6815BF248824780235013544F052
:1009000000440D604463196B254B09791970214926
:1009100012B1CA6A12791A70F0BC7047521A9A6200
:100920000122D9E7586B196805681E4C0A63CC622E
:10093000CC682D681C4E24F080440327B542CC605F
:1009400083F825701FD1037F4260022BC2601ED046
:10095000F0BC0CF063BA016890F82400CC6840F059
:1009600000404863CFE7CC8BC2F3080004F47E4418
:100970002043C883A7E7CC8BC0F3080004F47E446F
:100980002043C88394E72B461146F0BC1847836880
:10099000F0BC1847009CFF1F1F8000401C800040D7
:1009A0001B80004000000FFF6906000090E80C006B
:1009B000F0B41C6859682568164F174E294321600A
:1009C000164D17491760D66015611160417A154AB6
:1009D0005C180A3194F8244053F8215002EBC4010A
:1009E00049680D60017A5C1803EB8101247ECD69B2
:1009F00002EBC40149680D60817A581803EB81034A
:100A000090F83000596B02EBC002F0BC53681960DB
:100A1000704700BF01401F0001100038011000782E
:100A200000001F80E04301005E2911D830B44A095C
:100A3000C57A012303FA02F42C4300EB8202C4724C
:100A4000D06801F01F0103FA01F10143D16030BC0D
:100A5000704700BF5E2913D830B44D0900EB850400
:100A600001F01F01E368012202FA01F123EA01010A
:100A7000E16021B9C37AAA4023EA0202C27230BC03
:100A8000704700BF4268036805CA10B40468224377
:100A90000260DA6881B942F08072D9688A4209D06E
:100AA000196848040BD40948186042F08040DA60A5
:100AB0001861196010BC704722F08072EDE742F0B7
:100AC0008041DA6010BC1961704700BF01401F000F
:100AD00043680CCB11680B4313607047426803688E
:100AE00005CA10B4046822430260D868840100F08B
:100AF000E06205D5080900F4706021F470410143FB
:100B0000D8681143814209D01A68500408D40748B4
:100B1000186041F08040D96018611A6010BC7047BD
:100B200041F08042D96010BC1A61704701401F003B
:100B3000204A43689A42F0B40FD0427A1A4492F89D
:100B40002420914207D093F824408C4215D093F88A
:100B500025408C422AD0F0BC70470B2907D00729CA
:100B6000EBD1154C227842F001022270E5E7124CDD
:100B7000227822F001022270DFE7002421461E685D
:100B80005D6836682E420FD00C4D05EBC20200277F
:100B900056685A18376092F8242005EBC2050A31CE
:100BA0006A6853F8213013604472D4E70124214667
:100BB000E5E700BFB4390100B8B0FF1FE043010012
:100BC0001E4A43689A42F0B40CD0027A1A44127E4C
:100BD000914205D01C7E8C4214D05C7E8C422AD07F
:100BE000F0BC70470C2907D00829EED1144C2278AC
:100BF00042F002022270E8E7114C227822F0020251
:100C00002270E2E7002421461E685D6836682E42A5
:100C10000FD00C4D05EBC202002756685A183760FA
:100C2000127E063105EBC20503EB81036A685B683F
:100C300013600472D4E701242146E5E7B4390100CA
:100C4000B8B0FF1FE0430100204A43689A42F0B465
:100C50000FD0827A1A4492F83020914207D093F84C
:100C600030408C4215D093F831408C422BD0F0BCF0
:100C700070470D2907D00E29EBD1154C227842F090
:100C800004022270E5E7124C227822F0040222705E
:100C9000DFE7002421461E685D6836682E4210D0CA
:100CA0000C4D05EBC202002756685A18376092F8BF
:100CB00030200C3105EBC20503EB81036A685B68E9
:100CC00013608472D3E701242146E4E7B4390100BC
:100CD000B8B0FF1FE04301000BB1FFF7D1BC704774
:100CE0000020704790F8392090F83800101A7047AB
:100CF00090F8383090F839209A4205D95A1C0344AC
:100D000080F83820187E70474FF0FF30704700BFE2
:100D100090F8383090F839209A4286BF1B18187E18
:100D20004FF0FF30704700BF704700BF38B5054631
:100D3000B0F85E0090B195F85D301446C3F1210221
:100D400094420CD805F13B00184422460AF08EF973
:100D500095F85D30234485F85D30204638BD01208C
:100D600014462871EEE700BFB0F85E306BB190F822
:100D70005D30202B07D8C218013380F85D30012088
:100D800082F83B107047012303710020704700BFB9
:100D90000023426980F8383080F8393080F85C30C0
:100DA00080F85D3080F85E3080F85F3006CA30B47D
:100DB0000D68046943662A4383660A60A37042692A
:100DC00090F861301649146813441D7A5B7B01EB7F
:100DD000C5051B026D6803F4E06343F064032B60F8
:100DE00090F8623013449D7CDB7D01EBC5011B0252
:100DF000496803F4E06343F064030B6021685368BF
:100E0000194205D0036928225A70036903229A7196
:100E1000036920225A71036980229A7030BC70479E
:100E2000E043010070B490F8613045692B441E7AAC
:100E30008E420AD0EC1D002314F8012FFF2A04D0A3
:100E40008A4204D00133052BF6D170BC704795E877
:100E500006000968114211D00A4901EBC6061D447B
:100E60007268002414602C7A6A7B01EBC4011202C0
:100E700002F4E062496842F064020A6080F861307E
:100E8000E3E700BFE043010070B490F862304569C9
:100E90002B449E7C8E420BD005F11104002314F8E4
:100EA000012FFF2A04D08A4204D00133052BF6D14A
:100EB00070BC704795E806000968114211D00A49D4
:100EC00001EBC6061D44726800241460AC7CEA7D08
:100ED00001EBC401120202F4E062496842F06402CC
:100EE0000A6080F86230E3E7E043010010B5026970
:100EF000D378DBB2D90604463DD510215806D1700F
:100F000038D503F0040303F0FF02002B51D03D4914
:100F1000626E00230B7084F85D30002A5BD090472E
:100F200094F85D30002B56D02369D0229A70236943
:100F300094F83B201A712369012284F85C20022274
:100F4000DA7010BD304B84F860009C424AD02F4BC1
:100F50009C4252D094F8391013791F29DBB207D87C
:100F60002848007820B16018013184F839100376E0
:100F70000223D37010BD5906C3D4917801F010013B
:100F800001F0FF000029DDD013F001031ED194F819
:100F90005C1094F85D00884281BF4B1C091984F8ED
:100FA0005C3091F83B3013712369D0229A7022692A
:100FB000DEE7236984F83920C0229A702369114A38
:100FC0001979012111700222DA7010BDC0239370CB
:100FD00022691379CCE70122002384F85D2084F88C
:100FE0003B30A1E7626994F8613009491344032258
:100FF000187A0AF00BFA2269ACE7626994F861305A
:101000000449F3E734ACFF1F389CFF1FA49CFF1F6B
:1010100075100000811000000369DB7803F02003E5
:1010200073B190F860300133DBB2012B80F860308F
:101030001AD9426990F861301344187A0AF062BAFA
:1010400070B5426903F0FF0590F86130134404461F
:10105000187A0AF057FAA36E5BB184F8385094F806
:101060003900BDE87040184790F85F30002BE0D0A1
:10107000704770BD0148FFF7CFBF00BF389CFF1F0E
:101080000148FFF7C9BF00BFA49CFF1F2DE9F0472F
:10109000364FDFF8DC903B68026982B00646009369
:1010A000DDF8008000217825D3789B065AD53B686F
:1010B0000193019BC8EB03030F2BF5D949B1102B0A
:1010C000F2D000209070336980229A7002B0BDE89F
:1010D000F087726996F8613013440521187A0AF096
:1010E00079FB726996F861301344012193F812A0DC
:1010F00050460AF06FFB0924002150460AF056FBC7
:101100002B46013BFDD1012150460AF04FFB2B46F7
:10111000013BFDD1013CEFD1706996F861100144AB
:10112000F0220C7A4B7B09EBC4011B02496803F4E3
:10113000E06343F064030B6096F862300344997CEB
:10114000DB7D09EBC1011B02496803F4E06343F056
:1011500064030B60013AFDD13269D3789B064FF0EE
:101160000101A4D4012002B0BDE8F08764AFFF1FE5
:10117000E0430100F0B503691222DA700269937846
:1011800003F0200385B004460D46002B5ED0B42347
:1011900093703C4922690B680093009E05E00B6840
:1011A0000193019B9B1B042B42D8D37803F02003AF
:1011B00003F0FF00002BF2D094F85D30002B31D00B
:1011C0004FF0000E4FF0020C04EB0E0393F83B308F
:1011D00013710B680393039F206907E09B060DD5ED
:1011E0000B680293029BDB1B052B28D8C378DBB26C
:1011F00003F0020202F0FF06002AEFD080F803C0DD
:101200002669F378DBB2DF0632462DD49F062BD554
:10121000DB0731D40EF1010E94F85D305FFA8EFEDB
:101220007345D1D800201DBB002384F85E3004E054
:101230009070236980229A70042005B0F0BD8670FA
:101240002369802204209A7005B0F0BD03F0FF06E8
:10125000FFF71CFF10B9042005B0F0BD236984F826
:101260005F60B0229A7094E78023B3700420DAE7BD
:1012700026698023B370D7E7BEF1000F0CBF0220B0
:101280000320F6E764AFFF1F2DE9F0410669002552
:10129000122780F8385080F83950F770D0F810C015
:1012A0009CF802E00EF0200E88B0044688461546F1
:1012B0001E46BEF1000F49D0B4238CF80230784BA3
:1012C00021691A680092DDF800E006E01A680192D0
:1012D0000198CEEB0000042830D8C87800F0200038
:1012E00000F0FF070028F1D04FEA480242F0010267
:1012F000D2B20A711A680292DDF808E0206906E0AD
:101300001A6803920399CEEB010105292AD8C17806
:1013100001F0020101F0FF070029F1D04FF0020CAB
:1013200080F803C02269D17811F0110722D12DBBBA
:10133000002E0CBFA0238023937003E08F702369DD
:1013400080229A70384608B0BDE8F0810EF0FF07A1
:10135000FFF79CFE0028F5D0236984F85F70B02267
:101360009A70ACE787702369802238469A7008B07B
:10137000BDE8F081802393700027E3E7012D75D04D
:10138000A021917021690A79BE4667464FF0A80CEA
:101390001A680492049805E01A680592059A121AD0
:1013A000052A4AD8CA7802F0020202F0FF08002A91
:1013B000F2D0CF702169CA78D2B212F0100F08466D
:1013C0005AD1920658D5013DEDB2012D49D0BEF15A
:1013D0001F0F3BD90A79012DDAD11A680692069DB2
:1013E00005E01A680792079A521B052A46D8C27868
:1013F00002F0020202F0FF01002AF2D00223C370C1
:101400002269D378DBB2D9063AD49B0634D5B0230F
:10141000BEF11F0F93703FD8226904EB0E031279BF
:101420001A760EF1010E5FFA8EFE16B12369802244
:101430009A7084F839E0774684E781F8028023695E
:1014400080229A70774684F839E07BE704EB0E023D
:1014500091F8048082F818800EF1010E5FFA8EFE7A
:10146000B9E781F802C021690846B0E7A821917068
:101470002069BE460279B0E7774663E78170DEE710
:1014800010217823D170013BFDD12269937803F0BC
:10149000F7037746937055E723691B79C5E700BFCB
:1014A00064AFFF1F0148FFF721BD00BF389CFF1F3D
:1014B0000148FFF71BBD00BFA49CFF1F704700BF82
:1014C000704700BF704700BF704700BF704700BF44
:1014D000704700BF10B50121044610200AF066F9DC
:1014E00032200AF07DF94FF48033C4F8A8307D2013
:1014F0000AF076F90123002184F80131C4F8A8101C
:101500001020BDE810400AF051B900BF00B500231B
:1015100089B0C0F804310A4968460BF093FE04A86C
:1015200008490BF08FFE04A96846FFF7C9FF04A81D
:101530000BF048FE68460BF045FE09B05DF804FB71
:101540009C3A01004040010030B590F854308DB015
:10155000044643BB0A2101200BF018FE144905463E
:1015600004A80BF06FFE0A22294608A80BF09CFE87
:1015700008A904A80BF03EFF0E490BF043FF0146FB
:1015800068460BF073FE08A80BF01CFE04A80BF0D5
:1015900019FE009904F1580000F0A2FD68460BF016
:1015A00011FE0DB030BD243000F07EFDD2E700BF4B
:1015B000A83A0100F83A010000B5012389B0C0F84B
:1015C00004310A4968460BF03DFE04A808490BF0B7
:1015D00039FE04A96846FFF773FF04A80BF0F2FD7B
:1015E00068460BF0EFFD09B05DF804FBB03A01006E
:1015F000404001002DE9F0417E4D7F4E2A68066093
:1016000000230446437203610372C36011460AB9A2
:10161000D3E019464B69002BFBD14C617748206021
:101620004FF480416361A380E380A37284F82D307E
:10163000636384F82C302363216204F1240000E00A
:101640001A465369002BFBD150610027DFF8B8819F
:10165000A7632785678584F82E70E763276467642E
:10166000A4F84870C4F8248000F018FD2A6884F8B3
:101670006170A76684F860706766A66504F158001B
:101680005C4B0AB9AEE01A465369002BFBD150619E
:101690000027C4F85880E766A4F85C70A4F85E7070
:1016A00084F8627027676767A767A4F87C7000F00A
:1016B000F5FC042004F1B40284F895003B4684F85C
:1016C0009470C4F89870C4F88C603946C4F89C20B3
:1016D00004F18C0001E0D4F89C2042F8231094F827
:1016E000952001339A42F6DC2A68424B0AB97BE026
:1016F0001A465369002BFBD1506100214FF4803012
:101700003F4FC4F8C46004F1DC020126C4F8A40011
:10171000C4F8A800C4F8AC00C4F8B0000B46C4F884
:10172000A010A4F89010A4F8921084F8961084F8F1
:10173000CC10C4F8D010C4F88C70C4F8D42084F84D
:10174000CD6004F1C40001E0D4F8D42042F82310A5
:1017500094F8CD2001339A42F6DC2A68254B0AB969
:1017600044E01A465369002BFBD150610025254BFC
:10177000C4F8D850A4F8C850A4F8CA5084F8CE5081
:10178000C4F8C43000F02CFBC4F8E050C4F8E450B6
:10179000C4F8E850C4F8EC50C4F8F050C4F8F45061
:1017A000C4F8F850A4F8FC5084F8005184F80151B2
:1017B000C4F804512046BDE8F081104928604FF478
:1017C000804342618280C2808272466280F82D200E
:1017D000426380F82C2002630160036224303CB92C
:1017E000286032E7186053E7186086E71860BDE7A5
:1017F000224626E764B0FF1F983A0100443D0100ED
:10180000203D01002C3D0100383D0100F0B50E21C6
:1018100089B005464548FFF717FA0B214348FFF703
:1018200087F90C214148FFF7CBF90121102009F07D
:10183000D1FF0021102009F0B9FF3D4904A80BF0A9
:1018400001FD04A8FFF73AFE04A80BF0BBFC0A2038
:1018500002F034F9002865D0364968460BF0F2FCF6
:10186000354904A80BF0EEFC04A96846FFF728FEF2
:1018700004A80BF0A7FC68460BF0A4FC14200BF0A6
:10188000C7FE002405F18C0701230646437205605C
:1018900047600472C46004740BF0B4F9C5F8E060EA
:1018A00014200BF0B5FE05F12403064603604760E3
:1018B00004724472C46004740BF0A4F9C5F8E460C7
:1018C00014200BF0A5FE05F1580202230260064623
:1018D000437247600472C46004740BF093F9C5F856
:1018E000E86014200BF094FE05F1C4030646436043
:1018F000076004724472C46004740BF083F9C5F885
:10190000EC6010210D480BF087F80D4AC5F8A8408F
:101910004FF48033C5F8A430C5F8AC302B62EA61CF
:1019200009B0F0BD6846074998E700BF009CFF1F5B
:10193000B83A0100DC3A0100404001000082FF1F7C
:10194000887BCD05D43A0100D0F80431022B10B5C4
:1019500003D0063B022B00D910BD0446002380F8BB
:1019600001310649243000F0BBFBD4F80431082BC8
:101970001CBF0323C4F8043110BD00BFE03A0100CE
:10198000D0F80431012B00D0704790F80031002BC3
:10199000FAD190F88830002BF6D130B590F8543059
:1019A0008DB0044643BB082101200BF0EFFB144926
:1019B000054608A80BF046FC0A22294604A80BF0AD
:1019C00073FC04A908A80BF015FD0E490BF01AFDD5
:1019D000014668460BF04AFC04A80BF0F3FB08A88C
:1019E0000BF0F0FB009904F1580000F079FB684619
:1019F0000BF0E8FB0DB030BD243000F055FBD2E712
:101A0000003B0100F83A0100D0F80421092A03D96B
:101A10000121102009F0CABE40F2C123D34003F0D7
:101A2000010383F00101002BF2D0102009F0BEBEAB
:101A30002DE9F84390461278089E099D1F461B68C1
:101A4000C0F804310446894652B3012B24D0204605
:101A5000FFF7DAFFD4F80431062B48D099F80030AC
:101A60001BB198F80030002B49D03378002B3AD1C5
:101A70002B7843B3D4F80431012B44D0032B26D068
:101A8000082B24D0042B04D194F85430002B43D0DD
:101A900004233B60BDE8F883FFF756FDD4F804311A
:101AA000012BD4D194F8543003F0FF02002BCED197
:101AB00094F800310BB184F800211B4904F1240093
:101AC00000F00EFBC3E7D4F80431032BD8D194F80F
:101AD0005420002ADDD12046FFF76EFDD4F80431F2
:101AE000042BD1D0D5E72046FFF72EFFC0E794F8AE
:101AF0000131002BB2D12046FFF7ECFCAEE72046C7
:101B0000FFF73EFFB1E7094904F1240000F0E8FACD
:101B10000423C4F80431B7E72046FFF7F7FCD4F8F4
:101B200004313B60BDE8F883083B0100F03A010056
:101B300010B504460BF058F9204610BD024A03497F
:101B400003480DF015B900BFFC9BFF1F311B0000BF
:101B500038ACFF1F38B5074D074C08482A462146C8
:101B60000DF006F92A4621460548BDE838400DF03B
:101B7000FFB800BFFC9BFF1F311B000040ACFF1FE4
:101B800048ACFF1F024A034903480DF0F1B800BFFB
:101B9000FC9BFF1F311B000050ACFF1F024A034992
:101BA00003480DF0E5B800BFFC9BFF1F311B000090
:101BB00058ACFF1F024A034903480DF0D9B800BFD3
:101BC000FC9BFF1F311B000060ACFF1F024A034952
:101BD00003480DF0CDB800BFFC9BFF1F311B000078
:101BE00068ACFF1F024A034903480DF0C1B800BFAB
:101BF000FC9BFF1F311B000070ACFF1F024A034912
:101C000003480DF0B5B800BFFC9BFF1F311B00005F
:101C100078ACFF1F2DE9F8434FF00008064600F1AD
:101C20001805474641463046002F4FD00AF0BCFF0A
:101C3000F0B12C68B4F5803F07F1040100F1040E07
:101C400007F5827C27D05EF8042B34FB02F334FBCB
:101C500012F903F30F0209F30F03C2EA03430A6800
:101C600093FA12F341F8043B8C45ECD80AF058FF84
:101C700008F10108B8F1040F05F10405D2D1002FD5
:101C800040D03046394600220AF074FF3846BDE89D
:101C9000F8430AF045BF07F10C0100F10C0451F8BC
:101CA000083C54F8082C93FA12F341F8083C54F815
:101CB000042C51F8043C93FA12F38C4541F8043C8F
:101CC00004F1080401F10801E9D8CFE70AF078FF30
:101CD00007460028CCD02868B0F5803FC8D0391D11
:101CE00007F582740B6830FB03F230FB13F302F349
:101CF0000F0203F30F03C2EA034341F8043B8C4293
:101D0000F0D8B5E7BDE8F883024A034903480DF06F
:101D10002FB800BFFC9BFF1F311B000080ACFF1FD2
:101D200010B500210AF040FF70B172B60A4B1A6874
:101D300072B10A490C6844B11C60086062B6104672
:101D4000BDE810400AF0ECBE10BD086062B610BDE0
:101D5000186062B610BD00BF98ACFF1F88ACFF1FB3
:101D600038B5184B18491A68184C12681B79184D69
:101D70000B70A242286836BF2246A4F5807202F595
:101D80008074C0B1011D31F9023B03F500431B1102
:101D900022F8023B9442F6D80AF0C2FE0D4B002214
:101DA000196829601A600C4B1B781BB10B4B4FF064
:101DB00080421A6038BD4FF4006322F8023B94421F
:101DC000FBD8F0E78CACFF1F1F8000404093FF1F43
:101DD00098ACFF1F88ACFF1F94ACFF1F08E200E027
:101DE000F8B501214248434E0AF09AFF424A43495E
:101DF0001368802043F4805313600024087040F679
:101E0000080534800120083409F0EAFCA3B2AB4293
:101E10001CB2F6D13A4B1B685B0208D5394B1A68E5
:101E200048F6A273134048F6A27293424FD0344949
:101E3000344A0B68344F354D3548364C43F48003F3
:101E40000B604FF0010E40F22F3648F6A37140F2BE
:101E50000113C7F800E02E60116014600360244C89
:101E60002D4A236823491A6002259D802279196131
:101E700002F1804202F50432284EDE6040F2011188
:101E8000D9804FF4807000210627B026D8829D604B
:101E9000D88399829F839961117016700AF0E6FECB
:101EA00022791F4B1F4E187053119B0003F16043A2
:101EB0001D4C327003F5614302F1100002F01F0760
:101EC00001211A4D44F82050B9401960F8BD0F4B5C
:101ED0001A6840F22F339A42A9D10B4B1B68012B91
:101EE000A5D10B4B1A6840F201139A429FD1B6E775
:101EF0008CACFF1F00C00C402C80044021C00C4063
:101F00003C800440006003400C60034004600340D8
:101F100010600340A28F01004092FF1F00FEFFFFF0
:101F200094ACFF1F1B8000400096FF1F611D000046
:101F3000024A034903480CF01BBF00BFFC9BFF1F74
:101F4000311B00008CACFF1F024A034903480CF010
:101F50000FBF00BFFC9BFF1F311B00009CACFF1F8D
:101F6000024A034903480CF003BF00BFFC9BFF1F5C
:101F7000311B0000A4ACFF1F024A034903480CF0C8
:101F8000F7BE00BFFC9BFF1F311B0000ACACFF1F66
:101F9000024A034903480CF0EBBE00BFFC9BFF1F45
:101FA000311B0000B4ACFF1F024A034903480CF088
:101FB000DFBE00BFFC9BFF1F311B0000BCACFF1F3E
:101FC000024A034903480CF0D3BE00BFFC9BFF1F2D
:101FD000311B0000C4ACFF1F90F8303003B97047CC
:101FE00070B505460AF048FD0646002850D0EB695A
:101FF000296A8B4227D901F58072934238D2A869A9
:102000005C1A22460844311D00F0B6FE2B6AEA6ACB
:102010001919630822447F2B2962EA6209D806EB6A
:102020004303023306F58171002223F8022F8B420D
:10203000FBD12846314600220AF09CFD3046BDE81F
:1020400070400AF06DBD134A13885BB95E211248D7
:10205000FEF700FD002385F830303046BDE87040C3
:102060000AF05EBD013B9BB21380002BF2D1EDE77D
:10207000A8694FF480720844311D00F07DFE2A6A81
:10208000EB6A02F5807203F580732A62EB62D0E797
:1020900070BD00BFCCACFF1F009CFF1F002380F869
:1020A00030308362C362704772B690F8303053B1FB
:1020B000002380F8303062B6074A13882BB95E21BE
:1020C0000648FEF7C7BC62B67047013B9BB213805F
:1020D000002BF4D0704700BFCCACFF1F009CFF1F4B
:1020E00070B51B4E84B004460D46FFF7DDFF5E2140
:1020F0001848FEF799FC3388294601336846338037
:1021000001F006FE6B4607CBA061A0691B88A38483
:10211000E161226240B10022E369E2620120A36230
:1021200084F8300004B070BD338833B909485E21AB
:10213000FEF790FC002004B070BD013B9BB23380E1
:10214000002BEFD103485E21FEF784FC0020F2E76C
:10215000CCACFF1F009CFF1F036A2DE9F0478046AF
:102160004BB9D8F81830D8F81C2003EBC213C8F8C4
:102170001830BDE8F0870AF07FFC06460028F0D052
:10218000D8F81890D8F81C70D8F820C0134D4946DC
:10219000841C00F5817E0B0E5A1C35F9130035F9AD
:1021A0001220C1F30F2ACAF5803300FB03F30AFBA8
:1021B000023353FB0CF324F8023FA6453944EAD11D
:1021C00009EBC7174046C8F81870314600220AF0DC
:1021D000D1FC3046BDE8F0470AF0A2BC143B010038
:1021E000704700BF064B074ADA620221002259609D
:1021F0009A7083F8242083F8302083F832207047C7
:10220000D0ACFF1F503D010010B50121007809F04E
:10221000CDFA0E4A137893B10D49CB7A00241846B3
:10222000147063B1DC0703D50A4A88691060184648
:102230009A0705D4430702D5074B0A6A1A6010BDF6
:10224000064BCA69C87A1A60F4E700BF28ADFF1FC1
:10225000009CFF1F00E100E008E100E004E100E075
:102260001E4B1A781AB10078002109F09FBA70B499
:102270001B4A1C49D47A096801251D70ECB172B65D
:10228000D37ADE071C4606D5174DD4682E68344035
:1022900094612C601C469D0706D5144D13692E6869
:1022A000D47A3340D3612B60630705D5104C536952
:1022B00025682B401362236062B61368DA688A428D
:1022C00007D00C4C1C600C4AD96041F080441C6162
:1022D0001A600078002170BC09F068BA28ADFF1FB1
:1022E000009CFF1F24ADFF1F80E100E084E100E0BF
:1022F00088E100E001403F0000003F80F0B4124858
:10230000124A036882B016460093009F4FF00045C2
:10231000FF24136843F480631360D5625463D36A67
:10232000002BFCDAB36BDBB2FF2B09D003680193FF
:10233000019BDB1B8B42ECD3002002B0F0BC70474A
:10234000012002B0F0BC704764AFFF1F00C0024024
:10235000F8B50D464FF4967116460446FFF7CEFFCA
:10236000284B1A684FF0004042F4806245F040016B
:102370001A60D8621A465963D36A002BFCDA2149E5
:1023800018204FF000470A6826FA00F342F48062F2
:10239000DBB20A60CF624B63CB6A002BFCDA0838F1
:1023A00010F1080FEFD155B3082D0CBF8721FF2185
:1023B000144B1A684FF0004042F480621A60D862F1
:1023C0001A465963D36A002BFCDA0E4A00271646D8
:1023D0004FF00045FF21136843F480631360D5621A
:1023E0005163D36A002BFCDAB36BD8B21B06607062
:1023F00000D4F8BD0137B7F5807FECD1F8BD952149
:10240000D6E700BF00C00240F0B41549154A0B687A
:1024100082B016460093009F4FF00045FF241368DA
:1024200043F480631360D5625463D36A002BFCDAF3
:10243000B36BDBB2FF2B43700AD10B680193019B96
:10244000DB1BB3F5967FEAD9002002B0F0BC7047E1
:10245000A3F1FE00B0FA80F0400902B0F0BC704772
:1024600064AFFF1F00C00240F8B58378032B0E460F
:10247000044618BF4E021546FFF7F2FE3246112100
:102480002046FFF765FF18B92046FFF7BDFF20B9CA
:102490002046FFF7B9FE0020F8BD204B2049214A15
:1024A0001A608E4659631A4659631E46596305F5EC
:1024B000FD70A91C05F5FE77D36A13F0F00FFBD071
:1024C000C6F834E0B36B01F8013C1B1201F8023C82
:1024D00002318F42F0D105F50075A8420DD20F4AA6
:1024E0001646D36A13F0F00FFBD0B36B191200F845
:1024F000021BA84200F8013CF3D3084B0949084AE3
:10250000196019465A63CB6A044A13F0F00FFAD0E7
:102510002046936BFFF778FE0120F8BD00C0024013
:10252000FFFF009000041F80F0B4314E33684FF07D
:10253000004743F4806333603D46F762344671637D
:102540003346511C02F20127E26A002AFCDA1A68BB
:1025500011F8016C42F480621A60DD625E63E26A27
:10256000002AFCDA1A6811F8026B42F480628F428A
:102570001A60DD625E63E7D11D49CA6A1C4B002AFE
:10258000FBDA1A684FF0004542F48062FF241A60BB
:102590001946DD625C63CB6A154A002BFBDA1368CF
:1025A0004FF0004543F48063FF2413601146D56269
:1025B0005463CB6A0E4A002BFBDA13684FF00045D8
:1025C00043F48063FF2413601146D5625463CB6AE1
:1025D000074A002BFBDA936BDBB203F01F02437058
:1025E000A2F10500B0FA80F04009F0BC704700BFCE
:1025F00000C0024070B5044671B18378032B0D46CC
:1026000018BF4D021646FFF72BFE2A46182120461A
:10261000FFF79EFE054620B12046FFF7F5FD00209E
:1026200070BD3246FE212046FFF77EFF0028F3D022
:102630004FF416712046FFF761FE0028ECD02A46C1
:102640000D212046FFF784FE0028E5D10B4B1A68C8
:102650004FF0004542F48062FF201A601946DD62A7
:102660005863CB6A054A002BFBDA936B13F0FF0F1C
:10267000D2D12046FFF7C8FD012070BD00C0024046
:10268000014B024A1A60704724ADFF1F0000023858
:1026900038B590F90530002B03DBBDE8384000F079
:1026A0006DB904460121006900F092F9F8B1257D69
:1026B000104B13EB45151AD0A3790F4A012B9CBF81
:1026C000A369EB61E36912686B831B0CAB8232B1C7
:1026D00005F1160105F1180090472B8B6B82637989
:1026E00003F07F036371BDE8384000F047B9002074
:1026F00038BD00BF38ADFF1F2CADFF1F10B500F176
:10270000080204460121006A00F000FA50B1E369B2
:102710003BB96379A268E26163F07F0363710120D2
:1027200010BD012010BD00BFF8B5837913B18269D7
:102730008A4201D20020F8BD022B0F4605461AD06E
:1027400007B32B6AE9681C7C4A1E04F109037C1E4E
:10275000DA40DC40A24211D9EB69AB6005F1080612
:1027600006E0A968286A00F099F9013C0028E1D048
:102770003246002CF5D1EF600120F8BD0029EBD0E6
:10278000A41AEBE7AF60EF600120F8BD2DE9F04F30
:102790008B46817985B001290746019205D0012336
:1027A0003B71002005B0BDE8F08F42799107F6D566
:1027B000530708D5FC68B9698C4200F0A880FFF780
:1027C000B3FF0028EBD0019BFC68002B49D0DFF859
:1027D0008C91DFF88CA1DDF80480386A0679013E1F
:1027E00006EA542616F0FF06C4F3080442D1002C72
:1027F00040D1B96800296FD1FA69002A7ED0BA6049
:10280000C4F50075ADB245453AD9057C4169023A37
:10281000AA400E4416441FFA88F51CB9F868BA6934
:1028200090424CD23046012100F0D2F80028B6D0B8
:102830004C4404EB050E74450DD00BF1FF31621EC4
:102840000EF1FF3611F8010F02F8010F9642F9D18F
:10285000C4EB0E04A344FC68B8EB05082C44FC60F0
:10286000BBD1BB69A34257D27A79BC6142F08002E6
:102870007A715AE0C4F50075ADB24545BA68C4D85E
:10288000017C4069023A8A400644B5F5007F16444F
:10289000C3D1DAF80020964204BF4FF0FF32CAF8E5
:1028A00000202A4A314610685A46FFF7A3FE002846
:1028B0003FF475AF0BF5007B4FF40075CBE700F0EC
:1028C0005DF800283FF46BAF2149CAF800600A7830
:1028D00042F001020A70ABE703AA00F0DFF800281B
:1028E0003FF460AF386A1B4B90F82050039A4FF6C4
:1028F000F871102D18BF19468A4280D33846FFF769
:10290000FDFE00283FF44BAF386ABA6878E7019BB8
:10291000002B7FF45CAF08E00F4B7A791B6823B182
:10292000019B13B142F080027A71120709D5BB797D
:10293000002B3FF434AF3846FFF7AAFE00283FF4DF
:102940002EAF019805B0BDE8F08F00BF34ADFF1F7A
:1029500038AFFF1FF8FFFF0F2CADFF1F38ADFF1F73
:10296000109DFF1F00B583B002AB012203F8011DCB
:102970001946FFF70BFF03B05DF804FB70B50F4C71
:1029800023780BB9012070BD0D4B0E4D19682868D6
:102990000D4AFFF72FFE70B10C4E316819B90023B4
:1029A0002370012070BD2868074AFFF723FE10B18D
:1029B00000233360F3E7002070BD00BF38AFFF1F76
:1029C000109DFF1F34ADFF1F38ADFF1F30ADFF1F3F
:1029D00070B50D4D2B6883420E460ED00446FFF7AE
:1029E000CDFF08B9002070BD084B094A1868214680
:1029F000FFF73AFD0028F5D02C60064B19783143DB
:102A00001970012070BD00BF109DFF1F34ADFF1F66
:102A100038ADFF1F38AFFF1FF8B590F82030C469FC
:102A2000102B1A4B05460E4617461B6816D004EBB2
:102A3000D1149C4216D106F07F06154A42F8267042
:102A40001449287E0A78012842F001020A7018D938
:102A5000A968114A0B4413600120F8BD04EB11244E
:102A60009C4208D000212046FFF7B2FF50B195F8F4
:102A70002030102B07D1F6B2054A234622F81670F3
:102A8000DEE70120F8BD2346D5E700BF109DFF1FFC
:102A900038ADFF1F38AFFF1F30ADFF1FC3680133D4
:102AA0008B4218D370B590F82030102B154B04468C
:102AB00016460D46C0691B680FD000EBD110984236
:102AC0000FD105F07F01104B53F8213023F07043F4
:102AD0003360012070BD0020704700EB1120984248
:102AE00007D00021FFF774FF50B194F82030102B6D
:102AF000E7D1E9B2044B33F811303360012070BDE7
:102B0000002070BD109DFF1F38ADFF1F2DE9F04F55
:102B1000176883B06FB301374FF0000AC36803F141
:102B2000010813B38B46064691463C46002505E056
:102B30001C461F46F3680135AB4216D9A04538BF85
:102B40000224214601AA304638BF2746FFF7A6FFD8
:102B5000631CD91B48B1019A002AE9D18B4510D0DA
:102B60001C46F3680135AB42E8D8002003B0BDE84D
:102B7000F08FA1F1010ABAFA8AFA07684FEA5A1AE5
:102B8000CCE7012CF1D9F36801339C42EDD86FF00A
:102B9000704221463046FFF73FFF0028E5D0A742AC
:102BA00014D2013C012CE0D9F36801339C42DCD8FB
:102BB000621C21463046FFF72FFF0028D5D0A742E0
:102BC00004F1FF3402D0012CEED1CEE7D9F8001089
:102BD00059B10129C9D9F36801339942C5D83A4698
:102BE0003046FFF719FF0028BFD0C9F80070BAF1CE
:102BF000000F01D0013737600120B7E7524ADFF8F4
:102C000068C12DE9F04F514D514CDFF86081DFF87C
:102C100060B1DFF860E11646D17A09B372B6F37A93
:102C2000D807194607D5DBF80000F1680140B1610B
:102C3000CBF8001019469B0707D5DCF80000136994
:102C4000D17A0340D361CCF800304F0706D5D8F8CD
:102C5000001053690B401362C8F8003062B6D17A95
:102C60001368D868B0F1384F0AD04FF078404FF071
:102C70003849C3F800E0C3F80C9018613548186073
:102C80002078D5F800A04FF0010980078AF800915C
:102C90004FF000492DD57020C3F82C905863D86AA6
:102CA0000028FCDA4FF0004900209F6BC3F82C90FD
:102CB0005863D86A0028FCDA01209B6B8AF88000F0
:102CC00081B1CF0703D5244F9069D17A3860880746
:102CD00003D5224FD069D17A3860490702D5204800
:102CE000116A01601B0697D51E4B00221A70BDE8C1
:102CF000F08F0520C3F82C905863D86A0028FCDABE
:102D00004FF0004900209F6BC3F82C905863D86A9D
:102D10000028FCDA01209B6B8AF8800081B1CF0784
:102D200003D50D4F9069D17A3860880703D50B4FD2
:102D3000D069D17A3860490702D50948116A016023
:102D4000DB073FF569AFCFE7009CFF1F40AFFF1FD8
:102D50003CAFFF1F00003F8000E100E004E100E025
:102D600008E100E03DAFFF1F84E100E088E100E002
:102D700080E100E001403F002DE9F04F0E4685B0B4
:102D800000218146304615460CF0E2FB984B994AEB
:102D9000DB7A11780291002B25D072B6944BDB7A46
:102DA000DC07194608D5944891490468C968214050
:102DB0008F4CA16101601946980709D58F488C4B4B
:102DC00004681B698A492340894CC97AE36103601E
:102DD0004B0707D58A49864B08685B6903408448DE
:102DE00003620B6062B6824B1B68D968B1F1384F41
:102DF00009D0844818604FF03840D86082494FF0BD
:102E00007840186119608148DFF804B201780391B5
:102E100000297ED1DBF80020029800F0080A00F0BB
:102E200001015FFA8AFA01914FF0010809EB0507E9
:102E3000BAF1000F40D1544682F80081019A002A6D
:102E40004DD04FF000410322D9625A63DA6A002A5A
:102E5000FCDA4FEA194242F080524FF00041986B81
:102E6000D9625A63DA6A002AFCDA1FFA89F949F052
:102E700080524FF00041986BD9625A63DA6A002A97
:102E8000FCDADFF86C919B6B324631462B464846A4
:102E9000FDF722FFDBF800202E4482F8808001211C
:102EA000002C00F0B780524B2546B9461B6809EB51
:102EB0000507BAF1000FBED07C1E84EA090414F0A5
:102EC0007E44B9D029F07E4182F80081019AC1F197
:102ED00000716C1A09EB01070D46002AB1D1C9F344
:102EE000074242F0805242F440724FF00041D962F2
:102EF0005A63DA6A002AFCDA1FFA89F949F080522B
:102F00004FF00041986BD9625A63DA6A002AFCDA02
:102F1000B7E71178DBF8002001248F0782F8004121
:102F20004FF0004440F1B8807021DC625963D96AE7
:102F30000029FCDA4FF0004400219F6BDC625963EA
:102F4000D96A0029FCDA996B090600F1B880039B65
:102F50000121022B82F8801000F2BE80244B82F8FF
:102F600000111B684FF000400621D8625963D96AEE
:102F70000029FCDA01209C6B82F8800018210139BD
:102F8000FDD102994C0740F10C81039981420CBF9D
:102F90008521752101244FF0004082F80041D8625C
:102FA0005963D96A0029FCDA986B0298012110F064
:102FB000020F82F880104FF0004082F8001100F0FC
:102FC000DD807021D8625963D96A0029FCDA996BD7
:102FD0004FF000440020DC625863D96A0029FCDA13
:102FE000996B0906F7D5012182F8801014E700BF1C
:102FF000009CFF1F3CAFFF1F80E100E084E100E088
:1030000088E100E001403F0000003F803DAFFF1F2E
:1030100040AFFF1F039B23B3D9F8003082F80011A3
:103020004FF000400621D8625963D96A0029FCDAC2
:1030300001209C6B82F8800018210139FDD1029992
:103040004C0743D47A2101244FF0004082F800411C
:10305000D8625963D96A0029FCDA01219B6B82F896
:103060008010554B5449DB7A1A4693B1D80703D5E3
:10307000524A896911601A46990704D54E4A504B45
:10308000D169D27A1960530703D54B4A4D4B126A66
:103090001A6005B0BDE8F08F0521DC625963D96A7A
:1030A0000029FCDA4FF0004400219F6BDC62596379
:1030B000D96A0029FCDA996BCF073FF548AF0021A8
:1030C000012482F8804001700391A5E603998142B2
:1030D00014BF7A218A21B6E7374B3748DB7A194685
:1030E0009BB1DC0703D535498069086019469F0705
:1030F00005D5314B32483049DB69C97A03604C074A
:1031000003D52D492F4B096A19600192FFF776FD0F
:10311000294B2949DB7A019AEBB172B6CB7AD807F1
:103120001A4640D49B0709D52749234B08681B69D9
:10313000214A03402048D27AC3610B60570707D564
:10314000224A1D4B11685B690B401B490B621360DF
:1031500062B6DBF80020184B1B68D968B1F1384F14
:1031600009D01B4818604FF03840D86019494FF01B
:10317000784018611960002103914DE60521D8625D
:103180005963D96A0029FCDA996B4FF0004400209A
:10319000DC625863D96A0029FCDA996BCF07F7D44F
:1031A00021E77521F6E60C48CA68046822408A6166
:1031B00002601A46B6E700BF009CFF1F00E100E076
:1031C00004E100E008E100E084E100E088E100E0E3
:1031D00001403F0000003F8080E100E02DE9F84F12
:1031E000DFF8D8816C4D98F80030DFF8D491DFF823
:1031F000D4A106460C461746AB46002B40F0AA80E9
:10320000EB7A1BB372B69BF80B20D007114609D599
:10321000624B1968DBF80C300B406049CBF8183072
:103220000B601146930707D55D4BE97A1A682B6945
:1032300013405B4AEB611360480706D5594B1A6887
:103240006B691340574A2B62136062B62B68DA68C9
:10325000B2F1384F09D0544919604FF03841D96064
:10326000524A4FF0784119611A60D9F800000122E2
:1032700080F800214FF000410622D9625A63DA6AD1
:10328000002AFCDAF2B2C2F580724FF0010EBA42A7
:10329000D3F838C080F880E04FF0180128BF3A46D4
:1032A0000139FDD19AF8001080F800E1C90754D522
:1032B0004FF0004E0221C3F82CE05963D96A00296F
:1032C000FCDA310C41F080514FF0004ED3F838C099
:1032D000C3F82CE05963D96A0029FCDAB1B241F095
:1032E00080514FF0004ED3F838C0C3F82CE059633A
:1032F000D96A0029FCDA996B1644BF1A4FF0004EC8
:10330000224414F8011BC3F82CE05963D96A002940
:10331000FCDA9442996BF4D1EB7A4FF0010E04245D
:10332000194680F880E088F800408BB1DC0704D5AE
:103330001F49DBF8180008601946980703D51D4897
:10334000EB69E97A03604B0702D51B492B6A0B60D6
:103350001446F7B1FFF752FC52E7C6F3074141F0BC
:10336000805141F400714FF0004EC3F82CE05963D6
:10337000D96A0029FCDAB1B241F080514FF0004E19
:10338000D3F838C0C3F82CE05963D96A0029FCDAB5
:10339000B1E7BDE8F88F00BF009CFF1F80E100E0AF
:1033A00084E100E088E100E001403F0000003F8050
:1033B00000E100E004E100E008E100E03DAFFF1FB4
:1033C00040AFFF1F3CAFFF1FF8B5534D534A2B785A
:1033D00017780446002B40F09C805149CB7AEBB122
:1033E00072B6CB7ADE071A4606D54E48CA6806681A
:1033F00032408A6102601A46980706D54A480B692E
:103400000668CA7A3340CB610360530705D5474A43
:103410004B69106803400B62136062B60B68DA6890
:10342000B2F1384F09D042481860424A4FF038464E
:103430004FF07840DE6018611A603F4A166801223A
:1034400086F800214FF000400622D8625A63DA6AFB
:10345000002AFCDA0120D3F838E086F88000182230
:10346000013AFDD1FF0786F8000139D54FF0004041
:10347000D822D8625A63DA6A002AFCDA220C42F0B7
:1034800080524FF000409F6BD8625A63DA6A002A7C
:10349000FCDAA4B244F080544FF00042986BDA6238
:1034A0005C63DA6A002AFCDA9B6BCB7A1C4C012045
:1034B0001A4686F8800083B1DE0703D51F4AA0694B
:1034C00010601A46980703D51D4BC869CA7A186060
:1034D000530702D51B4B0A6A1A6002232B70F8BDF2
:1034E000C4F3074242F0805242F458424FF0004089
:1034F000D8625A63DA6A002AFCDAA4B244F0805433
:103500004FF00042986BDA625C63DA6A002AFCDAF8
:10351000CAE7FFF773FB60E73DAFFF1F3CAFFF1F3C
:10352000009CFF1F80E100E084E100E088E100E012
:1035300001403F0000003F8040AFFF1F00E100E07E
:1035400004E100E008E100E070B54C4B1B78044654
:10355000002B79D14A49CB7AEBB172B6CB7AD80736
:103560001A4606D54748CA6805682A408A6102603B
:103570001A469E0706D544480B690568CA7A2B404F
:10358000CB610360550705D5404A4B69106803407D
:103590000B62136062B60B68DA68B2F1384F09D07B
:1035A0003B4818603B4A4FF038454FF07840DD60AB
:1035B00018611A60384A106801264FF000459F22B2
:1035C00080F80061DD625A63DA6A002AFCDA4FF0A3
:1035D000004500229E6BDD625A63DA6A002AFCDA3B
:1035E0009B6B23700A684FF000450023D56253633C
:1035F000D36A002BFCDA936B63700A684FF00045C6
:103600000023D5625363D36A002BFCDA2378926BD4
:10361000A270012B1BD0CB7A194D01241A4680F8D9
:10362000804083B1DC0703D51C4AA86910601A46A4
:10363000980703D51A4BC869CA7A1860530702D590
:10364000184B0A6A1A6070BDFFF7D8FA82E70A6859
:103650004FF000450023D5625363D36A002BFCDA98
:10366000936BE3700A684FF000450023D562536303
:10367000D36A002BFCDA936B2371CCE73DAFFF1FBD
:10368000009CFF1F80E100E084E100E088E100E0B1
:1036900001403F0000003F8040AFFF1F00E100E01D
:1036A00004E100E008E100E0F0B5864D2B7883B03E
:1036B000002B40F083806846FFF746FF9DF80030FE
:1036C000202B64D08049C87AF0B172B6CB7AD80783
:1036D0001A4606D57D4CCA682068104088611A4693
:1036E00020609F0706D57A4A0B6910680340CB61BA
:1036F0001360CA7A560705D5764A4B6910680340AD
:103700000B62136062B6C87A0B68DA68B2F1384FA0
:1037100009D0714C1C60714A4FF038464FF0784424
:10372000DE601C611A606E4A146801274FF0004683
:10373000062284F80071DE625A63DA6A002AFCDA33
:1037400001269F6B84F880601822013AFDD14FF06A
:103750000047C72284F80061DF625A63DA6A002AF0
:10376000FCDA01229B6B84F8802060B1C40703D58A
:103770005C4B8A691A60C87A820722D4430702D553
:10378000594B0A6A1A6003232B7003B0F0BD9DF8F1
:103790000230A3F12002022A94D8544C212B207825
:1037A00014D000F03F028011012822705FFA80FEE1
:1037B000EBDC222B0CBF082602260EE0FFF71EFAD8
:1037C00079E74B4BCA691A60C87AD7E700F03F0324
:1037D000801123705FFA80FE02263B49CB7A03B347
:1037E00072B6CB7ADF071A4609D5DFF8E0C0CA689F
:1037F000DCF8007017408F611A46CCF800709B0708
:1038000006D5334A0B6917683B40CB611360CA7A0F
:10381000570705D52F4A4B6917683B400B62136069
:1038200062B60B68DA68B2F1384F09D02A491960DC
:103830004FF03841D960294A4FF0784119611A6038
:10384000274A1168012281F800214FF00047062223
:10385000DF625A63DA6A002AFCDA0122D3F838C040
:1038600081F880201827013FFDD14FF0004CC4277C
:1038700081F80021C3F82CC05F63DA6A002AFCDA01
:103880001EFB06F2120242F080524FF000469F6B80
:10389000DE625A63DA6A002AFCDA4FF000464FF023
:1038A00080529F6BDE625A63DA6A002AFCDA227861
:1038B0009B6B431C42EA83130122237081F8802012
:1038C00061E700BF3DAFFF1F009CFF1F80E100E0EC
:1038D00084E100E088E100E001403F0000003F801B
:1038E00040AFFF1F00E100E008E100E03CAFFF1F38
:1038F00004E100E0F8B54E490B780BB90120F8BDA2
:103900004C48C47AF4B172B6C37ADE071A4606D5BB
:10391000494CC26825682A40826122601A469D0788
:1039200006D5464C03692568C27A2B40C3612360E3
:10393000540705D5424A4369146823400362136063
:1039400062B6C47A0368DA68B2F1384F09D03D4DE7
:103950001D603D4A4FF038464FF07845DE601D61EE
:103960001A603A4A3A4D16782D68012285F80021EE
:10397000B2074FF0004729D57022DF625A63DA6A36
:10398000002AFCDA4FF000470022D3F838E0DF626B
:103990005A63DA6A002AFCDA01229B6B85F88020E0
:1039A00084B1E70703D52B4A8569C47A1560A5075A
:1039B00003D5294AC569C47A1560620702D5274A2A
:1039C000006A10601B0629D40020F8BD0522DF62C2
:1039D0005A63DA6A002AFCDA4FF000470022D3F873
:1039E00038E0DF625A63DA6A002AFCDA01229B6B54
:1039F00085F8802084B1E70703D5164A8569C47A23
:103A00001560A50703D5144AC569C47A1560620715
:103A100002D5124A006A1060DB07D5D4002416F0E4
:103A2000C00F0C703FF46AAFFFF73EFE2046F8BDB2
:103A30003DAFFF1F009CFF1F80E100E084E100E03C
:103A400088E100E001403F0000003F803CAFFF1FE5
:103A500040AFFF1F00E100E004E100E008E100E00A
:103A600002781F2A15D08378A3F110010F290DD9F0
:103A7000A3F12001052908D98AB942788AB9002B17
:103A800014BF4FF4801000207047063B012098407F
:103A900070474378892BE6D14FF080707047FF2A3A
:103AA00002D04FF4801070474278FF2AF9D1FF2BE3
:103AB00014BF4FF480100020704700BF70B56A4BF0
:103AC0006A4D53F830302B6082B004466848FCF7EA
:103AD0006DFF2046012107F07DFE2E68012386F848
:103AE00080306846FFF730FD9DF80040A4B99DF88E
:103AF000013013B99DF8020060B16846FFF7B0FFCE
:103B0000B0F1807F21D800235A4A68461370FFF72E
:103B10001BFD012002B070BDFF2C09D19DF80130C2
:103B2000FF2BEAD19DF80230FF2BE6D10020F1E710
:103B30006846FFF795FFB0F1807F06D8012C6DD065
:103B4000202C14BF00230223DEE74949CB7AD3B1EE
:103B500072B6CB7AD8071A4606D54748CA680468B1
:103B600022408A6102601A469B0706D543480B69CA
:103B70000468CA7A2340CB610360560765D462B6F5
:103B80002E689DF800400B68DA68B2F1384F09D012
:103B90003B4818603B4A4FF038454FF07840DD60B5
:103BA00018611A60012C43D001244FF00040062216
:103BB00086F80041D8625A63DA6A002AFCDA0120EA
:103BC0009C6B86F880001822013AFDD14FF000442A
:103BD000B72286F80001DC625A63DA6A002AFCDA4E
:103BE00001229B6B86F88020CB7A21481A4663B16C
:103BF000DC0703D5244A806910601A4698072BD445
:103C0000530702D5214B0A6A1A609DF80030202B19
:103C100019D0012B25D11A46052301E004230022E7
:103C20009DF8041000297FF46FAF42F014036BE796
:103C30004FF00040164A86F80041D8625A63DA6AAB
:103C4000002AFCDACCE70B235EE7124A4B691068C6
:103C500003400B62136092E70F4BC869CA7A186081
:103C6000CEE7012350E700BFE043010040AFFF1F54
:103C7000009CFF1F3CAFFF1F80E100E084E100E0FB
:103C800001403F0000003F8000E100E008E100E06B
:103C90008017001088E100E004E100E0044B1B788D
:103CA00013F0100F14BF4FF480204FF48030704792
:103CB0003CAFFF1F00B583B0082269460020FFF724
:103CC0005BF8009B104A93421AD0013303D00020C6
:103CD00003B05DF804FB0D4B0092694608220020FA
:103CE0000193FFF77BFAFFF705FE0028FBD00822BF
:103CF00069460020FFF740F8034B009A9A42E6D14C
:103D0000019803B05DF804FB4C5596FA5802F6187A
:103D10002DE9F04F002393B0036043608360C360DC
:103D200004900C460391FFF7C5FF00287AD0227853
:103D300083B20293002A00F08A80464B464821460F
:103D4000534011F8012F00FB03F3002AF8D1434F31
:103D50005A08A7FB0227BF0BC7EBC737A3EB4707E0
:103D60000137BFB2029B002B5CD003EB43030593EA
:103D7000002301930DF1280B029B019A1946C2EB17
:103D8000010ABAF1070F58D8101D40004FEA4A0245
:103D90005946FEF7F1FFBAF1000F47D0029B1E1DF6
:103DA000019B03EB830216440025760008E04FF6E2
:103DB000FF739A4236D00135554506F10A0635D2D1
:103DC0003BF81520BA42F2D100230A2207A9304657
:103DD0000993FEF7D1FF099A059B039C02F10209A2
:103DE00099444FEA89090DF14708484610220EA967
:103DF000FEF7C2FF09F110090DF1370301E0984504
:103E0000F3D014F8011B13F8012F8A42D3D1002AF2
:103E1000F5D1019B0498079A2B441D46089B858188
:103E200080E80C00049813B0BDE8F08F019B029A63
:103E300053449A4201939FD8F4E7019B181D400018
:103E400010225946FEF798FF4FF0080AA6E74FF4F4
:103E5000204787E7C59D1C81930100010300018075
:103E600000B585B001466846FFF752FF0098003064
:103E700018BF012005B05DF804FB00BF2DE9F04F2D
:103E800005468BB00E4606A829461746FFF740FFA9
:103E9000069C1CB9FFF70EFF814618B900200BB035
:103EA000BDE8F08FA2461FFA89F80AF10803984589
:103EB0004FF6FF7B1ED2CAEB08040AF10400620031
:103EC000400006A9FEF758FF6CB1BDF818305B45FD
:103ED00019D006AA002303E032F8021F594513D077
:103EE0000133A342F8D3A244D045D7D90AF108033D
:103EF0009845E0D30AF104004000102206A9FEF71D
:103F00003BFF0824E1E700230AEB0304A045C5D9E1
:103F100008EB480B4FEA8B03009303F1080B002CCE
:103F200067D1524A4FEA993909EA020202EB0B0AB9
:103F3000002F51D10AF1FF0727F0FF0728460BF0A9
:103F4000DFFF814606A8FFF7FFFA06A8FFF788FD06
:103F500006EB070A8245A1D809F101022946584615
:103F6000FFF73CF9009B03976FF00702D21A08F1A4
:103F7000040804EB840002EB0B0340449B08400060
:103F800003A90A2204960593FFF728F9FFF7B2FC6C
:103F90000028FBD02A78002A65D0354B354953409C
:103FA00015F8012F01FB03F3002AF8D132495A0812
:103FB000A1FB0212920BC2EBC232A3EB420301330C
:103FC000201D400003A902220393FFF707F9FFF722
:103FD00091FC0028FBD062E77A1E013E3E44524429
:103FE000B6FBF7F6B2FBF7F206FB07F602FB07F7A4
:103FF000A4E708F10042013A04EB8401881840006C
:104000000A2203A94FF00009CDF81490FEF7B4FE80
:1040100005980399049A0BEB800301939B4601EBEF
:10402000020A102206A95846FEF7A6FE9DF818308F
:1040300009F1010263B109F1100906AB03E013F8BD
:10404000011F013221B14A45F9D10BF1100BE8E70C
:104050000199DFF818B003310A4402EA0B0B002F74
:104060003FF468AFB8E74FF42043A9E7FCFF030033
:10407000C59D1C8193010001030001802DE9F047DB
:10408000002388B00370074688469246FFF712FE69
:10409000002850D0DFF8B090B9F8004086B2A642B0
:1040A00049D9251D6D0002E00134A64243D02846BF
:1040B00002220DF10601FEF75FFEBDF80630023563
:1040C000002BF1D004EB8400B31D1844062200231A
:1040D0000134400002A90393A9F80040FEF74CFE0A
:1040E000029B5A1C27D0039CCAF8003006EB4606F8
:1040F00002343444A400B8F1000F17D04546102D07
:1041000028BF102504A92A462046FEF735FE0DF1EA
:104110000F01002311F8012F07F8012B013372B1B1
:10412000AB42F7D3B8EB05082C44E7D1002307F8DE
:10413000013C012000E0002008B0BDE8F08701202C
:1041400008B0BDE8F08700BF3AAFFF1F70B5054665
:10415000FFF7A4FD06462868741E20420CD16B6848
:104160001C4009D10BB907E028682044FFF72CF95F
:104170006B683444A342F7D870BD00BF70B50446E5
:1041800088B0103000F008FC63680546002B56D15B
:104190000123A06063602F4904A809F053F8606808
:1041A0000AF0FCF92C490646684609F04BF86A46C5
:1041B000314604A8FDF78AF9684609F003F804A817
:1041C00009F000F804A8254909F03CF8684622499E
:1041D00009F038F86A46294604A8FDF777F96846D9
:1041E00008F0F0FF04A808F0EDFF04A81C4909F04E
:1041F00029F8A5681849684609F024F86A4629464E
:1042000004A8FDF763F9684608F0DCFF04A808F08D
:10421000D9FF04A8134909F015F8E4680E49684667
:1042200009F010F86A46214604A8FDF74FF96846E0
:1042300008F0C8FF04A808F0C5FF08B070BD01333E
:10424000A16863600AF0F6F84FF07C510AF0FAF9C1
:10425000A060A0E7603D010040400100703D01000A
:10426000783D0100903D010070B504460025002610
:1042700045608660C66029466B22103000F0B4FAB3
:1042800084F8385084F83950E6632664656484F80D
:10429000485084F8495084F84A5084F84B502046DE
:1042A00070BD00BF30B5012189B00446112007F070
:1042B00091FA0121112007F079FA12214348FCF705
:1042C000B1FD13214148FCF7DFFD414904A808F086
:1042D000B9FF04A8FDF7F2F804F1100504A808F0EE
:1042E00071FF284600F03CFD00286BD1612284F864
:1042F00039201021284600F0EFFC94F8383018449B
:1043000084F83800132204F13901284600F02CFC0F
:1043100094F8382094F83930104403F07F0384F87F
:10432000380084F839300E225821284600F0D4FC99
:1043300094F83830184484F838000A225921284665
:1043400000F0CAFC94F83830184484F838007F2212
:104350005A21284600F0C0FC94F83830184484F8FC
:10436000380080225B21284600F0B6FC94F83830F3
:10437000184484F83800482228465E2100F0ACFC3E
:1043800094F838301844C0B284F83800B8B91149EC
:10439000684608F057FF104904A808F053FF04A925
:1043A0006846FDF78DF804A808F00CFF684608F091
:1043B00009FF0021084607F00DFA09B030BD684634
:1043C0000649E6E768460649E3E700BF389CFF1F59
:1043D000A83D0100DC3A010040400100B83D010069
:1043E000D43A010070B500F1100588B004462846A3
:1043F00000F00CFB0646284600F04CFB0146304618
:104400000AF018F80646284600F088FB01463046B8
:104410000AF010F814490AF0C9F9002105460AF01B
:10442000CDFA08B905F1004525641049684608F041
:1044300009FF256C0E4904A808F004FF04AA2946C8
:104440006846FDF743F804A808F0BCFE684608F08B
:10445000B9FE206C07490AF0B1FA4FF0010300B928
:104460000346D8B208B070BD00004040D03D010006
:10447000404001000000B4420020704730B5436C5A
:104480008FB00446002B45D190F84A30EBB990F834
:104490004830002B44D0764B76491B680193019B32
:1044A000436306A808F0CEFE73490AA808F0CAFEC6
:1044B0000AA906A8FDF704F80AA808F083FE06A8D2
:1044C00008F080FE94F84A3043B394F848303BB388
:1044D000674D616B2A680292029A521AB2F57A7F8E
:1044E0001ED9664906A808F0ADFE63490AA808F07F
:1044F000A9FE0AA906A8FCF7E3FF0AA808F062FED5
:1045000006A808F05FFE2B680393039B63630223F6
:10451000636403E0022B08D0062B38D094F84830AF
:1045200084F84A3000200FB030BD514D426B2B68EB
:104530000493049B9B1AB3F5FA6F5CD2103000F021
:104540002BFA4F49E06305460AF02EFA0028E5D021
:1045500028464C490AF01EFA0028DFD04A4906A82E
:1045600008F070FE44490AA808F06CFE0AA906A8E3
:10457000FCF7A6FF0AA808F025FE06A808F022FE10
:10458000002384F8483084F84A300120CBE7384DC6
:10459000426B2B680593059B9B1AB3F5FA6F48D2C3
:1045A000103000F0F9F93649E06305460AF0FCF9ED
:1045B0000028B3D0284633490AF0ECF90028ADD0E2
:1045C000324906A808F03EFE2B490AA808F03AFE38
:1045D0000AA906A8FCF774FF0AA808F0F3FD06A8CC
:1045E00008F0F0FD00230822626484F8483084F863
:1045F0004A30012097E706234364254906A808F0BE
:1046000021FE1D490AA808F01DFE0AA906A8FCF70C
:1046100057FF0AA808F0D6FD06A808F0D3FD2B68BE
:104620000693069A94F84830626384F84A30002072
:1046300079E707234364174906A808F003FE0E49EB
:104640000AA808F0FFFD0AA906A8FCF739FF0AA886
:1046500008F0B8FD06A808F0B5FD2B680A930A9A81
:1046600094F84830626384F84A3000205BE700BF6A
:1046700064AFFF1FE03D010040400100FC3D010030
:104680006666D6C09A99A9C0583E0100683E0100EE
:104690000C3E0100303E010030B5436C012B83B06D
:1046A00007D090F8495080F84B500025284603B0B9
:1046B00030BD90F84B3090F849503BB9002DF2D006
:1046C0000D4B1B680093009B4363ECE7002DEAD081
:1046D000094B426B1B680193019B9B1AB3F57A6FE0
:1046E000E1D90446642007F07BF8002384F84930C0
:1046F00084F84B30DAE700BF64AFFF1F2DE9F041CB
:104700001D461B684364012B044627D0F3B91030C3
:1047100000F042F93149E06306460AF045F940B13C
:1047200030462F490AF036F94FF00103002853D0E4
:10473000D8B2069B187084F848002046FFF79EFE0A
:10474000079A636C10702B60BDE8F081022BF4D0E7
:104750009A1F012AF1D92B60BDE8F0814368142B20
:104760000F4616462DD0FFF709FDD4F80C801D49E1
:1047700040460AF019F968B340464FF07E510AF0FE
:1047800009F94FF0010300B90346DBB2089A84F837
:10479000493020461370FFF77FFF099B18702046B1
:1047A000FFF720FE3870237833B1A3F10103002214
:1047B000B3FA83F35B0922703370636C2B60BDE83E
:1047C000F081D0F80880C0F80C80002300224260FD
:1047D0008360CCE70346D9E70346A9E79A99E94005
:1047E00033330B41000080BFF0B50A236B24017006
:1047F0004470837019BB427001234FF4D0724FF4A0
:10480000FA6E4FF4C8771026642540F6B834037169
:10481000037343738373C3738375C37503764376DE
:104820000A210023A0F806E0028142824781068225
:10483000858244838183837703844384F0BD012987
:1048400008BF8270D8E700BF2DE9F0410C4601781F
:10485000064690461D46002950D001294AD13D4FB9
:104860008078002106F0A2FF396848F080034FF0FD
:104870000042CA624B63CB6A002BFCDA8B6B002DC3
:104880005FD06A1ED2B201320020224484464FF02B
:10489000004EC1F82CE0C1F834C0CB6A002BFCDA22
:1048A0008B6BDBB2FF2B04F8013B04BF0130C0B2BD
:1048B000A2423CD03968ECE743462A467178384634
:1048C000FCF7E2FC97F8392097F838309A4211D07B
:1048D00085B1691EC9B2013121449A4233D8FF2201
:1048E00004F8012B97F8392097F838309A4201D014
:1048F0008C42F2D100242046BDE8F0814378164F67
:104900004FF0010811465B00384687F83B3087F8C6
:104910005E8087F85D80FCF727FA41463846FCF751
:1049200029FC0028C8D044462046BDE8F081A842B2
:1049300007D00024B078012106F038FF2046BDE8FA
:10494000F0810524F6E7FA180133127E87F8383033
:10495000C6E700BF009CFF1F389CFF1F10B582B048
:1049600002232C2201A90446FFF76EFF9DF80520C3
:104970009DF8043043EA02231BB220B1052805D07C
:10498000628C01326284184602B010BD228C184637
:104990000132228402B010BD38B50446FFF7DEFFB5
:1049A0000546208A400809F0F9FD0446284609F02A
:1049B000F5FD054909F046FE0146204609F042FE94
:1049C000024909F0F3FE38BD23DB793D00007A444B
:1049D00010B582B00223222201A90446FFF734FF5A
:1049E0009DF805209DF8043043EA02231BB220B154
:1049F000052805D0628C01326284184602B010BDD1
:104A0000228C18460132228402B010BD38B505460A
:104A1000FFF7DEFFEB88F52B044614D00B48A0FB14
:104A20000330C0F3C70009F0B9FD0546204609F080
:104A3000B5FD074909F006FE294609F003FE0549C0
:104A400009F0B4FE38BD4FF08045EFE7D34D62105A
:104A500000008C4000007A4410B582B0022324226A
:104A600001A90446FFF7F0FE9DF805209DF80430EB
:104A700043EA02231BB220B1052805D0628C013223
:104A80006284184602B010BD228C1846013222847E
:104A900002B010BD38B50546FFF7DEFFEB88F52BF9
:104AA000044614D00B48A0FB0330C0F3C70009F044
:104AB00075FD0546204609F071FD074909F0C2FD64
:104AC000294609F0BFFD054909F070FE38BD4FF0D9
:104AD0008045EFE7D34D621000008C4000007A441F
:104AE00010B582B00223262201A90446FFF7ACFECE
:104AF0009DF805209DF8043043EA02231BB220B143
:104B0000052805D0628C01326284184602B010BDBF
:104B1000228C18460132228402B010BD38B50546F9
:104B2000FFF7DEFFEB88F52B044614D00B48A0FB03
:104B30000330C0F3C70009F031FD0546204609F0F7
:104B40002DFD074909F07EFD294609F07BFD054949
:104B500009F02CFE38BD4FF08045EFE7D34D6210D1
:104B600000008C4000007A442DE9F84390F8008062
:104B700007460C469146B8F1000F2DD0B8F1010F51
:104B800025D10021807806F011FE2E4B1B6849F0DC
:104B900080024FF00041D9625A63DA6A002AFCDAD7
:104BA0004FF000410022986BD9625A63DA6A002AFA
:104BB000FCDA9E6BB878F6B2012106F0F7FDFF2E05
:104BC0000CBF0527002726703846BDE8F88300276C
:104BD00026703846BDE8F8831B4D43784FF0010935
:104BE00011465B00284685F83B3085F85E9085F8D5
:104BF0005D90FCF7B9F849462846FCF7BBFA79788E
:104C00004B46071C4A46284618BF0127FCF73CFBC9
:104C100095F8383095F839108B421A46D8D040466E
:104C2000994203F101062A4483BFF3B20120167EA4
:104C3000FF268B421A46F3D10028C9D085F83830B8
:104C4000C6E700BF009CFF1F389CFF1F30B50578EA
:104C500083B00446002D35D0012D1BD000238DF8E4
:104C6000063042F210729DF80630013A0133DBB291
:104C700092B28DF80630002AF5D120460F220DF1B0
:104C80000701FFF771FF9DF80700693818BF012081
:104C900003B030BD0D48FBF789FE0D490B48FBF70B
:104CA0001DFF29460948FBF7EDFE00210748FBF7E9
:104CB0000FFF2946A07806F08DFD2946A07806F062
:104CC00075FDCBE70348FCF763F8C7E7009CFF1FBF
:104CD00000000238389CFF1F70B503780446154663
:104CE00003B3012B1CD10E468078002106F05EFD37
:104CF000194B1B684FF00042DA625E63D96A0029E3
:104D0000FCDA4FF00042996BDA625D63DA6A002ADE
:104D1000FCDAA0789B6B012106F048FD002070BDF5
:104D2000002070BD0D4C437801265B00204684F8BE
:104D30003B3084F85E6084F85D60FCF715F8294626
:104D40002046FCF711F831462046FCF713FA0030F4
:104D500018BF012070BD00BF009CFF1F389CFF1FC3
:104D600070B5044682B000258DF80650FFF76EFF3F
:104D7000A27B8DF80650012A064651D02A46102102
:104D80002046FFF7A9FF13220DF106012046FFF789
:104D9000EBFE9DF80620E37B02F07F02012B8DF8ED
:104DA00006204FF0130108BF42F08002204608BFE2
:104DB0008DF80620FFF790FF23790022012B8DF854
:104DC00006200CD011212046FFF786FF20460F2237
:104DD0000DF10701FFF7C8FE304602B070BDE38851
:104DE000F52B07D051D9B3F5FA7F63D0B3F57A7FAD
:104DF0005ED108222389D02B00F08E803AD940F270
:104E000041318B4200F0838040F27C618B4279D04B
:104E1000B3F5D07F62D042F040028DF80620D1E792
:104E2000A38A642B4BD0C82B03D0322B14BF2A4645
:104E30000322238A042B3FD0082B2AD0022B01D037
:104E400042F00402638AB3F5D07F00F08A8023D950
:104E500040F602518B4275D033D840F241318B423B
:104E600041D040F27C618B4271D142F080028DF8DA
:104E7000062084E71A2B59D0342B52D00D2BCAD1DF
:104E800042F010028DF806209CE77D2B10D1022203
:104E9000B0E742F00C02D5E71A2B5DD04BD9342B8A
:104EA00026D0D02B53D142F050028DF8062066E771
:104EB0000C229FE704229DE742F00802C2E702228B
:104EC000B7E741F604218B4217D043F212418B42DF
:104ED0003DD142F0B0028DF8062050E742F060026A
:104EE0008DF806206EE742F070028DF8062046E746
:104EF00042F030028DF8062041E742F0A0028DF822
:104F000006203CE742F080028DF806205AE742F086
:104F100070028DF8062055E742F050028DF8062009
:104F200050E742F030028DF806204BE742F02002B5
:104F30008DF8062046E70D2B09D142F010028DF8BE
:104F400006201CE742F090028DF8062017E742F099
:104F500040028DF8062012E742F020028DF806206C
:104F60000DE742F060028DF8062008E730B4002219
:104F700005250821C5640270026580F8642080F868
:104F8000652080F86620826641608160C26630BC20
:104F9000704700BF70B5A4B01F4906466846144666
:104FA00008F050F91D4904A808F04CF91C4908A85C
:104FB00008F048F91B490CA808F044F91A4910A850
:104FC00008F040F9194914A808F03CF9184918A844
:104FD00008F038F917491CA808F034F920A8164938
:104FE00008F030F9082C10DC0DEB0411304608F005
:104FF0003DF920ACADF110052046103C08F0E2F878
:10500000AC42F9D1304624B070BD0A2208213046A6
:1050100008F04AF9EDE700BF883E01008C3E010030
:10502000943E01009C3E0100A43E0100AC3E010004
:10503000B43E0100BC3E0100C43E0100F0B5044690
:1050400091B0006F00F0D6FC216F606002466846A8
:1050500000F0D2FC9DE80F00676804F10C0686E8BA
:105060000F003A46216FA760684600F0D1FC9DE82A
:105070000F0004F1540585E80F0008A80D4908F059
:10508000E1F86268214604A8FFF784FF0CA80A49EA
:1050900008F0D8F80CAA04A908A8FCF713FA0CA881
:1050A00008F090F804A808F08DF808A808F08AF82D
:1050B00011B0F0BDC83E01004040010030B589B0DC
:1050C00004460D4668460D4908F0BCF804A80C4992
:1050D00008F0B8F804A96846FCF7F2F904A808F04B
:1050E00071F8684608F06EF82946206F03F09CF9C5
:1050F0002046FFF7A3FF09B030BD00BFD43E01003A
:105100004040010010B50C460320096806F050FA33
:105110006168042006F04CFAA168052006F048FA00
:10512000E1680620BDE8104006F042BA30B589B00B
:105130000A4604460D46016F04A800F05DFC04A970
:105140002046FFF7DFFF082D1CD00F4904A808F008
:1051500079F804A8FCF7B2F904A808F033F82A4655
:1051600021466846FFF716FF084904A808F06AF8C8
:1051700004A96846FCF7A4F904A808F023F86846D7
:1051800008F020F809B030BDE83E010040400100C1
:1051900010B504460167084604F04EFF01210320C4
:1051A00006F018FB0121042006F014FB0121052064
:1051B00006F010FB0121062006F00CFB204608211A
:1051C000BDE81040FFF7B2BF10B588B004460F49E4
:1051D00004A808F037F868460D4908F033F8694626
:1051E00004A8FCF76DF9684607F0ECFF04A807F087
:1051F000E9FF20460721FFF799FFC82006F0F0FAE3
:1052000020460821FFF792FF08B010BDF83E0100CC
:105210004040010010B588B00446104904A808F0C9
:1052200011F868460E4908F00DF8694604A8FCF725
:1052300047F9684607F0C6FF04A807F0C3FFA16856
:105240002046FFF773FF4FF4FA7006F0C9FA2046C4
:105250000821FFF76BFF08B010BD00BF003F010041
:10526000404001002DE9F04181F3080882F308076E
:105270000446069D4146032083F3080606F098F98C
:105280003946042006F094F985F3080531460520D7
:1052900006F08EF92946062006F08AF9C4F81C802B
:1052A000A56227626662BDE8F08100BF10B50021EB
:1052B0000446FFF73BFF4FF4967006F091FA204644
:1052C0000121FFF733FF4FF4967006F089FA20466C
:1052D0000221FFF72BFF4FF4967006F081FA20466B
:1052E0000721FFF723FF4FF4967006F079FA204666
:1052F0000821BDE81040FFF719BF00BFF0B58BB023
:105300000446294902A807F09DFF284906A807F08E
:1053100099FF06A902A8FCF7D3F806A807F052FFE8
:1053200002A807F04FFF2248E36822696769A56970
:1053300080FB03611944DB1780FB02E6C3EB2111FC
:1053400080FB07E380FB05E016443B442844D2176A
:10535000ED17FF17C2EB2612C7EB2313C5EB201680
:10536000E16222636363A6631F2502E004F12C015E
:105370004EC9A06AD4F824C0D4F820E0E769801BA5
:105380000090C3EB0C03C2EB0E02791A2046FFF724
:1053900069FF212006F024FA013DE7D120460821CB
:1053A000FFF7C4FE0BB0F0BD143F01004040010008
:1053B00089888888F0B58BB004462C4902A807F08C
:1053C00041FF2B4906A807F03DFF06A902A8FCF7FC
:1053D00077F806A807F0F6FE02A807F0F3FE002310
:1053E0001A46194620460093FFF73CFF2148E36820
:1053F00022696769A56980FB03611944DB1780FB9B
:1054000002E6C3EB211180FB07E380FB05E01644B5
:105410003B442844D217ED17FF17C2EB2612C7EB07
:105420002313C5EB2016E16222636363A6631F2585
:1054300002E004F12C014EC9A06AD4F824C0D4F8CB
:1054400020E0E769304400906344724439442046C8
:10545000FFF708FF082006F0C3F9013DE9D16168B4
:105460002046FFF763FE0BB0F0BD00BF1C3F0100FC
:10547000404001008988888830B5234D23498DB08C
:10548000044604A807F0DEFE294608A807F0DAFE65
:1054900008A904A8FCF714F808A807F093FE04A8CC
:1054A00007F090FE04A81A4907F0CCFE6268214676
:1054B0006846FFF76FFD294608A807F0C3FE08AA53
:1054C000694604A8FBF7FEFF08A807F07BFE6846C4
:1054D00007F078FE04A807F075FE6268216F08A83F
:1054E00000F096FA08A92046FFF70CFEC82006F047
:1054F00077F96268216F08A800F07EFA08A92046B3
:10550000FFF700FE0DB030BD40400100243F010018
:10551000C83E010010B5046D8AB0092C8DE8060064
:1055200001D00AB010BD04460F4902A807F08AFE58
:1055300006A80E4907F086FE06A902A8FBF7C0FFE1
:1055400006A807F03FFE02A807F03CFE019920469E
:10555000FFF7ECFD4FF4967006F042F92046082163
:10556000FFF7E4FD0AB010BD2C3F010040400100F0
:105570002DE9F0471746026D8CB0072A0446DDF886
:105580005080DDF854909A4600F09880169BDAF827
:10559000005093E8030004F16806022D256586E8B3
:1055A000030000F09980062D36D0072D12D1A36894
:1055B0000133072BC8BF00230022A36084F86620B4
:1055C0002046FFF727FE0623012284F86620236584
:1055D000CAF800303B78002B6AD198F8003093BBB2
:1055E00099F800300BBB94F8683043BB94F86930ED
:1055F0003BB196E806002046FFF78CFF0023A36628
:1056000073600CB0BDE8F087002304F168062565DF
:1056100084F8663086E8030094F86630002B6CD07E
:105620000625012384F86630BFE72046FFF766FEB3
:10563000002389F8003094F86830002BD6D020463B
:10564000FFF734FED2E73249684607F0FBFD3149E7
:1056500004A807F0F7FD304908A807F0F3FD08AAF1
:1056600004A96846FBF72EFF08A807F0ABFD04A8C5
:1056700007F0A8FD684607F0A5FD256D264908A896
:1056800007F0E0FD08A92846FBF71EFF08A807F071
:1056900099FD236D082B35D02046FFF7CFFC20461F
:1056A000FFF788FE002388F8003084F8663097E71B
:1056B0002046FFF7E1FE00233B708EE71D68169B36
:1056C000062D93E803009FD004F16806022D25659E
:1056D00086E803007FF469AF94F866301BB10123BC
:1056E00084F8663076E72046FFF76EFD256D0123CE
:1056F000062D84F8663094D057E72046FFF78AFDE0
:10570000256D8EE7A1682046FFF7D8FCC7E700BFEC
:10571000403F0100443F010040400100C1B1026828
:1057200010B43AB3B2F90A3002EB03144BB1A14200
:105730000FD0FCB12246B2F90A3002EB0314002B61
:10574000F5D1B1F90A30E3B90360002283B110BC8E
:105750007047B1F90A4024B923465481002BF6D191
:1057600006E011EB04130AD09C1A44F30F14F4E77B
:105770004260ECE7B1F90A2032B91346E4E71C466F
:10578000EBE701EB0313DFE701EB0213DCE700BFFC
:1057900010B50021044607F055FD204610BD00BF9E
:1057A000F8B5374C3749054607F0C0FD94E80F00BF
:1057B00000264FF0FF0C04F1100705F1440EC5F868
:1057C00014C0C5F828C0C5F83CC0AE61EE612E62B9
:1057D0006E62EE622E636E63AE632E648EE80F001F
:1057E00097E80F0004F1200E05F1540C8CE80F002F
:1057F0009EE80F0005F1640C04F1300E8CE80F00F8
:105800009EE80F00403405F1740E8EE80F0094E816
:105810000F0005F1840E8EE80F0005F1A40EC5F807
:105820009460C5F89860C5F89C60C5F8A0608EE8E3
:105830000F0005F1B40E8EE80F0005F1C40E8EE8DE
:105840000F0005F1D40E8EE80F0005F1E40E8EE88E
:105850000F0005F5827405F1F40E8EE80F0084E860
:105860000F0097E80F0005F58A7484E80F00C5F86B
:105870002461C5F82861C5F82C61C5F83061F8BD10
:105880004C3F01009C3F010002230361FFF788BFEA
:10589000F0B589B00C461746FEF72CF828B9272139
:1058A000244806F0B5FF09B0F0BD2046FEF7D8FA4F
:1058B00020B3214604A8FEF72BFA059E069CB442AD
:1058C00016D3F0E7B44207D2321B35460498694636
:1058D0002044FDF751FA2C469DF8000027B1A0F1B5
:1058E0000903DBB2F52BDED807F016F8A642DAD9A9
:1058F000631C9E42E6D31D460122E7E704A80E4939
:1059000007F0A0FC2146684607F09CFC694604A805
:1059100007F070FD094907F075FD0146084807F0DA
:105920007FFB684607F04EFC04A807F04BFC09B06B
:10593000F0BD00BFA43F0100CC3F0100E03F0100EB
:105940004C9EFF1F10B590B00C46FDF7D3FF50B131
:105950002046FEF785FAD8B10CA82146FEF7D8F903
:105960000D9810B010BD1F4908A807F06BFC1E4928
:105970000CA807F067FC0CA908A8FBF7A1FD0CA870
:1059800007F020FC08A807F01DFC6FF06200E8E7B4
:10599000164904A807F056FC2146684607F052FC59
:1059A000694604A807F026FD114907F02BFD0146C2
:1059B00008A807F05BFC0C490CA807F043FC0CA9F5
:1059C00008A8FBF77DFD0CA807F0FCFB08A807F072
:1059D000F9FB684607F0F6FB04A807F0F3FB4FF06D
:1059E000FF30BEE7F43F01004040010010400100DD
:1059F000204001000069704701EB0212143210B41C
:105A000004460FCA84E80F00204610BC704700BF50
:105A100001EB0212A43210B404460FCA84E80F004E
:105A2000204610BC704700BF82B010B401AC84E8BF
:105A30000C0001AB00EB01140FCB143484E80F0011
:105A400010BC02B0704700BF82B010B401AC84E853
:105A50000C0001AB00EB01140FCBA43484E80F0061
:105A600010BC02B0704700BF2DE9F047427B90B0F8
:105A700001250024B2B1027B202A21D8DFE802F000
:105A80001B20202020202020201111202011202048
:105A90002020202020202020202020202020202006
:105AA000110044738268561C86601278457322EA9E
:105AB000E2720273E0E74FF0010010B0BDE8F0873A
:105AC000447BDCB1272A00F0D8800D4604461FD95C
:105AD0005B2A00F0A0807B2A1DD12A7A22F07F0267
