:1000000000800020BD01000069B8000021B8000098
:1000100021B8000021B8000021B8000021B800007C
:1000200021B8000021B8000021B8000069B8000024
:1000300069B8000021B8000045D4000049D500008F
:1000400069B8000069B8000069B8000069B800002C
:1000500069B8000069B8000069B8000069B800001C
:1000600069B8000069B8000069B8000069B800000C
:1000700069B8000069B8000069B8000069B80000FC
:1000800069B8000069B8000069B8000069B80000EC
:1000900069B8000069B8000069B8000069B80000DC
:1000A000CD140000D914000069B8000069B8000040
:1000B00069B8000069B8000069B8000069B80000BC
:1000C00069B8000069B8000069B8000069B80000AC
:1000D00069B8000069B8000069B8000069B800009C
:1000E00069B8000069B8000069B8000069B800008C
:1000F00069B80000ADDC000069B80000D9DD00007F
:1001000069B8000005DF000069B8000069B80000A8
:1001100069B8000069B8000069B8000069B800005B
:1001200069B8000069B8000069B8000069B800004B
:1001300069B8000069B8000069B8000069B800003B
:1001400069B8000069B8000069B8000069B800002B
:1001500069B8000069B8000069B8000069B800001B
:1001600069B8000079C0000069B8000069B80000F3
:1001700069B8000069B8000069B8000069B80000FB
:1001800069B8000069B8000069B8000069B80000EB
:1001900069B8000069B8000069B8000069B80000DB
:1001A00069B8000069B8000069B8000069B80000CB
:1001B00069B8000069B8000001D20000564B4CF24B
:1001C000205210B51A804DF628121A8000BF00BFC9
:1001D0000BF04EFB514B4FF010621A60504A9A6080
:1001E000504ADA60504A136813F4807304D14F49BF
:1001F0000B604FF4A85313604D4B1A78110703D5C9
:100200001A7842F008021A704A4B4B492A221A7097
:100210004A4A4B4B8B4204D252F8040F43F8040B6A
:10022000F8E7484B484900228B4202D243F8042B9E
:10023000FAE74649464A002352F8230041F82300D2
:1002400001336F2BF8D1434B434A802103F8011B44
:100250009342FBD1414B3D4A1A60414B8A221A70AE
:10026000A3F5805324225A70A0221A709A7992071B
:10027000FCD59A79D406FCD43A4A937903F00C035E
:10028000082B384BF9D105221A7143225A719A79F9
:100290009006FCD5334A9179324B4906FBD5324A58
:1002A0004FF0817111600521516020221A709A79F6
:1002B00002F00C020C2AFAD12C4B2D4A1A602D4B5D
:1002C0002D4A1A6000225A60072243F8042C2B4A58
:1002D000C3F80C2D62B60BF085FD144B1B68DA07D2
:1002E00005D527480BF004FC264B274A1A60274BFC
:1002F0001B785B0609D5234C234B22689A4204D114
:100300001F480BF0F5FB002323600EF0F9FF0BF004
:10031000B5FA0DF027FCFEE70E20054030800440C2
:10032000823F04000100002B10D0034014D0034092
:1003300002D0074000E00740A8A8FF1FC84D0100F9
:10034000209BFF1FA8A8FF1F94B2FF1F0096FF1F4E
:100350000000000000E400E05FE400E008ED00E0E1
:1003600000500640004006404480044004800440A1
:10037000C010050014E000E03F190100000020203B
:10038000C099315F1CE00340A5C3945A00F00740B8
:10039000FFFFFFFFFFFFFFFFFFFFFFFFFFFFFFFF6D
:1003A000FFFFFFFFFFFFFFFFFFFFFFFFFFFFFFFF5D
:1003B000FFFFFFFFFFFFFFFFFFFFFFFFFFFFFFFF4D
:1003C000FFFFFFFFFFFFFFFFFFFFFFFFFFFFFFFF3D
:1003D000FFFFFFFFFFFFFFFFFFFFFFFFFFFFFFFF2D
:1003E000FFFFFFFFFFFFFFFFFFFFFFFFFFFFFFFF1D
:1003F000FFFFFFFFFFFFFFFFFFFFFFFFFFFFFFFF0D
:10040000FFFFFFFFFFFFFFFFFFFFFFFFDEF9FFFF23
:1004100010B5054C237833B9044B13B10448AFF33E
:1004200000800123237010BDA8A8FF1F000000005A
:10043000C44D0100084B10B51BB108490848AFF383
:1004400000800848036803B910BD074B002BFBD0A0
:10045000BDE81040184700BF00000000ACA8FF1F17
:10046000C44D0100A8A8FF1F0000000010B50446FD
:1004700000F509700DF058F904F503700DF054F90A
:1004800004F5FE700DF050F904F5F6700DF04CF91E
:1004900020460DF049F9204610BD00BF014800F08C
:1004A000F1B800BFC4A8FF1F00B585B00E4968466B
:1004B0000DF07AF969460D4800F054F868460DF0E1
:1004C00033F90A4800F0DAF8212807DDFF2003227B
:1004D00007490BF04DFA05B05DF804FB034800F046
:1004E000CDF8C0B2F3E700BFEC3E0100C4A8FF1F87
:1004F0009D040000014800F063B800BFC4A8FF1FBE
:1005000010B5054C204600F00DF82046034A04497A
:10051000BDE810400EF0DEBEC4A8FF1FFC9BFF1F0D
:100520006D04000010B5002104460DF03DF904F102
:10053000100001F067F804F58C700AF0C7F904F5B3
:10054000B27004F03DFD04F5EC700AF045F804F5D6
:10055000F47003F027FE04F5097005F053F9204606
:1005600010BD00BFF0B585B0044600F5F4766846CE
:100570000DF02EF96946304603F02CFE68460DF06A
:10058000D3F804F5097504F1100001F047F9284685
:100590000AF016F804F5B27704F58C700AF0B4F995
:1005A0002946384604F01EFE04F5EC700AF018F8EF
:1005B0002A463946304603F06DFE05B0F0BD00BF57
:1005C0002DE9F04F85B0044600F2653E00F5587500
:1005D00000F25D3600F5577700F2663800F26739B1
:1005E00000F55970CDF808E02B4631463A460090A8
:1005F000CDF8048004F58C70CDF80C900AF0B0FBB7
:1006000004F55A7B2B463A46314604F110008DE83A
:10061000000301F015FA29465A4604F5EC700AF079
:10062000BBF804F5F47A2B463A460025314604F52A
:10063000B2708DE8000B04F0C5FF504684F85D539E
:1006400084F85C5384F8645384F8665304F086FCA1
:10065000D4F86033092B0ED0504604F03FF850B167
:1006600004F5097006F09AFF2946504605B0BDE82A
:10067000F04F04F035B805B0BDE8F08F00F58C7090
:100680000AF02CBA90F81831013380F8183170470D
:1006900010B4047F4160022CC26002D010BC0CF088
:1006A0006FBE836810BC18472DE9F0410468E56807
:1006B00015F0807F794D256052D1DF0740F1B3807E
:1006C000002900F0E3800D78012B18BF45F00045AC
:1006D0006563013190F8248003F1FF3C48EA082863
:1006E000BCF1000F00F0A88021B14D7811F8028B09
:1006F00045EA082845682E7ABCF1020F06F1FF365C
:100700004FEA06360CBF48F0805548F01045B6B2A7
:100710006563ACF1020C08E00AB114700132013BD0
:1007200005F47045B54216D90468E56A15F0F00F76
:10073000F6D0A46B13F0010F17464FEA242EEBD12D
:100740001AB107F802EB54703A4605F47045B54209
:10075000A3F10203E8D8BCF1000F6DD00468C3E731
:10076000DD074CD5002900F089800D78012B18BFDA
:1007700045F000456563013103F1FF3E90F824C068
:10078000BEF1000F41D029B191F801C00D780231BE
:1007900045EA0C2C45682E7ABEF1020F06F1FF36B1
:1007A0004FEA06360CBF4CF080554CF01045B6B2FF
:1007B0006563AEF1020E08E00AB114700132013B2C
:1007C00005F47045B54215D90468E56A15F0F00FD7
:1007D000F6D013F0010F1746A46BEDD122B107F844
:1007E000024B241254703A4605F47045B542A3F109
:1007F0000203E9D8BEF1000F07D00468C3E79E46A4
:1008000090F824C0BEF1000FBDD11BB30468E16AAB
:1008100011F0F00FFBD0A16BDC071DD50AB11170F0
:100820000132013BF1E790F824809C4648EA082811
:10083000BCF1000F7FF458AF63B10468E16A11F0B6
:10084000F00FFBD0DE07A16B0FD50AB1117001329A
:10085000013BF1E7BDE8F0812AB114460D1204F81E
:10086000021B55702246023BCFE72AB114460D12F7
:1008700004F8025B51702246023BDDE790F82450F9
:10088000012B18BF45F00045656375E790F82450CB
:10089000012B18BF45F0004565631BE700041F806E
:1008A000F0B4464B464A186BDC6A01791170454931
:1008B00022790A709A6A00790870002A46D059682D
:1008C000C9688A423ED82168CC8B240402F1FF30EB
:1008D00065D4C0F30E00C883C88B80B2C882196B80
:1008E0000968C88B000452D4C2F30E00C883C88BB9
:1008F000002480B212F1FF32C88218BF01229C622C
:10090000D96A2E4809680D6800F12404A54236D042
:100910000068C46814F0804F0C680D6815BF248807
:1009200024780235013544F000440D604463196BAE
:10093000254B09791970214912B1CA6A12791A70C6
:10094000F0BC7047521A9A620122D9E7586B1968B5
:1009500005681E4C0A63CC62CC682D681C4E24F0DE
:1009600080440327B542CC6083F825701FD1037FF4
:100970004260022BC2601ED0F0BC0CF001BD0168C9
:1009800090F82400CC6840F000404863CFE7CC8B5F
:10099000C2F3080004F47E442043C883A7E7CC8B4D
:1009A000C0F3080004F47E442043C88394E72B4638
:1009B0001146F0BC18478368F0BC1847009CFF1F25
:1009C0001F8000401C8000401B80004000000FFF83
:1009D0009106000090E80C00F0B41C685968256886
:1009E000164F174E29432160164D17491760D660E0
:1009F00015611160417A154A5C180A3194F8244057
:100A000053F8215002EBC40149680D60017A5C186B
:100A100003EB8101247ECD6902EBC40149680D60BE
:100A2000817A581803EB810390F83000596B02EB80
:100A3000C002F0BC53681960704700BF01401F003E
:100A4000011000380110007800001F801C490100CF
:100A50005E2911D830B44A09C57A012303FA02F499
:100A60002C4300EB8202C472D06801F01F0103FA2C
:100A700001F10143D16030BC704700BF5E2913D83B
:100A800030B44D0900EB850401F01F01E368012239
:100A900002FA01F123EA0101E16021B9C37AAA4017
:100AA00023EA0202C27230BC704700BF426803688A
:100AB00005CA10B4046822430260DA6881B942F0C2
:100AC0008072D9688A4209D0196848040BD4094851
:100AD000186042F08040DA601861196010BC7047FD
:100AE00022F08072EDE742F08041DA6010BC1961BB
:100AF000704700BF01401F0043680CCB11680B43D7
:100B0000136070474268036805CA10B40468224342
:100B10000260D868840100F0E06205D5080900F49D
:100B2000706021F470410143D8681143814209D0BB
:100B30001A68500408D40748186041F08040D96012
:100B400018611A6010BC704741F08042D96010BC37
:100B50001A61704701401F00204A43689A42F0B46E
:100B60000FD0427A1A4492F82420914207D093F889
:100B700024408C4215D093F825408C422AD0F0BCFA
:100B800070470B2907D00729EBD1154C227842F08A
:100B900001022270E5E7124C227822F00102227055
:100BA000DFE7002421461E685D6836682E420FD0BC
:100BB0000C4D05EBC202002756685A18376092F8B0
:100BC000242005EBC2050A316A6853F8213013600E
:100BD0004472D4E701242146E5E700BFF43E01005A
:100BE000B8B0FF1F1C4901001E4A43689A42F0B486
:100BF0000CD0027A1A44127E914205D01C7E8C429F
:100C000014D05C7E8C422AD0F0BC70470C2907D0EF
:100C10000829EED1144C227842F002022270E8E753
:100C2000114C227822F002022270E2E700242146D1
:100C30001E685D6836682E420FD00C4D05EBC2026F
:100C4000002756685A183760127E063105EBC20538
:100C500003EB81036A685B6813600472D4E70124C4
:100C60002146E5E7F43E0100B8B0FF1F1C49010032
:100C7000204A43689A42F0B40FD0827A1A4492F81C
:100C80003020914207D093F830408C4215D093F831
:100C900031408C422BD0F0BC70470D2907D00E2973
:100CA000EBD1154C227842F004022270E5E7124C99
:100CB000227822F004022270DFE7002421461E6819
:100CC0005D6836682E4210D00C4D05EBC20200273D
:100CD00056685A18376092F830200C3105EBC2057F
:100CE00003EB81036A685B6813608472D3E70124B5
:100CF0002146E4E7F43E0100B8B0FF1F1C490100A3
:100D00000BB1FFF7D1BC70470020704790F8392035
:100D100090F83800101A704790F8383090F8392061
:100D20009A4205D95A1C034480F83820187E70472F
:100D30004FF0FF30704700BF90F8383090F83920FE
:100D40009A4286BF1B18187E4FF0FF30704700BFD5
:100D5000704700BF38B50546B0F85E0090B195F811
:100D60005D301446C3F1210294420CD805F13B00DA
:100D7000184422460AF02CFC95F85D30234485F88F
:100D80005D30204638BD012014462871EEE700BFD3
:100D9000B0F85E306BB190F85D30202B07D8C218E8
:100DA000013380F85D30012082F83B107047012349
:100DB00003710020704700BF0023426980F838307B
:100DC00080F8393080F85C3080F85D3080F85E3033
:100DD00080F85F3006CA30B40D68046943662A4360
:100DE00083660A60A370426990F8613016491468FE
:100DF00013441D7A5B7B01EBC5051B026D6803F490
:100E0000E06343F064032B6090F8623013449D7CF0
:100E1000DB7D01EBC5011B02496803F4E06343F08D
:100E200064030B6021685368194205D003692822C6
:100E30005A70036903229A71036920225A71036967
:100E400080229A7030BC70471C49010070B490F841
:100E5000613045692B441E7A8E420AD0EC1D002376
:100E600014F8012FFF2A04D08A4204D00133052B45
:100E7000F6D170BC704795E806000968114211D0A0
:100E80000A4901EBC6061D447268002414602C7ADE
:100E90006A7B01EBC401120202F4E062496842F08D
:100EA00064020A6080F86130E3E700BF1C4901007A
:100EB00070B490F8623045692B449E7C8E420BD012
:100EC00005F11104002314F8012FFF2A04D08A42EF
:100ED00004D00133052BF6D170BC704795E80600AD
:100EE0000968114211D00A4901EBC6061D44726817
:100EF00000241460AC7CEA7D01EBC401120202F410
:100F0000E062496842F064020A6080F86230E3E718
:100F10001C49010010B50269D378DBB2D90604463A
:100F20003DD510215806D17038D503F0040303F0E5
:100F3000FF02002B51D03D49626E00230B7084F8F4
:100F40005D30002A5BD0904794F85D30002B56D07E
:100F50002369D0229A70236994F83B201A7123697F
:100F6000012284F85C200222DA7010BD304B84F834
:100F700060009C424AD02F4B9C4252D094F83910CA
:100F800013791F29DBB207D82848007820B16018F0
:100F9000013184F8391003760223D37010BD59064D
:100FA000C3D4917801F0100101F0FF000029DDD0D9
:100FB00013F001031ED194F85C1094F85D00884290
:100FC00081BF4B1C091984F85C3091F83B301371D8
:100FD0002369D0229A702269DEE7236984F83920D8
:100FE000C0229A702369114A1979012111700222D5
:100FF000DA7010BDC023937022691379CCE7012207
:10100000002384F85D2084F83B30A1E7626994F8FE
:101010006130094913440322187A0AF0A9FC2269B5
:10102000ACE7626994F861300449F3E734ACFF1F20
:10103000389CFF1FA49CFF1F9D100000A9100000FA
:101040000369DB7803F0200373B190F8603001335B
:10105000DBB2012B80F860301AD9426990F8613018
:101060001344187A0AF000BD70B5426903F0FF0519
:1010700090F8613013440446187A0AF0F5FCA36E28
:101080005BB184F8385094F83900BDE870401847D7
:1010900090F85F30002BE0D0704770BD0148FFF73B
:1010A000CFBF00BF389CFF1F0148FFF7C9BF00BF7B
:1010B000A49CFF1F2DE9F047364FDFF8DC903B681A
:1010C000026982B006460093DDF800800021782591
:1010D000D3789B065AD53B680193019BC8EB030369
:1010E0000F2BF5D949B1102BF2D000209070336945
:1010F00080229A7002B0BDE8F087726996F861307C
:1011000013440521187A0AF017FE726996F86130C7
:101110001344012193F812A050460AF00DFE092451
:10112000002150460AF0F4FD2B46013BFDD1012180
:1011300050460AF0EDFD2B46013BFDD1013CEFD1BD
:10114000706996F861100144F0220C7A4B7B09EB30
:10115000C4011B02496803F4E06343F064030B60BD
:1011600096F862300344997CDB7D09EBC1011B02D8
:10117000496803F4E06343F064030B60013AFDD176
:101180003269D3789B064FF00101A4D4012002B04C
:10119000BDE8F08764AFFF1F1C490100F0B503698B
:1011A0001222DA700269937803F0200385B00446B6
:1011B0000D46002B5ED0B42393703C4922690B6826
:1011C0000093009E05E00B680193019B9B1B042B81
:1011D00042D8D37803F0200303F0FF00002BF2D0B5
:1011E00094F85D30002B31D04FF0000E4FF0020C20
:1011F00004EB0E0393F83B3013710B680393039FCA
:10120000206907E09B060DD50B680293029BDB1B50
:10121000052B28D8C378DBB203F0020202F0FF06E8
:10122000002AEFD080F803C02669F378DBB2DF062E
:1012300032462DD49F062BD5DB0731D40EF1010E9B
:1012400094F85D305FFA8EFE7345D1D800201DBB47
:10125000002384F85E3004E09070236980229A7045
:10126000042005B0F0BD86702369802204209A70A6
:1012700005B0F0BD03F0FF06FFF71CFF10B9042016
:1012800005B0F0BD236984F85F60B0229A7094E7DE
:101290008023B3700420DAE726698023B370D7E790
:1012A000BEF1000F0CBF02200320F6E764AFFF1F62
:1012B0002DE9F04106690025122780F8385080F8A2
:1012C0003950F770D0F810C09CF802E00EF0200EF4
:1012D00088B00446884615461E46BEF1000F49D028
:1012E000B4238CF80230784B21691A680092DDF83B
:1012F00000E006E01A6801920198CEEB0000042895
:1013000030D8C87800F0200000F0FF070028F1D0A6
:101310004FEA480242F00102D2B20A711A68029200
:10132000DDF808E0206906E01A6803920399CEEB25
:10133000010105292AD8C17801F0020101F0FF0757
:101340000029F1D04FF0020C80F803C02269D17857
:1013500011F0110722D12DBB002E0CBFA02380233A
:10136000937003E08F70236980229A70384608B02A
:10137000BDE8F0810EF0FF07FFF79CFE0028F5D0D6
:10138000236984F85F70B0229A70ACE78770236994
:10139000802238469A7008B0BDE8F08180239370AF
:1013A0000027E3E7012D75D0A021917021690A790A
:1013B000BE4667464FF0A80C1A680492049805E0F0
:1013C0001A680592059A121A052A4AD8CA7802F0B4
:1013D000020202F0FF08002AF2D0CF702169CA7819
:1013E000D2B212F0100F08465AD1920658D5013DDC
:1013F000EDB2012D49D0BEF11F0F3BD90A79012D65
:10140000DAD11A680692069D05E01A680792079AD3
:10141000521B052A46D8C27802F0020202F0FF01F0
:10142000002AF2D00223C3702269D378DBB2D90636
:101430003AD49B0634D5B023BEF11F0F93703FD82A
:10144000226904EB0E0312791A760EF1010E5FFA8F
:101450008EFE16B1236980229A7084F839E07746AF
:1014600084E781F80280236980229A70774684F8A5
:1014700039E07BE704EB0E0291F8048082F81880D3
:101480000EF1010E5FFA8EFEB9E781F802C0216904
:101490000846B0E7A82191702069BE460279B0E7FE
:1014A000774663E78170DEE710217823D170013B36
:1014B000FDD12269937803F0F7037746937055E7DF
:1014C00023691B79C5E700BF64AFFF1F0148FFF721
:1014D00021BD00BF389CFF1F0148FFF71BBD00BFA7
:1014E000A49CFF1F10B50121044610200AF010FC37
:1014F00032200AF027FC4FF48033C4F8A8307D2056
:101500000AF020FC0123002184F80131C4F8A8105E
:101510001020BDE810400AF0FBBB00BF00B500235F
:1015200089B0C0F804310A4968460CF03DF904A8B6
:1015300008490CF039F904A9684602F029FE04A80C
:101540000CF0F2F868460CF0EFF809B05DF804FB17
:10155000DC3F01003446010030B590F854308DB0C6
:10156000044643BB0A2101200CF0C2F81449054689
:1015700004A80CF019F90A22294608A80CF046F92B
:1015800008A904A80CF0E8F90E490CF0EDF90146A1
:1015900068460CF01DF908A80CF0C6F804A80CF079
:1015A000C3F8009904F1580000F0A2FD68460CF061
:1015B000BBF80DB030BD243000F07EFDD2E700BF97
:1015C000E83F01003840010000B5012389B0C0F8B0
:1015D00004310A4968460CF0E7F804A808490CF001
:1015E000E3F804A9684602F0D3FD04A80CF09CF8C7
:1015F00068460CF099F809B05DF804FBF03F010073
:10160000344601002DE9F0417E4D7F4E2A68066088
:1016100000230446437203610372C36011460AB992
:10162000D3E019464B69002BFBD14C617748206011
:101630004FF480416361A380E380A37284F82D306E
:10164000636384F82C302363216204F1240000E0FA
:101650001A465369002BFBD150610027DFF8B8818F
:10166000A7632785678584F82E70E763276467641E
:10167000A4F84870C4F8248000F018FD2A6884F8A3
:101680006170A76684F860706766A66504F158000B
:101690005C4B0AB9AEE01A465369002BFBD150618E
:1016A0000027C4F85880E766A4F85C70A4F85E7060
:1016B00084F8627027676767A767A4F87C7000F0FA
:1016C000F5FC042004F1B40284F895003B4684F84C
:1016D0009470C4F89870C4F88C603946C4F89C20A3
:1016E00004F18C0001E0D4F89C2042F8231094F817
:1016F000952001339A42F6DC2A68424B0AB97BE016
:101700001A465369002BFBD1506100214FF4803001
:101710003F4FC4F8C46004F1DC020126C4F8A40001
:10172000C4F8A800C4F8AC00C4F8B0000B46C4F874
:10173000A010A4F89010A4F8921084F8961084F8E1
:10174000CC10C4F8D010C4F88C70C4F8D42084F83D
:10175000CD6004F1C40001E0D4F8D42042F8231095
:1017600094F8CD2001339A42F6DC2A68254B0AB959
:1017700044E01A465369002BFBD150610025254BEC
:10178000C4F8D850A4F8C850A4F8CA5084F8CE5071
:10179000C4F8C43000F02CFBC4F8E050C4F8E450A6
:1017A000C4F8E850C4F8EC50C4F8F050C4F8F45051
:1017B000C4F8F850A4F8FC5084F8005184F80151A2
:1017C000C4F804512046BDE8F081104928604FF468
:1017D000804342618280C2808272466280F82D20FE
:1017E000426380F82C2002630160036224303CB91C
:1017F000286032E7186053E7186086E71860BDE795
:10180000224626E764B0FF1FD83F01008442010052
:10181000604201006C42010078420100F0B50E21E7
:1018200089B005464548FFF723FA0B214348FFF7E7
:1018300093F90C214148FFF7D7F9012110200AF054
:101840007BFA002110200AF063FA3D4904A80BF04E
:10185000ABFF04A802F09AFC04A80BF065FF0A2075
:1018600002F034F9002865D0364968460BF09CFF39
:10187000354904A80BF098FF04A9684602F088FCDB
:1018800004A80BF051FF68460BF04EFF14200CF03B
:1018900071F9002405F18C070123064643720560A7
:1018A00047600472C46004740BF05EFCC5F8E0602D
:1018B00014200CF05FF905F124030646036047602D
:1018C00004724472C46004740BF04EFCC5F8E4600A
:1018D00014200CF04FF905F158020223026006466D
:1018E000437247600472C46004740BF03DFCC5F899
:1018F000E86014200CF03EF905F1C403064643608D
:10190000076004724472C46004740BF02DFCC5F8C7
:10191000EC6010210D480BF031FB0D4AC5F8A840D2
:101920004FF48033C5F8A430C5F8AC302B62EA61BF
:1019300009B0F0BD6846074998E700BF009CFF1F4B
:10194000F83F01001C400100344601000082FF1FE7
:10195000887BCD0514400100D0F80431022B10B56E
:1019600003D0063B022B00D910BD0446002380F8AB
:1019700001310649243000F0BBFBD4F80431082BB8
:101980001CBF0323C4F8043110BD00BF2040010078
:10199000D0F80431012B00D0704790F80031002BB3
:1019A000FAD190F88830002BF6D130B590F8543049
:1019B0008DB0044643BB082101200BF099FE144969
:1019C000054608A80BF0F0FE0A22294604A80BF0F1
:1019D0001DFF04A908A80BF0BFFF0E490BF0C4FFC0
:1019E000014668460BF0F4FE04A80BF09DFE08A823
:1019F0000BF09AFE009904F1580000F079FB68465C
:101A00000BF092FE0DB030BD243000F055FBD2E754
:101A10004040010038400100D0F80421092A03D9D0
:101A2000012110200AF074B940F2C123D34003F021
:101A3000010383F00101002BF2D010200AF068B9F5
:101A40002DE9F84390461278089E099D1F461B68B1
:101A5000C0F804310446894652B3012B24D02046F5
:101A6000FFF7DAFFD4F80431062B48D099F800309C
:101A70001BB198F80030002B49D03378002B3AD1B5
:101A80002B7843B3D4F80431012B44D0032B26D058
:101A9000082B24D0042B04D194F85430002B43D0CD
:101AA00004233B60BDE8F883FFF756FDD4F804310A
:101AB000012BD4D194F8543003F0FF02002BCED187
:101AC00094F800310BB184F800211B4904F1240083
:101AD00000F00EFBC3E7D4F80431032BD8D194F8FF
:101AE0005420002ADDD12046FFF76EFDD4F80431E2
:101AF000042BD1D0D5E72046FFF72EFFC0E794F89E
:101B00000131002BB2D12046FFF7ECFCAEE72046B6
:101B1000FFF73EFFB1E7094904F1240000F0E8FABD
:101B20000423C4F80431B7E72046FFF7F7FCD4F8E4
:101B300004313B60BDE8F8834840010030400100BB
:101B400010B504460BF002FC204610BD024A0349C2
:101B500003480DF0BFBB00BFFC9BFF1F411B0000F3
:101B600038ACFF1F38B5074D074C08482A462146B8
:101B70000DF0B0FB2A4621460548BDE838400DF07F
:101B8000A9BB00BFFC9BFF1F411B000040ACFF1F17
:101B900048ACFF1F024A034903480DF09BBB00BF3E
:101BA000FC9BFF1F411B000050ACFF1F024A034972
:101BB00003480DF08FBB00BFFC9BFF1F411B0000C3
:101BC00058ACFF1F024A034903480DF083BB00BF16
:101BD000FC9BFF1F411B000060ACFF1F024A034932
:101BE00003480DF077BB00BFFC9BFF1F411B0000AB
:101BF00068ACFF1F024A034903480DF06BBB00BFEE
:101C0000FC9BFF1F411B000070ACFF1F024A0349F1
:101C100003480DF05FBB00BFFC9BFF1F411B000092
:101C200078ACFF1F2DE9F8434FF00008064600F19D
:101C30001805474641463046002F4FD00BF066FA54
:101C4000F0B12C68B4F5803F07F1040100F1040EF7
:101C500007F5827C27D05EF8042B34FB02F334FBBB
:101C600012F903F30F0209F30F03C2EA03430A68F0
:101C700093FA12F341F8043B8C45ECD80BF002FACE
:101C800008F10108B8F1040F05F10405D2D1002FC5
:101C900040D03046394600220BF01EFA3846BDE8E7
:101CA000F8430BF0EFB907F10C0100F10C0451F807
:101CB000083C54F8082C93FA12F341F8083C54F805
:101CC000042C51F8043C93FA12F38C4541F8043C7F
:101CD00004F1080401F10801E9D8CFE70BF022FA7A
:101CE00007460028CCD02868B0F5803FC8D0391D01
:101CF00007F582740B6830FB03F230FB13F302F339
:101D00000F0203F30F03C2EA034341F8043B8C4282
:101D1000F0D8B5E7BDE8F883024A034903480DF05F
:101D2000D9BA00BFFC9BFF1F411B000080ACFF1F06
:101D300010B500210BF0EAF970B172B60A4B1A68BF
:101D400072B10A490C6844B11C60086062B6104662
:101D5000BDE810400BF096B910BD086062B610BD2A
:101D6000186062B610BD00BF98ACFF1F88ACFF1FA3
:101D700038B5184B18491A68184C12681B79184D59
:101D80000B70A242286836BF2246A4F5807202F585
:101D90008074C0B1011D31F9023B03F500431B11F2
:101DA00022F8023B9442F6D80BF06CF90D4B00225E
:101DB000196829601A600C4B1B781BB10B4B4FF054
:101DC00080421A6038BD4FF4006322F8023B94420F
:101DD000FBD8F0E78CACFF1F1F8000404093FF1F33
:101DE00098ACFF1F88ACFF1F94ACFF1F08E200E017
:101DF000F8B501214248434E0BF044FA424A4349A8
:101E00001368802043F4805313600024087040F668
:101E1000080534800120083409F094FFA3B2AB42D6
:101E20001CB2F6D13A4B1B685B0208D5394B1A68D5
:101E300048F6A273134048F6A27293424FD0344939
:101E4000344A0B68344F354D3548364C43F48003E3
:101E50000B604FF0010E40F22F3648F6A37140F2AE
:101E60000113C7F800E02E60116014600360244C79
:101E70002D4A236823491A6002259D802279196121
:101E800002F1804202F50432284EDE6040F2011178
:101E9000D9804FF4807000210627B026D8829D603B
:101EA000D88399829F839961117016700BF090F915
:101EB00022791F4B1F4E187053119B0003F1604392
:101EC0001D4C327003F5614302F1100002F01F0750
:101ED00001211A4D44F82050B9401960F8BD0F4B4C
:101EE0001A6840F22F339A42A9D10B4B1B68012B81
:101EF000A5D10B4B1A6840F201139A429FD1B6E765
:101F00008CACFF1F00C00C402C80044021C00C4052
:101F10003C800440006003400C60034004600340C8
:101F200010600340A28F01004092FF1F00FEFFFFE0
:101F300094ACFF1F1B8000400096FF1F711D000026
:101F4000024A034903480DF0C5B900BFFC9BFF1FBF
:101F5000411B00008CACFF1F024A034903480DF0EF
:101F6000B9B900BFFC9BFF1F411B00009CACFF1FC9
:101F7000024A034903480DF0ADB900BFFC9BFF1FA7
:101F8000411B0000A4ACFF1F024A034903480DF0A7
:101F9000A1B900BFFC9BFF1F411B0000ACACFF1FA1
:101FA000024A034903480DF095B900BFFC9BFF1F8F
:101FB000411B0000B4ACFF1F024A034903480DF067
:101FC00089B900BFFC9BFF1F411B0000BCACFF1F79
:101FD000024A034903480DF07DB900BFFC9BFF1F77
:101FE000411B0000C4ACFF1F90F8303003B97047AC
:101FF00070B505460AF0F2FF0646002850D0EB699E
:10200000296A8B4227D901F58072934238D2A86998
:102010005C1A22460844311D00F0B6FE2B6AEA6ABB
:102020001919630822447F2B2962EA6209D806EB5A
:102030004303023306F58171002223F8022F8B42FD
:10204000FBD12846314600220BF046F83046BDE869
:1020500070400BF017B8134A13885BB95E21124821
:10206000FEF70CFD002385F830303046BDE87040A7
:102070000BF008B8013B9BB21380002BF2D1EDE7C7
:10208000A8694FF480720844311D00F07DFE2A6A71
:10209000EB6A02F5807203F580732A62EB62D0E787
:1020A00070BD00BFCCACFF1F009CFF1F002380F859
:1020B00030308362C362704772B690F8303053B1EB
:1020C000002380F8303062B6074A13882BB95E21AE
:1020D0000648FEF7D3BC62B67047013B9BB2138043
:1020E000002BF4D0704700BFCCACFF1F009CFF1F3B
:1020F00070B51B4E84B004460D46FFF7DDFF5E2130
:102100001848FEF7A5FC338829460133684633801A
:1021100001F006FE6B4607CBA061A0691B88A38473
:10212000E161226240B10022E369E2620120A36220
:1021300084F8300004B070BD338833B909485E219B
:10214000FEF79CFC002004B070BD013B9BB23380C5
:10215000002BEFD103485E21FEF790FC0020F2E750
:10216000CCACFF1F009CFF1F036A2DE9F04780469F
:102170004BB9D8F81830D8F81C2003EBC213C8F8B4
:102180001830BDE8F0870AF029FF06460028F0D095
:10219000D8F81890D8F81C70D8F820C0134D4946CC
:1021A000841C00F5817E0B0E5A1C35F9130035F99D
:1021B0001220C1F30F2ACAF5803300FB03F30AFB98
:1021C000023353FB0CF324F8023FA6453944EAD10D
:1021D00009EBC7174046C8F81870314600220AF0CC
:1021E0007BFF3046BDE8F0470AF04CBF5440010089
:1021F000704700BF064B074ADA620221002259608D
:102200009A7083F8242083F8302083F832207047B6
:10221000D0ACFF1F9042010010B50121007809F0F9
:1022200077FD0E4A137893B10D49CB7A00241846F6
:10223000147063B1DC0703D50A4A88691060184638
:102240009A0705D4430702D5074B0A6A1A6010BDE6
:10225000064BCA69C87A1A60F4E700BF28ADFF1FB1
:10226000009CFF1F00E100E008E100E004E100E065
:102270001E4B1A781AB10078002109F049BD70B4DC
:102280001B4A1C49D47A096801251D70ECB172B64D
:10229000D37ADE071C4606D5174DD4682E68344025
:1022A00094612C601C469D0706D5144D13692E6859
:1022B000D47A3340D3612B60630705D5104C536942
:1022C00025682B401362236062B61368DA688A427D
:1022D00007D00C4C1C600C4AD96041F080441C6152
:1022E0001A600078002170BC09F012BD28ADFF1FF4
:1022F000009CFF1F24ADFF1F80E100E084E100E0AF
:1023000088E100E001403F0000003F80F0B4124847
:10231000124A036882B016460093009F4FF00045B2
:10232000FF24136843F480631360D5625463D36A57
:10233000002BFCDAB36BDBB2FF2B09D003680193EF
:10234000019BDB1B8B42ECD3002002B0F0BC70473A
:10235000012002B0F0BC704764AFFF1F00C0024014
:10236000F8B50D464FF4967116460446FFF7CEFFBA
:10237000284B1A684FF0004042F4806245F040015B
:102380001A60D8621A465963D36A002BFCDA2149D5
:1023900018204FF000470A6826FA00F342F48062E2
:1023A000DBB20A60CF624B63CB6A002BFCDA0838E1
:1023B00010F1080FEFD155B3082D0CBF8721FF2175
:1023C000144B1A684FF0004042F480621A60D862E1
:1023D0001A465963D36A002BFCDA0E4A00271646C8
:1023E0004FF00045FF21136843F480631360D5620A
:1023F0005163D36A002BFCDAB36BD8B21B06607052
:1024000000D4F8BD0137B7F5807FECD1F8BD952138
:10241000D6E700BF00C00240F0B41549154A0B686A
:1024200082B016460093009F4FF00045FF241368CA
:1024300043F480631360D5625463D36A002BFCDAE3
:10244000B36BDBB2FF2B43700AD10B680193019B86
:10245000DB1BB3F5967FEAD9002002B0F0BC7047D1
:10246000A3F1FE00B0FA80F0400902B0F0BC704762
:1024700064AFFF1F00C00240F8B58378032B0E46FF
:10248000044618BF4E021546FFF7F2FE32461121F0
:102490002046FFF765FF18B92046FFF7BDFF20B9BA
:1024A0002046FFF7B9FE0020F8BD204B2049214A05
:1024B0001A608E4659631A4659631E46596305F5DC
:1024C000FD70A91C05F5FE77D36A13F0F00FFBD061
:1024D000C6F834E0B36B01F8013C1B1201F8023C72
:1024E00002318F42F0D105F50075A8420DD20F4A96
:1024F0001646D36A13F0F00FFBD0B36B191200F835
:10250000021BA84200F8013CF3D3084B0949084AD2
:10251000196019465A63CB6A044A13F0F00FFAD0D7
:102520002046936BFFF778FE0120F8BD00C0024003
:10253000FFFF009000041F80F0B4314E33684FF06D
:10254000004743F4806333603D46F762344671636D
:102550003346511C02F20127E26A002AFCDA1A68AB
:1025600011F8016C42F480621A60DD625E63E26A17
:10257000002AFCDA1A6811F8026B42F480628F427A
:102580001A60DD625E63E7D11D49CA6A1C4B002AEE
:10259000FBDA1A684FF0004542F48062FF241A60AB
:1025A0001946DD625C63CB6A154A002BFBDA1368BF
:1025B0004FF0004543F48063FF2413601146D56259
:1025C0005463CB6A0E4A002BFBDA13684FF00045C8
:1025D00043F48063FF2413601146D5625463CB6AD1
:1025E000074A002BFBDA936BDBB203F01F02437048
:1025F000A2F10500B0FA80F04009F0BC704700BFBE
:1026000000C0024070B5044671B18378032B0D46BB
:1026100018BF4D021646FFF72BFE2A46182120460A
:10262000FFF79EFE054620B12046FFF7F5FD00208E
:1026300070BD3246FE212046FFF77EFF0028F3D012
:102640004FF416712046FFF761FE0028ECD02A46B1
:102650000D212046FFF784FE0028E5D10B4B1A68B8
:102660004FF0004542F48062FF201A601946DD6297
:102670005863CB6A054A002BFBDA936B13F0FF0F0C
:10268000D2D12046FFF7C8FD012070BD00C0024036
:10269000014B024A1A60704724ADFF1F0000023848
:1026A00038B590F90530002B03DBBDE8384000F069
:1026B0006DB904460121006900F092F9F8B1257D59
:1026C000104B13EB45151AD0A3790F4A012B9CBF71
:1026D000A369EB61E36912686B831B0CAB8232B1B7
:1026E00005F1160105F1180090472B8B6B82637979
:1026F00003F07F036371BDE8384000F047B9002064
:1027000038BD00BF38ADFF1F2CADFF1F10B500F165
:10271000080204460121006A00F000FA50B1E369A2
:102720003BB96379A268E26163F07F0363710120C2
:1027300010BD012010BD00BFF8B5837913B18269C7
:102740008A4201D20020F8BD022B0F4605461AD05E
:1027500007B32B6AE9681C7C4A1E04F109037C1E3E
:10276000DA40DC40A24211D9EB69AB6005F1080602
:1027700006E0A968286A00F099F9013C0028E1D038
:102780003246002CF5D1EF600120F8BD0029EBD0D6
:10279000A41AEBE7AF60EF600120F8BD2DE9F04F20
:1027A0008B46817985B001290746019205D0012326
:1027B0003B71002005B0BDE8F08F42799107F6D556
:1027C000530708D5FC68B9698C4200F0A880FFF770
:1027D000B3FF0028EBD0019BFC68002B49D0DFF849
:1027E0008C91DFF88CA1DDF80480386A0679013E0F
:1027F00006EA542616F0FF06C4F3080442D1002C62
:1028000040D1B96800296FD1FA69002A7ED0BA6038
:10281000C4F50075ADB245453AD9057C4169023A27
:10282000AA400E4416441FFA88F51CB9F868BA6924
:1028300090424CD23046012100F0D2F80028B6D0A8
:102840004C4404EB050E74450DD00BF1FF31621EB4
:102850000EF1FF3611F8010F02F8010F9642F9D17F
:10286000C4EB0E04A344FC68B8EB05082C44FC60E0
:10287000BBD1BB69A34257D27A79BC6142F08002D6
:102880007A715AE0C4F50075ADB24545BA68C4D84E
:10289000017C4069023A8A400644B5F5007F16443F
:1028A000C3D1DAF80020964204BF4FF0FF32CAF8D5
:1028B00000202A4A314610685A46FFF7A3FE002836
:1028C0003FF475AF0BF5007B4FF40075CBE700F0DC
:1028D0005DF800283FF46BAF2149CAF800600A7820
:1028E00042F001020A70ABE703AA00F0DFF800280B
:1028F0003FF460AF386A1B4B90F82050039A4FF6B4
:10290000F871102D18BF19468A4280D33846FFF758
:10291000FDFE00283FF44BAF386ABA6878E7019BA8
:10292000002B7FF45CAF08E00F4B7A791B6823B172
:10293000019B13B142F080027A71120709D5BB796D
:10294000002B3FF434AF3846FFF7AAFE00283FF4CF
:102950002EAF019805B0BDE8F08F00BF34ADFF1F6A
:1029600038AFFF1FF8FFFF0F2CADFF1F38ADFF1F63
:10297000109DFF1F00B583B002AB012203F8011DBB
:102980001946FFF70BFF03B05DF804FB70B50F4C61
:1029900023780BB9012070BD0D4B0E4D19682868C6
:1029A0000D4AFFF72FFE70B10C4E316819B90023A4
:1029B0002370012070BD2868074AFFF723FE10B17D
:1029C00000233360F3E7002070BD00BF38AFFF1F66
:1029D000109DFF1F34ADFF1F38ADFF1F30ADFF1F2F
:1029E00070B50D4D2B6883420E460ED00446FFF79E
:1029F000CDFF08B9002070BD084B094A1868214670
:102A0000FFF73AFD0028F5D02C60064B19783143CA
:102A10001970012070BD00BF109DFF1F34ADFF1F56
:102A200038ADFF1F38AFFF1FF8B590F82030C469EC
:102A3000102B1A4B05460E4617461B6816D004EBA2
:102A4000D1149C4216D106F07F06154A42F8267032
:102A50001449287E0A78012842F001020A7018D928
:102A6000A968114A0B4413600120F8BD04EB11243E
:102A70009C4208D000212046FFF7B2FF50B195F8E4
:102A80002030102B07D1F6B2054A234622F81670E3
:102A9000DEE70120F8BD2346D5E700BF109DFF1FEC
:102AA00038ADFF1F38AFFF1F30ADFF1FC3680133C4
:102AB0008B4218D370B590F82030102B154B04467C
:102AC00016460D46C0691B680FD000EBD110984226
:102AD0000FD105F07F01104B53F8213023F07043E4
:102AE0003360012070BD0020704700EB1120984238
:102AF00007D00021FFF774FF50B194F82030102B5D
:102B0000E7D1E9B2044B33F811303360012070BDD6
:102B1000002070BD109DFF1F38ADFF1F2DE9F04F45
:102B2000176883B06FB301374FF0000AC36803F131
:102B3000010813B38B46064691463C46002505E046
:102B40001C461F46F3680135AB4216D9A04538BF75
:102B50000224214601AA304638BF2746FFF7A6FFC8
:102B6000631CD91B48B1019A002AE9D18B4510D0CA
:102B70001C46F3680135AB42E8D8002003B0BDE83D
:102B8000F08FA1F1010ABAFA8AFA07684FEA5A1AD5
:102B9000CCE7012CF1D9F36801339C42EDD86FF0FA
:102BA000704221463046FFF73FFF0028E5D0A7429C
:102BB00014D2013C012CE0D9F36801339C42DCD8EB
:102BC000621C21463046FFF72FFF0028D5D0A742D0
:102BD00004F1FF3402D0012CEED1CEE7D9F8001079
:102BE00059B10129C9D9F36801339942C5D83A4688
:102BF0003046FFF719FF0028BFD0C9F80070BAF1BE
:102C0000000F01D0013737600120B7E7524ADFF8E3
:102C100068C12DE9F04F514D514CDFF86081DFF86C
:102C200060B1DFF860E11646D17A09B372B6F37A83
:102C3000D807194607D5DBF80000F1680140B161FB
:102C4000CBF8001019469B0707D5DCF80000136984
:102C5000D17A0340D361CCF800304F0706D5D8F8BD
:102C6000001053690B401362C8F8003062B6D17A85
:102C70001368D868B0F1384F0AD04FF078404FF061
:102C80003849C3F800E0C3F80C9018613548186063
:102C90002078D5F800A04FF0010980078AF800914C
:102CA0004FF000492DD57020C3F82C905863D86A96
:102CB0000028FCDA4FF0004900209F6BC3F82C90ED
:102CC0005863D86A0028FCDA01209B6B8AF88000E0
:102CD00081B1CF0703D5244F9069D17A3860880736
:102CE00003D5224FD069D17A3860490702D52048F0
:102CF000116A01601B0697D51E4B00221A70BDE8B1
:102D0000F08F0520C3F82C905863D86A0028FCDAAD
:102D10004FF0004900209F6BC3F82C905863D86A8D
:102D20000028FCDA01209B6B8AF8800081B1CF0774
:102D300003D50D4F9069D17A3860880703D50B4FC2
:102D4000D069D17A3860490702D50948116A016013
:102D5000DB073FF569AFCFE7009CFF1F40AFFF1FC8
:102D60003CAFFF1F00003F8000E100E004E100E015
:102D700008E100E03DAFFF1F84E100E088E100E0F2
:102D800080E100E001403F002DE9F04F0E4685B0A4
:102D900000218146304615460CF08CFE984B994A2E
:102DA000DB7A11780291002B25D072B6944BDB7A36
:102DB000DC07194608D5944891490468C968214040
:102DC0008F4CA16101601946980709D58F488C4B3B
:102DD00004681B698A492340894CC97AE36103600E
:102DE0004B0707D58A49864B08685B6903408448CE
:102DF00003620B6062B6824B1B68D968B1F1384F31
:102E000009D0844818604FF03840D86082494FF0AC
:102E10007840186119608148DFF804B201780391A5
:102E200000297ED1DBF80020029800F0080A00F0AB
:102E300001015FFA8AFA01914FF0010809EB0507D9
:102E4000BAF1000F40D1544682F80081019A002A5D
:102E50004DD04FF000410322D9625A63DA6A002A4A
:102E6000FCDA4FEA194242F080524FF00041986B71
:102E7000D9625A63DA6A002AFCDA1FFA89F949F042
:102E800080524FF00041986BD9625A63DA6A002A87
:102E9000FCDADFF86C919B6B324631462B46484694
:102EA000FDF72EFFDBF800202E4482F88080012100
:102EB000002C00F0B780524B2546B9461B6809EB41
:102EC0000507BAF1000FBED07C1E84EA090414F095
:102ED0007E44B9D029F07E4182F80081019AC1F187
:102EE00000716C1A09EB01070D46002AB1D1C9F334
:102EF000074242F0805242F440724FF00041D962E2
:102F00005A63DA6A002AFCDA1FFA89F949F080521A
:102F10004FF00041986BD9625A63DA6A002AFCDAF2
:102F2000B7E71178DBF8002001248F0782F8004111
:102F30004FF0004440F1B8807021DC625963D96AD7
:102F40000029FCDA4FF0004400219F6BDC625963DA
:102F5000D96A0029FCDA996B090600F1B880039B55
:102F60000121022B82F8801000F2BE80244B82F8EF
:102F700000111B684FF000400621D8625963D96ADE
:102F80000029FCDA01209C6B82F8800018210139AD
:102F9000FDD102994C0740F10C81039981420CBF8D
:102FA0008521752101244FF0004082F80041D8624C
:102FB0005963D96A0029FCDA986B0298012110F054
:102FC000020F82F880104FF0004082F8001100F0EC
:102FD000DD807021D8625963D96A0029FCDA996BC7
:102FE0004FF000440020DC625863D96A0029FCDA03
:102FF000996B0906F7D5012182F8801014E700BF0C
:10300000009CFF1F3CAFFF1F80E100E084E100E077
:1030100088E100E001403F0000003F803DAFFF1F1E
:1030200040AFFF1F039B23B3D9F8003082F8001193
:103030004FF000400621D8625963D96A0029FCDAB2
:1030400001209C6B82F8800018210139FDD1029982
:103050004C0743D47A2101244FF0004082F800410C
:10306000D8625963D96A0029FCDA01219B6B82F886
:103070008010554B5449DB7A1A4693B1D80703D5D3
:10308000524A896911601A46990704D54E4A504B35
:10309000D169D27A1960530703D54B4A4D4B126A56
:1030A0001A6005B0BDE8F08F0521DC625963D96A6A
:1030B0000029FCDA4FF0004400219F6BDC62596369
:1030C000D96A0029FCDA996BCF073FF548AF002198
:1030D000012482F8804001700391A5E603998142A2
:1030E00014BF7A218A21B6E7374B3748DB7A194675
:1030F0009BB1DC0703D535498069086019469F07F5
:1031000005D5314B32483049DB69C97A03604C0739
:1031100003D52D492F4B096A19600192FFF776FDFF
:10312000294B2949DB7A019AEBB172B6CB7AD807E1
:103130001A4640D49B0709D52749234B08681B69C9
:10314000214A03402048D27AC3610B60570707D554
:10315000224A1D4B11685B690B401B490B621360CF
:1031600062B6DBF80020184B1B68D968B1F1384F04
:1031700009D01B4818604FF03840D86019494FF00B
:10318000784018611960002103914DE60521D8624D
:103190005963D96A0029FCDA996B4FF0004400208A
:1031A000DC625863D96A0029FCDA996BCF07F7D43F
:1031B00021E77521F6E60C48CA68046822408A6156
:1031C00002601A46B6E700BF009CFF1F00E100E066
:1031D00004E100E008E100E084E100E088E100E0D3
:1031E00001403F0000003F8080E100E02DE9F84F02
:1031F000DFF8D8816C4D98F80030DFF8D491DFF813
:10320000D4A106460C461746AB46002B40F0AA80D8
:10321000EB7A1BB372B69BF80B20D007114609D589
:10322000624B1968DBF80C300B406049CBF8183062
:103230000B601146930707D55D4BE97A1A682B6935
:1032400013405B4AEB611360480706D5594B1A6877
:103250006B691340574A2B62136062B62B68DA68B9
:10326000B2F1384F09D0544919604FF03841D96054
:10327000524A4FF0784119611A60D9F800000122D2
:1032800080F800214FF000410622D9625A63DA6AC1
:10329000002AFCDAF2B2C2F580724FF0010EBA4297
:1032A000D3F838C080F880E04FF0180128BF3A46C4
:1032B0000139FDD19AF8001080F800E1C90754D512
:1032C0004FF0004E0221C3F82CE05963D96A00295F
:1032D000FCDA310C41F080514FF0004ED3F838C089
:1032E000C3F82CE05963D96A0029FCDAB1B241F085
:1032F00080514FF0004ED3F838C0C3F82CE059632A
:10330000D96A0029FCDA996B1644BF1A4FF0004EB7
:10331000224414F8011BC3F82CE05963D96A002930
:10332000FCDA9442996BF4D1EB7A4FF0010E04244D
:10333000194680F880E088F800408BB1DC0704D59E
:103340001F49DBF8180008601946980703D51D4887
:10335000EB69E97A03604B0702D51B492B6A0B60C6
:103360001446F7B1FFF752FC52E7C6F3074141F0AC
:10337000805141F400714FF0004EC3F82CE05963C6
:10338000D96A0029FCDAB1B241F080514FF0004E09
:10339000D3F838C0C3F82CE05963D96A0029FCDAA5
:1033A000B1E7BDE8F88F00BF009CFF1F80E100E09F
:1033B00084E100E088E100E001403F0000003F8040
:1033C00000E100E004E100E008E100E03DAFFF1FA4
:1033D00040AFFF1F3CAFFF1FF8B5534D534A2B784A
:1033E00017780446002B40F09C805149CB7AEBB112
:1033F00072B6CB7ADE071A4606D54E48CA6806680A
:1034000032408A6102601A46980706D54A480B691D
:103410000668CA7A3340CB610360530705D5474A33
:103420004B69106803400B62136062B60B68DA6880
:10343000B2F1384F09D042481860424A4FF038463E
:103440004FF07840DE6018611A603F4A166801222A
:1034500086F800214FF000400622D8625A63DA6AEB
:10346000002AFCDA0120D3F838E086F88000182220
:10347000013AFDD1FF0786F8000139D54FF0004031
:10348000D822D8625A63DA6A002AFCDA220C42F0A7
:1034900080524FF000409F6BD8625A63DA6A002A6C
:1034A000FCDAA4B244F080544FF00042986BDA6228
:1034B0005C63DA6A002AFCDA9B6BCB7A1C4C012035
:1034C0001A4686F8800083B1DE0703D51F4AA0693B
:1034D00010601A46980703D51D4BC869CA7A186050
:1034E000530702D51B4B0A6A1A6002232B70F8BDE2
:1034F000C4F3074242F0805242F458424FF0004079
:10350000D8625A63DA6A002AFCDAA4B244F0805422
:103510004FF00042986BDA625C63DA6A002AFCDAE8
:10352000CAE7FFF773FB60E73DAFFF1F3CAFFF1F2C
:10353000009CFF1F80E100E084E100E088E100E002
:1035400001403F0000003F8040AFFF1F00E100E06E
:1035500004E100E008E100E070B54C4B1B78044644
:10356000002B79D14A49CB7AEBB172B6CB7AD80726
:103570001A4606D54748CA6805682A408A6102602B
:103580001A469E0706D544480B690568CA7A2B403F
:10359000CB610360550705D5404A4B69106803406D
:1035A0000B62136062B60B68DA68B2F1384F09D06B
:1035B0003B4818603B4A4FF038454FF07840DD609B
:1035C00018611A60384A106801264FF000459F22A2
:1035D00080F80061DD625A63DA6A002AFCDA4FF093
:1035E000004500229E6BDD625A63DA6A002AFCDA2B
:1035F0009B6B23700A684FF000450023D56253632C
:10360000D36A002BFCDA936B63700A684FF00045B5
:103610000023D5625363D36A002BFCDA2378926BC4
:10362000A270012B1BD0CB7A194D01241A4680F8C9
:10363000804083B1DC0703D51C4AA86910601A4694
:10364000980703D51A4BC869CA7A1860530702D580
:10365000184B0A6A1A6070BDFFF7D8FA82E70A6849
:103660004FF000450023D5625363D36A002BFCDA88
:10367000936BE3700A684FF000450023D5625363F3
:10368000D36A002BFCDA936B2371CCE73DAFFF1FAD
:10369000009CFF1F80E100E084E100E088E100E0A1
:1036A00001403F0000003F8040AFFF1F00E100E00D
:1036B00004E100E008E100E0F0B5864D2B7883B02E
:1036C000002B40F083806846FFF746FF9DF80030EE
:1036D000202B64D08049C87AF0B172B6CB7AD80773
:1036E0001A4606D57D4CCA682068104088611A4683
:1036F00020609F0706D57A4A0B6910680340CB61AA
:103700001360CA7A560705D5764A4B69106803409C
:103710000B62136062B6C87A0B68DA68B2F1384F90
:1037200009D0714C1C60714A4FF038464FF0784414
:10373000DE601C611A606E4A146801274FF0004673
:10374000062284F80071DE625A63DA6A002AFCDA23
:1037500001269F6B84F880601822013AFDD14FF05A
:103760000047C72284F80061DF625A63DA6A002AE0
:10377000FCDA01229B6B84F8802060B1C40703D57A
:103780005C4B8A691A60C87A820722D4430702D543
:10379000594B0A6A1A6003232B7003B0F0BD9DF8E1
:1037A0000230A3F12002022A94D8544C212B207815
:1037B00014D000F03F028011012822705FFA80FED1
:1037C000EBDC222B0CBF082602260EE0FFF71EFAC8
:1037D00079E74B4BCA691A60C87AD7E700F03F0314
:1037E000801123705FFA80FE02263B49CB7A03B337
:1037F00072B6CB7ADF071A4609D5DFF8E0C0CA688F
:10380000DCF8007017408F611A46CCF800709B07F7
:1038100006D5334A0B6917683B40CB611360CA7AFF
:10382000570705D52F4A4B6917683B400B62136059
:1038300062B60B68DA68B2F1384F09D02A491960CC
:103840004FF03841D960294A4FF0784119611A6028
:10385000274A1168012281F800214FF00047062213
:10386000DF625A63DA6A002AFCDA0122D3F838C030
:1038700081F880201827013FFDD14FF0004CC4276C
:1038800081F80021C3F82CC05F63DA6A002AFCDAF1
:103890001EFB06F2120242F080524FF000469F6B70
:1038A000DE625A63DA6A002AFCDA4FF000464FF013
:1038B00080529F6BDE625A63DA6A002AFCDA227851
:1038C0009B6B431C42EA83130122237081F8802002
:1038D00061E700BF3DAFFF1F009CFF1F80E100E0DC
:1038E00084E100E088E100E001403F0000003F800B
:1038F00040AFFF1F00E100E008E100E03CAFFF1F28
:1039000004E100E0F8B54E490B780BB90120F8BD91
:103910004C48C47AF4B172B6C37ADE071A4606D5AB
:10392000494CC26825682A40826122601A469D0778
:1039300006D5464C03692568C27A2B40C3612360D3
:10394000540705D5424A4369146823400362136053
:1039500062B6C47A0368DA68B2F1384F09D03D4DD7
:103960001D603D4A4FF038464FF07845DE601D61DE
:103970001A603A4A3A4D16782D68012285F80021DE
:10398000B2074FF0004729D57022DF625A63DA6A26
:10399000002AFCDA4FF000470022D3F838E0DF625B
:1039A0005A63DA6A002AFCDA01229B6B85F88020D0
:1039B00084B1E70703D52B4A8569C47A1560A5074A
:1039C00003D5294AC569C47A1560620702D5274A1A
:1039D000006A10601B0629D40020F8BD0522DF62B2
:1039E0005A63DA6A002AFCDA4FF000470022D3F863
:1039F00038E0DF625A63DA6A002AFCDA01229B6B44
:103A000085F8802084B1E70703D5164A8569C47A12
:103A10001560A50703D5144AC569C47A1560620705
:103A200002D5124A006A1060DB07D5D4002416F0D4
:103A3000C00F0C703FF46AAFFFF73EFE2046F8BDA2
:103A40003DAFFF1F009CFF1F80E100E084E100E02C
:103A500088E100E001403F0000003F803CAFFF1FD5
:103A600040AFFF1F00E100E004E100E008E100E0FA
:103A700002781F2A15D08378A3F110010F290DD9E0
:103A8000A3F12001052908D98AB942788AB9002B07
:103A900014BF4FF4801000207047063B012098406F
:103AA00070474378892BE6D14FF080707047FF2A2A
:103AB00002D04FF4801070474278FF2AF9D1FF2BD3
:103AC00014BF4FF480100020704700BF70B56A4BE0
:103AD0006A4D53F830302B6082B004466848FCF7DA
:103AE00079FF2046012108F027F92E68012386F886
:103AF00080306846FFF730FD9DF80040A4B99DF87E
:103B0000013013B99DF8020060B16846FFF7B0FFBD
:103B1000B0F1807F21D800235A4A68461370FFF71E
:103B20001BFD012002B070BDFF2C09D19DF80130B2
:103B3000FF2BEAD19DF80230FF2BE6D10020F1E700
:103B40006846FFF795FFB0F1807F06D8012C6DD055
:103B5000202C14BF00230223DEE74949CB7AD3B1DE
:103B600072B6CB7AD8071A4606D54748CA680468A1
:103B700022408A6102601A469B0706D543480B69BA
:103B80000468CA7A2340CB610360560765D462B6E5
:103B90002E689DF800400B68DA68B2F1384F09D002
:103BA0003B4818603B4A4FF038454FF07840DD60A5
:103BB00018611A60012C43D001244FF00040062206
:103BC00086F80041D8625A63DA6A002AFCDA0120DA
:103BD0009C6B86F880001822013AFDD14FF000441A
:103BE000B72286F80001DC625A63DA6A002AFCDA3E
:103BF00001229B6B86F88020CB7A21481A4663B15C
:103C0000DC0703D5244A806910601A4698072BD434
:103C1000530702D5214B0A6A1A609DF80030202B09
:103C200019D0012B25D11A46052301E004230022D7
:103C30009DF8041000297FF46FAF42F014036BE786
:103C40004FF00040164A86F80041D8625A63DA6A9B
:103C5000002AFCDACCE70B235EE7124A4B691068B6
:103C600003400B62136092E70F4BC869CA7A186071
:103C7000CEE7012350E700BF1C49010040AFFF1F02
:103C8000009CFF1F3CAFFF1F80E100E084E100E0EB
:103C900001403F0000003F8000E100E008E100E05B
:103CA0008017001088E100E004E100E0044B1B787D
:103CB00013F0100F14BF4FF480204FF48030704782
:103CC0003CAFFF1F00B583B0082269460020FFF714
:103CD0005BF8009B104A93421AD0013303D00020B6
:103CE00003B05DF804FB0D4B0092694608220020EA
:103CF0000193FFF77BFAFFF705FE0028FBD00822AF
:103D000069460020FFF740F8034B009A9A42E6D13B
:103D1000019803B05DF804FB4C5596FA5802F6186A
:103D20002DE9F04F002393B0036043608360C360CC
:103D300004900C460391FFF7C5FF00287AD0227843
:103D400083B20293002A00F08A80464B46482146FF
:103D5000534011F8012F00FB03F3002AF8D1434F21
:103D60005A08A7FB0227BF0BC7EBC737A3EB4707D0
:103D70000137BFB2029B002B5CD003EB43030593DA
:103D8000002301930DF1280B029B019A1946C2EB07
:103D9000010ABAF1070F58D8101D40004FEA4A0235
:103DA0005946FEF7F1FFBAF1000F47D0029B1E1DE6
:103DB000019B03EB830216440025760008E04FF6D2
:103DC000FF739A4236D00135554506F10A0635D2C1
:103DD0003BF81520BA42F2D100230A2207A9304647
:103DE0000993FEF7D1FF099A059B039C02F1020992
:103DF00099444FEA89090DF14708484610220EA957
:103E0000FEF7C2FF09F110090DF1370301E09845F3
:103E1000F3D014F8011B13F8012F8A42D3D1002AE2
:103E2000F5D1019B0498079A2B441D46089B858178
:103E300080E80C00049813B0BDE8F08F019B029A53
:103E400053449A4201939FD8F4E7019B181D400008
:103E500010225946FEF798FF4FF0080AA6E74FF4E4
:103E6000204787E7C59D1C81930100010300018065
:103E700000B585B001466846FFF752FF0098003054
:103E800018BF012005B05DF804FB00BF2DE9F04F1D
:103E900005468BB00E4606A829461746FFF740FF99
:103EA000069C1CB9FFF70EFF814618B900200BB025
:103EB000BDE8F08FA2461FFA89F80AF10803984579
:103EC0004FF6FF7B1ED2CAEB08040AF10400620021
:103ED000400006A9FEF758FF6CB1BDF818305B45ED
:103EE00019D006AA002303E032F8021F594513D067
:103EF0000133A342F8D3A244D045D7D90AF108032D
:103F00009845E0D30AF104004000102206A9FEF70C
:103F10003BFF0824E1E700230AEB0304A045C5D9D1
:103F200008EB480B4FEA8B03009303F1080B002CBE
:103F300067D1524A4FEA993909EA020202EB0B0AA9
:103F4000002F51D10AF1FF0727F0FF0728460CF098
:103F500077FA814606A8FFF7FFFA06A8FFF788FD63
:103F600006EB070A8245A1D809F101022946584605
:103F7000FFF73CF9009B03976FF00702D21A08F194
:103F8000040804EB840002EB0B0340449B08400050
:103F900003A90A2204960593FFF728F9FFF7B2FC5C
:103FA0000028FBD02A78002A65D0354B354953408C
:103FB00015F8012F01FB03F3002AF8D132495A0802
:103FC000A1FB0212920BC2EBC232A3EB42030133FC
:103FD000201D400003A902220393FFF707F9FFF712
:103FE00091FC0028FBD062E77A1E013E3E44524419
:103FF000B6FBF7F6B2FBF7F206FB07F602FB07F794
:10400000A4E708F10042013A04EB8401881840005B
:104010000A2203A94FF00009CDF81490FEF7B4FE70
:1040200005980399049A0BEB800301939B4601EBDF
:10403000020A102206A95846FEF7A6FE9DF818307F
:1040400009F1010263B109F1100906AB03E013F8AD
:10405000011F013221B14A45F9D10BF1100BE8E7FC
:104060000199DFF818B003310A4402EA0B0B002F64
:104070003FF468AFB8E74FF42043A9E7FCFF030023
:10408000C59D1C8193010001030001802DE9F047CB
:10409000002388B00370074688469246FFF712FE59
:1040A000002850D0DFF8B090B9F8004086B2A642A0
:1040B00049D9251D6D0002E00134A64243D02846AF
:1040C00002220DF10601FEF75FFEBDF80630023553
:1040D000002BF1D004EB8400B31D1844062200230A
:1040E0000134400002A90393A9F80040FEF74CFEFA
:1040F000029B5A1C27D0039CCAF8003006EB4606E8
:1041000002343444A400B8F1000F17D04546102DF6
:1041100028BF102504A92A462046FEF735FE0DF1DA
:104120000F01002311F8012F07F8012B013372B1A1
:10413000AB42F7D3B8EB05082C44E7D1002307F8CE
:10414000013C012000E0002008B0BDE8F08701201C
:1041500008B0BDE8F08700BF3AAFFF1F70B5054655
:10416000FFF7A4FD06462868741E20420CD16B6838
:104170001C4009D10BB907E028682044FFF72CF94F
:104180006B683444A342F7D870BD00BF704700BFCE
:10419000704700BF704700BF704700BF704700BF47
:1041A000704700BF38B50A4D00230446294600F881
:1041B000043B09F0F9FA294604F1140009F0F4FA75
:1041C000294604F1240009F0EFFA204638BD00BF6B
:1041D00034460100F0B5061D8FB00446304609F0A4
:1041E00047FB2449244F254B254A09681B68126860
:1041F0000091143438462349234D0BF0B7FE39465D
:10420000204609F045FB02A8204909F0CDFA3146C5
:1042100006A809F0DDFA29460AA809F0C5FA0AAA93
:1042200006A902A8FFF7B6FF0AA809F07DFA06A8BA
:1042300009F07AFA02A809F077FA02A8144909F0FD
:10424000B3FA214606A809F0C3FA29460AA809F0DC
:10425000ABFA0AAA06A902A8FFF79CFF0AA809F070
:1042600063FA06A809F060FA02A809F05DFA0FB037
:10427000F0BD00BF6080044044AFFF1F5C8004407D
:1042800058800440A042010034460100B4420100BD
:10429000BC42010041638263704700BF70B50646AF
:1042A000002390B0104633607360B360F36009F090
:1042B00025FC0146684609F08BFA844904A809F0F8
:1042C00073FA04A9684609F0DBFB00287ADB04A82E
:1042D00009F02AFA2C21684609F0C2FB041E63DBB0
:1042E0002C25002C5ADD2346002269460CA809F033
:1042F000D9FB0CA809F030FC30600CA809F014FAC6
:10430000621C0CA8694609F0F1FB0CA9684609F08B
:10431000B7FA0CA809F008FA2946684609F0A0FB8C
:10432000041E3BDD2346002269460CA809F0BAFBB7
:104330000CA809F011FC70600CA809F0F5F9621CDA
:1043400069460CA809F0D2FB0CA9684609F098FA56
:104350000CA809F0E9F92946684609F081FB041E1A
:104360001CDD2346002269460CA809F09BFB0CA823
:1043700009F0F2FBB0600CA809F0D6F9621C69469E
:104380000CA809F0B3FB0CA9684609F079FA0CA84F
:1043900009F0CAF9684609F0DFFBF060684609F0E9
:1043A000C3F9304610B070BD3B21684609F058FB98
:1043B000041E80F288802021684609F051FB2025E8
:1043C00004468EE7424908A809F0EEF908A96846B4
:1043D00009F056FB002803DB08A809F0A5F976E7E9
:1043E0003C490CA809F0E0F90CA9684609F048FB23
:1043F00004460CA809F098F908A809F095F904A852
:1044000009F092F9002CBFF665AF33490CA809F00A
:10441000CBF90CA9684609F0F5FA04460CA809F096
:1044200083F9002C3BD0012269460CA809F05EFB01
:104430000CA9684609F024FA0CA809F075F9029C49
:10444000002C3CD000252C460DE04628A4F1370373
:1044500012D96628029B98BF573C05F1010598BF09
:1044600024189D420DD22946684609F0D5FA240148
:104470003928A4F13003E8D8C418029B01359D42C5
:10448000F1D3210EC4F30742C4F30723E4B286E854
:104490001E00684609F048F9304610B070BD0F495B
:1044A0000CA809F081F90CA9684609F0ABFA04469A
:1044B0000CA809F039F9002CC1D00222B4E7234638
:1044C00022462146E3E73B250BE700BFCC42010033
:1044D000D042010048480100D4420100D842010006
:1044E00070B58AB005460E4606AC114602A809F022
:1044F0006FF902AA29462046FFF7D0FE0AAB13E95E
:104500000300AD6B8DE80300284694E80C003146AB
:1045100001F0C4FA02A809F007F90AB070BD00BFA3
:1045200070B58AB005460E4606AC114602A809F0E1
:104530004FF902AA29462046FFF7B0FE0AAB13E95D
:104540000300AD6B8DE80300284694E80C0031466B
:1045500001F0B4FA02A809F0E7F80AB070BD00BF94
:1045600082B02DE9F04194B01AA981E80C009DF8C1
:1045700078301B9E1C9D1D9C80461746002B64D0E6
:1045800054490CA809F010F90CA910A809F020F959
:10459000C7F303130A2BB4BF30213721194410A8E5
:1045A00009F0F0F907F00F070A2FB4BF30213721C7
:1045B000394409F0E7F9C6F303130A2BB4BF3021DD
:1045C0003721194409F0DEF906F00F060A2EB4BFB0
:1045D00030213721314409F0D5F9C5F303130A2BF3
:1045E000B4BF30213721194409F0CCF905F00F058B
:1045F0000A2DB4BF30213721294409F0C3F9C4F38F
:1046000003130A2BB4BF30213721194409F0BAF93A
:1046100004F00F040A2CB4BF30213721214409F0E3
:10462000B1F901460CA809F023F910A809F07CF8AB
:104630000CA9404609F066F80CA809F075F8404648
:1046400014B0BDE8F04102B07047114668460A2236
:1046500009F0DCF8694604A809F0BAF804A81E4974
:1046600009F082F90A220746314608A809F0CEF877
:1046700008A9384609F070F9174909F075F90A22B6
:10468000064629460CA809F0C1F80CA9304609F0E5
:1046900063F9114909F068F90A220546214610A874
:1046A00009F0B4F810A9284609F056F90146404629
:1046B00009F08EF810A809F037F80CA809F034F8C2
:1046C00008A809F031F804A809F02EF8684609F0A6
:1046D0002BF8B4E734460100CC4201000078704763
:1046E0000170704770B50646C2B0022008F0C6FBE4
:1046F0000721694808F03EFB311D684808F042FF79
:10470000664808F065FF0F21654808F033FB06F1A5
:104710001401624808F036FF604808F059FF1A217A
:10472000604808F027FB604B6048002210211A8087
:1047300008F020FB594808F04BFF01AA402102A8CD
:10474000FFF7A4FC0446002839D002A80BF078FE3D
:10475000014602A808F00EFB0121554808F00AFBAB
:1047600002A80BF06DFEC0F11405002DC8BF002497
:1047700006DD013401214E4808F0FCFAA542F8D1CB
:1047800002214C4808F0F6FA00230A220199434816
:1047900008F02EFF0221484808F0ECFA162147489D
:1047A00008F0E8FA02A9B06B01F006F901463B48AF
:1047B00008F05EFF0721424808F0DCFABDE7292136
:1047C000404808F0D7FA354808F002FF0122B06BE4
:1047D0003D4901F097F82A213C4808F0CBFA2F48D0
:1047E00008F0F6FE19213A4808F0C4FA2B4808F000
:1047F000EFFE02A8FEF7B0FE1021364808F0BAFA24
:10480000234610229DF80810244808F0F1FE0121EB
:10481000274808F0AFFA234610229DF809101F48D8
:1048200008F0E6FE0121224808F0A4FA23461022EF
:104830009DF80A10194808F0DBFE184808F0C8FE79
:104840001021254808F096FA02A8FFF711F923462F
:104850000A220146114808F0CBFE06211F4808F045
:1048600089FA0E4808F0B4FE10211D4808F082FABB
:10487000FFF71CFA23460A220146084808F0B8FE52
:104880000621164808F076FA044808F0A1FE032035
:1048900008F0F4FA42B070BDDC4201004C9EFF1FEC
:1048A000E4420100F44201003AAFFF1F104301004F
:1048B0004848010024430100284301002C43010023
:1048C000444301004C43010078430100844301004C
:1048D000B0430100CC430100E0430100F443010078
:1048E000FC4301002DE9F04FADB00E460546002116
:1048F00004A808F059FFD04904A808F0C9FF3046C1
:10490000CE4909F04FF8E8B12846FFF7EBFE069BC9
:1049100093B12B784BBB01232B7004A908A808F096
:1049200057FF0A2108A809F02DF80146C44808F0ED
:1049300029FE08A808F0F8FE04A808F0F5FE2DB03E
:10494000BDE8F08F28ACBF49204608F02DFF214676
:10495000304609F057F80746204608F0E5FE67B1F3
:104960000121B84808F006FAD1E7012BD5D004A8F8
:1049700008F0DAFE2DB0BDE8F08FB349304609F0FB
:1049800011F8B0B9B149304609F00CF80746B0B19A
:10499000AF49204608F008FF05F11401204608F051
:1049A000DBFF014604A808F063FF204608F0BCFEC8
:1049B000ADE7A849204608F0F7FE291DEEE70221E1
:1049C000304609F029F83D2852D00221304609F03E
:1049D00023F83F2800F085809F49304608F0E2FF29
:1049E0008046002800F0DC803E460DF190090DF174
:1049F00080081CAF0DF1780A02E008F08FFF013645
:104A00009649484608F0D0FE0A223146404608F052
:104A1000FDFE4146484608F09FFF914908F0A4FF7B
:104A200032468346A96B384601F020F89AE8030025
:104A30008DE803000123029397E80C0029462046E5
:104A4000FFF78EFD2146584608F086FF014604A870
:104A500008F060FF204608F067FE404608F064FE5C
:104A6000484608F061FE072E7E4904A8C5D14EE7EE
:104A70000121304608F0D0FFA0F130085FFA88F33A
:104A8000072B3FF644AF3946304608F0C5FF4328B0
:104A900000F0F2803946304608F0BEFF632800F08F
:104AA000EB803946304608F0B7FF462806D0394635
:104AB000304608F0B1FF66287FF429AF0322314663
:104AC000204609F013F8224641462846FFF728FD04
:104AD000204608F029FE6449204608F065FE31466C
:104AE0005CE70121304608F097FFA0F130085FFA3B
:104AF00088F3072B3FF60BAF3946304608F08CFFA2
:104B0000432800F00E813946304608F085FF6328BF
:104B100000F06F813946304608F07EFF462800F0ED
:104B20008E813046002108F077FF66287FF4EFAED3
:104B30004E4924A808F038FE0A22414620A808F071
:104B400065FE20A924A808F007FF454908F00CFFDE
:104B500018AEA96B07464246304600F093FF1AABE9
:104B600093E803004FF0000E8DE80300294696E815
:104B70000C002046CDF808E0FFF7F2FC214638464D
:104B800008F0EAFE014604A808F072FE204608F08C
:104B9000CBFD20A808F0C8FD24A808F0C5FDB6E6A6
:104BA0003349304608F0FEFE074600286FD04646DF
:104BB0000DF190090DF180081CAF0DF1880A02E09B
:104BC00008F0ACFE01362B49484608F0EDFD0A22FC
:104BD0003146384608F01AFE3946484608F0BCFE11
:104BE0001F4908F0C1FE32468346A96B404600F0DB
:104BF0003DFF9AE803008DE803000023029398E844
:104C00000C0029462046FFF7ABFC2146584608F029
:104C1000A3FE014604A808F07DFE204608F084FDAE
:104C2000384608F081FD484608F07EFD072E0D4904
:104C300004A8C5D16BE600BF344601001044010052
:104C40004C9EFF1FD4420100144401001C4401008B
:104C500020440100184401003C44010028440100A4
:104C60002C44010040440100244401003844010068
:104C7000444401003044010031462046032208F03C
:104C800035FF224641462846FFF72AFC20E7A54982
:104C9000304608F087FE002860D03E460DF19009AE
:104CA0000DF180081CAF0DF1980A02E008F036FE05
:104CB00001369D49404608F077FD0A2231463846C4
:104CC00008F0A4FD3946404608F046FE974908F032
:104CD0004BFE32468346A96B484600F0D3FE9AE865
:104CE00003008DE803000123029399E80C00294694
:104CF0002046FFF735FC2146584608F02DFE0146B8
:104D000004A808F007FE204608F00EFD384608F01B
:104D10000BFD404608F008FD072E854904A8C5D1C3
:104D2000F5E5844924A808F03FFD0A22414620A861
:104D300008F06CFD20A924A808F00EFE7B4908F0BD
:104D400013FE0CAE074642463046A96B00F08EFEBD
:104D50000EAB93E803004FF0010E05E776493046AD
:104D600008F020FE002800F0838000260DF1900955
:104D70000DF180081CAF0DF1A80A02E008F0CEFD8D
:104D800001366E49404608F00FFD0A22314638468A
:104D900008F03CFD3946404608F0DEFD634908F066
:104DA000E3FD32468346A96B204600F06BFE9AE88D
:104DB00003008DE803000023029394E80C002946C9
:104DC0004846FFF7CDFB4946584608F0C5FD014669
:104DD00004A808F09FFD484608F0A6FC384608F0F5
:104DE000A3FC404608F0A0FC072E514904A8C5D1F9
:104DF0008DE5534924A808F0D7FC0A22414620A893
:104E000008F004FD20A924A808F0A6FD474908F0F1
:104E1000ABFD10AE814642463046A96B00F026FE3F
:104E200012AB93E803008DE8030002972946204661
:104E300096E80C00FFF794FB21464846A0E63A4965
:104E400024A808F0B1FC0A22414620A808F0DEFCA4
:104E500020A924A808F080FD344908F085FD14AE8F
:104E6000074642463046A96B00F00CFE16AB70E7D1
:104E70003449204608F098FC2146304608F0C2FD2F
:104E80000746204608F050FC6FB10221304608F07A
:104E9000C3FDA0F13001CBB2072B3FF638ADA86BB4
:104EA00003F030F817E62849304608F07BFDD0B112
:104EB0002449204608F078FCA86B00F0D5FD0A22B2
:104EC000014624A808F0A2FC24A9204608F044FDCD
:104ED000014604A808F0CCFC24A808F025FC2046D4
:104EE00008F022FC13E51949304608F05BFD044642
:104EF00038B1A86B00F002FD154904A808F0C8FC01
:104F000005E53046134908F04DFD00283FF4FFAC9D
:104F1000A86B2C7002F042FB0F4904A808F0B8FC03
:104F2000F5E400BF48440100344401002C44010072
:104F300040440100284401004C4401003844010071
:104F40003044010050440100544401005844010021
:104F5000604401006C4401007444010038B504460B
:104F600007F0DEFE00281BDD07F09EFE0228054646
:104F700017D0032808D00A2D06D02434E9B22046E1
:104F8000BDE8384008F0D8BC04F124052046294685
:104F9000FFF7A8FC28460949BDE8384008F078BC6E
:104FA00038BD24342046002108F036FD2328E5D002
:104FB00020460249BDE8384008F06ABC344601008A
:104FC00030B4002205250821C5640270026580F80E
:104FD000642080F8652080F86620826641608160E8
:104FE000C26630BC704700BF70B5A4B01F4906460A
:104FF0006846144608F0D8FB1D4904A808F0D4FB05
:105000001C4908A808F0D0FB1B490CA808F0CCFBF1
:105010001A4910A808F0C8FB194914A808F0C4FBE5
:10502000184918A808F0C0FB17491CA808F0BCFBD9
:1050300020A8164908F0B8FB082C10DC0DEB041171
:10504000304608F0C5FB20ACADF110052046103C01
:1050500008F06AFBAC42F9D1304624B070BD0A2298
:105060000821304608F0D2FBEDE700BF7C44010088
:1050700080440100884401009044010098440100EC
:10508000A0440100A8440100B0440100B84401005C
:10509000F0B5044691B0006F00F0E6FC216F60604F
:1050A0000246684600F0E2FC9DE80F00676804F1E4
:1050B0000C0686E80F003A46216FA760684600F0AC
:1050C000E1FC9DE80F0004F1540585E80F0008A8F5
:1050D0000D4908F069FB6268214604A8FFF784FFC8
:1050E0000CA80A4908F060FB0CAA04A908A8FFF75D
:1050F00051F80CA808F018FB04A808F015FB08A844
:1051000008F012FB11B0F0BDBC44010034460100B0
:1051100030B589B004460D4668460D4908F044FB99
:1051200004A80C4908F040FB04A96846FFF730F8D2
:1051300004A808F0F9FA684608F0F6FA2946206F44
:1051400002F0E0FE2046FFF7A3FF09B030BD00BF2C
:10515000C84401003446010010B50C46032009681C
:1051600006F0D8FC6168042006F0D4FCA168052094
:1051700006F0D0FCE1680620BDE8104006F0CABC8D
:1051800030B589B00A4604460D46016F04A800F008
:105190006DFC04A92046FFF7DFFF082D1CD00F4946
:1051A00004A808F001FB04A8FEF7F0FF04A808F02B
:1051B000BBFA2A4621466846FFF716FF084904A8AD
:1051C00008F0F2FA04A96846FEF7E2FF04A808F026
:1051D000ABFA684608F0A8FA09B030BDDC4401001B
:1051E0003446010010B504460167084605F0E8F9A9
:1051F0000121032006F0A0FD0121042006F09CFD02
:105200000121052006F098FD0121062006F094FDFD
:1052100020460821BDE81040FFF7B2BF10B588B0A6
:1052200004460F4904A808F0BFFA68460D4908F083
:10523000BBFA694604A8FEF7ABFF684608F074FAAB
:1052400004A808F071FA20460721FFF799FFC8204B
:1052500006F078FD20460821FFF792FF08B010BD48
:10526000EC4401003446010010B588B004461049F2
:1052700004A808F099FA68460E4908F095FA6946BC
:1052800004A8FEF785FF684608F04EFA04A808F067
:105290004BFAA1682046FFF773FF4FF4FA7006F04F
:1052A00051FD20460821FFF76BFF08B010BD00BF7D
:1052B000F4440100344601002DE9F04181F308086F
:1052C00082F308070446069D4146032083F308063F
:1052D00006F020FC3946042006F01CFC85F3080586
:1052E0003146052006F016FC2946062006F012FC81
:1052F000C4F81C80A56227626662BDE8F08100BF29
:1053000010B500210446FFF73BFF4FF4967006F0FE
:1053100019FD20460121FFF733FF4FF4967006F088
:1053200011FD20460221FFF72BFF4FF4967006F087
:1053300009FD20460721FFF723FF4FF4967006F082
:1053400001FD20460821BDE81040FFF719BF00BF4E
:10535000F0B58BB00446294902A808F025FA28497F
:1053600006A808F021FA06A902A8FEF711FF06A870
:1053700008F0DAF902A808F0D7F92248E3682269B0
:105380006769A56980FB03611944DB1780FB02E6AE
:10539000C3EB211180FB07E380FB05E016443B448F
:1053A0002844D217ED17FF17C2EB2612C7EB2313C1
:1053B000C5EB2016E16222636363A6631F2502E04A
:1053C00004F12C014EC9A06AD4F824C0D4F820E01E
:1053D000E769801B0090C3EB0C03C2EB0E02791A45
:1053E0002046FFF769FF212006F0ACFC013DE7D124
:1053F00020460821FFF7C4FE0BB0F0BD08450100B0
:105400003446010089888888F0B58BB004462C4961
:1054100002A808F0C9F92B4906A808F0C5F906A9A1
:1054200002A8FEF7B5FE06A808F07EF902A808F06B
:105430007BF900231A46194620460093FFF73CFFEC
:105440002148E36822696769A56980FB0361194403
:10545000DB1780FB02E6C3EB211180FB07E380FB37
:1054600005E016443B442844D217ED17FF17C2EB62
:105470002612C7EB2313C5EB2016E1622263636398
:10548000A6631F2502E004F12C014EC9A06AD4F8DE
:1054900024C0D4F820E0E7693044009063447244AB
:1054A00039442046FFF708FF082006F04BFC013D79
:1054B000E9D161682046FFF763FE0BB0F0BD00BF85
:1054C00010450100344601008988888830B5234D95
:1054D00023498DB0044604A808F066F9294608A8B7
:1054E00008F062F908A904A8FEF752FE08A808F01F
:1054F0001BF904A808F018F904A81A4908F054F98F
:10550000626821466846FFF76FFD294608A808F043
:105510004BF908AA694604A8FEF73CFE08A808F063
:1055200003F9684608F000F904A808F0FDF862687D
:10553000216F08A800F0A6FA08A92046FFF70CFE84
:10554000C82006F0FFFB6268216F08A800F08EFA01
:1055500008A92046FFF700FE0DB030BD344601001B
:1055600018450100BC44010010B5046D8AB0092C37
:105570008DE8060001D00AB010BD04460F4902A80C
:1055800008F012F906A80E4908F00EF906A902A8BB
:10559000FEF7FEFD06A808F0C7F802A808F0C4F858
:1055A00001992046FFF7ECFD4FF4967006F0CAFB18
:1055B00020460821FFF7E4FD0AB010BD2045010098
:1055C000344601002DE9F0471746026D8CB0072ADA
:1055D0000446DDF85080DDF854909A4600F098803B
:1055E000169BDAF8005093E8030004F16806022DD8
:1055F000256586E8030000F09980062D36D0072D3A
:1056000012D1A3680133072BC8BF00230022A36077
:1056100084F866202046FFF727FE0623012284F83F
:1056200066202365CAF800303B78002B6AD198F8D1
:10563000003093BB99F800300BBB94F8683043BB43
:1056400094F869303BB196E806002046FFF78CFFDE
:105650000023A36673600CB0BDE8F087002304F15B
:105660006806256584F8663086E8030094F866309D
:10567000002B6CD00625012384F86630BFE7204656
:10568000FFF766FE002389F8003094F86830002B9D
:10569000D6D02046FFF734FED2E73249684608F0FC
:1056A00083F8314904A808F07FF8304908A808F0C9
:1056B0007BF808AA04A96846FEF76CFD08A808F064
:1056C00033F804A808F030F8684608F02DF8256D86
:1056D000264908A808F068F808A92846FEF75CFDE6
:1056E00008A808F021F8236D082B35D02046FFF7D5
:1056F000CFFC2046FFF788FE002388F8003084F8AE
:10570000663097E72046FFF7E1FE00233B708EE707
:105710001D68169B062D93E803009FD004F16806D0
:10572000022D256586E803007FF469AF94F86630A2
:105730001BB1012384F8663076E72046FFF76EFD43
:10574000256D0123062D84F8663094D057E7204656
:10575000FFF78AFD256D8EE7A1682046FFF7D8FC8C
:10576000C7E700BF34450100384501003446010059
:10577000002842D0F0B4037A13F07F042AD123F03A
:105780007F0343F04003037204604460013118BF9B
:10579000002704D133E001394FF0000317D05368DC
:1057A000946810339C42A4F11003F4D39360002B4F
:1057B000F1D045685E1B3611E5B16E814360013959
:1057C00024F8067C04F8087C44F8047CE7D11846E9
:1057D000F0BC70475B0612D50368002BD6D00029B9
:1057E000F5D0B3F90A400139002CCFD013EB0413E4
:1057F000F5D1CBE703604360E1E70020704700206C
:10580000E6E700BF10B50021044607F0CDFF2046B3
:1058100010BD00BFF8B5374C3749054608F038F8D9
:1058200094E80F0000264FF0FF0C04F1100705F17B
:10583000440EC5F814C0C5F828C0C5F83CC0AE6118
:10584000EE612E626E62EE622E636E63AE632E6454
:105850008EE80F0097E80F0004F1200E05F1540CBC
:105860008CE80F009EE80F0005F1640C04F1300E87
:105870008CE80F009EE80F00403405F1740E8EE8AE
:105880000F0094E80F0005F1840E8EE80F0005F17B
:10589000A40EC5F89460C5F89860C5F89C60C5F87A
:1058A000A0608EE80F0005F1B40E8EE80F0005F140
:1058B000C40E8EE80F0005F1D40E8EE80F0005F13E
:1058C000E40E8EE80F0005F5827405F1F40E8EE803
:1058D0000F0084E80F0097E80F0005F58A7484E84C
:1058E0000F00C5F82461C5F82861C5F82C61C5F81A
:1058F0003061F8BD4045010090450100022303617D
:10590000FFF788BFF0B589B00C461746FDF7FAFFE0
:1059100028B92721244807F02DFA09B0F0BD204608
:10592000FEF7A6FA20B3214604A8FEF7F9F9059E72
:10593000069CB44216D3F0E7B44207D2321B354678
:10594000049869462044FDF71FFA2C469DF8000094
:1059500027B1A0F10903DBB2F52BDED807F08EFAF0
:10596000A642DAD9631C9E42E6D31D460122E7E730
:1059700004A80E4907F018FF2146684607F014FFF7
:10598000694604A807F0E8FF094907F0EDFF014662
:10599000084807F0F7FD684607F0C6FE04A807F0C0
:1059A000C3FE09B0F0BD00BF98450100C04501002D
:1059B000D44501004C9EFF1F10B590B00C46FDF77A
:1059C000A1FF50B12046FEF753FAD8B10CA82146EA
:1059D000FEF7A6F90D9810B010BD1F4908A807F0F2
:1059E000E3FE1E490CA807F0DFFE0CA908A8FEF78D
:1059F000CFFB0CA807F098FE08A807F095FE6FF003
:105A00006200E8E7164904A807F0CEFE2146684682
:105A100007F0CAFE694604A807F09EFF114907F087
:105A2000A3FF014608A807F0D3FE0C490CA807F015
:105A3000BBFE0CA908A8FEF7ABFB0CA807F074FE90
:105A400008A807F071FE684607F06EFE04A807F08C
:105A50006BFE4FF0FF30BEE7E84501003446010021
:105A600004460100144601000069704701EB021270
:105A7000143210B404460FCA84E80F00204610BC4C
:105A8000704700BF01EB0212A43210B404460FCAE3
:105A900084E80F00204610BC704700BF82B010B4ED
:105AA00001AC84E80C0001AB00EB01140FCB143403
:105AB00084E80F0010BC02B0704700BF82B010B481
:105AC00001AC84E80C0001AB00EB01140FCBA43453
:105AD00084E80F0010BC02B0704700BF2DE9F0470A
