:1000000000800020BD01000061C3000019C3000092
:1000100019C3000019C3000019C3000019C3000070
:1000200019C3000019C3000019C3000061C3000018
:1000300061C3000019C300003DDF000041E0000083
:1000400061C3000061C3000061C3000061C3000020
:1000500061C3000061C3000061C3000061C3000010
:1000600061C3000061C3000061C3000061C3000000
:1000700061C3000061C3000061C3000061C30000F0
:1000800061C3000061C3000061C3000061C30000E0
:1000900061C3000061C3000061C3000061C30000D0
:1000A000DD140000E914000061C3000061C300001A
:1000B00061C3000061C3000061C3000061C30000B0
:1000C00061C3000061C3000061C3000061C30000A0
:1000D00061C3000061C3000061C3000061C3000090
:1000E00061C3000061C3000061C3000061C3000080
:1000F00061C30000C5E8000061C30000F1E9000031
:1001000061C300001DEB000061C3000061C300007B
:1001100061C3000061C3000061C3000061C300004F
:1001200061C3000061C3000061C3000061C300003F
:1001300061C3000061C3000061C3000061C300002F
:1001400061C3000061C3000061C3000061C300001F
:1001500061C3000061C3000061C3000061C300000F
:1001600061C3000071CB000061C3000061C30000E7
:1001700061C3000061C3000061C3000061C30000EF
:1001800061C3000061C3000061C3000061C30000DF
:1001900061C3000061C3000061C3000061C30000CF
:1001A00061C3000061C3000061C3000061C30000BF
:1001B00061C3000061C30000F9DC0000564B4CF243
:1001C000205210B51A804DF628121A8000BF00BFC9
:1001D0000CF0CAF8514B4FF010621A60504A9A6006
:1001E000504ADA60504A136813F4807304D14F49BF
:1001F0000B604FF4A85313604D4B1A78110703D5C9
:100200001A7842F008021A704A4B4B492A221A7097
:100210004A4A4B4B8B4204D252F8040F43F8040B6A
:10022000F8E7484B484900228B4202D243F8042B9E
:10023000FAE74649464A002352F8230041F82300D2
:1002400001336F2BF8D1434B434A802103F8011B44
:100250009342FBD1414B3D4A1A60414B8A221A70AE
:10026000A3F5805324225A70A0221A709A7992071B
:10027000FCD59A79D406FCD43A4A937903F00C035E
:10028000082B384BF9D105221A7143225A719A79F9
:100290009006FCD5334A9179324B4906FBD5324A58
:1002A0004FF0817111600521516020221A709A79F6
:1002B00002F00C020C2AFAD12C4B2D4A1A602D4B5D
:1002C0002D4A1A6000225A60072243F8042C2B4A58
:1002D000C3F80C2D62B60CF001FB144B1B68DA0757
:1002E00005D527480CF080F9264B274A1A60274B82
:1002F0001B785B0609D5234C234B22689A4204D114
:100300001F480CF071F9002323600FF005FE0CF07C
:1003100031F80EF021FAFEE70E200540308004404F
:10032000823F04000100002B10D0034014D0034092
:1003300002D0074000E00740A8A8FF1FB0600100FE
:10034000209BFF1FA8A8FF1F08B3FF1F0096FF1FD9
:100350000000000000E400E05FE400E008ED00E0E1
:1003600000500640004006404480044004800440A1
:10037000C010050014E000E03F190100000020203B
:100380001FA64D5F1CE00340A5C3945A00F0074030
:10039000FFFFFFFFFFFFFFFFFFFFFFFFFFFFFFFF6D
:1003A000FFFFFFFFFFFFFFFFFFFFFFFFFFFFFFFF5D
:1003B000FFFFFFFFFFFFFFFFFFFFFFFFFFFFFFFF4D
:1003C000FFFFFFFFFFFFFFFFFFFFFFFFFFFFFFFF3D
:1003D000FFFFFFFFFFFFFFFFFFFFFFFFFFFFFFFF2D
:1003E000FFFFFFFFFFFFFFFFFFFFFFFFFFFFFFFF1D
:1003F000FFFFFFFFFFFFFFFFFFFFFFFFFFFFFFFF0D
:10040000FFFFFFFFFFFFFFFFFFFFFFFFDEF9FFFF23
:1004100010B5054C237833B9044B13B10448AFF33E
:1004200000800123237010BDA8A8FF1F000000005A
:10043000AC600100084B10B51BB108490848AFF388
:1004400000800848036803B910BD074B002BFBD0A0
:10045000BDE81040184700BF00000000ACA8FF1F17
:10046000AC600100A8A8FF1F0000000010B5044602
:1004700000F509700DF0D4FE04F503700DF0D0FE08
:1004800004F5FE700DF0CCFE04F5F6700DF0C8FE1C
:1004900020460DF0C5FE204610BD00BF014800F00B
:1004A000F9B800BFC4A8FF1F00B585B00E49684663
:1004B0000DF0F6FE69460D4800F054F868460DF060
:1004C000AFFE0A4800F0E2F8212807DDFF200322F2
:1004D00007490BF0C9FF05B05DF804FB034800F0C5
:1004E000D5F8C0B2F3E700BF8C4B0100C4A8FF1FD2
:1004F0009D040000014800F063B800BFC4A8FF1FBE
:1005000010B5054C204600F00DF82046034A04497A
:10051000BDE810400FF0EABCC4A8FF1FFC9BFF1F02
:100520006D04000010B5002104460DF0B9FE04F181
:10053000100001F033F804F58C700AF069FF04F53F
:10054000B27005F039FA04F5EC700AF0ABFE04F570
:10055000F47003F023FE04F5097005F007FE204651
:1005600010BD00BFF0B585B0044600F5F4766846CE
:100570000DF0AAFE6946304603F04AFE68460DF0CB
:100580004FFE04F5097504F1100001F013F9284637
:100590000AF07CFE04F5B27704F58C700AF056FF81
:1005A0002946384605F0EEFA04F5EC700AF07EFEB6
:1005B0002A463946304603F009FE05B0F0BD00BFBB
:1005C0002DE9F04F8BB0044600F2F53E00F57C7546
:1005D00000F2ED3600F57B7700F2F63800F2F739DD
:1005E00000F57D70CDF808E031462B463A46009084
:1005F000CDF8048004F58C70CDF80C900BF03AF92E
:1006000004F57E7A2B4631463A4604F110008DE817
:10061000000301F0C7F9294604F5B273524604F508
:10062000EC7005930AF0D0FE3146059E2B463A4603
:100630000025304604F5F47B8DE8000705F070FCDA
:10064000584684F8ED5384F8EC5384F8F45384F856
:10065000F65305F07FF9D4F8F033092B13D0584640
:1006600003F0E0FF78B104F5097008F05BFB294660
:10067000584603F0D9FF304606A906950795089518
:10068000099505F047FA0BB0BDE8F08F00F58C70C6
:100690000AF0B0BF90F81831013380F81831704774
:1006A00010B4047F4160022CC26002D010BC0DF077
:1006B000E3BB836810BC18472DE9F0410468E56886
:1006C00015F0807F794D256052D1DF0740F1B3806E
:1006D000002900F0E3800D78012B18BF45F000459C
:1006E0006563013190F8248003F1FF3C48EA082853
:1006F000BCF1000F00F0A88021B14D7811F8028BF9
:1007000045EA082845682E7ABCF1020F06F1FF364B
:100710004FEA06360CBF48F0805548F01045B6B297
:100720006563ACF1020C08E00AB114700132013BC0
:1007300005F47045B54216D90468E56A15F0F00F66
:10074000F6D0A46B13F0010F17464FEA242EEBD11D
:100750001AB107F802EB54703A4605F47045B542F9
:10076000A3F10203E8D8BCF1000F6DD00468C3E721
:10077000DD074CD5002900F089800D78012B18BFCA
:1007800045F000456563013103F1FF3E90F824C058
:10079000BEF1000F41D029B191F801C00D780231AE
:1007A00045EA0C2C45682E7ABEF1020F06F1FF36A1
:1007B0004FEA06360CBF4CF080554CF01045B6B2EF
:1007C0006563AEF1020E08E00AB114700132013B1C
:1007D00005F47045B54215D90468E56A15F0F00FC7
:1007E000F6D013F0010F1746A46BEDD122B107F834
:1007F000024B241254703A4605F47045B542A3F1F9
:100800000203E9D8BEF1000F07D00468C3E79E4693
:1008100090F824C0BEF1000FBDD11BB30468E16A9B
:1008200011F0F00FFBD0A16BDC071DD50AB11170E0
:100830000132013BF1E790F824809C4648EA082801
:10084000BCF1000F7FF458AF63B10468E16A11F0A6
:10085000F00FFBD0DE07A16B0FD50AB1117001328A
:10086000013BF1E7BDE8F0812AB114460D1204F80E
:10087000021B55702246023BCFE72AB114460D12E7
:1008800004F8025B51702246023BDDE790F82450E9
:10089000012B18BF45F00045656375E790F82450BB
:1008A000012B18BF45F0004565631BE700041F805E
:1008B000F0B4464B464A186BDC6A01791170454921
:1008C00022790A709A6A00790870002A46D059681D
:1008D000C9688A423ED82168CC8B240402F1FF30DB
:1008E00065D4C0F30E00C883C88B80B2C882196B70
:1008F0000968C88B000452D4C2F30E00C883C88BA9
:10090000002480B212F1FF32C88218BF01229C621B
:10091000D96A2E4809680D6800F12404A54236D032
:100920000068C46814F0804F0C680D6815BF2488F7
:1009300024780235013544F000440D604463196B9E
:10094000254B09791970214912B1CA6A12791A70B6
:10095000F0BC7047521A9A620122D9E7586B1968A5
:1009600005681E4C0A63CC62CC682D681C4E24F0CE
:1009700080440327B542CC6083F825701FD1037FE4
:100980004260022BC2601ED0F0BC0DF075BA016847
:1009900090F82400CC6840F000404863CFE7CC8B4F
:1009A000C2F3080004F47E442043C883A7E7CC8B3D
:1009B000C0F3080004F47E442043C88394E72B4628
:1009C0001146F0BC18478368F0BC1847009CFF1F15
:1009D0001F8000401C8000401B80004000000FFF73
:1009E000A106000090E80C00F0B41C685968256866
:1009F000164F174E29432160164D17491760D660D0
:100A000015611160417A154A5C180A3194F8244046
:100A100053F8215002EBC40149680D60017A5C185B
:100A200003EB8101247ECD6902EBC40149680D60AE
:100A3000817A581803EB810390F83000596B02EB70
:100A4000C002F0BC53681960704700BF01401F002E
:100A5000011000380110007800001F80045C0100C4
:100A60005E2911D830B44A09C57A012303FA02F489
:100A70002C4300EB8202C472D06801F01F0103FA1C
:100A800001F10143D16030BC704700BF5E2913D82B
:100A900030B44D0900EB850401F01F01E368012229
:100AA00002FA01F123EA0101E16021B9C37AAA4007
:100AB00023EA0202C27230BC704700BF426803687A
:100AC00005CA10B4046822430260DA6881B942F0B2
:100AD0008072D9688A4209D0196848040BD4094841
:100AE000186042F08040DA601861196010BC7047ED
:100AF00022F08072EDE742F08041DA6010BC1961AB
:100B0000704700BF01401F0043680CCB11680B43C6
:100B1000136070474268036805CA10B40468224332
:100B20000260D868840100F0E06205D5080900F48D
:100B3000706021F470410143D8681143814209D0AB
:100B40001A68500408D40748186041F08040D96002
:100B500018611A6010BC704741F08042D96010BC27
:100B60001A61704701401F00204A43689A42F0B45E
:100B70000FD0427A1A4492F82420914207D093F879
:100B800024408C4215D093F825408C422AD0F0BCEA
:100B900070470B2907D00729EBD1154C227842F07A
:100BA00001022270E5E7124C227822F00102227045
:100BB000DFE7002421461E685D6836682E420FD0AC
:100BC0000C4D05EBC202002756685A18376092F8A0
:100BD000242005EBC2050A316A6853F821301360FE
:100BE0004472D4E701242146E5E700BF944B01009D
:100BF0002CB1FF1F045C01001E4A43689A42F0B406
:100C00000CD0027A1A44127E914205D01C7E8C428E
:100C100014D05C7E8C422AD0F0BC70470C2907D0DF
:100C20000829EED1144C227842F002022270E8E743
:100C3000114C227822F002022270E2E700242146C1
:100C40001E685D6836682E420FD00C4D05EBC2025F
:100C5000002756685A183760127E063105EBC20528
:100C600003EB81036A685B6813600472D4E70124B4
:100C70002146E5E7944B01002CB1FF1F045C010005
:100C8000204A43689A42F0B40FD0827A1A4492F80C
:100C90003020914207D093F830408C4215D093F821
:100CA00031408C422BD0F0BC70470D2907D00E2963
:100CB000EBD1154C227842F004022270E5E7124C89
:100CC000227822F004022270DFE7002421461E6809
:100CD0005D6836682E4210D00C4D05EBC20200272D
:100CE00056685A18376092F830200C3105EBC2056F
:100CF00003EB81036A685B6813608472D3E70124A5
:100D00002146E4E7944B01002CB1FF1F045C010075
:100D10000BB1FFF7D1BC70470020704790F8392025
:100D200090F83800101A704790F8383090F8392051
:100D30009A4205D95A1C034480F83820187E70471F
:100D40004FF0FF30704700BF90F8383090F83920EE
:100D50009A4286BF1B18187E4FF0FF30704700BFC5
:100D6000704700BF38B50546B0F85E0090B195F801
:100D70005D301446C3F1210294420CD805F13B00CA
:100D8000184422460BF0A0F995F85D30234485F80D
:100D90005D30204638BD012014462871EEE700BFC3
:100DA000B0F85E306BB190F85D30202B07D8C218D8
:100DB000013380F85D30012082F83B107047012339
:100DC00003710020704700BF0023426980F838306B
:100DD00080F8393080F85C3080F85D3080F85E3023
:100DE00080F85F3006CA30B40D68046943662A4350
:100DF00083660A60A370426990F8613016491468EE
:100E000013441D7A5B7B01EBC5051B026D6803F47F
:100E1000E06343F064032B6090F8623013449D7CE0
:100E2000DB7D01EBC5011B02496803F4E06343F07D
:100E300064030B6021685368194205D003692822B6
:100E40005A70036903229A71036920225A71036957
:100E500080229A7030BC7047045C010070B490F836
:100E6000613045692B441E7A8E420AD0EC1D002366
:100E700014F8012FFF2A04D08A4204D00133052B35
:100E8000F6D170BC704795E806000968114211D090
:100E90000A4901EBC6061D447268002414602C7ACE
:100EA0006A7B01EBC401120202F4E062496842F07D
:100EB00064020A6080F86130E3E700BF045C01006F
:100EC00070B490F8623045692B449E7C8E420BD002
:100ED00005F11104002314F8012FFF2A04D08A42DF
:100EE00004D00133052BF6D170BC704795E806009D
:100EF0000968114211D00A4901EBC6061D44726807
:100F000000241460AC7CEA7D01EBC401120202F4FF
:100F1000E062496842F064020A6080F86230E3E708
:100F2000045C010010B50269D378DBB2D90604462F
:100F30003DD510215806D17038D503F0040303F0D5
:100F4000FF02002B51D03D49626E00230B7084F8E4
:100F50005D30002A5BD0904794F85D30002B56D06E
:100F60002369D0229A70236994F83B201A7123696F
:100F7000012284F85C200222DA7010BD304B84F824
:100F800060009C424AD02F4B9C4252D094F83910BA
:100F900013791F29DBB207D82848007820B16018E0
:100FA000013184F8391003760223D37010BD59063D
:100FB000C3D4917801F0100101F0FF000029DDD0C9
:100FC00013F001031ED194F85C1094F85D00884280
:100FD00081BF4B1C091984F85C3091F83B301371C8
:100FE0002369D0229A702269DEE7236984F83920C8
:100FF000C0229A702369114A1979012111700222C5
:10100000DA7010BDC023937022691379CCE70122F6
:10101000002384F85D2084F83B30A1E7626994F8EE
:101020006130094913440322187A0BF01DFA226932
:10103000ACE7626994F861300449F3E7C4ACFF1F80
:10104000389CFF1FA49CFF1FAD100000B9100000CA
:101050000369DB7803F0200373B190F8603001334B
:10106000DBB2012B80F860301AD9426990F8613008
:101070001344187A0BF074BA70B5426903F0FF0597
:1010800090F8613013440446187A0BF069FAA36EA5
:101090005BB184F8385094F83900BDE870401847C7
:1010A00090F85F30002BE0D0704770BD0148FFF72B
:1010B000CFBF00BF389CFF1F0148FFF7C9BF00BF6B
:1010C000A49CFF1F2DE9F047364FDFF8DC903B680A
:1010D000026982B006460093DDF800800021782581
:1010E000D3789B065AD53B680193019BC8EB030359
:1010F0000F2BF5D949B1102BF2D000209070336935
:1011000080229A7002B0BDE8F087726996F861306B
:1011100013440521187A0BF08BFB726996F8613045
:101120001344012193F812A050460BF081FB0924CF
:10113000002150460BF068FB2B46013BFDD10121FD
:1011400050460BF061FB2B46013BFDD1013CEFD13A
:10115000706996F861100144F0220C7A4B7B09EB20
:10116000C4011B02496803F4E06343F064030B60AD
:1011700096F862300344997CDB7D09EBC1011B02C8
:10118000496803F4E06343F064030B60013AFDD166
:101190003269D3789B064FF00101A4D4012002B03C
:1011A000BDE8F087D8AFFF1F045C0100F0B503690C
:1011B0001222DA700269937803F0200385B00446A6
:1011C0000D46002B5ED0B42393703C4922690B6816
:1011D0000093009E05E00B680193019B9B1B042B71
:1011E00042D8D37803F0200303F0FF00002BF2D0A5
:1011F00094F85D30002B31D04FF0000E4FF0020C10
:1012000004EB0E0393F83B3013710B680393039FB9
:10121000206907E09B060DD50B680293029BDB1B40
:10122000052B28D8C378DBB203F0020202F0FF06D8
:10123000002AEFD080F803C02669F378DBB2DF061E
:1012400032462DD49F062BD5DB0731D40EF1010E8B
:1012500094F85D305FFA8EFE7345D1D800201DBB37
:10126000002384F85E3004E09070236980229A7035
:10127000042005B0F0BD86702369802204209A7096
:1012800005B0F0BD03F0FF06FFF71CFF10B9042006
:1012900005B0F0BD236984F85F60B0229A7094E7CE
:1012A0008023B3700420DAE726698023B370D7E780
:1012B000BEF1000F0CBF02200320F6E7D8AFFF1FDE
:1012C0002DE9F04106690025122780F8385080F892
:1012D0003950F770D0F810C09CF802E00EF0200EE4
:1012E00088B00446884615461E46BEF1000F49D018
:1012F000B4238CF80230784B21691A680092DDF82B
:1013000000E006E01A6801920198CEEB0000042884
:1013100030D8C87800F0200000F0FF070028F1D096
:101320004FEA480242F00102D2B20A711A680292F0
:10133000DDF808E0206906E01A6803920399CEEB15
:10134000010105292AD8C17801F0020101F0FF0747
:101350000029F1D04FF0020C80F803C02269D17847
:1013600011F0110722D12DBB002E0CBFA02380232A
:10137000937003E08F70236980229A70384608B01A
:10138000BDE8F0810EF0FF07FFF79CFE0028F5D0C6
:10139000236984F85F70B0229A70ACE78770236984
:1013A000802238469A7008B0BDE8F081802393709F
:1013B0000027E3E7012D75D0A021917021690A79FA
:1013C000BE4667464FF0A80C1A680492049805E0E0
:1013D0001A680592059A121A052A4AD8CA7802F0A4
:1013E000020202F0FF08002AF2D0CF702169CA7809
:1013F000D2B212F0100F08465AD1920658D5013DCC
:10140000EDB2012D49D0BEF11F0F3BD90A79012D54
:10141000DAD11A680692069D05E01A680792079AC3
:10142000521B052A46D8C27802F0020202F0FF01E0
:10143000002AF2D00223C3702269D378DBB2D90626
:101440003AD49B0634D5B023BEF11F0F93703FD81A
:10145000226904EB0E0312791A760EF1010E5FFA7F
:101460008EFE16B1236980229A7084F839E077469F
:1014700084E781F80280236980229A70774684F895
:1014800039E07BE704EB0E0291F8048082F81880C3
:101490000EF1010E5FFA8EFEB9E781F802C02169F4
:1014A0000846B0E7A82191702069BE460279B0E7EE
:1014B000774663E78170DEE710217823D170013B26
:1014C000FDD12269937803F0F7037746937055E7CF
:1014D00023691B79C5E700BFD8AFFF1F0148FFF79D
:1014E00021BD00BF389CFF1F0148FFF71BBD00BF97
:1014F000A49CFF1F30B590F854308DB0044643BB18
:101500000A2101200CF070FE1449054604A80CF0D5
:10151000C7FE0A22294608A80CF0F4FE08A904A870
:101520000CF0CCFF0E490CF0D1FF014668460CF0E0
:10153000CBFE08A80CF074FE04A80CF071FE009914
:1015400004F1580000F08EFD68460CF069FE0DB005
:1015500030BD243000F06AFDD2E700BF7C4C0100B2
:10156000044D010010B50121044610200BF04CF988
:1015700032200BF063F94FF48033C4F8A8307D209B
:101580000BF05CF90123002184F80131C4F8A810A4
:101590001020BDE810400BF037B900BF2DE9F04135
:1015A0007E4D7F4E2A680660002304464372036125
:1015B0000372C36011460AB9D3E019464B69002B88
:1015C000FBD14C61774820604FF480416361A38078
:1015D000E380A37284F82D30636384F82C30236396
:1015E000216204F1240000E01A465369002BFBD16C
:1015F00050610027DFF8B881A7632785678584F8E5
:101600002E70E76327646764A4F84870C4F82480E8
:1016100000F006FD2A6884F86170A76684F860709F
:101620006766A66504F158005C4B0AB9AEE01A463D
:101630005369002BFBD150610027C4F85880E7663E
:10164000A4F85C70A4F85E7084F86270276767671E
:10165000A767A4F87C7000F0E3FC042004F1B40256
:1016600084F895003B4684F89470C4F89870C4F8E8
:101670008C603946C4F89C2004F18C0001E0D4F859
:101680009C2042F8231094F8952001339A42F6DC0E
:101690002A68424B0AB97BE01A465369002BFBD1FA
:1016A000506100214FF480303F4FC4F8C46004F112
:1016B000DC020126C4F8A400C4F8A800C4F8AC00F9
:1016C000C4F8B0000B46C4F8A010A4F89010A4F819
:1016D000921084F8961084F8CC10C4F8D010C4F896
:1016E0008C70C4F8D42084F8CD6004F1C40001E00B
:1016F000D4F8D42042F8231094F8CD2001339A4234
:10170000F6DC2A68254B0AB944E01A465369002BD7
:10171000FBD150610025254BC4F8D850A4F8C8501F
:10172000A4F8CA5084F8CE50C4F8C43000F01AFBB4
:10173000C4F8E050C4F8E450C4F8E850C4F8EC50E1
:10174000C4F8F050C4F8F450C4F8F850A4F8FC50B1
:1017500084F8005184F80151C4F804512046BDE8D2
:10176000F081104928604FF4804342618280C2803A
:101770008272466280F82D20426380F82C2002633A
:101780000160036224303CB9286032E7186053E7F7
:10179000186086E71860BDE7224626E7D8B0FF1F2D
:1017A000784C0100784F0100544F0100604F010058
:1017B0006C4F0100F8B50E2105463A48FFF760FA74
:1017C0000B213848FFF7D0F90C213648FFF714FAFF
:1017D000012110200BF02CF8002110200BF014F840
:1017E000314802F0CDFC0A2002F02AF9002855D039
:1017F0002E4802F0C5FC14200CF0B6FF0024012393
:1018000005F18C0706464372056047600472C460A8
:1018100004740CF025FAC5F8E06014200CF0A4FF65
:1018200005F1240306460360476004724472C460F5
:1018300004740CF015FAC5F8E46014200CF094FF61
:1018400005F15802022302600646437247600472A3
:10185000C46004740CF004FAC5F8E86014200CF0BD
:1018600083FF05F1C40343600646076004724472B7
:10187000C46004740CF0F4F9C5F8EC6010210C4855
:101880000CF0F8F84FF480330A4AC5F8A840C5F8C0
:10189000A430C5F8AC302B62EA61F8BD064802F00E
:1018A0006FFCA8E7009CFF1F844C0100CC4C01009A
:1018B0000082FF1F887BCD05A84C0100D0F80431C1
:1018C000022B10B503D0063B022B00D910BD0446F5
:1018D000002380F801310649243000F0C3FBD4F81E
:1018E0000431082B1CBF0323C4F8043110BD00BF12
:1018F000EC4C0100D0F80431012B00D0704790F877
:101900000031002BFAD190F88830002BF6D130B599
:1019100090F854308DB0044643BB082101200CF0F0
:1019200063FC1449054608A80CF0BAFC0A222946B3
:1019300004A80CF0E7FC04A908A80CF0BFFD0E49B0
:101940000CF0C4FD014668460CF0BEFC04A80CF087
:1019500067FC08A80CF064FC009904F1580000F042
:1019600081FB68460CF05CFC0DB030BD243000F00B
:101970005DFBD2E70C4D0100044D0100D0F80421BD
:10198000092A03D9012110200AF03EBF40F2C123E9
:10199000D34003F0010383F00101002BF2D01020AB
:1019A0000AF032BF2DE9F84390461278089E099D4F
:1019B0001F461B68C0F804310446894622B3012B38
:1019C0001ED02046FFF7DAFFD4F80431062B43D0AF
:1019D00099F800301BB198F80030002B44D03378D0
:1019E000B3BB2B781BB3D4F80431012B40D0032BAD
:1019F00021D0082B1FD0042B42D03B60BDE8F883D8
:101A0000FFF778FDD4F80431012BDAD194F8543083
:101A100003F0FF02002BD4D194F800310BB184F80D
:101A20000021204904F1240000F01CFBC9E7D4F890
:101A30000431032BDDD194F85420002ADDD1012399
:101A4000C4F80431184802F09BFBD4F80431D2E703
:101A50002046FFF733FFC4E794F80131002BB7D1DC
:101A60002046FFF77FFDB3E72046FFF743FFB6E7C9
:101A70000E4904F1240000F0F5FA0423C4F80431FF
:101A800094F8543003F0FF021BB104233B60BDE81F
:101A9000F883C4F80421064802F072FBD4F804313C
:101AA000ABE700BF144D0100204D0100FC4C0100CC
:101AB000344D010010B504460CF0C4F9204610BDA9
:101AC000024A034903480EF011BA00BFFC9BFF1FF6
:101AD000B51A0000C8ACFF1F38B5074D074C0848C1
:101AE0002A4621460EF002FA2A4621460548BDE85C
:101AF00038400EF0FBB900BFFC9BFF1FB51A000079
:101B0000D0ACFF1FD8ACFF1F024A034903480EF0B8
:101B1000EDB900BFFC9BFF1FB51A0000E0ACFF1F32
:101B2000024A034903480EF0E1B900BFFC9BFF1FC6
:101B3000B51A0000E8ACFF1F024A034903480EF043
:101B4000D5B900BFFC9BFF1FB51A0000F0ACFF1F0A
:101B5000024A034903480EF0C9B900BFFC9BFF1FAE
:101B6000B51A0000F8ACFF1F024A034903480EF003
:101B7000BDB900BFFC9BFF1FB51A000000ADFF1FE1
:101B8000024A034903480EF0B1B900BFFC9BFF1F96
:101B9000B51A000008ADFF1F2DE9F8434FF000080B
:101BA000064600F11805474641463046002F4FD003
:101BB0000CF028F8F0B12C68B4F5803F07F104016F
:101BC00000F1040E07F5827C27D05EF8042B34FB6D
:101BD00002F334FB12F903F30F0209F30F03C2EA15
:101BE00003430A6893FA12F341F8043B8C45ECD89E
:101BF0000BF0C4FF08F10108B8F1040F05F104056A
:101C0000D2D1002F40D03046394600220BF0E0FF01
:101C10003846BDE8F8430BF0B1BF07F10C0100F105
:101C20000C0451F8083C54F8082C93FA12F341F8CC
:101C3000083C54F8042C51F8043C93FA12F38C45F8
:101C400041F8043C04F1080401F10801E9D8CFE7A8
:101C50000BF0E4FF07460028CCD02868B0F5803FA1
:101C6000C8D0391D07F582740B6830FB03F230FBD6
:101C700013F302F30F0203F30F03C2EA034341F825
:101C8000043B8C42F0D8B5E7BDE8F883024A03492B
:101C900003480EF02BB900BFFC9BFF1FB51A0000D4
:101CA00010ADFF1F10B500210BF0ACFF70B172B684
:101CB0000A4B1A6872B10A490C6844B11C6008608A
:101CC00062B61046BDE810400BF058BF10BD08606A
:101CD00062B610BD186062B610BD00BF28ADFF1F10
:101CE00018ADFF1F38B5184B18491A68184C126800
:101CF0001B79184D0B70A242286836BF2246A4F506
:101D0000807202F58074C0B1011D31F9023B03F508
:101D100000431B1122F8023B9442F6D80BF02EFF31
:101D20000D4B0022196829601A600C4B1B781BB1FF
:101D30000B4B4FF080421A6038BD4FF4006322F81D
:101D4000023B9442FBD8F0E71CADFF1F1F80004010
:101D50004093FF1F28ADFF1F18ADFF1F24ADFF1FCD
:101D600008E200E0F8B501214248434E0CF006F8C5
:101D7000424A43491368802043F48053136000248F
:101D8000087040F608053480012008340AF056FD3A
:101D9000A3B2AB421CB2F6D13A4B1B685B0208D52A
:101DA000394B1A6848F6A273134048F6A272934260
:101DB0004FD03449344A0B68344F354D3548364C92
:101DC00043F480030B604FF0010E40F22F3648F6CB
:101DD000A37140F20113C7F800E02E601160146097
:101DE0000360244C2D4A236823491A6002259D80F4
:101DF0002279196102F1804202F50432284EDE6038
:101E000040F20111D9804FF4807000210627B026DE
:101E1000D8829D60D88399829F83996111701670D2
:101E20000BF052FF22791F4B1F4E187053119B006D
:101E300003F160431D4C327003F5614302F1100061
:101E400002F01F0701211A4D44F82050B9401960D3
:101E5000F8BD0F4B1A6840F22F339A42A9D10B4BB1
:101E60001B68012BA5D10B4B1A6840F201139A4253
:101E70009FD1B6E71CADFF1F00C00C402C80044072
:101E800021C00C403C800440006003400C600340D3
:101E90000460034010600340A28F01004092FF1FC6
:101EA00000FEFFFF24ADFF1F1B8000400096FF1FB8
:101EB000E51C0000024A034903480EF017B800BFB2
:101EC000FC9BFF1FB51A00001CADFF1F024A03490F
:101ED00003480EF00BB800BFFC9BFF1FB51A0000B3
:101EE0002CADFF1F024A034903480DF0FFBF00BF9E
:101EF000FC9BFF1FB51A000034ADFF1F024A0349C7
:101F000003480DF0F3BF00BFFC9BFF1FB51A000094
:101F10003CADFF1F024A034903480DF0E7BF00BF75
:101F2000FC9BFF1FB51A000044ADFF1F024A034986
:101F300003480DF0DBBF00BFFC9BFF1FB51A00007C
:101F40004CADFF1F024A034903480DF0CFBF00BF4D
:101F5000FC9BFF1FB51A000054ADFF1F90F83030F6
:101F600003B9704770B505460BF0B4FD064600286E
:101F700050D0EB69296A8B4227D901F580729342D0
:101F800038D2A8695C1A22460844311D00F0B6FE1A
:101F90002B6AEA6A1919630822447F2B2962EA62D4
:101FA00009D806EB4303023306F58171002223F8BA
:101FB000022F8B42FBD12846314600220BF008FE4F
:101FC0003046BDE870400BF0D9BD134A13885BB9A9
:101FD0005E211248FEF75AFD002385F83030304666
:101FE000BDE870400BF0CABD013B9BB21380002BD3
:101FF000F2D1EDE7A8694FF480720844311D00F07A
:102000007DFE2A6AEB6A02F5807203F580732A620C
:10201000EB62D0E770BD00BF5CADFF1F009CFF1FEF
:10202000002380F830308362C362704772B690F844
:10203000303053B1002380F8303062B6074A13883D
:102040002BB95E210648FEF721BD62B67047013B01
:102050009BB21380002BF4D0704700BF5CADFF1F14
:10206000009CFF1F70B51B4E84B004460D46FFF761
:10207000DDFF5E211848FEF7F3FC33882946013363
:102080006846338001F038FE6B4607CBA061A0693B
:102090001B88A384E161226240B10022E369E2620D
:1020A0000120A36284F8300004B070BD338833B9D6
:1020B00009485E21FEF7EAFC002004B070BD013B38
:1020C0009BB23380002BEFD103485E21FEF7DEFC8C
:1020D0000020F2E75CADFF1F009CFF1F036A2DE9A3
:1020E000F04780464BB9D8F81830D8F81C2003EBDD
:1020F000C213C8F81830BDE8F0870BF0EBFC0646B9
:102100000028F0D0D8F81890D8F81C70D8F820C063
:10211000134D4946841C00F5817E0B0E5A1C35F97F
:10212000130035F91220C1F30F2ACAF5803300FBE2
:1021300003F30AFB023353FB0CF324F8023FA645DA
:102140003944EAD109EBC7174046C8F81870314640
:1021500000220BF03DFD3046BDE8F0470BF00EBD10
:10216000484D0100704700BF064B074ADA62022162
:10217000002259609A7083F8242083F8302083F875
:102180003220704760ADFF1F844F010010B5012160
:1021900000780AF039FB0E4A137893B10D49CB7AD7
:1021A00000241846147063B1DC0703D50A4A886915
:1021B000106018469A0705D4430702D5074B0A6AF0
:1021C0001A6010BD064BCA69C87A1A60F4E700BFEE
:1021D000B8ADFF1F009CFF1F00E100E008E100E038
:1021E00004E100E01E4B1A781AB1007800210AF0D1
:1021F0000BBB70B41B4A1C49D47A096801251D70B9
:10220000ECB172B6D37ADE071C4606D5174DD468FA
:102210002E68344094612C601C469D0706D5144DF1
:1022200013692E68D47A3340D3612B60630705D5D8
:10223000104C536925682B401362236062B6136803
:10224000DA688A4207D00C4C1C600C4AD96041F015
:1022500080441C611A600078002170BC0AF0D4BA76
:10226000B8ADFF1F009CFF1FB4ADFF1F80E100E071
:1022700084E100E088E100E001403F0000003F8091
:10228000F0B41248124A036882B016460093009FC9
:102290004FF00045FF24136843F480631360D56258
:1022A0005463D36A002BFCDAB36BDBB2FF2B09D08B
:1022B00003680193019BDB1B8B42ECD3002002B02F
:1022C000F0BC7047012002B0F0BC7047D8AFFF1FD0
:1022D00000C00240F8B50D464FF49671164604460C
:1022E000FFF7CEFF284B1A684FF0004042F480629F
:1022F00045F040011A60D8621A465963D36A002B30
:10230000FCDA214918204FF000470A6826FA00F34A
:1023100042F48062DBB20A60CF624B63CB6A002B6F
:10232000FCDA083810F1080FEFD155B3082D0CBFB7
:102330008721FF21144B1A684FF0004042F480625D
:102340001A60D8621A465963D36A002BFCDA0E4A27
:10235000002716464FF00045FF21136843F48063C1
:102360001360D5625163D36A002BFCDAB36BD8B229
:102370001B06607000D4F8BD0137B7F5807FECD143
:10238000F8BD9521D6E700BF00C00240F0B4154962
:10239000154A0B6882B016460093009F4FF0004527
:1023A000FF24136843F480631360D5625463D36AD7
:1023B000002BFCDAB36BDBB2FF2B43700AD10B6846
:1023C0000193019BDB1BB3F5967FEAD9002002B095
:1023D000F0BC7047A3F1FE00B0FA80F0400902B0F3
:1023E000F0BC7047D8AFFF1F00C00240F8B583783B
:1023F000032B0E46044618BF4E021546FFF7F2FEA9
:10240000324611212046FFF765FF18B92046FFF735
:10241000BDFF20B92046FFF7B9FE0020F8BD204BD4
:102420002049214A1A608E4659631A4659631E464E
:10243000596305F5FD70A91C05F5FE77D36A13F005
:10244000F00FFBD0C6F834E0B36B01F8013C1B126F
:1024500001F8023C02318F42F0D105F50075A84227
:102460000DD20F4A1646D36A13F0F00FFBD0B36BB0
:10247000191200F8021BA84200F8013CF3D3084BE4
:102480000949084A196019465A63CB6A044A13F08D
:10249000F00FFAD02046936BFFF778FE0120F8BDCD
:1024A00000C00240FFFF009000041F80F0B4314ED6
:1024B00033684FF0004743F4806333603D46F76272
:1024C000344671633346511C02F20127E26A002A46
:1024D000FCDA1A6811F8016C42F480621A60DD625D
:1024E0005E63E26A002AFCDA1A6811F8026B42F4B1
:1024F00080628F421A60DD625E63E7D11D49CA6A5D
:102500001C4B002AFBDA1A684FF0004542F4806247
:10251000FF241A601946DD625C63CB6A154A002B02
:10252000FBDA13684FF0004543F48063FF24136027
:102530001146D5625463CB6A0E4A002BFBDA13684E
:102540004FF0004543F48063FF2413601146D562C9
:102550005463CB6A074A002BFBDA936BDBB203F0C0
:102560001F024370A2F10500B0FA80F04009F0BCF0
:10257000704700BF00C0024070B5044671B1837857
:10258000032B0D4618BF4D021646FFF72BFE2A46B9
:1025900018212046FFF79EFE054620B12046FFF792
:1025A000F5FD002070BD3246FE212046FFF77EFF7C
:1025B0000028F3D04FF416712046FFF761FE002883
:1025C000ECD02A460D212046FFF784FE0028E5D1F5
:1025D0000B4B1A684FF0004542F48062FF201A60EE
:1025E0001946DD625863CB6A054A002BFBDA936B10
:1025F00013F0FF0FD2D12046FFF7C8FD012070BDB8
:1026000000C00240014B024A1A607047B4ADFF1F80
:102610000000023838B590F90530002B03DBBDE827
:10262000384000F06DB904460121006900F092F9CC
:10263000F8B1257D104B13EB45151AD0A3790F4A3D
:10264000012B9CBFA369EB61E36912686B831B0CD0
:10265000AB8232B105F1160105F1180090472B8BC2
:102660006B82637903F07F036371BDE8384000F04B
:1026700047B9002038BD00BFC8ADFF1FBCADFF1F6C
:1026800010B500F1080204460121006A00F000FACA
:1026900050B1E3693BB96379A268E26163F07F03FB
:1026A0006371012010BD012010BD00BFF8B5837912
:1026B00013B182698A4201D20020F8BD022B0F4675
:1026C00005461AD007B32B6AE9681C7C4A1E04F140
:1026D00009037C1EDA40DC40A24211D9EB69AB60F1
:1026E00005F1080606E0A968286A00F099F9013C9E
:1026F0000028E1D03246002CF5D1EF600120F8BD72
:102700000029EBD0A41AEBE7AF60EF600120F8BD21
:102710002DE9F04F8B46817985B00129074601925A
:1027200005D001233B71002005B0BDE8F08F427950
:102730009107F6D5530708D5FC68B9698C4200F0BB
:10274000A880FFF7B3FF0028EBD0019BFC68002BAB
:1027500049D0DFF88C91DFF88CA1DDF80480386A6D
:102760000679013E06EA542616F0FF06C4F3080473
:1027700042D1002C40D1B96800296FD1FA69002AF2
:102780007ED0BA60C4F50075ADB245453AD9057C36
:102790004169023AAA400E4416441FFA88F51CB952
:1027A000F868BA6990424CD23046012100F0D2F864
:1027B0000028B6D04C4404EB050E74450DD00BF147
:1027C000FF31621E0EF1FF3611F8010F02F8010F02
:1027D0009642F9D1C4EB0E04A344FC68B8EB05089B
:1027E0002C44FC60BBD1BB69A34257D27A79BC614F
:1027F00042F080027A715AE0C4F50075ADB24545E9
:10280000BA68C4D8017C4069023A8A400644B5F5EA
:10281000007F1644C3D1DAF80020964204BF4FF07F
:10282000FF32CAF800202A4A314610685A46FFF79C
:10283000A3FE00283FF475AF0BF5007B4FF4007545
:10284000CBE700F05DF800283FF46BAF2149CAF8F0
:1028500000600A7842F001020A70ABE703AA00F0B8
:10286000DFF800283FF460AF386A1B4B90F8205027
:10287000039A4FF6F871102D18BF19468A4280D37B
:102880003846FFF7FDFE00283FF44BAF386ABA68C0
:1028900078E7019B002B7FF45CAF08E00F4B7A795F
:1028A0001B6823B1019B13B142F080027A711207B9
:1028B00009D5BB79002B3FF434AF3846FFF7AAFEA9
:1028C00000283FF42EAF019805B0BDE8F08F00BF9F
:1028D000C4ADFF1FC8AFFF1FF8FFFF0FBCADFF1F48
:1028E000C8ADFF1F109DFF1F00B583B002AB0122D2
:1028F00003F8011D1946FFF70BFF03B05DF804FB59
:1029000070B50F4C23780BB9012070BD0D4B0E4DE7
:10291000196828680D4AFFF72FFE70B10C4E316818
:1029200019B900232370012070BD2868074AFFF7FA
:1029300023FE10B100233360F3E7002070BD00BF19
:10294000C8AFFF1F109DFF1FC4ADFF1FC8ADFF1F05
:10295000C0ADFF1F70B50D4D2B6883420E460ED0E3
:102960000446FFF7CDFF08B9002070BD084B094AA7
:1029700018682146FFF73AFD0028F5D02C60064B79
:10298000197831431970012070BD00BF109DFF1FE1
:10299000C4ADFF1FC8ADFF1FC8AFFF1FF8B590F84B
:1029A0002030C469102B1A4B05460E4617461B688B
:1029B00016D004EBD1149C4216D106F07F06154ABE
:1029C00042F826701449287E0A78012842F0010254
:1029D0000A7018D9A968114A0B4413600120F8BD88
:1029E00004EB11249C4208D000212046FFF7B2FFDF
:1029F00050B195F82030102B07D1F6B2054A234686
:102A000022F81670DEE70120F8BD2346D5E700BFA7
:102A1000109DFF1FC8ADFF1FC8AFFF1FC0ADFF1F38
:102A2000C36801338B4218D370B590F82030102B57
:102A3000154B044616460D46C0691B680FD000EBC7
:102A4000D11098420FD105F07F01104B53F821307F
:102A500023F070433360012070BD0020704700EB0D
:102A60001120984207D00021FFF774FF50B194F86D
:102A70002030102BE7D1E9B2044B33F8113033602A
:102A8000012070BD002070BD109DFF1FC8ADFF1F4D
:102A90002DE9F04F176883B06FB301374FF0000A8C
:102AA000C36803F1010813B38B46064691463C46C2
:102AB000002505E01C461F46F3680135AB4216D9D8
:102AC000A04538BF0224214601AA304638BF274618
:102AD000FFF7A6FF631CD91B48B1019A002AE9D170
:102AE0008B4510D01C46F3680135AB42E8D8002076
:102AF00003B0BDE8F08FA1F1010ABAFA8AFA0768BB
:102B00004FEA5A1ACCE7012CF1D9F36801339C4201
:102B1000EDD86FF0704221463046FFF73FFF0028A6
:102B2000E5D0A74214D2013C012CE0D9F36801336F
:102B30009C42DCD8621C21463046FFF72FFF00285C
:102B4000D5D0A74204F1FF3402D0012CEED1CEE75C
:102B5000D9F8001059B10129C9D9F3680133994254
:102B6000C5D83A463046FFF719FF0028BFD0C9F84C
:102B70000070BAF1000F01D0013737600120B7E7CC
:102B8000524ADFF868C12DE9F04F514D514CDFF842
:102B90006081DFF860B1DFF860E11646D17A09B3F1
:102BA00072B6F37AD807194607D5DBF80000F1684A
:102BB0000140B161CBF8001019469B0707D5DCF83E
:102BC00000001369D17A0340D361CCF800304F077D
:102BD00006D5D8F8001053690B401362C8F80030CE
:102BE00062B6D17A1368D868B0F1384F0AD04FF086
:102BF00078404FF03849C3F800E0C3F80C901861F2
:102C0000354818602078D5F800A04FF001098007FA
:102C10008AF800914FF000492DD57020C3F82C9010
:102C20005863D86A0028FCDA4FF0004900209F6BF7
:102C3000C3F82C905863D86A0028FCDA01209B6BFB
:102C40008AF8800081B1CF0703D5244F9069D17AEB
:102C50003860880703D5224FD069D17A3860490798
:102C600002D52048116A01601B0697D51E4B002231
:102C70001A70BDE8F08F0520C3F82C905863D86A0D
:102C80000028FCDA4FF0004900209F6BC3F82C901D
:102C90005863D86A0028FCDA01209B6B8AF8800010
:102CA00081B1CF0703D50D4F9069D17A386088077D
:102CB00003D50B4FD069D17A3860490702D509484E
:102CC000116A0160DB073FF569AFCFE7009CFF1F8A
:102CD000D0AFFF1FCCAFFF1F00003F8000E100E03E
:102CE00004E100E008E100E0CDAFFF1F84E100E077
:102CF00088E100E080E100E001403F002DE9F04F75
:102D00000E4685B000218146304615460DF0DEFCAA
:102D1000984B994ADB7A11780291002B25D072B634
:102D2000944BDB7ADC07194608D59448914904682E
:102D3000C96821408F4CA16101601946980709D5E7
:102D40008F488C4B04681B698A492340894CC97A97
:102D5000E36103604B0707D58A49864B08685B69C6
:102D60000340844803620B6062B6824B1B68D968DB
:102D7000B1F1384F09D0844818604FF03840D8601E
:102D800082494FF07840186119608148DFF804B239
:102D90000178039100297ED1DBF80020029800F031
:102DA000080A00F001015FFA8AFA01914FF0010868
:102DB00009EB0507BAF1000F40D1544682F80081B3
:102DC000019A002A4DD04FF000410322D9625A6384
:102DD000DA6A002AFCDA4FEA194242F080524FF0D8
:102DE0000041986BD9625A63DA6A002AFCDA1FFA4A
:102DF00089F949F080524FF00041986BD9625A63CB
:102E0000DA6A002AFCDADFF86C919B6B32463146B5
:102E10002B464846FDF77CFFDBF800202E4482F865
:102E200080800121002C00F0B780524B2546B94626
:102E30001B6809EB0507BAF1000FBED07C1E84EABF
:102E4000090414F07E44B9D029F07E4182F8008153
:102E5000019AC1F100716C1A09EB01070D46002AB5
:102E6000B1D1C9F3074242F0805242F440724FF0B0
:102E70000041D9625A63DA6A002AFCDA1FFA89F93A
:102E800049F080524FF00041986BD9625A63DA6A78
:102E9000002AFCDAB7E71178DBF8002001248F075D
:102EA00082F800414FF0004440F1B8807021DC62AC
:102EB0005963D96A0029FCDA4FF0004400219F6B66
:102EC000DC625963D96A0029FCDA996B090600F1C2
:102ED000B880039B0121022B82F8801000F2BE8093
:102EE000244B82F800111B684FF000400621D86285
:102EF0005963D96A0029FCDA01209C6B82F88000B2
:102F000018210139FDD102994C0740F10C81039938
:102F100081420CBF8521752101244FF0004082F8C9
:102F20000041D8625963D96A0029FCDA986B02988B
:102F3000012110F0020F82F880104FF0004082F85B
:102F4000001100F0DD807021D8625963D96A002930
:102F5000FCDA996B4FF000440020DC625863D96AB8
:102F60000029FCDA996B0906F7D5012182F8801057
:102F700014E700BF009CFF1FCCAFFF1F80E100E003
:102F800084E100E088E100E001403F0000003F8074
:102F9000CDAFFF1FD0AFFF1F039B23B3D9F8003085
:102FA00082F800114FF000400621D8625963D96AB7
:102FB0000029FCDA01209C6B82F88000182101397D
:102FC000FDD102994C0743D47A2101244FF00040EF
:102FD00082F80041D8625963D96A0029FCDA0121DC
:102FE0009B6B82F88010554B5449DB7A1A4693B19B
:102FF000D80703D5524A896911601A46990704D542
:103000004E4A504BD169D27A1960530703D54B4AC7
:103010004D4B126A1A6005B0BDE8F08F0521DC62E5
:103020005963D96A0029FCDA4FF0004400219F6BF4
:10303000DC625963D96A0029FCDA996BCF073FF546
:1030400048AF0021012482F8804001700391A5E679
:103050000399814214BF7A218A21B6E7374B37485A
:10306000DB7A19469BB1DC0703D5354980690860D6
:1030700019469F0705D5314B32483049DB69C97A7B
:1030800003604C0703D52D492F4B096A1960019243
:10309000FFF776FD294B2949DB7A019AEBB172B62D
:1030A000CB7AD8071A4640D49B0709D52749234B2A
:1030B00008681B69214A03402048D27AC3610B602B
:1030C000570707D5224A1D4B11685B690B401B4906
:1030D0000B62136062B6DBF80020184B1B68D968DE
:1030E000B1F1384F09D01B4818604FF03840D86014
:1030F00019494FF0784018611960002103914DE69D
:103100000521D8625963D96A0029FCDA996B4FF01E
:1031100000440020DC625863D96A0029FCDA996B0C
:10312000CF07F7D421E77521F6E60C48CA68046892
:1031300022408A6102601A46B6E700BF009CFF1F6A
:1031400000E100E004E100E008E100E084E100E0EB
:1031500088E100E001403F0000003F8080E100E0A6
:103160002DE9F84FDFF8D8816C4D98F80030DFF882
:10317000D491DFF8D4A106460C461746AB46002B87
:1031800040F0AA80EB7A1BB372B69BF80B20D007F5
:10319000114609D5624B1968DBF80C300B406049C9
:1031A000CBF818300B601146930707D55D4BE97AD1
:1031B0001A682B6913405B4AEB611360480706D518
:1031C000594B1A686B691340574A2B62136062B6F9
:1031D0002B68DA68B2F1384F09D0544919604FF0C2
:1031E0003841D960524A4FF0784119611A60D9F8D4
:1031F0000000012280F800214FF000410622D96230
:103200005A63DA6A002AFCDAF2B2C2F580724FF031
:10321000010EBA42D3F838C080F880E04FF01801B0
:1032200028BF3A460139FDD19AF8001080F800E134
:10323000C90754D54FF0004E0221C3F82CE0596362
:10324000D96A0029FCDA310C41F080514FF0004E70
:10325000D3F838C0C3F82CE05963D96A0029FCDAE6
:10326000B1B241F080514FF0004ED3F838C0C3F8EE
:103270002CE05963D96A0029FCDA996B1644BF1A0D
:103280004FF0004E224414F8011BC3F82CE05963A0
:10329000D96A0029FCDA9442996BF4D1EB7A4FF0A9
:1032A000010E0424194680F880E088F800408BB1B4
:1032B000DC0704D51F49DBF8180008601946980799
:1032C00003D51D48EB69E97A03604B0702D51B491A
:1032D0002B6A0B601446F7B1FFF752FC52E7C6F3B6
:1032E000074141F0805141F400714FF0004EC3F8A6
:1032F0002CE05963D96A0029FCDAB1B241F080515F
:103300004FF0004ED3F838C0C3F82CE05963D96AA7
:103310000029FCDAB1E7BDE8F88F00BF009CFF1F71
:1033200080E100E084E100E088E100E001403F004E
:1033300000003F8000E100E004E100E008E100E07F
:10334000CDAFFF1FD0AFFF1FCCAFFF1FF8B5534D60
:10335000534A2B7817780446002B40F09C80514943
:10336000CB7AEBB172B6CB7ADE071A4606D54E4859
:10337000CA68066832408A6102601A46980706D514
:103380004A480B690668CA7A3340CB610360530729
:1033900005D5474A4B69106803400B62136062B65B
:1033A0000B68DA68B2F1384F09D042481860424AD7
:1033B0004FF038464FF07840DE6018611A603F4A9F
:1033C0001668012286F800214FF000400622D862DC
:1033D0005A63DA6A002AFCDA0120D3F838E086F86A
:1033E00080001822013AFDD1FF0786F8000139D587
:1033F0004FF00040D822D8625A63DA6A002AFCDA19
:10340000220C42F080524FF000409F6BD8625A630A
:10341000DA6A002AFCDAA4B244F080544FF0004289
:10342000986BDA625C63DA6A002AFCDA9B6BCB7A0F
:103430001C4C01201A4686F8800083B1DE0703D5B4
:103440001F4AA06910601A46980703D51D4BC8692A
:10345000CA7A1860530702D51B4B0A6A1A60022306
:103460002B70F8BDC4F3074242F0805242F4584238
:103470004FF00040D8625A63DA6A002AFCDAA4B23C
:1034800044F080544FF00042986BDA625C63DA6A71
:10349000002AFCDACAE7FFF773FB60E7CDAFFF1F36
:1034A000CCAFFF1F009CFF1F80E100E084E100E043
:1034B00088E100E001403F0000003F80D0AFFF1FE7
:1034C00000E100E004E100E008E100E070B54C4BF1
:1034D0001B780446002B79D14A49CB7AEBB172B6FE
:1034E000CB7AD8071A4606D54748CA6805682A40E5
:1034F0008A6102601A469E0706D544480B69056832
:10350000CA7A2B40CB610360550705D5404A4B6909
:10351000106803400B62136062B60B68DA68B2F1A0
:10352000384F09D03B4818603B4A4FF038454FF0C0
:103530007840DD6018611A60384A106801264FF043
:1035400000459F2280F80061DD625A63DA6A002A32
:10355000FCDA4FF0004500229E6BDD625A63DA6AA6
:10356000002AFCDA9B6B23700A684FF000450023A9
:10357000D5625363D36A002BFCDA936B63700A68DD
:103580004FF000450023D5625363D36A002BFCDA69
:103590002378926BA270012B1BD0CB7A194D01249A
:1035A0001A4680F8804083B1DC0703D51C4AA8691D
:1035B00010601A46980703D51A4BC869CA7A186072
:1035C000530702D5184B0A6A1A6070BDFFF7D8FA84
:1035D00082E70A684FF000450023D5625363D36A3F
:1035E000002BFCDA936BE3700A684FF00045002370
:1035F000D5625363D36A002BFCDA936B2371CCE75B
:10360000CDAFFF1F009CFF1F80E100E084E100E0E0
:1036100088E100E001403F0000003F80D0AFFF1F85
:1036200000E100E004E100E008E100E0F0B5864DD3
:103630002B7883B0002B40F083806846FFF746FF6D
:103640009DF80030202B64D08049C87AF0B172B662
:10365000CB7AD8071A4606D57D4CCA682068104038
:1036600088611A4620609F0706D57A4A0B69106860
:103670000340CB611360CA7A560705D5764A4B6979
:10368000106803400B62136062B6C87A0B68DA6890
:10369000B2F1384F09D0714C1C60714A4FF0384676
:1036A0004FF07844DE601C611A606E4A146801278E
:1036B0004FF00046062284F80071DE625A63DA6A2F
:1036C000002AFCDA01269F6B84F880601822013AF8
:1036D000FDD14FF00047C72284F80061DF625A63D2
:1036E000DA6A002AFCDA01229B6B84F8802060B140
:1036F000C40703D55C4B8A691A60C87A820722D452
:10370000430702D5594B0A6A1A6003232B7003B092
:10371000F0BD9DF80230A3F12002022A94D8544C47
:10372000212B207814D000F03F0280110128227054
:103730005FFA80FEEBDC222B0CBF082602260EE08F
:10374000FFF71EFA79E74B4BCA691A60C87AD7E7C8
:1037500000F03F03801123705FFA80FE02263B4990
:10376000CB7A03B372B6CB7ADF071A4609D5DFF8F6
:10377000E0C0CA68DCF8007017408F611A46CCF8C8
:1037800000709B0706D5334A0B6917683B40CB6135
:103790001360CA7A570705D52F4A4B6917683B4013
:1037A0000B62136062B60B68DA68B2F1384F09D069
:1037B0002A4919604FF03841D960294A4FF07841C1
:1037C00019611A60274A1168012281F800214FF01F
:1037D00000470622DF625A63DA6A002AFCDA012215
:1037E000D3F838C081F880201827013FFDD14FF071
:1037F000004CC42781F80021C3F82CC05F63DA6A4B
:10380000002AFCDA1EFB06F2120242F080524FF050
:1038100000469F6BDE625A63DA6A002AFCDA4FF0D8
:1038200000464FF080529F6BDE625A63DA6A002ACC
:10383000FCDA22789B6B431C42EA8313012223703B
:1038400081F8802061E700BFCDAFFF1F009CFF1F04
:1038500080E100E084E100E088E100E001403F0019
:1038600000003F80D0AFFF1F00E100E008E100E072
:10387000CCAFFF1F04E100E0F8B54E490B780BB95F
:103880000120F8BD4C48C47AF4B172B6C37ADE07A1
:103890001A4606D5494CC26825682A4082612260D2
:1038A0001A469D0706D5464C03692568C27A2B4007
:1038B000C3612360540705D5424A43691468234015
:1038C0000362136062B6C47A0368DA68B2F1384FF3
:1038D00009D03D4D1D603D4A4FF038464FF07845C8
:1038E000DE601D611A603A4A3A4D16782D68012251
:1038F00085F80021B2074FF0004729D57022DF621A
:103900005A63DA6A002AFCDA4FF000470022D3F843
:1039100038E0DF625A63DA6A002AFCDA01229B6B24
:1039200085F8802084B1E70703D52B4A8569C47ADE
:103930001560A50703D5294AC569C47A15606207D1
:1039400002D5274A006A10601B0629D40020F8BD62
:103950000522DF625A63DA6A002AFCDA4FF0004778
:103960000022D3F838E0DF625A63DA6A002AFCDA10
:1039700001229B6B85F8802084B1E70703D5164AA6
:103980008569C47A1560A50703D5144AC569C47A48
:103990001560620702D5124A006A1060DB07D5D4B1
:1039A000002416F0C00F0C703FF46AAFFFF73EFE24
:1039B0002046F8BDCDAFFF1F009CFF1F80E100E057
:1039C00084E100E088E100E001403F0000003F802A
:1039D000CCAFFF1FD0AFFF1F00E100E004E100E02B
:1039E00008E100E002781F2A15D08378A3F11001C6
:1039F0000F290DD9A3F12001052908D98AB94278E8
:103A00008AB9002B14BF4FF4801000207047063B8A
:103A10000120984070474378892BE6D14FF08070A1
:103A20007047FF2A02D04FF4801070474278FF2A77
:103A3000F9D1FF2B14BF4FF480100020704700BF56
:103A400070B56A4B6A4D53F830302B6082B0044633
:103A50006848FCF7C7FF2046012108F0E9FE2E6800
:103A6000012386F880306846FFF730FD9DF800405E
:103A7000A4B99DF8013013B99DF8020060B1684601
:103A8000FFF7B0FFB0F1807F21D800235A4A684683
:103A90001370FFF71BFD012002B070BDFF2C09D190
:103AA0009DF80130FF2BEAD19DF80230FF2BE6D1C3
:103AB0000020F1E76846FFF795FFB0F1807F06D858
:103AC000012C6DD0202C14BF00230223DEE74949CE
:103AD000CB7AD3B172B6CB7AD8071A4606D5474807
:103AE000CA68046822408A6102601A469B0706D5AC
:103AF00043480B690468CA7A2340CB6103605607C8
:103B000065D462B62E689DF800400B68DA68B2F1A1
:103B1000384F09D03B4818603B4A4FF038454FF0CA
:103B20007840DD6018611A60012C43D001244FF009
:103B30000040062286F80041D8625A63DA6A002AF9
:103B4000FCDA01209C6B86F880001822013AFDD136
:103B50004FF00044B72286F80001DC625A63DA6A4B
:103B6000002AFCDA01229B6B86F88020CB7A214860
:103B70001A4663B1DC0703D5244A806910601A46EF
:103B800098072BD4530702D5214B0A6A1A609DF877
:103B90000030202B19D0012B25D11A46052301E036
:103BA000042300229DF8041000297FF46FAF42F037
:103BB00014036BE74FF00040164A86F80041D862C4
:103BC0005A63DA6A002AFCDACCE70B235EE7124A72
:103BD0004B69106803400B62136092E70F4BC86992
:103BE000CA7A1860CEE7012350E700BF045C0100E9
:103BF000D0AFFF1F009CFF1FCCAFFF1F80E100E094
:103C000084E100E001403F0000003F8000E100E06F
:103C100008E100E08017001088E100E004E100E026
:103C2000044B1B7813F0100F14BF4FF480204FF497
:103C300080307047CCAFFF1F00B583B008226946C3
:103C40000020FFF75BF8009B104A93421AD0013323
:103C500003D0002003B05DF804FB0D4B00926946D1
:103C6000082200200193FFF77BFAFFF705FE0028EA
:103C7000FBD0082269460020FFF740F8034B009A6A
:103C80009A42E6D1019803B05DF804FB4C5596FAD0
:103C90005802F61830B50546808983B004304000DC
:103CA0000DF106010222FFF729F8A889BDF80630B8
:103CB0000430DB4340000DF106010222ADF806306E
:103CC000FFF74EFAFFF7D8FD04460028FAD0A8897E
:103CD00004300DF1060140000222FFF70FF8BDF895
:103CE000063023B920462B606B6003B030BD002442
:103CF000204603B030BD00BF2DE9F04F002393B044
:103D0000036043608360C36004900C460391FFF737
:103D100093FF00287AD0227883B20293002A00F021
:103D20008A80464B46482146534011F8012F00FB3C
:103D300003F3002AF8D1434F5A08A7FB0227BF0B11
:103D4000C7EBC737A3EB47070137BFB2029B002B76
:103D50005CD003EB43030593002301930DF1280B83
:103D6000029B019A1946C2EB010ABAF1070F58D813
:103D7000101D40004FEA4A025946FEF7BFFFBAF154
:103D8000000F47D0029B1E1D019B03EB83021644CC
:103D90000025760008E04FF6FF739A4236D00135D1
:103DA000554506F10A0635D23BF81520BA42F2D144
:103DB00000230A2207A930460993FEF79FFF099ABC
:103DC000059B039C02F1020999444FEA89090DF110
:103DD0004708484610220EA9FEF790FF09F1100986
:103DE0000DF1370301E09845F3D014F8011B13F8E7
:103DF000012F8A42D3D1002AF5D1019B0498079A5A
:103E00002B441D46089B858180E80C00049813B064
:103E1000BDE8F08F019B029A53449A4201939FD8C8
:103E2000F4E7019B181D400010225946FEF766FF7B
:103E30004FF0080AA6E74FF4204787E7C59D1C818D
:103E4000930100010300018000B585B0014668467A
:103E5000FFF752FF0098003018BF012005B05DF851
:103E600004FB00BF00B585B001466846FFF744FF7C
:103E7000009810B16846FFF70DFF05B05DF804FB30
:103E80002DE9F04F05468BB00E4606A82946174689
:103E9000FFF732FF069C1CB9FFF7CEFE814618B92A
:103EA00000200BB0BDE8F08FA2461FFA89F80AF196
:103EB000080398454FF6FF7B1ED2CAEB08040AF1AF
:103EC00004006200400006A9FEF718FF6CB1BDF8BF
:103ED00018305B4519D006AA002303E032F8021F10
:103EE000594513D00133A342F8D3A244D045D7D9C2
:103EF0000AF108039845E0D30AF1040040001022BB
:103F000006A9FEF7FBFE0824E1E700230AEB030401
:103F1000A045C5D908EB480B4FEA8B03009303F18A
:103F2000080B002C67D1524A4FEA993909EA02027C
:103F300002EB0B0A002F51D10AF1FF0727F0FF0710
:103F400028460DF0BDF8814606A8FFF7BFFA06A87F
:103F5000FFF748FD06EB070A8245A1D809F10102E7
:103F600029465846FFF7FCF8009B03976FF00702BD
:103F7000D21A08F1040804EB840002EB0B0340445E
:103F80009B08400003A90A2204960593FFF7E8F86E
:103F9000FFF772FC0028FBD02A78002A65D0354B49
:103FA0003549534015F8012F01FB03F3002AF8D1DE
:103FB00032495A08A1FB0212920BC2EBC232A3EBA8
:103FC00042030133201D400003A902220393FFF79F
:103FD000C7F8FFF751FC0028FBD062E77A1E013ECC
:103FE0003E445244B6FBF7F6B2FBF7F206FB07F687
:103FF00002FB07F7A4E708F10042013A04EB840151
:10400000881840000A2203A94FF00009CDF8149047
:10401000FEF774FE05980399049A0BEB8003019355
:104020009B4601EB020A102206A95846FEF766FEDF
:104030009DF8183009F1010263B109F1100906ABCE
:1040400003E013F8011F013221B14A45F9D10BF108
:10405000100BE8E70199DFF818B003310A4402EACF
:104060000B0B002F3FF468AFB8E74FF42043A9E7EC
:10407000FCFF0300C59D1C8193010001030001802A
:104080002DE9F047002388B0037007468846924622
:10409000FFF7D2FD002850D0DFF8B090B9F800400B
:1040A00086B2A64249D9251D6D0002E00134A64220
:1040B00043D0284602220DF10601FEF71FFEBDF88F
:1040C00006300235002BF1D004EB8400B31D1844F8
:1040D000062200230134400002A90393A9F80040FE
:1040E000FEF70CFE029B5A1C27D0039CCAF8003036
:1040F00006EB460602343444A400B8F1000F17D092
:104100004546102D28BF102504A92A462046FEF753
:10411000F5FD0DF10F01002311F8012F07F8012B18
:10412000013372B1AB42F7D3B8EB05082C44E7D1A9
:10413000002307F8013C012000E0002008B0BDE8A2
:10414000F087012008B0BDE8F08700BFCAAFFF1FAD
:1041500070B50546FFF764FD06462868741E2042C8
:104160000CD16B681C4009D10BB907E028682044CA
:10417000FFF7ECF86B683444A342F7D870BD00BF7A
:10418000704700BF09289ABF024B53F8200002482D
:10419000704700BF4C500100944F010038B50A4DE4
:1041A00000230446294600F8043B0AF079F8294622
:1041B00004F114000AF074F8294604F124000AF00E
:1041C0006FF8204638BD00BF1C5701004163826371
:1041D000704700BF10B50B4A0B4B11681B688AB0C3
:1041E000043A0191126800920446084A02A820216C
:1041F0000CF0C8FC02A920460AF052F820460AB08A
:1042000010BD00BF6080044058800440745001001D
:1042100010B5044690B004300AF0CEF82146684646
:10422000FFF7D8FF694604F114000AF0CDF868469C
:1042300009F0F6FF6368094A402168460CF0A2FCC9
:104240006846FFF79DFF6369054A402168460CF008
:1042500099FC6846FFF794FF10B010BD885001002C
:10426000A050010070B50646002390B010463360A0
:104270007360B360F3600AF03BFA014668460AF0E7
:1042800023F8844904A80AF00BF804A968460AF048
:10429000E1F900287ADB04A809F0C2FF2C21684666
:1042A0000AF0C8F9041E63DB2C25002C5ADD2346D6
:1042B000002269460CA80AF0DFF90CA80AF046FAB9
:1042C00030600CA809F0ACFF621C0CA869460AF02B
:1042D000F7F90CA968460AF077F80CA809F0A0FFD6
:1042E000294668460AF0A6F9041E3BDD2346002253
:1042F00069460CA80AF0C0F90CA80AF027FA706009
:104300000CA809F08DFF621C69460CA80AF0D8F9C8
:104310000CA968460AF058F80CA809F081FF294654
:1043200068460AF087F9041E1CDD23460022694610
:104330000CA80AF0A1F90CA80AF008FAB0600CA8C1
:1043400009F06EFF621C69460CA80AF0B9F90CA9C5
:1043500068460AF039F80CA809F062FF68460AF0CE
:10436000F5F9F060684609F05BFF304610B070BDAB
:104370003B2168460AF05EF9041E80F28880202105
:1043800068460AF057F9202504468EE7424908A8F6
:1043900009F086FF08A968460AF05CF9002803DBEB
:1043A00008A809F03DFF76E73C490CA809F078FF22
:1043B0000CA968460AF04EF904460CA809F030FF33
:1043C00008A809F02DFF04A809F02AFF002CBFF669
:1043D00065AF33490CA809F063FF0CA968460AF0E1
:1043E000E5F804460CA809F01BFF002C3BD0012285
:1043F00069460CA80AF064F90CA9684609F0E4FFC4
:104400000CA809F00DFF029C002C3CD000252C4686
:104410000DE04628A4F1370312D96628029B98BF05
:10442000573C05F1010598BF24189D420DD229463D
:1044300068460AF0DBF824013928A4F13003E8D8F3
:10444000C418029B01359D42F1D3210EC4F30742EB
:10445000C4F30723E4B286E81E00684609F0E0FED4
:10446000304610B070BD0F490CA809F019FF0CA917
:1044700068460AF09BF804460CA809F0D1FE002C0F
:10448000C1D00222B4E7234622462146E3E73B257A
:104490000BE700BFC0500100C450010038510100BB
:1044A000C8500100CC50010082B02DE9F04194B019
:1044B0001AA981E80C009DF878301B9E1C9D1D9C5C
:1044C00080461746002B64D054490CA809F0E8FE3A
:1044D0000CA910A809F0F8FEC7F303130A2BB4BF08
:1044E00030213721194410A809F0FEFF07F00F070B
:1044F0000A2FB4BF30213721394409F0F5FFC6F344
:1045000003130A2BB4BF30213721194409F0ECFF03
:1045100006F00F060A2EB4BF30213721314409F0CE
:10452000E3FFC5F303130A2BB4BF3021372119442D
:1045300009F0DAFF05F00F050A2DB4BF302137214D
:10454000294409F0D1FFC4F303130A2BB4BF30216F
:104550003721194409F0C8FF04F00F040A2CB4BF36
:1045600030213721214409F0BFFF01460CA809F092
:1045700023FF10A809F054FE0CA9404609F03EFEA6
:104580000CA809F04DFE404614B0BDE8F04102B061
:104590007047114668460A2209F0B4FE694604A82D
:1045A00009F092FE04A81E4909F090FF0A2207466E
:1045B000314608A809F0A6FE08A9384609F07EFF92
:1045C000174909F083FF0A22064629460CA809F07C
:1045D00099FE0CA9304609F071FF114909F076FFE8
:1045E0000A220546214610A809F08CFE10A928468B
:1045F00009F064FF0146404609F066FE10A809F084
:104600000FFE0CA809F00CFE08A809F009FE04A88A
:1046100009F006FE684609F003FEB4E71C570100E6
:10462000C05001000078704701707047F0B59249A2
:104630000446CFB009F034FE0221204609F0D6FE30
:104640008E4B8F49002720461F8009F019FF01AAD1
:1046500040210EA8FFF714FD002840F0C1808949D1
:10466000204609F00DFF0EA8FEF730FF10229DF83E
:10467000381006A809F046FE06A90AA809F024FE8B
:1046800081490AA809F022FF0146204609F0F4FEFC
:104690000AA809F0C5FD06A809F0C2FD10229DF880
:1046A000391006A809F02EFE06A90AA809F00CFE8A
:1046B00075490AA809F00AFF0146204609F0DCFE08
:1046C0000AA809F0ADFD06A809F0AAFD10229DF880
:1046D0003A1006A809F016FE06A90AA809F0F4FD8A
:1046E0006A490AA809F0F2FE0146204609F0C4FE14
:1046F0000AA809F095FD06A809F092FD0EA8FFF79B
:1047000071F9634905460AA809F0CAFD0A2229463B
:1047100006A809F01FFE06A90AA809F0CFFE014667
:10472000204609F0A9FE06A809F07AFD0AA809F0BA
:1047300077FD5849204609F0A3FE57490AA809F019
:10474000AFFD0A22E91B06A809F004FE06A90AA883
:1047500009F0B4FE0146204609F08EFE06A809F0D5
:104760005FFD0AA809F05CFD4A49204609F088FE71
:104770004A490AA809F094FD0A22394606A809F018
:10478000E9FD06A90AA809F099FE0146204609F0AC
:1047900073FE06A809F044FD0AA809F041FD3D4951
:1047A000204609F06DFE3E49204609F069FEFFF7FC
:1047B00037FA0A2201460AA809F0CCFD0AA92046C8
:1047C00009F05AFE0AA809F02BFD3249204609F0EB
:1047D00057FE0321204609F061FE20464FB0F0BD90
:1047E0000EA902A809F05CFD02A90AA809F06CFD57
:1047F0000EA80CF065FCC0F11606012E38BF01268C
:104800001D4906A809F04CFD002EC8BF002506DD95
:1048100001351D4906A809F033FEAE42F8D106A9BC
:104820000AA809F04BFE0146204609F025FE06A81D
:1048300009F0F6FC0AA809F0F3FC02A809F0F0FC64
:104840000A2201990AA809F085FD0AA9204609F063
:1048500013FE0AA809F0E4FC0C49204609F010FEFA
:104860000EA90AA8FFF748FA0B9A0A9B13449F4225
:1048700038BF1F46EBE600BF1C570100CAAFFF1F41
:10488000D0500100E450010038510100E050010017
:1048900004510100145101001C5101002C51010070
:1048A0003C51010030B5184C85B00546022009F096
:1048B00061F80721154808F0D9FF291D204609F0A5
:1048C000DDFB204609F000FC0F21114808F0CEFF67
:1048D00005F11401204609F0D1FB204609F0F4FB54
:1048E00029466846FFF7A2FE6946204609F0C6FB46
:1048F000204609F0E9FB684609F092FC032009F024
:1049000039F805B030BD00BF4C9EFF1F4C5101006F
:104910005451010010B50C4B002496B01C8001AA24
:10492000402106A8FFF7ACFB10B9204616B010BD19
:1049300006A902A8FFF7E0F9039A029B13449C42E0
:1049400038BF1C46EBE700BFCAAFFF1F30B5094BAD
:10495000C1B00022054668461A80FEF7B7FD6846DA
:10496000FFF740F804462846FFF7D4FF201A41B06D
:1049700030BD00BFCAAFFF1F2DE9F04FADF50F7D71
:1049800004AF8B460546002107F1280009F088FC9A
:1049900007F59474B64907F1280009F01DFDB549E3
:1049A000204609F07DFC2146584609F0C3FD8046AB
:1049B000204609F035FCB8F1000F25D02846FFF756
:1049C00071FF3B6BBBB12B78002B3CD101232B70CB
:1049D00007F1280107F1380009F076FC0A2107F1F8
:1049E000380009F081FD0146A34809F047FB07F1B3
:1049F000380009F015FC07F1280009F011FC07F553
:104A00000B77BD46BDE8F08F07F58C764246012353
:104A10003046594609F030FE9849204609F040FCDE
:104A20002146304609F086FD8046204609F0F8FB15
:104A3000304609F0F5FBB8F1000F07D001218F488F
:104A400008F014FFBDE7012BD5D1C1E78C49204602
:104A500009F026FC2146584609F06CFD80462046A8
:104A600009F0DEFBB8F1000F16D18649584609F06F
:104A70004BFDB8B18449204609F012FC05F1140140
:104A8000204609F01BFD014607F1280009F094FCBF
:104A9000204609F0C5FB94E77C49204609F000FC5C
:104AA000291DEDE77A49204609F0FAFB21465846D0
:104AB00009F040FD8046204609F0B2FBB8F1000F36
:104AC0001BD0FEF7B3FD3421724808F0CFFE6A48D0
:104AD00009F0FAFA1424FEF7CFFE60BB4FF4FA7027
:104AE00007F0ACFE0121654808F0C0FE013CF2D1A0
:104AF0000121694808F0BAFEECE742460523594611
:104B0000304609F0B9FD6549204609F0C9FB214648
:104B1000304609F00FFD8046204609F081FB304603
:104B200009F07EFBB8F1000F0BD05D4907F12800BA
:104B300009F052FC45E75B4907F1280009F04CFCFD
:104B40003FE75949204609F0ABFB2146584609F09A
:104B5000F1FC8046204609F063FBB8F1000F05D058
:104B6000524907F1280009F037FC2AE7424603239F
:104B70005946304609F080FD4D49204609F090FB2A
:104B80002146304609F0D6FC8046204609F048FB15
:104B9000304609F045FBB8F1000F00F093802C215E
:104BA000584609F047FD0028C0F213812C215846D1
:104BB00009F040FD032203465946204609F05CFDFA
:104BC000204609F095FD07F584780146404609F036
:104BD0007BFB204609F024FB2C21584609F02AFDD6
:104BE0005946421C204609F06BFD204609F080FD25
:104BF00009F0ACFD8246204609F012FB2D493046F3
:104C000009F04EFB4146304609F058FC2A4909F0AC
:104C10005DFC0A2281465146204609F087FB214669
:104C2000484609F04BFC254909F050FC0146124862
:104C300009F024FA204609F0F3FA304609F0F0FAB8
:104C4000D8F80830002B00F0E180BAF1000F40F3F3
:104C50006481FEF711FE002840F0DE80184907F15C
:104C6000280009F0B9FB404609F0DAFAA9E600BFCE
:104C70001C570100645101004C9EFF1FC8500100E9
:104C80006851010070510100745101006C51010024
:104C90007851010084510100E0500100FC510100F5
:104CA00004520100BC51010034520100385201008D
:104CB000485201006852010074520100785201000C
:104CC000C0520100424603235946304609F0D4FC45
:104CD000CE49204609F0E4FA2146304609F02AFC84
:104CE0008046204609F09CFA304609F099FAB8F15E
:104CF000000F43D007F584785946404609F0E4FA9E
:104D0000404609F0E5FC0146404609F055FBC04924
:104D1000204609F0C5FA2146404609F051FC81467B
:104D2000204609F07DFAB9F1000F00F0C080594625
:104D30000322304609F0C4FC0023214640223046BD
:104D400009F05EFC304609F06BFA21460122A86B9F
:104D500001F0D6FAAE49304609F0A2FA3146404693
:104D600009F02EFC0446304609F05AFA002C7FF474
:104D70007AAF0321A74809F0F7F974E7A64920465E
:104D800009F08EFA2146584609F0D4FB80462046A9
:104D900009F046FAB8F1000F21D0A049204609F0E9
:104DA0007FFA2846FFF7D2FD01460A22304609F075
:104DB000D1FA3146204609F081FB014607F128006F
:104DC00009F0FAFA304609F02BFA204609F028FAE1
:104DD000F7E5934907F1280009F0FEFAF1E591495A
:104DE000204609F05DFA2146584609F0A3FB8046AB
:104DF000204609F015FAB8F1000F5DD0874920462A
:104E000009F04EFA2846FFF785FDCDE7864907F100
:104E1000280009F0E1FA26E7D8F80830C7F810D0E2
:104E2000083323F00703ADEB030D0DF11009002348
:104E300040224046494609F0E3FB7C4B00224846AD
:104E40001A80FFF701F8002840F0BF80404609F0C3
:104E50003FFC6F498346204609F022FA5846214616
:104E600009F0AEFB8346204609F0DAF9BBF1000FEA
:104E700040F0A580FEF7D4FE4FF6FF715145024683
:104E8000B8BF51464846FEF7FBFF00284BD04946C5
:104E90002046FEF731FF2368FB60002B49D16449AF
:104EA00007F1280009F098FAD7F810D0DBE60221C4
:104EB000584809F059F93AE75E49204609F0F0F9F7
:104EC0002146584609F036FB8146204609F0A8F9EC
:104ED000B9F1000F7DD05849304609F0E1F9534B44
:104EE0002046A3F80080FEF7F1FA2046FEF77AFD8F
:104EF0000A220146204609F02DFA2146304609F0E3
:104F0000DDFA014607F1280009F056FA204609F0BB
:104F100087F9304609F084F953E5484907F128003C
:104F200009F05AFA9FE6464907F1280009F054FAB9
:104F3000BAE7A368DFF81491616879611A46D9F875
:104F40000030FB610021FC69BD60C7F80480154694
:104F5000884642F2107B09E0052007F06FFCD9F883
:104F600000303B623B6A1B1B5B4503D808F054FCD6
:104F70000028F1D008F014FC7A6930706B1C9A425A
:104F80001BD27A69AA4207D9541BFB6822465819DA
:104F90003146FEF7E5F82544D9F800307B6208F188
:104FA0000108C2457C6AD4D12649BD68D7F804807F
:104FB00007F1280009F010FA76E70124E5E700225E
:104FC00051464846FEF75CFF5FE74846FEF74AFF5A
:104FD0003CE71D49204609F063F92146584609F08F
:104FE000A9FA8146204609F01BF9B9F1000F2FD02C
:104FF00029462046FFF71AFB214607F1280009F051
:10500000E3F9204609F00CF9DBE400BF205301006E
:10501000E05201004C9EFF1F245301002C5301005D
:105020004C520100345301007C520100CAAFFF1FF3
:10503000C45301003C530100445301009C52010041
:10504000FC520100E85201004C530100D8AFFF1F91
:105050000221584609F0CAFA3D2854D00221584688
:1050600009F0C4FA3F2800F0E080DF49584609F013
:105070004BFA8046002800F0888007F5847807F115
:10508000D80A07F1E00B03E009F0FAF909F1010988
:10509000D649304609F004F90A224946404609F04B
:1050A00031F94146304609F009FAD14909F00EFAC2
:1050B0004A467861A96B504601F068F901230293D2
:1050C0009BE803008DE8030029469AE80C0020467F
:1050D000FFF7EAF92146786909F0F0F9014607F18E
:1050E000280009F0C9F9204609F09AF8404609F06D
:1050F00097F8304609F094F8B9F1070FBD4907F168
:105100002800C1D15DE40121584609F06FFAA0F1F1
:105110003006F3B2072B3FF654AC4946584609F027
:1051200065FA432800F0A4824946584609F05EFA21
:10513000632800F09D824946584609F057FA4628F0
:1051400040F06E8203225946204607F15808D5F8F0
:10515000389009F0B5FA404622462946FFF782F812
:1051600007F1600393E803008DE8030048463146E9
:1051700098E80C0001F03EF9204609F051F89E49EC
:10518000204609F08DF859467AE49C49584609F0C2
:10519000BBF98246002800F0BA80C14607F1E80A50
:1051A00007F5847807F1F00B03E009F069F909F1DC
:1051B00001099349304609F073F80A2249464046EE
:1051C00009F0A0F84146304609F078F9884909F01D
:1051D0007DF94A467861A96B504601F0D7F8002363
:1051E00002939BE803008DE8030029469AE80C002F
:1051F0002046FFF759F92146786909F05FF9014621
:1052000007F1280009F038F9204609F009F840466E
:1052100009F006F8304609F003F8B9F1070F7549AF
:1052200007F12800C1D1FFF7CCBB0121584609F096
:10523000DDF9A0F130085FFA88F3072B3FF6C1AB28
:105240004946584609F0D2F9432800F034824946CD
:10525000584609F0CBF9632800F0B7814946584613
:1052600009F0C4F9462800F042814946584609F041
:10527000BDF9662800F01C810021584609F0B6F9F6
:10528000572800F091805846002109F0AFF977289F
:105290007FF497AB5B49304609F002F80A22414699
:1052A00007F5847009F02EF807F58471304609F08F
:1052B00005F94F4909F00AF907F1C8098246424643
:1052C0004846A96B01F07AF80023029307F1D00356
:1052D00093E803008DE803002946204699E80C0076
:1052E000FFF7E2F82146504609F0E8F8014607F1D9
:1052F000280009F061F8204608F092FF07F5847055
:1053000008F08EFF304608F08BFFFFF75ABB3E498E
:10531000584609F0F9F8804600287BD007F58478D4
:1053200007F1F80907F5807B3849304608F0B8FFE7
:105330000A225146404608F0E5FF4146304609F052
:10534000BDF82B4909F0C2F852467861A96B48466E
:1053500001F028F8012302939BE803008DE8030085
:10536000294699E80C002046FFF79EF82146786907
:1053700009F0A4F8014607F1280009F07DF820465D
:1053800008F04EFF404608F04BFF304608F048FF5B
:10539000BAF1070F174907F128003FF412AB09F0E3
:1053A0006FF80AF1010ABFE71949304608F078FFA3
:1053B0000A22414607F5847008F0A4FF07F58471BE
:1053C000304609F07BF80A4909F080F807F1B8097E
:1053D000824642464846A96B00F0F0FF0123029343
:1053E00007F1C00374E700BF685301005853010080
:1053F00030530100E0500100545301006C53010090
:105400005C530100645301007053010060530100BC
:105410001C4D0100DF49584609F076F8002800F0DD
:105420008580C24607F1F80907F5847807F5887B7F
:10543000D949304608F034FF0A225146484608F060
:1054400061FF4946304609F039F8D44909F03EF881
:1054500052467861A96B404600F0A4FF00230293F6
:105460009BE803008DE80300294698E80C002046DD
:10547000FFF71AF82146786909F020F8014607F18C
:10548000280008F0F9FF204608F0CAFE484608F058
:10549000C7FE304608F0C4FEBAF1070FC04907F155
:1054A00028003FF48EAA08F0EBFF0AF1010ABFE7DB
:1054B000B949304608F0F4FE0A22414607F58470E7
:1054C00008F020FF07F58471304608F0F7FFB34974
:1054D00008F0FCFF07F1A809824642464846A96B3E
:1054E00000F060FF0023029307F1B003F0E6AD493E
:1054F000304608F0D5FE0A22414607F5847008F0D0
:1055000001FF07F58471304608F0D8FFA34908F081
:10551000DDFF07F19809824642464846A96B00F034
:1055200041FF0123029307F1A003D1E69E495846AB
:1055300008F0EAFF002800F0DD804FF0000A07F5D0
:10554000847807F1F80907F5907B9849404608F000
:10555000A7FE0A225146484608F0D4FE4946404676
:1055600008F0ACFF8D4908F0B1FF52467861A96B95
:10557000304600F023FF012302939BE803008DE8EF
:105580000300294696E80C002046FEF78DFF2146D1
:10559000786908F093FF014607F1280008F06CFFD6
:1055A000204608F03DFE484608F03AFE404608F026
:1055B00037FEBAF1070F7A4907F128003FF401AA34
:1055C00008F05EFF0AF1010ABFE77949304608F0AA
:1055D00067FE0A22414607F5847008F093FE07F53E
:1055E0008471304608F06AFF6C4908F06FFF07F1DC
:1055F000880A834642465046A96B00F0C7FECDF8A4
:10560000089007F1900393E803008DE80300294612
:1056100020469AE80C00FEF747FF2146584663E60D
:105620004946584608F0E2FF66283FF48BAD4946EC
:10563000584608F0DBFF572835D15946204607F178
:1056400068080322D5F8389009F03AF84046224617
:105650002946FEF707FE07F1700393E803008DE883
:1056600003004846314698E80C0000F0D3FE83E57D
:105670005946204607F148080322D5F8389009F02A
:105680001FF8404622462946FEF7ECFD07F150037D
:1056900093E803008DE803004846314698E80C0083
:1056A00000F098FE68E50021584608F09FFF772833
:1056B0007FF487A9C1E73F49304608F0F1FD0A228F
:1056C000414607F5847008F01DFE07F584713046E9
:1056D00008F0F4FE314908F0F9FE07F17809824636
:1056E00042464846A96B00F051FE0123029307F1A0
:1056F0008003EDE53049584608F006FF8046002853
:105700005ED04FF0000A07F5847807F1F80907F535
:10571000987B2A49404608F0C3FD0A225146484674
:1057200008F0F0FD4946404608F0C8FE1B4908F065
:10573000CDFE52467861A96B204600F03FFE002363
:1057400002939BE803008DE80300294694E80C00CF
:105750003046FEF7A9FE3146786908F0AFFE0146F3
:1057600007F1280008F088FE304608F059FD484649
:1057700008F056FD404608F053FDBAF1070F0849FE
:1057800007F128003FF41DA908F07AFE0AF1010A8A
:10579000BFE700BF74530100B05B0100305301004C
:1057A000E050010060530100785301001C4D0100DE
:1057B0005C530100585301007C5301006453010005
:1057C0005849204608F06CFD2146584608F0B2FEC4
:1057D0008146204608F024FDB9F1000F12D0686B15
:1057E000C4F800802146C4F80480C4F80880C4F8D6
:1057F0000C8000F08FF94C4907F1280008F0ECFD0F
:10580000FFF7DFB84949304608F04AFD31465846AF
:1058100008F0CCFEE0B1304608F002FD0222594605
:105820003046D5F8348008F04BFF324629462046F2
:10583000FEF718FD2146404600F06CF9304608F0AE
:10584000EFFC3B49204608F02BFD5946FFF718B9FD
:105850003849204608F024FD2146584608F0A6FEA7
:105860008046204608F0DCFC304608F0D9FCB8F150
:10587000000FD3D13049204608F012FD214658468A
:1058800008F094FE8046204608F0CAFCB8F1000FEC
:1058900013D00221584608F0A9FEA0F13001CBB286
:1058A000072B3FF68EA8A86B03F06AFA234920461F
:1058B00008F0F6FC5946FFF7E3B82149584608F0CE
:1058C00023FE68B11C49204608F0EAFCA86B00F0F2
:1058D0005BFD0A220146304608F014FDFFF769BA65
:1058E0001849584608F010FE044648B1A86B00F06D
:1058F00003FD154907F1280008F06EFDFFF761B8B8
:105900005846124908F000FE00283FF45AA8A86B38
:105910002C7003F007FA0E4907F1280008F05CFD2F
:10592000FFF74FB8845301008053010088530100F2
:10593000905301008C53010098530100545301000F
:105940009C530100A0530100A8530100B45301006F
:10595000BC53010038B5044607F05EFF00281BDD8C
:1059600007F01EFF0228054617D0032808D00A2D8D
:1059700006D02434E9B22046BDE8384008F08EBD98
:1059800004F1240520462946FEF7F6FF284609497A
:10599000BDE8384008F020BD38BD24342046002141
:1059A00008F024FE2328E5D020460249BDE838400F
:1059B00008F012BD1C57010030B400220525082153
:1059C000C5640270026580F8642080F8652080F864
:1059D0006620826641608160C26630BC704700BF4D
:1059E00070B5A4B01F4906466846144608F058FC36
:1059F0001D4904A808F054FC1C4908A808F050FCF4
:105A00001B490CA808F04CFC1A4910A808F048FCE7
:105A1000194914A808F044FC184918A808F040FCDB
:105A200017491CA808F03CFC20A8164908F038FCCF
:105A3000082C10DC0DEB0411304608F045FC20ACBE
:105A4000ADF110052046103C08F0EAFBAC42F9D15C
:105A5000304624B070BD0A220821304608F052FCBE
:105A6000EDE700BFE8530100EC530100F4530100DF
:105A7000FC530100045401000C54010014540100B3
:105A80001C54010024540100F0B5044699B0006F85
:105A900000F07AFC216F60600246684600F076FCF8
:105AA0009DE80F00676804F10C0686E80F003A468F
:105AB000216FA760684600F075FC9DE80F0004F1B7
:105AC000540585E80F006268214604A8FFF788FFA7
:105AD000049B064A402108A80BF054F808A8FEF7DA
