:1000000000800020BD0100007DC5000035C5000056
:1000100035C5000035C5000035C5000035C50000F8
:1000200035C5000035C5000035C500007DC50000A0
:100030007DC5000035C5000039E100003DE100004C
:100040007DC500007DC500007DC500007DC50000A8
:100050007DC500007DC500007DC500007DC5000098
:100060007DC500007DC500007DC500007DC5000088
:100070007DC500007DC500007DC500007DC5000078
:100080007DC500007DC500007DC500007DC5000068
:100090007DC500007DC500007DC500007DC5000058
:1000A000DD140000E91400007DC500007DC50000DE
:1000B0007DC500007DC500007DC500007DC5000038
:1000C0007DC500007DC500007DC500007DC5000028
:1000D0007DC500007DC500007DC500007DC5000018
:1000E0007DC500007DC500007DC500007DC5000008
:1000F0007DC500007DC500007DC500007DC50000F8
:100100007DC500007DC500007DC500007DC50000E7
:100110007DC500007DC500007DC500007DC50000D7
:100120007DC500007DC500007DC500007DC50000C7
:100130007DC500007DC500007DC500007DC50000B7
:100140007DC500007DC500007DC500007DC50000A7
:100150007DC500007DC500007DC500007DC5000097
:100160007DC500008DCD00007DC500007DC500006F
:100170007DC500007DC500007DC500007DC5000077
:100180007DC500007DC500007DC500007DC5000067
:100190007DC500007DC500007DC500007DC5000057
:1001A0007DC500007DC500007DC500007DC5000047
:1001B0007DC500007DC50000F5DE0000564B4CF209
:1001C000205210B51A804DF628121A8000BF00BFC9
:1001D0000CF0D8F9514B4FF010621A60504A9A60F7
:1001E000504ADA60504A136813F4807304D14F49BF
:1001F0000B604FF4A85313604D4B1A78110703D5C9
:100200001A7842F008021A704A4B4B492A221A7097
:100210004A4A4B4B8B4204D252F8040F43F8040B6A
:10022000F8E7484B484900228B4202D243F8042B9E
:10023000FAE74649464A002352F8230041F82300D2
:1002400001336F2BF8D1434B434A802103F8011B44
:100250009342FBD1414B3D4A1A60414B8A221A70AE
:10026000A3F5805324225A70A0221A709A7992071B
:10027000FCD59A79D406FCD43A4A937903F00C035E
:10028000082B384BF9D105221A7143225A719A79F9
:100290009006FCD5334A9179324B4906FBD5324A58
:1002A0004FF0817111600521516020221A709A79F6
:1002B00002F00C020C2AFAD12C4B2D4A1A602D4B5D
:1002C0002D4A1A6000225A60072243F8042C2B4A58
:1002D000C3F80C2D62B60CF00FFC144B1B68DA0748
:1002E00005D527480CF08EFA264B274A1A60274B73
:1002F0001B785B0609D5234C234B22689A4204D114
:100300001F480CF07FFA002323600FF0FDFC0CF077
:100310003FF90EF09FFAFEE70E20054030800440C2
:10032000823F04000100002B10D0034014D0034092
:1003300002D0074000E00740B0A8FF1F885E010020
:10034000209BFF1FB0A8FF1F98B1FF1F0096FF1F43
:100350000000000000E400E05FE400E008ED00E0E1
:1003600000500640004006404480044004800440A1
:10037000C010050014E000E03F190100000020203B
:10038000EC8A685F1CE00340A5C3945A00F0074064
:10039000FFFFFFFFFFFFFFFFFFFFFFFFFFFFFFFF6D
:1003A000FFFFFFFFFFFFFFFFFFFFFFFFFFFFFFFF5D
:1003B000FFFFFFFFFFFFFFFFFFFFFFFFFFFFFFFF4D
:1003C000FFFFFFFFFFFFFFFFFFFFFFFFFFFFFFFF3D
:1003D000FFFFFFFFFFFFFFFFFFFFFFFFFFFFFFFF2D
:1003E000FFFFFFFFFFFFFFFFFFFFFFFFFFFFFFFF1D
:1003F000FFFFFFFFFFFFFFFFFFFFFFFFFFFFFFFF0D
:10040000FFFFFFFFFFFFFFFFFFFFFFFFDEF9FFFF23
:1004100010B5054C237833B9044B13B10448AFF33E
:1004200000800123237010BDB0A8FF1F0000000052
:10043000845E0100084B10B51BB108490848AFF3B2
:1004400000800848036803B910BD074B002BFBD0A0
:10045000BDE81040184700BF00000000B4A8FF1F0F
:10046000845E0100B0A8FF1F0000000010B5044624
:1004700000F50C700DF052FF04F506700DF04EFF04
:1004800004F502700DF04AFF04F5FC700DF046FF14
:1004900020460DF043FF204610BD00BF014800F08C
:1004A000F9B800BFCCA8FF1F00B585B00E4968465B
:1004B0000DF074FF69460D4800F054F868460DF0E1
:1004C0002DFF0A4800F0E2F8212807DDFF20032273
:1004D00007490CF0D7F805B05DF804FB034800F0BD
:1004E000D5F8C0B2F3E700BF4C490100CCA8FF1F0C
:1004F0009D040000014800F063B800BFCCA8FF1FB6
:1005000010B5054C204600F00DF82046034A04497A
:10051000BDE810400EF0AEBACCA8FF1FFC9BFF1F39
:100520006D04000010B5002104460DF037FF04F102
:10053000100000F0DFFF04F58C700AF0A5FF04F551
:10054000B87005F061FA04F5F2700AF0E7FE04F500
:10055000FA7003F049FE04F50C7005F025FE204604
:1005600010BD00BFF0B585B0044600F5FA766846C8
:100570000DF028FF6946304603F070FE68460DF026
:10058000CDFE04F50C7504F1100001F0C1F8284609
:100590000AF0B8FE04F5B87704F58C700AF094FF01
:1005A0002946384605F016FB04F5F2700AF0BAFE4B
:1005B0002A463946304603F02FFE05B0F0BD00BF95
:1005C0002DE9F04F8BB0044600F2014E00F57F7527
:1005D00000F2F93600F57E7700F2024800F2034996
:1005E00000F58060CDF808E031462B463A46009091
:1005F000CDF8048004F58C70CDF80C900BF03EFA29
:1006000004F2044A2B4631463A4604F110008DE8C4
:10061000000301F0E7F9294604F5B873524604F5E2
:10062000F27005930AF00CFF3146059E2B463A46C0
:100630000025304604F5FA7B8DE8000705F098FCAC
:10064000584684F8F95384F8F85384F8005484F831
:10065000025405F0A7F9D4F8FC33092B13D05846FF
:1006600004F006F878B104F50C7008F07FFB294619
:10067000584603F0FFFF304606A9069507950895F2
:10068000099505F06FFA0BB0BDE8F08F00F58C709E
:100690000AF0EEBF90F81831013380F81831704736
:1006A00010B4047F4160022CC26002D010BC0DF077
:1006B000E1BC836810BC18472DE9F0410468E56887
:1006C00015F0807F794D256052D1DF0740F1B3806E
:1006D000002900F0E3800D78012B18BF45F000459C
:1006E0006563013190F8248003F1FF3C48EA082853
:1006F000BCF1000F00F0A88021B14D7811F8028BF9
:1007000045EA082845682E7ABCF1020F06F1FF364B
:100710004FEA06360CBF48F0805548F01045B6B297
:100720006563ACF1020C08E00AB114700132013BC0
:1007300005F47045B54216D90468E56A15F0F00F66
:10074000F6D0A46B13F0010F17464FEA242EEBD11D
:100750001AB107F802EB54703A4605F47045B542F9
:10076000A3F10203E8D8BCF1000F6DD00468C3E721
:10077000DD074CD5002900F089800D78012B18BFCA
:1007800045F000456563013103F1FF3E90F824C058
:10079000BEF1000F41D029B191F801C00D780231AE
:1007A00045EA0C2C45682E7ABEF1020F06F1FF36A1
:1007B0004FEA06360CBF4CF080554CF01045B6B2EF
:1007C0006563AEF1020E08E00AB114700132013B1C
:1007D00005F47045B54215D90468E56A15F0F00FC7
:1007E000F6D013F0010F1746A46BEDD122B107F834
:1007F000024B241254703A4605F47045B542A3F1F9
:100800000203E9D8BEF1000F07D00468C3E79E4693
:1008100090F824C0BEF1000FBDD11BB30468E16A9B
:1008200011F0F00FFBD0A16BDC071DD50AB11170E0
:100830000132013BF1E790F824809C4648EA082801
:10084000BCF1000F7FF458AF63B10468E16A11F0A6
:10085000F00FFBD0DE07A16B0FD50AB1117001328A
:10086000013BF1E7BDE8F0812AB114460D1204F80E
:10087000021B55702246023BCFE72AB114460D12E7
:1008800004F8025B51702246023BDDE790F82450E9
:10089000012B18BF45F00045656375E790F82450BB
:1008A000012B18BF45F0004565631BE700041F805E
:1008B000F0B4464B464A186BDC6A01791170454921
:1008C00022790A709A6A00790870002A46D059681D
:1008D000C9688A423ED82168CC8B240402F1FF30DB
:1008E00065D4C0F30E00C883C88B80B2C882196B70
:1008F0000968C88B000452D4C2F30E00C883C88BA9
:10090000002480B212F1FF32C88218BF01229C621B
:10091000D96A2E4809680D6800F12404A54236D032
:100920000068C46814F0804F0C680D6815BF2488F7
:1009300024780235013544F000440D604463196B9E
:10094000254B09791970214912B1CA6A12791A70B6
:10095000F0BC7047521A9A620122D9E7586B1968A5
:1009600005681E4C0A63CC62CC682D681C4E24F0CE
:1009700080440327B542CC6083F825701FD1037FE4
:100980004260022BC2601ED0F0BC0DF073BB016848
:1009900090F82400CC6840F000404863CFE7CC8B4F
:1009A000C2F3080004F47E442043C883A7E7CC8B3D
:1009B000C0F3080004F47E442043C88394E72B4628
:1009C0001146F0BC18478368F0BC1847009CFF1F15
:1009D0001F8000401C8000401B80004000000FFF73
:1009E000A106000090E80C00F0B41C685968256866
:1009F000164F174E29432160164D17491760D660D0
:100A000015611160417A154A5C180A3194F8244046
:100A100053F8215002EBC40149680D60017A5C185B
:100A200003EB8101247ECD6902EBC40149680D60AE
:100A3000817A581803EB810390F83000596B02EB70
:100A4000C002F0BC53681960704700BF01401F002E
:100A5000011000380110007800001F80E0590100EB
:100A60005E2911D830B44A09C57A012303FA02F489
:100A70002C4300EB8202C472D06801F01F0103FA1C
:100A800001F10143D16030BC704700BF5E2913D82B
:100A900030B44D0900EB850401F01F01E368012229
:100AA00002FA01F123EA0101E16021B9C37AAA4007
:100AB00023EA0202C27230BC704700BF426803687A
:100AC00005CA10B4046822430260DA6881B942F0B2
:100AD0008072D9688A4209D0196848040BD4094841
:100AE000186042F08040DA601861196010BC7047ED
:100AF00022F08072EDE742F08041DA6010BC1961AB
:100B0000704700BF01401F0043680CCB11680B43C6
:100B1000136070474268036805CA10B40468224332
:100B20000260D868840100F0E06205D5080900F48D
:100B3000706021F470410143D8681143814209D0AB
:100B40001A68500408D40748186041F08040D96002
:100B500018611A6010BC704741F08042D96010BC27
:100B60001A61704701401F00204A43689A42F0B45E
:100B70000FD0427A1A4492F82420914207D093F879
:100B800024408C4215D093F825408C422AD0F0BCEA
:100B900070470B2907D00729EBD1154C227842F07A
:100BA00001022270E5E7124C227822F00102227045
:100BB000DFE7002421461E685D6836682E420FD0AC
:100BC0000C4D05EBC202002756685A18376092F8A0
:100BD000242005EBC2050A316A6853F821301360FE
:100BE0004472D4E701242146E5E700BF54490100DF
:100BF00038B1FF1FE05901001E4A43689A42F0B421
:100C00000CD0027A1A44127E914205D01C7E8C428E
:100C100014D05C7E8C422AD0F0BC70470C2907D0DF
:100C20000829EED1144C227842F002022270E8E743
:100C3000114C227822F002022270E2E700242146C1
:100C40001E685D6836682E420FD00C4D05EBC2025F
:100C5000002756685A183760127E063105EBC20528
:100C600003EB81036A685B6813600472D4E70124B4
:100C70002146E5E75449010038B1FF1FE059010062
:100C8000204A43689A42F0B40FD0827A1A4492F80C
:100C90003020914207D093F830408C4215D093F821
:100CA00031408C422BD0F0BC70470D2907D00E2963
:100CB000EBD1154C227842F004022270E5E7124C89
:100CC000227822F004022270DFE7002421461E6809
:100CD0005D6836682E4210D00C4D05EBC20200272D
:100CE00056685A18376092F830200C3105EBC2056F
:100CF00003EB81036A685B6813608472D3E70124A5
:100D00002146E4E75449010038B1FF1FE0590100D2
:100D10000BB1FFF7D1BC70470020704790F8392025
:100D200090F83800101A704790F8383090F8392051
:100D30009A4205D95A1C034480F83820187E70471F
:100D40004FF0FF30704700BF90F8383090F83920EE
:100D50009A4286BF1B18187E4FF0FF30704700BFC5
:100D6000704700BF38B50546B0F85E0090B195F801
:100D70005D301446C3F1210294420CD805F13B00CA
:100D8000184422460BF0AEFA95F85D30234485F8FE
:100D90005D30204638BD012014462871EEE700BFC3
:100DA000B0F85E306BB190F85D30202B07D8C218D8
:100DB000013380F85D30012082F83B107047012339
:100DC00003710020704700BF0023426980F838306B
:100DD00080F8393080F85C3080F85D3080F85E3023
:100DE00080F85F3006CA30B40D68046943662A4350
:100DF00083660A60A370426990F8613016491468EE
:100E000013441D7A5B7B01EBC5051B026D6803F47F
:100E1000E06343F064032B6090F8623013449D7CE0
:100E2000DB7D01EBC5011B02496803F4E06343F07D
:100E300064030B6021685368194205D003692822B6
:100E40005A70036903229A71036920225A71036957
:100E500080229A7030BC7047E059010070B490F85D
:100E6000613045692B441E7A8E420AD0EC1D002366
:100E700014F8012FFF2A04D08A4204D00133052B35
:100E8000F6D170BC704795E806000968114211D090
:100E90000A4901EBC6061D447268002414602C7ACE
:100EA0006A7B01EBC401120202F4E062496842F07D
:100EB00064020A6080F86130E3E700BFE059010096
:100EC00070B490F8623045692B449E7C8E420BD002
:100ED00005F11104002314F8012FFF2A04D08A42DF
:100EE00004D00133052BF6D170BC704795E806009D
:100EF0000968114211D00A4901EBC6061D44726807
:100F000000241460AC7CEA7D01EBC401120202F4FF
:100F1000E062496842F064020A6080F86230E3E708
:100F2000E059010010B50269D378DBB2D906044656
:100F30003DD510215806D17038D503F0040303F0D5
:100F4000FF02002B51D03D49626E00230B7084F8E4
:100F50005D30002A5BD0904794F85D30002B56D06E
:100F60002369D0229A70236994F83B201A7123696F
:100F7000012284F85C200222DA7010BD304B84F824
:100F800060009C424AD02F4B9C4252D094F83910BA
:100F900013791F29DBB207D82848007820B16018E0
:100FA000013184F8391003760223D37010BD59063D
:100FB000C3D4917801F0100101F0FF000029DDD0C9
:100FC00013F001031ED194F85C1094F85D00884280
:100FD00081BF4B1C091984F85C3091F83B301371C8
:100FE0002369D0229A702269DEE7236984F83920C8
:100FF000C0229A702369114A1979012111700222C5
:10100000DA7010BDC023937022691379CCE70122F6
:10101000002384F85D2084F83B30A1E7626994F8EE
:101020006130094913440322187A0BF02BFB226923
:10103000ACE7626994F861300449F3E7D8ACFF1F6C
:10104000389CFF1FA49CFF1FAD100000B9100000CA
:101050000369DB7803F0200373B190F8603001334B
:10106000DBB2012B80F860301AD9426990F8613008
:101070001344187A0BF082BB70B5426903F0FF0588
:1010800090F8613013440446187A0BF077FBA36E96
:101090005BB184F8385094F83900BDE870401847C7
:1010A00090F85F30002BE0D0704770BD0148FFF72B
:1010B000CFBF00BF389CFF1F0148FFF7C9BF00BF6B
:1010C000A49CFF1F2DE9F047364FDFF8DC903B680A
:1010D000026982B006460093DDF800800021782581
:1010E000D3789B065AD53B680193019BC8EB030359
:1010F0000F2BF5D949B1102BF2D000209070336935
:1011000080229A7002B0BDE8F087726996F861306B
:1011100013440521187A0BF099FC726996F8613036
:101120001344012193F812A050460BF08FFC0924C0
:10113000002150460BF076FC2B46013BFDD10121EE
:1011400050460BF06FFC2B46013BFDD1013CEFD12B
:10115000706996F861100144F0220C7A4B7B09EB20
:10116000C4011B02496803F4E06343F064030B60AD
:1011700096F862300344997CDB7D09EBC1011B02C8
:10118000496803F4E06343F064030B60013AFDD166
:101190003269D3789B064FF00101A4D4012002B03C
:1011A000BDE8F087ECAFFF1FE0590100F0B503691F
:1011B0001222DA700269937803F0200385B00446A6
:1011C0000D46002B5ED0B42393703C4922690B6816
:1011D0000093009E05E00B680193019B9B1B042B71
:1011E00042D8D37803F0200303F0FF00002BF2D0A5
:1011F00094F85D30002B31D04FF0000E4FF0020C10
:1012000004EB0E0393F83B3013710B680393039FB9
:10121000206907E09B060DD50B680293029BDB1B40
:10122000052B28D8C378DBB203F0020202F0FF06D8
:10123000002AEFD080F803C02669F378DBB2DF061E
:1012400032462DD49F062BD5DB0731D40EF1010E8B
:1012500094F85D305FFA8EFE7345D1D800201DBB37
:10126000002384F85E3004E09070236980229A7035
:10127000042005B0F0BD86702369802204209A7096
:1012800005B0F0BD03F0FF06FFF71CFF10B9042006
:1012900005B0F0BD236984F85F60B0229A7094E7CE
:1012A0008023B3700420DAE726698023B370D7E780
:1012B000BEF1000F0CBF02200320F6E7ECAFFF1FCA
:1012C0002DE9F04106690025122780F8385080F892
:1012D0003950F770D0F810C09CF802E00EF0200EE4
:1012E00088B00446884615461E46BEF1000F49D018
:1012F000B4238CF80230784B21691A680092DDF82B
:1013000000E006E01A6801920198CEEB0000042884
:1013100030D8C87800F0200000F0FF070028F1D096
:101320004FEA480242F00102D2B20A711A680292F0
:10133000DDF808E0206906E01A6803920399CEEB15
:10134000010105292AD8C17801F0020101F0FF0747
:101350000029F1D04FF0020C80F803C02269D17847
:1013600011F0110722D12DBB002E0CBFA02380232A
:10137000937003E08F70236980229A70384608B01A
:10138000BDE8F0810EF0FF07FFF79CFE0028F5D0C6
:10139000236984F85F70B0229A70ACE78770236984
:1013A000802238469A7008B0BDE8F081802393709F
:1013B0000027E3E7012D75D0A021917021690A79FA
:1013C000BE4667464FF0A80C1A680492049805E0E0
:1013D0001A680592059A121A052A4AD8CA7802F0A4
:1013E000020202F0FF08002AF2D0CF702169CA7809
:1013F000D2B212F0100F08465AD1920658D5013DCC
:10140000EDB2012D49D0BEF11F0F3BD90A79012D54
:10141000DAD11A680692069D05E01A680792079AC3
:10142000521B052A46D8C27802F0020202F0FF01E0
:10143000002AF2D00223C3702269D378DBB2D90626
:101440003AD49B0634D5B023BEF11F0F93703FD81A
:10145000226904EB0E0312791A760EF1010E5FFA7F
:101460008EFE16B1236980229A7084F839E077469F
:1014700084E781F80280236980229A70774684F895
:1014800039E07BE704EB0E0291F8048082F81880C3
:101490000EF1010E5FFA8EFEB9E781F802C02169F4
:1014A0000846B0E7A82191702069BE460279B0E7EE
:1014B000774663E78170DEE710217823D170013B26
:1014C000FDD12269937803F0F7037746937055E7CF
:1014D00023691B79C5E700BFECAFFF1F0148FFF789
:1014E00021BD00BF389CFF1F0148FFF71BBD00BF97
:1014F000A49CFF1F2DE9F0417F4D804E2A680660B5
:1015000000230446437203610372C36011460AB9A3
:10151000D5E019464B69002BFBD14C61784820601F
:101520004FF480416361A380E380A37284F82D307F
:10153000636384F82C302363216204F1240000E00B
:101540001A465369002BFBD150610027DFF8BC819C
:10155000A7632785678584F82E70E763276467642F
:10156000A4F84870C4F8248000F080FD2A6884F84C
:101570006170A76684F860706766A66504F158001C
:101580005D4B0AB9B0E01A465369002BFBD150619C
:101590000027C4F85880E766A4F85C70A4F85E7071
:1015A00084F8627027676767A767A4F87C7000F00B
:1015B0005DFD042004F1B40284F895003B4684F8F4
:1015C0009470C4F89870C4F88C603946C4F89C20B4
:1015D00004F18C0001E0D4F89C2042F8231094F828
:1015E000952001339A42F6DC2A68434B0AB97DE024
:1015F0001A465369002BFBD1506100214FF4803013
:10160000404FC4F8C46004F1DC020126C4F8A40011
:10161000C4F8A800C4F8AC00C4F8B0000B46C4F885
:10162000A010A4F89010A4F8921084F8961084F8F2
:10163000CC10C4F8D010C4F88C70C4F8D42084F84E
:10164000CD6004F1C40001E0D4F8D42042F82310A6
:1016500094F8CD2001339A42F6DC2A68264B0AB969
:1016600046E01A465369002BFBD150610025264BFA
:10167000C4F8D850A4F8C850A4F8CA5084F8CE5082
:10168000C4F8C43000F094FBC4F8E050C4F8E4504F
:10169000C4F8E850C4F8EC50C4F8F050C4F8F45062
:1016A000C4F8F850A4F8FC5084F8005184F80151B3
:1016B00084F80251C4F804512046BDE8F081104975
:1016C00028604FF4804342618280C2808272466209
:1016D00080F82D20426380F82C20026301600362B1
:1016E00024303CB9286030E7186051E7186084E77F
:1016F0001860BBE7224624E7ECB0FF1F384A010020
:101700004C4D0100284D0100344D0100404D0100B9
:10171000F8B50E2105463A48FFF7B2FA0B213848D2
:10172000FFF722FA0C213648FFF766FA0121102054
:101730000BF08CF9002110200BF074F9314802F005
:1017400045FD0A2002F0A2F9002855D02E4802F0EB
:101750003DFD14200DF086F80024012305F18C07CF
:1017600006464372056047600472C46004740CF05E
:1017700075FBC5F8E06014200DF074F805F1240342
:1017800006460360476004724472C46004740CF03F
:1017900065FBC5F8E46014200DF064F805F158020B
:1017A000022302600646437247600472C4600474F8
:1017B0000CF054FBC5F8E86014200DF053F805F167
:1017C000C40343600646076004724472C460047434
:1017D0000CF044FBC5F8EC6010210C480CF048FA02
:1017E0004FF480330A4AC5F8A840C5F8A430C5F8BC
:1017F000AC302B62EA61F8BD064802F0E7FCA8E7CE
:10180000009CFF1F3C4A0100844A01000082FF1F28
:10181000887BCD05604A0100D0F80431022B10B559
:1018200003D0063B022B00D910BD0446002380F8EC
:1018300001310649243000F03BFCD4F80431082B78
:101840001CBF0323C4F8043110BD00BFA44A01002B
:10185000D0F80431012B00D0704790F80031002BF4
:10186000FAD190F88830002BF6D130B590F854308A
:101870008DB0044643BB082101200CF033FD144910
:10188000054608A80CF08AFD0A22294604A80CF097
:10189000B7FD04A908A80CF08FFE0E490CF094FEC9
:1018A000014668460CF08EFD04A80CF037FD08A830
:1018B0000CF034FD009904F1580000F0F9FB684683
:1018C0000CF02CFD0DB030BD243000F0D5FBD2E77C
:1018D000C44A0100BC4A0100D0F80421092A06D9F3
:1018E00090F8023163B1002110200BF09BB840F258
:1018F000C123D340DB07F6D490F80231002BF2D19C
:10190000012110200BF08EB810B5012104461020E3
:101910000BF088F832200BF09FF84FF48033C4F8B6
:10192000A8307D200BF098F80021C4F8A8101020F2
:10193000BDE810400BF076B830B5D0F80431012B7B
:101940008DB0044618D0022B04D0063B012B01D9E0
:101950000DB030BD94F80231002BF9D12046FFF7CD
:10196000D3FF2046FFF7D0FF012384F802311A4845
:1019700002F02CFC0DB030BD90F8543043BB0A216E
:1019800001200CF0AFFC1549054608A80CF006FD37
:101990000A22294604A80CF033FD04A908A80CF07B
:1019A0000BFE0F490CF010FE014668460CF00AFDD4
:1019B00004A80CF0B3FC08A80CF0B0FC009904F1EA
:1019C000580000F075FB68460CF0A8FC0DB030BD67
:1019D000243000F051FBD2E7084B0100004B01001E
:1019E000BC4A01002DE9F84390461278089E099DF3
:1019F0001F461B68C0F80431044689468ABB012B88
:101A000035D02046FFF768FFD4F80431062B5BD0B1
:101A100099F800301BB198F80030002B3CD0337897
:101A2000B3BB2B7863B1D4F80431012B38D0032B2E
:101A30000AD0082B08D0042B3DD03B60BDE8F883CA
:101A4000D4F80431032BF4D194F85420002AF4D1B3
:101A50000123C4F80431264802F0B8FBD4F804315D
:101A6000E9E7FFF769FFD4F80431012BC9D194F8F5
:101A7000543003F0FF02002BC3D194F800310BB1B6
:101A800084F800211B4904F1240000F011FBB8E7A1
:101A90002046FFF7C1FEC4E72046FFF7D9FEBEE7A8
:101AA000154904F1240000F003FB04220023C4F8CC
:101AB000042184F8023194F8543003F0FF0273B12A
:101AC00004233B60BDE8F88394F80131002B9FD1DB
:101AD0002046FFF719FF012384F8013198E7C4F885
:101AE0000421064802F072FBD4F80431A5E700BFD8
:101AF000D84A0100CC4A0100B44A0100EC4A010076
:101B000010B504460CF09CFA204610BD024A034969
:101B100003480CF0AFBF00BFFC9BFF1F011B000080
:101B2000DCACFF1F38B5074D074C08482A46214654
:101B30000CF0A0FF2A4621460548BDE838400CF0CD
:101B400099BF00BFFC9BFF1F011B0000E4ACFF1FFF
:101B5000ECACFF1F024A034903480CF08BBF00BFE7
:101B6000FC9BFF1F011B0000F4ACFF1F024A03494E
:101B700003480CF07FBF00BFFC9BFF1F011B000050
:101B8000FCACFF1F024A034903480CF073BF00BFBF
:101B9000FC9BFF1F011B000004ADFF1F024A03490D
:101BA00003480CF067BF00BFFC9BFF1F011B000038
:101BB0000CADFF1F024A034903480CF05BBF00BF96
:101BC000FC9BFF1F011B000014ADFF1F024A0349CD
:101BD00003480CF04FBF00BFFC9BFF1F011B000020
:101BE0001CADFF1F2DE9F8434FF00008064600F139
:101BF0001805474641463046002F4FD00CF000F9FB
:101C0000F0B12C68B4F5803F07F1040100F1040E37
:101C100007F5827C27D05EF8042B34FB02F334FBFB
:101C200012F903F30F0209F30F03C2EA03430A6830
:101C300093FA12F341F8043B8C45ECD80CF09CF875
:101C400008F10108B8F1040F05F10405D2D1002F05
:101C500040D03046394600220CF0B8F83846BDE88E
:101C6000F8430CF089B807F10C0100F10C0451F8AD
:101C7000083C54F8082C93FA12F341F8083C54F845
:101C8000042C51F8043C93FA12F38C4541F8043CBF
:101C900004F1080401F10801E9D8CFE70CF0BCF821
:101CA00007460028CCD02868B0F5803FC8D0391D41
:101CB00007F582740B6830FB03F230FB13F302F379
:101CC0000F0203F30F03C2EA034341F8043B8C42C3
:101CD000F0D8B5E7BDE8F883024A034903480CF0A1
:101CE000C9BE00BFFC9BFF1F011B000024ADFF1FEE
:101CF00010B500210CF084F870B172B60A4B1A6866
:101D000072B10A490C6844B11C60086062B61046A2
:101D1000BDE810400CF030B810BD086062B610BDD0
:101D2000186062B610BD00BF3CADFF1F2CADFF1F99
:101D300038B5184B18491A68184C12681B79184D99
:101D40000B70A242286836BF2246A4F5807202F5C5
:101D50008074C0B1011D31F9023B03F500431B1132
:101D600022F8023B9442F6D80CF006F80D4B002204
:101D7000196829601A600C4B1B781BB10B4B4FF094
:101D800080421A6038BD4FF4006322F8023B94424F
:101D9000FBD8F0E730ADFF1F1F8000404093FF1FCE
:101DA0003CADFF1F2CADFF1F38ADFF1F08E200E068
:101DB000F8B501214248434E0CF0DEF8424A43494F
:101DC0001368802043F4805313600024087040F6A9
:101DD00008053480012008340AF03EFEA3B2AB426D
:101DE0001CB2F6D13A4B1B685B0208D5394B1A6816
:101DF00048F6A273134048F6A27293424FD034497A
:101E0000344A0B68344F354D3548364C43F4800323
:101E10000B604FF0010E40F22F3648F6A37140F2EE
:101E20000113C7F800E02E60116014600360244CB9
:101E30002D4A236823491A6002259D802279196161
:101E400002F1804202F50432284EDE6040F20111B8
:101E5000D9804FF4807000210627B026D8829D607B
:101E6000D88399829F839961117016700CF02AF8BB
:101E700022791F4B1F4E187053119B0003F16043D2
:101E80001D4C327003F5614302F1100002F01F0790
:101E900001211A4D44F82050B9401960F8BD0F4B8C
:101EA0001A6840F22F339A42A9D10B4B1B68012BC1
:101EB000A5D10B4B1A6840F201139A429FD1B6E7A5
:101EC00030ADFF1F00C00C402C80044021C00C40EE
:101ED0003C800440006003400C6003400460034009
:101EE00010600340A28F01004092FF1F00FEFFFF21
:101EF00038ADFF1F1B8000400096FF1F311D000002
:101F0000024A034903480CF0B5BD00BFFC9BFF1F0C
:101F1000011B000030ADFF1F024A034903480CF0CB
:101F2000A9BD00BFFC9BFF1F011B000040ADFF1FB0
:101F3000024A034903480CF09DBD00BFFC9BFF1FF4
:101F4000011B000048ADFF1F024A034903480CF083
:101F500091BD00BFFC9BFF1F011B000050ADFF1F88
:101F6000024A034903480CF085BD00BFFC9BFF1FDC
:101F7000011B000058ADFF1F024A034903480CF043
:101F800079BD00BFFC9BFF1F011B000060ADFF1F60
:101F9000024A034903480CF06DBD00BFFC9BFF1FC4
:101FA000011B000068ADFF1F90F8303003B9704787
:101FB00070B505460BF08CFE0646002850D0EB6944
:101FC000296A8B4227D901F58072934238D2A869D9
:101FD0005C1A22460844311D00F0B6FE2B6AEA6AFC
:101FE0001919630822447F2B2962EA6209D806EB9B
:101FF0004303023306F58171002223F8022F8B423E
:10200000FBD12846314600220BF0E0FE3046BDE809
:1020100070400BF0B1BE134A13885BB95E211248C1
:10202000FEF734FD002385F830303046BDE87040BF
:102030000BF0A2BE013B9BB21380002BF2D1EDE767
:10204000A8694FF480720844311D00F07DFE2A6AB1
:10205000EB6A02F5807203F580732A62EB62D0E7C7
:1020600070BD00BF70ADFF1F009CFF1F002380F8F4
:1020700030308362C362704772B690F8303053B12B
:10208000002380F8303062B6074A13882BB95E21EE
:102090000648FEF7FBBC62B67047013B9BB213805B
:1020A000002BF4D0704700BF70ADFF1F009CFF1FD6
:1020B00070B51B4E84B004460D46FFF7DDFF5E2170
:1020C0001848FEF7CDFC3388294601336846338033
:1020D00001F038FE6B4607CBA061A0691B88A38482
:1020E000E161226240B10022E369E2620120A36261
:1020F00084F8300004B070BD338833B909485E21DC
:10210000FEF7C4FC002004B070BD013B9BB23380DD
:10211000002BEFD103485E21FEF7B8FC0020F2E768
:1021200070ADFF1F009CFF1F036A2DE9F04780463A
:102130004BB9D8F81830D8F81C2003EBC213C8F8F4
:102140001830BDE8F0870BF0C3FD06460028F0D03C
:10215000D8F81890D8F81C70D8F820C0134D49460C
:10216000841C00F5817E0B0E5A1C35F9130035F9DD
:102170001220C1F30F2ACAF5803300FB03F30AFBD8
:10218000023353FB0CF324F8023FA6453944EAD14D
:1021900009EBC7174046C8F81870314600220BF00B
:1021A00015FE3046BDE8F0470BF0E6BD1C4B0100C4
:1021B000704700BF064B074ADA62022100225960CD
:1021C0009A7083F8242083F8302083F832207047F7
:1021D00074ADFF1F584D010010B5012100780AF0C1
:1021E00021FC0E4A137893B10D49CB7A002418468E
:1021F000147063B1DC0703D50A4A88691060184679
:102200009A0705D4430702D5074B0A6A1A6010BD26
:10221000064BCA69C87A1A60F4E700BFCCADFF1F4D
:10222000009CFF1F00E100E008E100E004E100E0A5
:102230001E4B1A781AB1007800210AF0F3BB70B473
:102240001B4A1C49D47A096801251D70ECB172B68D
:10225000D37ADE071C4606D5174DD4682E68344065
:1022600094612C601C469D0706D5144D13692E6899
:10227000D47A3340D3612B60630705D5104C536982
:1022800025682B401362236062B61368DA688A42BD
:1022900007D00C4C1C600C4AD96041F080441C6192
:1022A0001A600078002170BC0AF0BCBBCCADFF1FE7
:1022B000009CFF1FC8ADFF1F80E100E084E100E04B
:1022C00088E100E001403F0000003F80F0B4124888
:1022D000124A036882B016460093009F4FF00045F3
:1022E000FF24136843F480631360D5625463D36A98
:1022F000002BFCDAB36BDBB2FF2B09D00368019330
:10230000019BDB1B8B42ECD3002002B0F0BC70477A
:10231000012002B0F0BC7047ECAFFF1F00C00240CC
:10232000F8B50D464FF4967116460446FFF7CEFFFA
:10233000284B1A684FF0004042F4806245F040019B
:102340001A60D8621A465963D36A002BFCDA214915
:1023500018204FF000470A6826FA00F342F4806222
:10236000DBB20A60CF624B63CB6A002BFCDA083821
:1023700010F1080FEFD155B3082D0CBF8721FF21B5
:10238000144B1A684FF0004042F480621A60D86221
:102390001A465963D36A002BFCDA0E4A0027164608
:1023A0004FF00045FF21136843F480631360D5624A
:1023B0005163D36A002BFCDAB36BD8B21B06607092
:1023C00000D4F8BD0137B7F5807FECD1F8BD952179
:1023D000D6E700BF00C00240F0B41549154A0B68AB
:1023E00082B016460093009F4FF00045FF2413680B
:1023F00043F480631360D5625463D36A002BFCDA24
:10240000B36BDBB2FF2B43700AD10B680193019BC6
:10241000DB1BB3F5967FEAD9002002B0F0BC704711
:10242000A3F1FE00B0FA80F0400902B0F0BC7047A2
:10243000ECAFFF1F00C00240F8B58378032B0E46B7
:10244000044618BF4E021546FFF7F2FE3246112130
:102450002046FFF765FF18B92046FFF7BDFF20B9FA
:102460002046FFF7B9FE0020F8BD204B2049214A45
:102470001A608E4659631A4659631E46596305F51C
:10248000FD70A91C05F5FE77D36A13F0F00FFBD0A1
:10249000C6F834E0B36B01F8013C1B1201F8023CB2
:1024A00002318F42F0D105F50075A8420DD20F4AD6
:1024B0001646D36A13F0F00FFBD0B36B191200F875
:1024C000021BA84200F8013CF3D3084B0949084A13
:1024D000196019465A63CB6A044A13F0F00FFAD018
:1024E0002046936BFFF778FE0120F8BD00C0024044
:1024F000FFFF009000041F80F0B4314E33684FF0AE
:10250000004743F4806333603D46F76234467163AD
:102510003346511C02F20127E26A002AFCDA1A68EB
:1025200011F8016C42F480621A60DD625E63E26A57
:10253000002AFCDA1A6811F8026B42F480628F42BA
:102540001A60DD625E63E7D11D49CA6A1C4B002A2E
:10255000FBDA1A684FF0004542F48062FF241A60EB
:102560001946DD625C63CB6A154A002BFBDA1368FF
:102570004FF0004543F48063FF2413601146D56299
:102580005463CB6A0E4A002BFBDA13684FF0004508
:1025900043F48063FF2413601146D5625463CB6A11
:1025A000074A002BFBDA936BDBB203F01F02437088
:1025B000A2F10500B0FA80F04009F0BC704700BFFE
:1025C00000C0024070B5044671B18378032B0D46FC
:1025D00018BF4D021646FFF72BFE2A46182120464B
:1025E000FFF79EFE054620B12046FFF7F5FD0020CF
:1025F00070BD3246FE212046FFF77EFF0028F3D053
:102600004FF416712046FFF761FE0028ECD02A46F1
:102610000D212046FFF784FE0028E5D10B4B1A68F8
:102620004FF0004542F48062FF201A601946DD62D7
:102630005863CB6A054A002BFBDA936B13F0FF0F4C
:10264000D2D12046FFF7C8FD012070BD00C0024076
:10265000014B024A1A607047C8ADFF1F00000238E4
:1026600038B590F90530002B03DBBDE8384000F0A9
:102670006DB904460121006900F092F9F8B1257D99
:10268000104B13EB45151AD0A3790F4A012B9CBFB1
:10269000A369EB61E36912686B831B0CAB8232B1F7
:1026A00005F1160105F1180090472B8B6B826379B9
:1026B00003F07F036371BDE8384000F047B90020A4
:1026C00038BD00BFDCADFF1FD0ADFF1F10B500F15E
:1026D000080204460121006A00F000FA50B1E369E3
:1026E0003BB96379A268E26163F07F036371012003
:1026F00010BD012010BD00BFF8B5837913B1826908
:102700008A4201D20020F8BD022B0F4605461AD09E
:1027100007B32B6AE9681C7C4A1E04F109037C1E7E
:10272000DA40DC40A24211D9EB69AB6005F1080642
:1027300006E0A968286A00F099F9013C0028E1D078
:102740003246002CF5D1EF600120F8BD0029EBD016
:10275000A41AEBE7AF60EF600120F8BD2DE9F04F60
:102760008B46817985B001290746019205D0012366
:102770003B71002005B0BDE8F08F42799107F6D596
:10278000530708D5FC68B9698C4200F0A880FFF7B0
:10279000B3FF0028EBD0019BFC68002B49D0DFF889
:1027A0008C91DFF88CA1DDF80480386A0679013E4F
:1027B00006EA542616F0FF06C4F3080442D1002CA2
:1027C00040D1B96800296FD1FA69002A7ED0BA6079
:1027D000C4F50075ADB245453AD9057C4169023A68
:1027E000AA400E4416441FFA88F51CB9F868BA6965
:1027F00090424CD23046012100F0D2F80028B6D0E9
:102800004C4404EB050E74450DD00BF1FF31621EF4
:102810000EF1FF3611F8010F02F8010F9642F9D1BF
:10282000C4EB0E04A344FC68B8EB05082C44FC6020
:10283000BBD1BB69A34257D27A79BC6142F0800216
:102840007A715AE0C4F50075ADB24545BA68C4D88E
:10285000017C4069023A8A400644B5F5007F16447F
:10286000C3D1DAF80020964204BF4FF0FF32CAF815
:1028700000202A4A314610685A46FFF7A3FE002876
:102880003FF475AF0BF5007B4FF40075CBE700F01C
:102890005DF800283FF46BAF2149CAF800600A7860
:1028A00042F001020A70ABE703AA00F0DFF800284B
:1028B0003FF460AF386A1B4B90F82050039A4FF6F4
:1028C000F871102D18BF19468A4280D33846FFF799
:1028D000FDFE00283FF44BAF386ABA6878E7019BE9
:1028E000002B7FF45CAF08E00F4B7A791B6823B1B3
:1028F000019B13B142F080027A71120709D5BB79AE
:10290000002B3FF434AF3846FFF7AAFE00283FF40F
:102910002EAF019805B0BDE8F08F00BFD8ADFF1F06
:10292000DCAFFF1FF8FFFF0FD0ADFF1FDCADFF1FB7
:10293000109DFF1F00B583B002AB012203F8011DFB
:102940001946FFF70BFF03B05DF804FB70B50F4CA1
:1029500023780BB9012070BD0D4B0E4D1968286806
:102960000D4AFFF72FFE70B10C4E316819B90023E4
:102970002370012070BD2868074AFFF723FE10B1BD
:1029800000233360F3E7002070BD00BFDCAFFF1F02
:10299000109DFF1FD8ADFF1FDCADFF1FD4ADFF1F83
:1029A00070B50D4D2B6883420E460ED00446FFF7DE
:1029B000CDFF08B9002070BD084B094A18682146B0
:1029C000FFF73AFD0028F5D02C60064B197831430B
:1029D0001970012070BD00BF109DFF1FD8ADFF1FF3
:1029E000DCADFF1FDCAFFF1FF8B590F82030C469E5
:1029F000102B1A4B05460E4617461B6816D004EBE3
:102A0000D1149C4216D106F07F06154A42F8267072
:102A10001449287E0A78012842F001020A7018D968
:102A2000A968114A0B4413600120F8BD04EB11247E
:102A30009C4208D000212046FFF7B2FF50B195F824
:102A40002030102B07D1F6B2054A234622F8167023
:102A5000DEE70120F8BD2346D5E700BF109DFF1F2C
:102A6000DCADFF1FDCAFFF1FD4ADFF1FC368013318
:102A70008B4218D370B590F82030102B154B0446BC
:102A800016460D46C0691B680FD000EBD110984266
:102A90000FD105F07F01104B53F8213023F0704324
:102AA0003360012070BD0020704700EB1120984278
:102AB00007D00021FFF774FF50B194F82030102B9D
:102AC000E7D1E9B2044B33F811303360012070BD17
:102AD000002070BD109DFF1FDCADFF1F2DE9F04FE2
:102AE000176883B06FB301374FF0000AC36803F172
:102AF000010813B38B46064691463C46002505E087
:102B00001C461F46F3680135AB4216D9A04538BFB5
:102B10000224214601AA304638BF2746FFF7A6FF08
:102B2000631CD91B48B1019A002AE9D18B4510D00A
:102B30001C46F3680135AB42E8D8002003B0BDE87D
:102B4000F08FA1F1010ABAFA8AFA07684FEA5A1A15
:102B5000CCE7012CF1D9F36801339C42EDD86FF03A
:102B6000704221463046FFF73FFF0028E5D0A742DC
:102B700014D2013C012CE0D9F36801339C42DCD82B
:102B8000621C21463046FFF72FFF0028D5D0A74210
:102B900004F1FF3402D0012CEED1CEE7D9F80010B9
:102BA00059B10129C9D9F36801339942C5D83A46C8
:102BB0003046FFF719FF0028BFD0C9F80070BAF1FE
:102BC000000F01D0013737600120B7E7524ADFF824
:102BD00068C12DE9F04F514D514CDFF86081DFF8AD
:102BE00060B1DFF860E11646D17A09B372B6F37AC4
:102BF000D807194607D5DBF80000F1680140B1613C
:102C0000CBF8001019469B0707D5DCF800001369C4
:102C1000D17A0340D361CCF800304F0706D5D8F8FD
:102C2000001053690B401362C8F8003062B6D17AC5
:102C30001368D868B0F1384F0AD04FF078404FF0A1
:102C40003849C3F800E0C3F80C90186135481860A3
:102C50002078D5F800A04FF0010980078AF800918C
:102C60004FF000492DD57020C3F82C905863D86AD6
:102C70000028FCDA4FF0004900209F6BC3F82C902D
:102C80005863D86A0028FCDA01209B6B8AF8800020
:102C900081B1CF0703D5244F9069D17A3860880776
:102CA00003D5224FD069D17A3860490702D5204830
:102CB000116A01601B0697D51E4B00221A70BDE8F1
:102CC000F08F0520C3F82C905863D86A0028FCDAEE
:102CD0004FF0004900209F6BC3F82C905863D86ACE
:102CE0000028FCDA01209B6B8AF8800081B1CF07B5
:102CF00003D50D4F9069D17A3860880703D50B4F03
:102D0000D069D17A3860490702D50948116A016053
:102D1000DB073FF569AFCFE7009CFF1FE4AFFF1F64
:102D2000E0AFFF1F00003F8000E100E004E100E0B1
:102D300008E100E0E1AFFF1F84E100E088E100E08E
:102D400080E100E001403F002DE9F04F0E4685B0E4
:102D500000218146304615460DF0B0FB984B994A4C
:102D6000DB7A11780291002B25D072B6944BDB7A76
:102D7000DC07194608D5944891490468C968214080
:102D80008F4CA16101601946980709D58F488C4B7B
:102D900004681B698A492340894CC97AE36103604E
:102DA0004B0707D58A49864B08685B69034084480E
:102DB00003620B6062B6824B1B68D968B1F1384F71
:102DC00009D0844818604FF03840D86082494FF0ED
:102DD0007840186119608148DFF804B201780391E6
:102DE00000297ED1DBF80020029800F0080A00F0EC
:102DF00001015FFA8AFA01914FF0010809EB05071A
:102E0000BAF1000F40D1544682F80081019A002A9D
:102E10004DD04FF000410322D9625A63DA6A002A8A
:102E2000FCDA4FEA194242F080524FF00041986BB1
:102E3000D9625A63DA6A002AFCDA1FFA89F949F082
:102E400080524FF00041986BD9625A63DA6A002AC7
:102E5000FCDADFF86C919B6B324631462B464846D4
:102E6000FDF756FFDBF800202E4482F88080012118
:102E7000002C00F0B780524B2546B9461B6809EB81
:102E80000507BAF1000FBED07C1E84EA090414F0D5
:102E90007E44B9D029F07E4182F80081019AC1F1C7
:102EA00000716C1A09EB01070D46002AB1D1C9F374
:102EB000074242F0805242F440724FF00041D96222
:102EC0005A63DA6A002AFCDA1FFA89F949F080525B
:102ED0004FF00041986BD9625A63DA6A002AFCDA33
:102EE000B7E71178DBF8002001248F0782F8004152
:102EF0004FF0004440F1B8807021DC625963D96A18
:102F00000029FCDA4FF0004400219F6BDC6259631A
:102F1000D96A0029FCDA996B090600F1B880039B95
:102F20000121022B82F8801000F2BE80244B82F82F
:102F300000111B684FF000400621D8625963D96A1E
:102F40000029FCDA01209C6B82F8800018210139ED
:102F5000FDD102994C0740F10C81039981420CBFCD
:102F60008521752101244FF0004082F80041D8628C
:102F70005963D96A0029FCDA986B0298012110F094
:102F8000020F82F880104FF0004082F8001100F02C
:102F9000DD807021D8625963D96A0029FCDA996B07
:102FA0004FF000440020DC625863D96A0029FCDA43
:102FB000996B0906F7D5012182F8801014E700BF4C
:102FC000009CFF1FE0AFFF1F80E100E084E100E014
:102FD00088E100E001403F0000003F80E1AFFF1FBB
:102FE000E4AFFF1F039B23B3D9F8003082F8001130
:102FF0004FF000400621D8625963D96A0029FCDAF3
:1030000001209C6B82F8800018210139FDD10299C2
:103010004C0743D47A2101244FF0004082F800414C
:10302000D8625963D96A0029FCDA01219B6B82F8C6
:103030008010554B5449DB7A1A4693B1D80703D513
:10304000524A896911601A46990704D54E4A504B75
:10305000D169D27A1960530703D54B4A4D4B126A96
:103060001A6005B0BDE8F08F0521DC625963D96AAA
:103070000029FCDA4FF0004400219F6BDC625963A9
:10308000D96A0029FCDA996BCF073FF548AF0021D8
:10309000012482F8804001700391A5E603998142E2
:1030A00014BF7A218A21B6E7374B3748DB7A1946B5
:1030B0009BB1DC0703D535498069086019469F0735
:1030C00005D5314B32483049DB69C97A03604C077A
:1030D00003D52D492F4B096A19600192FFF776FD40
:1030E000294B2949DB7A019AEBB172B6CB7AD80722
:1030F0001A4640D49B0709D52749234B08681B690A
:10310000214A03402048D27AC3610B60570707D594
:10311000224A1D4B11685B690B401B490B6213600F
:1031200062B6DBF80020184B1B68D968B1F1384F44
:1031300009D01B4818604FF03840D86019494FF04B
:10314000784018611960002103914DE60521D8628D
:103150005963D96A0029FCDA996B4FF000440020CA
:10316000DC625863D96A0029FCDA996BCF07F7D47F
:1031700021E77521F6E60C48CA68046822408A6196
:1031800002601A46B6E700BF009CFF1F00E100E0A6
:1031900004E100E008E100E084E100E088E100E013
:1031A00001403F0000003F8080E100E02DE9F84F42
:1031B000DFF8D8816C4D98F80030DFF8D491DFF853
:1031C000D4A106460C461746AB46002B40F0AA8019
:1031D000EB7A1BB372B69BF80B20D007114609D5CA
:1031E000624B1968DBF80C300B406049CBF81830A3
:1031F0000B601146930707D55D4BE97A1A682B6976
:1032000013405B4AEB611360480706D5594B1A68B7
:103210006B691340574A2B62136062B62B68DA68F9
:10322000B2F1384F09D0544919604FF03841D96094
:10323000524A4FF0784119611A60D9F80000012212
:1032400080F800214FF000410622D9625A63DA6A01
:10325000002AFCDAF2B2C2F580724FF0010EBA42D7
:10326000D3F838C080F880E04FF0180128BF3A4604
:103270000139FDD19AF8001080F800E1C90754D552
:103280004FF0004E0221C3F82CE05963D96A00299F
:10329000FCDA310C41F080514FF0004ED3F838C0C9
:1032A000C3F82CE05963D96A0029FCDAB1B241F0C5
:1032B00080514FF0004ED3F838C0C3F82CE059636A
:1032C000D96A0029FCDA996B1644BF1A4FF0004EF8
:1032D000224414F8011BC3F82CE05963D96A002971
:1032E000FCDA9442996BF4D1EB7A4FF0010E04248E
:1032F000194680F880E088F800408BB1DC0704D5DF
:103300001F49DBF8180008601946980703D51D48C7
:10331000EB69E97A03604B0702D51B492B6A0B6006
:103320001446F7B1FFF752FC52E7C6F3074141F0EC
:10333000805141F400714FF0004EC3F82CE0596306
:10334000D96A0029FCDAB1B241F080514FF0004E49
:10335000D3F838C0C3F82CE05963D96A0029FCDAE5
:10336000B1E7BDE8F88F00BF009CFF1F80E100E0DF
:1033700084E100E088E100E001403F0000003F8080
:1033800000E100E004E100E008E100E0E1AFFF1F40
:10339000E4AFFF1FE0AFFF1FF8B5534D534A2B7842
:1033A00017780446002B40F09C805149CB7AEBB152
:1033B00072B6CB7ADE071A4606D54E48CA6806684A
:1033C00032408A6102601A46980706D54A480B695E
:1033D0000668CA7A3340CB610360530705D5474A74
:1033E0004B69106803400B62136062B60B68DA68C1
:1033F000B2F1384F09D042481860424A4FF038467F
:103400004FF07840DE6018611A603F4A166801226A
:1034100086F800214FF000400622D8625A63DA6A2B
:10342000002AFCDA0120D3F838E086F88000182260
:10343000013AFDD1FF0786F8000139D54FF0004071
:10344000D822D8625A63DA6A002AFCDA220C42F0E7
:1034500080524FF000409F6BD8625A63DA6A002AAC
:10346000FCDAA4B244F080544FF00042986BDA6268
:103470005C63DA6A002AFCDA9B6BCB7A1C4C012075
:103480001A4686F8800083B1DE0703D51F4AA0697B
:1034900010601A46980703D51D4BC869CA7A186090
:1034A000530702D51B4B0A6A1A6002232B70F8BD22
:1034B000C4F3074242F0805242F458424FF00040B9
:1034C000D8625A63DA6A002AFCDAA4B244F0805463
:1034D0004FF00042986BDA625C63DA6A002AFCDA29
:1034E000CAE7FFF773FB60E7E1AFFF1FE0AFFF1F25
:1034F000009CFF1F80E100E084E100E088E100E043
:1035000001403F0000003F80E4AFFF1F00E100E00A
:1035100004E100E008E100E070B54C4B1B78044684
:10352000002B79D14A49CB7AEBB172B6CB7AD80766
:103530001A4606D54748CA6805682A408A6102606B
:103540001A469E0706D544480B690568CA7A2B407F
:10355000CB610360550705D5404A4B6910680340AD
:103560000B62136062B60B68DA68B2F1384F09D0AB
:103570003B4818603B4A4FF038454FF07840DD60DB
:1035800018611A60384A106801264FF000459F22E2
:1035900080F80061DD625A63DA6A002AFCDA4FF0D3
:1035A000004500229E6BDD625A63DA6A002AFCDA6B
:1035B0009B6B23700A684FF000450023D56253636C
:1035C000D36A002BFCDA936B63700A684FF00045F6
:1035D0000023D5625363D36A002BFCDA2378926B05
:1035E000A270012B1BD0CB7A194D01241A4680F80A
:1035F000804083B1DC0703D51C4AA86910601A46D5
:10360000980703D51A4BC869CA7A1860530702D5C0
:10361000184B0A6A1A6070BDFFF7D8FA82E70A6889
:103620004FF000450023D5625363D36A002BFCDAC8
:10363000936BE3700A684FF000450023D562536333
:10364000D36A002BFCDA936B2371CCE7E1AFFF1F49
:10365000009CFF1F80E100E084E100E088E100E0E1
:1036600001403F0000003F80E4AFFF1F00E100E0A9
:1036700004E100E008E100E0F0B5864D2B7883B06E
:10368000002B40F083806846FFF746FF9DF800302E
:10369000202B64D08049C87AF0B172B6CB7AD807B3
:1036A0001A4606D57D4CCA682068104088611A46C3
:1036B00020609F0706D57A4A0B6910680340CB61EA
:1036C0001360CA7A560705D5764A4B6910680340DD
:1036D0000B62136062B6C87A0B68DA68B2F1384FD1
:1036E00009D0714C1C60714A4FF038464FF0784455
:1036F000DE601C611A606E4A146801274FF00046B4
:10370000062284F80071DE625A63DA6A002AFCDA63
:1037100001269F6B84F880601822013AFDD14FF09A
:103720000047C72284F80061DF625A63DA6A002A20
:10373000FCDA01229B6B84F8802060B1C40703D5BA
:103740005C4B8A691A60C87A820722D4430702D583
:10375000594B0A6A1A6003232B7003B0F0BD9DF821
:103760000230A3F12002022A94D8544C212B207855
:1037700014D000F03F028011012822705FFA80FE11
:10378000EBDC222B0CBF082602260EE0FFF71EFA08
:1037900079E74B4BCA691A60C87AD7E700F03F0354
:1037A000801123705FFA80FE02263B49CB7A03B377
:1037B00072B6CB7ADF071A4609D5DFF8E0C0CA68CF
:1037C000DCF8007017408F611A46CCF800709B0738
:1037D00006D5334A0B6917683B40CB611360CA7A40
:1037E000570705D52F4A4B6917683B400B6213609A
:1037F00062B60B68DA68B2F1384F09D02A4919600D
:103800004FF03841D960294A4FF0784119611A6068
:10381000274A1168012281F800214FF00047062253
:10382000DF625A63DA6A002AFCDA0122D3F838C070
:1038300081F880201827013FFDD14FF0004CC427AC
:1038400081F80021C3F82CC05F63DA6A002AFCDA31
:103850001EFB06F2120242F080524FF000469F6BB0
:10386000DE625A63DA6A002AFCDA4FF000464FF053
:1038700080529F6BDE625A63DA6A002AFCDA227891
:103880009B6B431C42EA83130122237081F8802042
:1038900061E700BFE1AFFF1F009CFF1F80E100E078
:1038A00084E100E088E100E001403F0000003F804B
:1038B000E4AFFF1F00E100E008E100E0E0AFFF1F20
:1038C00004E100E0F8B54E490B780BB90120F8BDD2
:1038D0004C48C47AF4B172B6C37ADE071A4606D5EC
:1038E000494CC26825682A40826122601A469D07B9
:1038F00006D5464C03692568C27A2B40C361236014
:10390000540705D5424A4369146823400362136093
:1039100062B6C47A0368DA68B2F1384F09D03D4D17
:103920001D603D4A4FF038464FF07845DE601D611E
:103930001A603A4A3A4D16782D68012285F800211E
:10394000B2074FF0004729D57022DF625A63DA6A66
:10395000002AFCDA4FF000470022D3F838E0DF629B
:103960005A63DA6A002AFCDA01229B6B85F8802010
:1039700084B1E70703D52B4A8569C47A1560A5078A
:1039800003D5294AC569C47A1560620702D5274A5A
:10399000006A10601B0629D40020F8BD0522DF62F2
:1039A0005A63DA6A002AFCDA4FF000470022D3F8A3
:1039B00038E0DF625A63DA6A002AFCDA01229B6B84
:1039C00085F8802084B1E70703D5164A8569C47A53
:1039D0001560A50703D5144AC569C47A1560620746
:1039E00002D5124A006A1060DB07D5D4002416F015
:1039F000C00F0C703FF46AAFFFF73EFE2046F8BDE3
:103A0000E1AFFF1F009CFF1F80E100E084E100E0C8
:103A100088E100E001403F0000003F80E0AFFF1F71
:103A2000E4AFFF1F00E100E004E100E008E100E096
:103A300002781F2A15D08378A3F110010F290DD920
:103A4000A3F12001052908D98AB942788AB9002B47
:103A500014BF4FF4801000207047063B01209840AF
:103A600070474378892BE6D14FF080707047FF2A6A
:103A700002D04FF4801070474278FF2AF9D1FF2B13
:103A800014BF4FF480100020704700BF70B56A4B20
:103A90006A4D53F830302B6082B004466848FCF71A
:103AA000A1FF2046012108F0D1FF2E68012386F8EE
:103AB00080306846FFF730FD9DF80040A4B99DF8BE
:103AC000013013B99DF8020060B16846FFF7B0FFFE
:103AD000B0F1807F21D800235A4A68461370FFF75F
:103AE0001BFD012002B070BDFF2C09D19DF80130F3
:103AF000FF2BEAD19DF80230FF2BE6D10020F1E741
:103B00006846FFF795FFB0F1807F06D8012C6DD095
:103B1000202C14BF00230223DEE74949CB7AD3B11E
:103B200072B6CB7AD8071A4606D54748CA680468E1
:103B300022408A6102601A469B0706D543480B69FA
:103B40000468CA7A2340CB610360560765D462B625
:103B50002E689DF800400B68DA68B2F1384F09D042
:103B60003B4818603B4A4FF038454FF07840DD60E5
:103B700018611A60012C43D001244FF00040062246
:103B800086F80041D8625A63DA6A002AFCDA01201A
:103B90009C6B86F880001822013AFDD14FF000445A
:103BA000B72286F80001DC625A63DA6A002AFCDA7E
:103BB00001229B6B86F88020CB7A21481A4663B19C
:103BC000DC0703D5244A806910601A4698072BD475
:103BD000530702D5214B0A6A1A609DF80030202B4A
:103BE00019D0012B25D11A46052301E00423002218
:103BF0009DF8041000297FF46FAF42F014036BE7C7
:103C00004FF00040164A86F80041D8625A63DA6ADB
:103C1000002AFCDACCE70B235EE7124A4B691068F6
:103C200003400B62136092E70F4BC869CA7A1860B1
:103C3000CEE7012350E700BFE0590100E4AFFF1FCA
:103C4000009CFF1FE0AFFF1F80E100E084E100E087
:103C500001403F0000003F8000E100E008E100E09B
:103C60008017001088E100E004E100E0044B1B78BD
:103C700013F0100F14BF4FF480204FF480307047C2
:103C8000E0AFFF1F00B583B0082269460020FFF7B0
:103C90005BF8009B104A93421AD0013303D00020F6
:103CA00003B05DF804FB0D4B00926946082200202A
:103CB0000193FFF77BFAFFF705FE0028FBD00822EF
:103CC00069460020FFF740F8034B009A9A42E6D17C
:103CD000019803B05DF804FB4C5596FA5802F618AB
:103CE00030B50546808983B0043040000DF10601EF
:103CF0000222FFF729F8A889BDF806300430DB431B
:103D000040000DF106010222ADF80630FFF74EFA31
:103D1000FFF7D8FD04460028FAD0A88904300DF139
:103D2000060140000222FFF70FF8BDF8063023B964
:103D300020462B606B6003B030BD0024204603B0EA
:103D400030BD00BF2DE9F04F002393B00360436006
:103D50008360C36004900C460391FFF793FF002833
:103D60007AD0227883B20293002A00F08A80464BF0
:103D700046482146534011F8012F00FB03F3002A67
:103D8000F8D1434F5A08A7FB0227BF0BC7EBC73731
:103D9000A3EB47070137BFB2029B002B5CD003EBBC
:103DA00043030593002301930DF1280B029B019A15
:103DB0001946C2EB010ABAF1070F58D8101D40008E
:103DC0004FEA4A025946FEF7BFFFBAF1000F47D04B
:103DD000029B1E1D019B03EB830216440025760007
:103DE00008E04FF6FF739A4236D00135554506F18B
:103DF0000A0635D23BF81520BA42F2D100230A2236
:103E000007A930460993FEF79FFF099A059B039C7B
:103E100002F1020999444FEA89090DF14708484621
:103E200010220EA9FEF790FF09F110090DF13703DA
:103E300001E09845F3D014F8011B13F8012F8A42D2
:103E4000D3D1002AF5D1019B0498079A2B441D4633
:103E5000089B858180E80C00049813B0BDE8F08FC2
:103E6000019B029A53449A4201939FD8F4E7019B25
:103E7000181D400010225946FEF766FF4FF0080A51
:103E8000A6E74FF4204787E7C59D1C8193010001F9
:103E90000300018000B585B001466846FFF752FF78
:103EA0000098003018BF012005B05DF804FB00BF8A
:103EB00000B585B001466846FFF744FF009810B191
:103EC0006846FFF70DFF05B05DF804FB2DE9F04FE4
:103ED00005468BB00E4606A829461746FFF732FF67
:103EE000069C1CB9FFF7CEFE814618B900200BB026
:103EF000BDE8F08FA2461FFA89F80AF10803984539
:103F00004FF6FF7B1ED2CAEB08040AF104006200E0
:103F1000400006A9FEF718FF6CB1BDF818305B45EC
:103F200019D006AA002303E032F8021F594513D026
:103F30000133A342F8D3A244D045D7D90AF10803EC
:103F40009845E0D30AF104004000102206A9FEF7CC
:103F5000FBFE0824E1E700230AEB0304A045C5D9D2
:103F600008EB480B4FEA8B03009303F1080B002C7E
:103F700067D1524A4FEA993909EA020202EB0B0A69
:103F8000002F51D10AF1FF0727F0FF0728460CF058
:103F900077FF814606A8FFF7BFFA06A8FFF748FD9E
:103FA00006EB070A8245A1D809F1010229465846C5
:103FB000FFF7FCF8009B03976FF00702D21A08F195
:103FC000040804EB840002EB0B0340449B08400010
:103FD00003A90A2204960593FFF7E8F8FFF772FC9D
:103FE0000028FBD02A78002A65D0354B354953404C
:103FF00015F8012F01FB03F3002AF8D132495A08C2
:10400000A1FB0212920BC2EBC232A3EB42030133BB
:10401000201D400003A902220393FFF7C7F8FFF712
:1040200051FC0028FBD062E77A1E013E3E44524418
:10403000B6FBF7F6B2FBF7F206FB07F602FB07F753
:10404000A4E708F10042013A04EB8401881840001B
:104050000A2203A94FF00009CDF81490FEF774FE70
:1040600005980399049A0BEB800301939B4601EB9F
:10407000020A102206A95846FEF766FE9DF818307F
:1040800009F1010263B109F1100906AB03E013F86D
:10409000011F013221B14A45F9D10BF1100BE8E7BC
:1040A0000199DFF818B003310A4402EA0B0B002F24
:1040B0003FF468AFB8E74FF42043A9E7FCFF0300E3
:1040C000C59D1C8193010001030001802DE9F0478B
:1040D000002388B00370074688469246FFF7D2FD5A
:1040E000002850D0DFF8B090B9F8004086B2A64260
:1040F00049D9251D6D0002E00134A64243D028466F
:1041000002220DF10601FEF71FFEBDF80630023552
:10411000002BF1D004EB8400B31D184406220023C9
:104120000134400002A90393A9F80040FEF70CFEF9
:10413000029B5A1C27D0039CCAF8003006EB4606A7
:1041400002343444A400B8F1000F17D04546102DB6
:1041500028BF102504A92A462046FEF7F5FD0DF1DB
:104160000F01002311F8012F07F8012B013372B161
:10417000AB42F7D3B8EB05082C44E7D1002307F88E
:10418000013C012000E0002008B0BDE8F0870120DC
:1041900008B0BDE8F08700BFDEAFFF1F70B5054671
:1041A000FFF764FD06462868741E20420CD16B6838
:1041B0001C4009D10BB907E028682044FFF7ECF850
:1041C0006B683444A342F7D870BD00BF704700BF8E
:1041D00009289ABF024B53F820000248704700BFDD
:1041E000204E0100684D010038B50A4D00230446F9
:1041F000294600F8043B0AF0D1F8294604F11400DE
:104200000AF0CCF8294604F124000AF0C7F8204649
:1042100038BD00BFF854010041638263704700BF9E
:1042200010B50B4A0B4B11681B688AB0043A019118
:10423000126800920446084A02A820210CF09AFB5A
:1042400002A920460AF0AAF820460AB010BD00BF15
:104250006080044058800440484E010010B5044678
:1042600090B004300AF026F921466846FFF7D8FFDF
:10427000694604F114000AF025F968460AF04EF880
:104280006368094A402168460CF074FB6846FFF7F2
:104290009DFF6369054A402168460CF06BFB684648
:1042A000FFF794FF10B010BD5C4E0100744E01008A
:1042B00070B50646002390B0104633607360B3605B
:1042C000F3600AF093FA014668460AF07BF88449E5
:1042D00004A80AF063F804A968460AF039FA00282D
:1042E0007ADB04A80AF01AF82C2168460AF020FAB2
:1042F000041E63DB2C25002C5ADD23460022694670
:104300000CA80AF037FA0CA80AF09EFA30600CA844
:104310000AF004F8621C0CA869460AF04FFA0CA9CE
:1043200068460AF0CFF80CA809F0F8FF294668465D
:104330000AF0FEF9041E3BDD2346002269460CA864
:104340000AF018FA0CA80AF07FFA70600CA809F0BD
:10435000E5FF621C69460CA80AF030FA0CA9684611
:104360000AF0B0F80CA809F0D9FF294668460AF00F
:10437000DFF9041E1CDD2346002269460CA80AF062
:10438000F9F90CA80AF060FAB0600CA809F0C6FFB1
:10439000621C69460CA80AF011FA0CA968460AF0DA
:1043A00091F80CA809F0BAFF68460AF04DFAF060DF
:1043B000684609F0B3FF304610B070BD3B21684637
:1043C0000AF0B6F9041E80F28880202168460AF0BF
:1043D000AFF9202504468EE7424908A809F0DEFF20
:1043E00008A968460AF0B4F9002803DB08A809F018
:1043F00095FF76E73C490CA809F0D0FF0CA9684668
:104400000AF0A6F904460CA809F088FF08A809F0EC
:1044100085FF04A809F082FF002CBFF665AF334981
:104420000CA809F0BBFF0CA968460AF03DF9044648
:104430000CA809F073FF002C3BD0012269460CA8A0
:104440000AF0BCF90CA968460AF03CF80CA809F07F
:1044500065FF029C002C3CD000252C460DE0462830
:10446000A4F1370312D96628029B98BF573C05F187
:10447000010598BF24189D420DD2294668460AF0CE
:1044800033F924013928A4F13003E8D8C418029B79
:1044900001359D42F1D3210EC4F30742C4F3072333
:1044A000E4B286E81E00684609F038FF304610B0D6
:1044B00070BD0F490CA809F071FF0CA968460AF0FD
:1044C000F3F804460CA809F029FF002CC1D0022201
:1044D000B4E7234622462146E3E73B250BE700BF2E
:1044E000944E0100984E01000C4F01009C4E0100BB
:1044F000A04E010082B02DE9F04194B01AA981E8E4
:104500000C009DF878301B9E1C9D1D9C8046174614
:10451000002B64D054490CA809F040FF0CA910A846
:1045200009F050FFC7F303130A2BB4BF3021372122
:10453000194410A80AF056F807F00F070A2FB4BF65
:104540003021372139440AF04DF8C6F303130A2B02
:10455000B4BF3021372119440AF044F806F00F06A1
:104560000A2EB4BF3021372131440AF03BF8C5F39D
:1045700003130A2BB4BF3021372119440AF032F853
:1045800005F00F050A2DB4BF3021372129440AF068
:1045900029F8C4F303130A2BB4BF3021372119447F
:1045A0000AF020F804F00F040A2CB4BF30213721A0
:1045B00021440AF017F801460CA809F07BFF10A867
:1045C00009F0ACFE0CA9404609F096FE0CA809F0D3
:1045D000A5FE404614B0BDE8F04102B07047114658
:1045E00068460A2209F00CFF694604A809F0EAFEB1
:1045F00004A81E4909F0E8FF0A220746314608A828
:1046000009F0FEFE08A9384609F0D6FF174909F05F
:10461000DBFF0A22064629460CA809F0F1FE0CA988
:10462000304609F0C9FF114909F0CEFF0A220546BC
:10463000214610A809F0E4FE10A9284609F0BCFFA5
:104640000146404609F0BEFE10A809F067FE0CA81E
:1046500009F064FE08A809F061FE04A809F05EFEF6
:10466000684609F05BFEB4E7F8540100944E01007F
:104670000078704701707047F0B592490446CFB09A
:1046800009F08CFE0221204609F02EFF8E4B8F4947
:10469000002720461F8009F071FF01AA40210EA8C3
:1046A000FFF714FD002840F0C1808949204609F039
:1046B00065FF0EA8FEF730FF10229DF8381006A8FF
:1046C00009F09EFE06A90AA809F07CFE81490AA805
:1046D00009F07AFF0146204609F04CFF0AA809F0CC
:1046E0001DFE06A809F01AFE10229DF8391006A832
:1046F00009F086FE06A90AA809F064FE75490AA811
:1047000009F062FF0146204609F034FF0AA809F0CB
:1047100005FE06A809F002FE10229DF83A1006A830
:1047200009F06EFE06A90AA809F04CFE6A490AA81B
:1047300009F04AFF0146204609F01CFF0AA809F0CB
:10474000EDFD06A809F0EAFD0EA8FFF771F963492F
:1047500005460AA809F022FE0A22294606A809F001
:1047600077FE06A90AA809F027FF0146204609F0AE
:1047700001FF06A809F0D2FD0AA809F0CFFD5849AB
:10478000204609F0FBFE57490AA809F007FE0A2255
:10479000E91B06A809F05CFE06A90AA809F00CFFAF
:1047A0000146204609F0E6FE06A809F0B7FD0AA872
:1047B00009F0B4FD4A49204609F0E0FE4A490AA83A
:1047C00009F0ECFD0A22394606A809F041FE06A9C7
:1047D0000AA809F0F1FE0146204609F0CBFE06A822
:1047E00009F09CFD0AA809F099FD3D49204609F011
:1047F000C5FE3E49204609F0C1FEFFF737FA0A22FE
:1048000001460AA809F024FE0AA9204609F0B2FED2
:104810000AA809F083FD3249204609F0AFFE0321C2
:10482000204609F0B9FE20464FB0F0BD0EA902A8FF
:1048300009F0B4FD02A90AA809F0C4FD0EA80CF005
:104840001FFBC0F11606012E38BF01261D4906A820
:1048500009F0A4FD002EC8BF002506DD01351D4965
:1048600006A809F08BFEAE42F8D106A90AA809F005
:10487000A3FE0146204609F07DFE06A809F04EFD84
:104880000AA809F04BFD02A809F048FD0A22019987
:104890000AA809F0DDFD0AA9204609F06BFE0AA866
:1048A00009F03CFD0C49204609F068FE0EA90AA853
:1048B000FFF748FA0B9A0A9B13449F4238BF1F46E2
:1048C000EBE600BFF8540100DEAFFF1FA44E01006D
:1048D000B84E01000C4F0100B44E0100D84E01004B
:1048E000E84E0100F04E0100004F0100104F0100A2
:1048F00030B5184C85B00546022009F039F907217A
:10490000154809F0B1F8291D204609F035FC20466C
:1049100009F058FC0F21114809F0A6F805F114011F
:10492000204609F029FC204609F04CFC294668463F
:10493000FFF7A2FE6946204609F01EFC204609F05A
:1049400041FC684609F0EAFC032009F011F905B0C2
:1049500030BD00BF4C9EFF1F204F0100284F0100BB
:1049600010B50C4B002496B01C8001AA402106A86B
:10497000FFF7ACFB10B9204616B010BD06A902A87F
:10498000FFF7E0F9039A029B13449C4238BF1C4690
:10499000EBE700BFDEAFFF1F30B5094BC1B000220F
:1049A000054668461A80FEF7B7FD6846FFF740F8EF
:1049B00004462846FFF7D4FF201A41B030BD00BF9F
:1049C000DEAFFF1F2DE9F04FADF50F7D04AF8B4635
:1049D0000546002107F1280009F0E0FC07F5947472
:1049E000B64907F1280009F075FDB549204609F0E0
:1049F000D5FC2146584609F01BFE8046204609F0AA
:104A00008DFCB8F1000F25D02846FFF771FF3B6BF6
:104A1000BBB12B78002B3CD101232B7007F128016F
:104A200007F1380009F0CEFC0A2107F1380009F03F
:104A3000D9FD0146A34809F09FFB07F1380009F0B2
:104A40006DFC07F1280009F069FC07F50B77BD46FE
:104A5000BDE8F08F07F58C76424601233046594673
:104A600009F088FE9849204609F098FC2146304616
:104A700009F0DEFD8046204609F050FC304609F082
:104A80004DFCB8F1000F07D001218F4808F0ECFF72
:104A9000BDE7012BD5D1C1E78C49204609F07EFC4A
:104AA0002146584609F0C4FD8046204609F036FCF0
:104AB000B8F1000F16D18649584609F0A3FDB8B1E8
:104AC0008449204609F06AFC05F11401204609F0EA
:104AD00073FD014607F1280009F0ECFC204609F0BF
:104AE0001DFC94E77C49204609F058FC291DEDE7A0
:104AF0007A49204609F052FC2146584609F098FDB3
:104B00008046204609F00AFCB8F1000F1BD0FEF7E2
:104B1000B3FD3421724808F0A7FF6A4809F052FB40
:104B20001424FEF7CFFE60BB4FF4FA7007F094FF39
:104B30000121654808F098FF013CF2D10121694844
:104B400008F092FFECE7424605235946304609F04B
:104B500011FE6549204609F021FC2146304609F046
:104B600067FD8046204609F0D9FB304609F0D6FBA8
:104B7000B8F1000F0BD05D4907F1280009F0AAFC3D
:104B800045E75B4907F1280009F0A4FC3FE75949D4
:104B9000204609F003FC2146584609F049FD8046AD
:104BA000204609F0BBFBB8F1000F05D0524907F1D0
:104BB000280009F08FFC2AE7424603235946304675
:104BC00009F0D8FD4D49204609F0E8FB2146304662
:104BD00009F02EFD8046204609F0A0FB304609F082
:104BE0009DFBB8F1000F00F093802C21584609F08E
:104BF0009FFD0028C0F213812C21584609F098FD32
:104C0000032203465946204609F0B4FD204609F028
:104C1000EDFD07F584780146404609F0D3FB2046B8
:104C200009F07CFB2C21584609F082FD5946421CB4
:104C3000204609F0C3FD204609F0D8FD09F004FE26
:104C40008246204609F06AFB2D49304609F0A6FB52
:104C50004146304609F0B0FC2A4909F0B5FC0A2269
:104C600081465146204609F0DFFB2146484609F0BF
:104C7000A3FC254909F0A8FC0146124809F07CFA7A
:104C8000204609F04BFB304609F048FBD8F80830C5
:104C9000002B00F0E180BAF1000F40F36481FEF7D1
:104CA00011FE002840F0DE80184907F1280009F0C5
:104CB00011FC404609F032FBA9E600BFF8540100A0
:104CC000384F01004C9EFF1F9C4E01003C4F0100DD
:104CD000444F0100484F0100404F01004C4F01007C
:104CE000584F0100B44E0100D04F0100D84F0100D1
:104CF000904F0100085001000C5001001C500100B1
:104D00003C500100485001004C50010094500100FB
:104D1000424603235946304609F02CFDCE49204631
:104D200009F03CFB2146304609F082FC80462046D3
:104D300009F0F4FA304609F0F1FAB8F1000F43D067
:104D400007F584785946404609F03CFB404609F097
:104D50003DFD0146404609F0ADFBC049204609F043
:104D60001DFB2146404609F0A9FC8146204609F07A
:104D7000D5FAB9F1000F00F0C08059460322304641
:104D800009F01CFD002321464022304609F0B6FC04
:104D9000304609F0C3FA21460122A86B01F0D4FA8B
:104DA000AE49304609F0FAFA3146404609F086FC31
:104DB0000446304609F0B2FA002C7FF47AAF0321A2
:104DC000A74809F04FFA74E7A649204609F0E6FA29
:104DD0002146584609F02CFC8046204609F09EFAF0
:104DE000B8F1000F21D0A049204609F0D7FA284693
:104DF000FFF7D2FD01460A22304609F029FB314671
:104E0000204609F0D9FB014607F1280009F052FBC2
:104E1000304609F083FA204609F080FAF7E5934915
:104E200007F1280009F056FBF1E59149204609F009
:104E3000B5FA2146584609F0FBFB8046204609F0AA
:104E40006DFAB8F1000F5DD08A49204609F0A6FA44
:104E50002846FFF785FDCDE7874907F1280009F0CF
:104E600039FB26E7D8F80830C7F810D0083323F00C
:104E70000703ADEB030D0DF110090023402240465E
:104E8000494609F03BFC7D4B002248461A80FFF75B
:104E900001F8002840F0BF80404609F097FC6F49B8
:104EA0008346204609F07AFA5846214609F006FC66
:104EB0008346204609F032FABBF1000F40F0A5808E
:104EC000FEF7D4FE4FF6FF7151450246B8BF51467A
:104ED0004846FEF7FBFF00284BD049462046FEF728
:104EE00031FF2368FB60002B49D1654907F1280099
:104EF00009F0F0FAD7F810D0DBE60221584809F0A3
:104F0000B1F93AE75F49204609F048FA2146584688
:104F100009F08EFB8146204609F000FAB9F1000F36
:104F20007DD05949304609F039FA544B2046A3F850
:104F30000080FEF7F1FA2046FEF77AFD0A220146CC
:104F4000204609F085FA2146304609F035FB014636
:104F500007F1280009F0AEFA204609F0DFF93046E3
:104F600009F0DCF953E5494907F1280009F0B2FAE4
:104F70009FE6474907F1280009F0ACFABAE7A368B1
:104F8000DFF81891616879611A46D9F80030FB6141
:104F90000021FC69BD60C7F804801546884642F2CE
:104FA000107B09E0052007F057FDD9F800303B627F
:104FB0003B6A1B1B5B4503D808F02CFD0028F1D091
:104FC00008F0ECFC7A6930706B1C9A421BD27A694B
:104FD000AA4207D9541BFB68224658193146FEF7EE
:104FE000E5F82544D9F800307B6208F10108C24594
:104FF0007C6AD4D12749BD68D7F8048007F128001E
:1050000009F068FA76E70124E5E7002251464846B0
:10501000FEF75CFF5FE74846FEF74AFF3CE71E49A4
:10502000204609F0BBF92146584609F001FB8146AC
:10503000204609F073F9B9F1000F31D02946204616
:10504000FFF71AFB214607F1280009F03BFA20463A
:1050500009F064F9DBE400BFF4500100B450010032
:105060004C9EFF1FF850010000510100205001002C
:10507000085101001051010050500100DEAFFF1F28
:10508000A051010018510100205101007050010091
:10509000D0500100BC50010028510100ECAFFF1FAF
:1050A0000221584609F020FB3D2854D002215846E1
:1050B00009F01AFB3F2800F0E080DF49584609F06C
:1050C000A1FA8046002800F0888007F5847807F16F
:1050D000D80A07F1E00B03E009F050FA09F10109E1
:1050E000D649304609F05AF90A224946404609F0A5
:1050F00087F94146304609F05FFAD14909F064FA70
:105100004A467861A96B504601F064F90123029385
:105110009BE803008DE8030029469AE80C0020462E
:10512000FFF7E8F92146786909F046FA014607F1E8
:10513000280009F01FFA204609F0F0F8404609F06F
:10514000EDF8304609F0EAF8B9F1070FBD4907F16B
:105150002800C1D15BE40121584609F0C5FAA0F14D
:105160003006F3B2072B3FF652AC4946584609F0D9
:10517000BBFA432800F0A4824946584609F0B4FA25
:10518000632800F09D824946584609F0ADFA46284A
:1051900040F06E8203225946204607F15808D5F8A0
:1051A000389009F00BFB404622462946FFF780F86D
:1051B00007F1600393E803008DE803004846314699
:1051C00098E80C0001F03AF9204609F0A7F89E494A
:1051D000204609F0E3F8594678E49C49584609F01E
:1051E00011FA8246002800F0BA80C14607F1E80AA9
:1051F00007F5847807F1F00B03E009F0BFF909F136
:1052000001099349304609F0C9F80A224946404647
:1052100009F0F6F84146304609F0CEF9884909F020
:10522000D3F94A467861A96B504601F0D3F80023C0
:1052300002939BE803008DE8030029469AE80C00DE
:105240002046FFF757F92146786909F0B5F901467C
:1052500007F1280009F08EF9204609F05FF8404672
:1052600009F05CF8304609F059F8B9F1070F7549B3
:1052700007F12800C1D1FFF7CABB0121584609F048
:1052800033FAA0F130085FFA88F3072B3FF6BFAB83
:105290004946584609F028FA432800F03482494626
:1052A000584609F021FA632800F0B781494658466C
:1052B00009F01AFA462800F042814946584609F09A
:1052C00013FA662800F01C810021584609F00CFAF8
:1052D000572800F091805846002109F005FA7728F8
:1052E0007FF495AB5B49304609F058F80A224146F5
:1052F00007F5847009F084F807F58471304609F0E9
:105300005BF94F4909F060F907F1C8098246424646
:105310004846A96B01F076F80023029307F1D00309
:1053200093E803008DE803002946204699E80C0025
:10533000FFF7E0F82146504609F03EF9014607F133
:10534000280009F0B7F8204608F0E8FF07F5847058
:1053500008F0E4FF304608F0E1FFFFF758BB3E4994
:10536000584609F04FF9804600287BD007F584782D
:1053700007F1F80907F5807B3849304609F00EF847
:105380000A225146404609F03BF84146304609F0B2
:1053900013F92B4909F018F952467861A96B484670
:1053A00001F024F8012302939BE803008DE8030039
:1053B000294699E80C002046FFF79CF821467869B9
:1053C00009F0FAF8014607F1280009F0D3F8204661
:1053D00008F0A4FF404608F0A1FF304608F09EFF09
:1053E000BAF1070F174907F128003FF410AB09F095
:1053F000C5F80AF1010ABFE71949304608F0CEFFA7
:105400000A22414607F5847008F0FAFF07F5847117
:10541000304609F0D1F80A4909F0D6F807F1B80981
:10542000824642464846A96B00F0ECFF01230293F6
:1054300007F1C00374E700BF44510100345101007B
:1054400014510100B44E01003051010048510100D7
:1054500038510100405101004C5101003C51010004
:10546000D44A0100DF49584609F0CCF8002800F082
:105470008580C24607F1F80907F5847807F5887B2F
:10548000D949304608F08AFF0A225146484608F0BA
:10549000B7FF4946304609F08FF8D44909F094F82F
:1054A00052467861A96B404600F0A0FF00230293AA
:1054B0009BE803008DE80300294698E80C0020468D
:1054C000FFF718F82146786909F076F8014607F1E8
:1054D000280009F04FF8204608F020FF484608F061
:1054E0001DFF304608F01AFFBAF1070FC04907F157
:1054F00028003FF48CAA09F041F80AF1010ABFE73D
:10550000B949304608F04AFF0A22414607F584703F
:1055100008F076FF07F58471304609F04DF8B3497D
:1055200009F052F807F1A809824642464846A96B9D
:1055300000F05CFF0023029307F1B003F0E6AD49F1
:10554000304608F02BFF0A22414607F5847008F028
:1055500057FF07F58471304609F02EF8A34909F08A
:1055600033F807F19809824642464846A96B00F095
:105570003DFF0123029307F1A003D1E69E4958465F
:1055800009F040F8002800F0DD804FF0000A07F530
:10559000847807F1F80907F5907B9849404608F0B0
:1055A000FDFE0A225146484608F02AFF4946404679
:1055B00009F002F88D4909F007F852467861A96BA5
:1055C000304600F01FFF012302939BE803008DE8A3
:1055D0000300294696E80C002046FEF78BFF214683
:1055E000786908F0E9FF014607F1280008F0C2FFDA
:1055F000204608F093FE484608F090FE404608F02A
:105600008DFEBAF1070F7A4907F128003FF4FFA990
:1056100008F0B4FF0AF1010ABFE77949304608F003
:10562000BDFE0A22414607F5847008F0E9FE07F541
:105630008471304608F0C0FF6C4908F0C5FF07F1DF
:10564000880A834642465046A96B00F0C3FECDF857
:10565000089007F1900393E803008DE803002946C2
:1056600020469AE80C00FEF745FF2146584663E6BF
:105670004946584609F038F866283FF48BAD49464C
:10568000584609F031F8572835D15946204607F1D8
:1056900068080322D5F8389009F090F84046224671
:1056A0002946FEF705FE07F1700393E803008DE835
:1056B00003004846314698E80C0000F0CFFE83E531
:1056C0005946204607F148080322D5F8389009F0DA
:1056D00075F8404622462946FEF7EAFD07F15003D9
:1056E00093E803008DE803004846314698E80C0033
:1056F00000F094FE68E50021584608F0F5FF772891
:105700007FF485A9C1E73F49304608F047FE0A22E9
:10571000414607F5847008F073FE07F58471304642
:1057200008F04AFF314908F04FFF07F17809824637
:1057300042464846A96B00F04DFE0123029307F153
:105740008003EDE53049584608F05CFF80460028AC
:105750005ED04FF0000A07F5847807F1F80907F5E5
:10576000987B2A49404608F019FE0A2251464846CD
:1057700008F046FE4946404608F01EFF1B4908F067
:1057800023FF52467861A96B204600F03BFE0023C0
:1057900002939BE803008DE80300294694E80C007F
:1057A0003046FEF7A7FE3146786908F005FF01464E
:1057B00007F1280008F0DEFE304608F0AFFD48464D
:1057C00008F0ACFD404608F0A9FDBAF1070F084902
:1057D00007F128003FF41BA908F0D0FE0AF1010AE6
:1057E000BFE700BF505101008C5901001451010066
:1057F000B44E01003C51010054510100D44A010053
:10580000385101003451010058510100405101004C
:105810005849204608F0C2FD2146584608F008FFC6
:105820008146204608F07AFDB9F1000F12D0686B6E
:10583000C4F800802146C4F80480C4F80880C4F885
:105840000C8000F08FF94C4907F1280008F042FE67
:10585000FFF7DDB84949304608F0A0FD314658460B
:1058600008F022FFE0B1304608F058FD0222594608
:105870003046D5F8348008F0A1FF3246294620464C
:10588000FEF716FD2146404600F06CF9304608F060
:1058900045FD3B49204608F081FD5946FFF716B902
:1058A0003849204608F07AFD2146584608F0FCFEAB
:1058B0008046204608F032FD304608F02FFDB8F152
:1058C000000FD3D13049204608F068FD21465846E4
:1058D00008F0EAFE8046204608F020FDB8F1000FEF
:1058E00013D00221584608F0FFFEA0F13001CBB2E0
:1058F000072B3FF68CA8A86B03F066FA23492046D5
:1059000008F04CFD5946FFF7E1B82149584608F028
:1059100079FE68B11C49204608F040FDA86B00F0F4
:1059200057FD0A220146304608F06AFDFFF767BAC4
:105930001849584608F066FE044648B1A86B00F0C6
:10594000FFFC154907F1280008F0C4FDFFF75FB818
:105950005846124908F056FE00283FF458A8A86B94
:105960002C7003F003FA0E4907F1280008F0B2FD8D
:10597000FFF74DB8605101005C5101006451010016
:105980006C51010068510100745101003051010057
:10599000785101007C5101008451010090510100B7
:1059A0009851010038B5044608F034F800281BDD92
:1059B00007F0F4FF0228054617D0032808D00A2D67
:1059C00006D02434E9B22046BDE8384008F0E4BDF2
:1059D00004F1240520462946FEF7F4FF284609492C
:1059E000BDE8384008F076BD38BD2434204600219B
:1059F00008F07AFE2328E5D020460249BDE8384069
:105A000008F068BDF854010030B4002205250821D3
:105A1000C5640270026580F8642080F8652080F813
:105A20006620826641608160C26630BC704700BFFC
:105A300070B5A4B01F4906466846144608F0AEFC8F
:105A40001D4904A808F0AAFC1C4908A808F0A6FCF7
:105A50001B490CA808F0A2FC1A4910A808F09EFCEB
:105A6000194914A808F09AFC184918A808F096FCDF
:105A700017491CA808F092FC20A8164908F08EFCD3
:105A8000082C10DC0DEB0411304608F09BFC20AC18
:105A9000ADF110052046103C08F040FCAC42F9D1B5
:105AA000304624B070BD0A220821304608F0A8FC18
:105AB000EDE700BFC4510100C8510100D051010001
:105AC000D8510100E0510100E8510100F0510100FE
:105AD000F851010000520100F0B5044699B0006F82
